{
  "_format": "hh-sol-artifact-1",
  "contractName": "TomatoLP",
  "sourceName": "contracts/TomatoLP.sol",
  "abi": [
    {
      "inputs": [
        {
          "internalType": "address",
          "name": "treasuryAddress",
          "type": "address"
        }
      ],
      "stateMutability": "nonpayable",
      "type": "constructor"
    },
    {
      "anonymous": false,
      "inputs": [
        {
          "indexed": true,
          "internalType": "address",
          "name": "previousOwner",
          "type": "address"
        },
        {
          "indexed": true,
          "internalType": "address",
          "name": "newOwner",
          "type": "address"
        }
      ],
      "name": "OwnershipTransferred",
      "type": "event"
    },
    {
      "inputs": [],
      "name": "balanceTMTO",
      "outputs": [
        {
          "internalType": "uint256",
          "name": "",
          "type": "uint256"
        }
      ],
      "stateMutability": "view",
      "type": "function"
    },
    {
      "inputs": [],
      "name": "balanceWETH",
      "outputs": [
        {
          "internalType": "uint256",
          "name": "",
          "type": "uint256"
        }
      ],
      "stateMutability": "view",
      "type": "function"
    },
    {
      "inputs": [
        {
          "internalType": "uint256",
          "name": "amount0",
          "type": "uint256"
        },
        {
          "internalType": "uint256",
          "name": "amount1",
          "type": "uint256"
        }
      ],
      "name": "calcLPTokens",
      "outputs": [
        {
          "internalType": "uint256",
          "name": "",
          "type": "uint256"
        }
      ],
      "stateMutability": "view",
      "type": "function"
    },
    {
      "inputs": [
        {
          "internalType": "uint256",
          "name": "deposit",
          "type": "uint256"
        },
        {
          "internalType": "uint256",
          "name": "k",
          "type": "uint256"
        },
        {
          "internalType": "address",
          "name": "to",
          "type": "address"
        }
      ],
      "name": "calcSwap",
      "outputs": [
        {
          "internalType": "uint256",
          "name": "",
          "type": "uint256"
        }
      ],
      "stateMutability": "view",
      "type": "function"
    },
    {
      "inputs": [],
      "name": "getTotalSupply",
      "outputs": [
        {
          "internalType": "uint256",
          "name": "",
          "type": "uint256"
        }
      ],
      "stateMutability": "view",
      "type": "function"
    },
    {
      "inputs": [
        {
          "internalType": "uint256",
          "name": "amount0",
          "type": "uint256"
        },
        {
          "internalType": "uint256",
          "name": "amount1",
          "type": "uint256"
        }
      ],
      "name": "initialize",
      "outputs": [],
      "stateMutability": "nonpayable",
      "type": "function"
    },
    {
      "inputs": [
        {
          "internalType": "bool",
          "name": "state",
          "type": "bool"
        }
      ],
      "name": "lockContract",
      "outputs": [],
      "stateMutability": "nonpayable",
      "type": "function"
    },
    {
      "inputs": [],
      "name": "owner",
      "outputs": [
        {
          "internalType": "address",
          "name": "",
          "type": "address"
        }
      ],
      "stateMutability": "view",
      "type": "function"
    },
    {
      "inputs": [
        {
          "internalType": "uint256",
          "name": "amount0",
          "type": "uint256"
        },
        {
          "internalType": "uint256",
          "name": "amount1",
          "type": "uint256"
        }
      ],
      "name": "provideLiquidity",
      "outputs": [],
      "stateMutability": "nonpayable",
      "type": "function"
    },
    {
      "inputs": [],
      "name": "renounceOwnership",
      "outputs": [],
      "stateMutability": "nonpayable",
      "type": "function"
    },
    {
      "inputs": [
        {
          "internalType": "address payable",
          "name": "LPTokenAdress",
          "type": "address"
        }
      ],
      "name": "setLPTokenAddress",
      "outputs": [],
      "stateMutability": "nonpayable",
      "type": "function"
    },
    {
      "inputs": [
        {
          "internalType": "address",
          "name": "TMTOAddress",
          "type": "address"
        }
      ],
      "name": "setTMTOAddress",
      "outputs": [],
      "stateMutability": "nonpayable",
      "type": "function"
    },
    {
      "inputs": [
        {
          "internalType": "uint256",
          "name": "amount0",
          "type": "uint256"
        },
        {
          "internalType": "uint256",
          "name": "amount1",
          "type": "uint256"
        },
        {
          "internalType": "address",
          "name": "to",
          "type": "address"
        }
      ],
      "name": "swap",
      "outputs": [],
      "stateMutability": "nonpayable",
      "type": "function"
    },
    {
      "inputs": [
        {
          "internalType": "address",
          "name": "newOwner",
          "type": "address"
        }
      ],
      "name": "transferOwnership",
      "outputs": [],
      "stateMutability": "nonpayable",
      "type": "function"
    },
    {
      "inputs": [
        {
          "internalType": "uint256",
          "name": "amount",
          "type": "uint256"
        }
      ],
      "name": "withdrawLiquidity",
      "outputs": [],
      "stateMutability": "nonpayable",
      "type": "function"
    },
    {
      "inputs": [
        {
          "internalType": "uint256",
          "name": "amount",
          "type": "uint256"
        }
      ],
      "name": "wrapEther",
      "outputs": [],
      "stateMutability": "nonpayable",
      "type": "function"
    },
    {
      "stateMutability": "payable",
      "type": "receive"
    }
  ],
  "bytecode": "0x60806040523480156200001157600080fd5b506040516200259b3803806200259b833981810160405281019062000037919062000182565b620000576200004b6200009f60201b60201c565b620000a760201b60201c565b80600360006101000a81548173ffffffffffffffffffffffffffffffffffffffff021916908373ffffffffffffffffffffffffffffffffffffffff16021790555050620001fc565b600033905090565b60008060009054906101000a900473ffffffffffffffffffffffffffffffffffffffff169050816000806101000a81548173ffffffffffffffffffffffffffffffffffffffff021916908373ffffffffffffffffffffffffffffffffffffffff1602179055508173ffffffffffffffffffffffffffffffffffffffff168173ffffffffffffffffffffffffffffffffffffffff167f8be0079c531659141344cd1fd0a4f28419497f9722a3daafe3b4186f6b6457e060405160405180910390a35050565b6000815190506200017c81620001e2565b92915050565b6000602082840312156200019557600080fd5b6000620001a5848285016200016b565b91505092915050565b6000620001bb82620001c2565b9050919050565b600073ffffffffffffffffffffffffffffffffffffffff82169050919050565b620001ed81620001ae565b8114620001f957600080fd5b50565b61238f806200020c6000396000f3fe6080604052600436106100f75760003560e01c80638da5cb5b1161008a578063ef590ca511610059578063ef590ca5146102f9578063f2fde38b14610322578063f42ebbe01461034b578063f5879a4114610374576100fe565b80638da5cb5b1461023d578063bcce9f3e14610268578063c4e41b22146102a5578063e4a30116146102d0576100fe565b806371d94be2116100c657806371d94be2146101955780637a16af7f146101c05780638827c1cd146101e9578063897cceee14610214576100fe565b80630a861f2a1461010357806332f1d03c1461012c5780636d9a640a14610155578063715018a61461017e576100fe565b366100fe57005b600080fd5b34801561010f57600080fd5b5061012a60048036038101906101259190611ac4565b6103b1565b005b34801561013857600080fd5b50610153600480360381019061014e9190611a20565b61060e565b005b34801561016157600080fd5b5061017c60048036038101906101779190611b52565b6106ce565b005b34801561018a57600080fd5b50610193610aa9565b005b3480156101a157600080fd5b506101aa610b31565b6040516101b79190611f10565b60405180910390f35b3480156101cc57600080fd5b506101e760048036038101906101e29190611b16565b610b37565b005b3480156101f557600080fd5b506101fe610f23565b60405161020b9190611f10565b60405180910390f35b34801561022057600080fd5b5061023b60048036038101906102369190611a72565b610f29565b005b34801561024957600080fd5b50610252610fc2565b60405161025f9190611d55565b60405180910390f35b34801561027457600080fd5b5061028f600480360381019061028a9190611b16565b610feb565b60405161029c9190611f10565b60405180910390f35b3480156102b157600080fd5b506102ba611090565b6040516102c79190611f10565b60405180910390f35b3480156102dc57600080fd5b506102f760048036038101906102f29190611b16565b611137565b005b34801561030557600080fd5b50610320600480360381019061031b9190611ac4565b611278565b005b34801561032e57600080fd5b5061034960048036038101906103449190611a20565b6113c7565b005b34801561035757600080fd5b50610372600480360381019061036d9190611a49565b6114bf565b005b34801561038057600080fd5b5061039b60048036038101906103969190611b52565b61157f565b6040516103a89190611f10565b60405180910390f35b60001515600660019054906101000a900460ff161515146103d157600080fd5b6103d9611706565b60006103e3611090565b9050600081836004546103f69190611fce565b6104009190611f9d565b9050600082846005546104139190611fce565b61041d9190611f9d565b9050600160009054906101000a900473ffffffffffffffffffffffffffffffffffffffff1673ffffffffffffffffffffffffffffffffffffffff16639dc29fac33866040518363ffffffff1660e01b815260040161047c929190611da7565b600060405180830381600087803b15801561049657600080fd5b505af11580156104aa573d6000803e3d6000fd5b50505050600260009054906101000a900473ffffffffffffffffffffffffffffffffffffffff1673ffffffffffffffffffffffffffffffffffffffff1663a9059cbb33846040518363ffffffff1660e01b815260040161050b929190611da7565b602060405180830381600087803b15801561052557600080fd5b505af1158015610539573d6000803e3d6000fd5b505050506040513d601f19601f8201168201806040525081019061055d9190611a9b565b5073c02aaa39b223fe8d0a0e5c4f27ead9083c756cc273ffffffffffffffffffffffffffffffffffffffff1663a9059cbb33836040518363ffffffff1660e01b81526004016105ad929190611da7565b602060405180830381600087803b1580156105c757600080fd5b505af11580156105db573d6000803e3d6000fd5b505050506040513d601f19601f820116820180604052508101906105ff9190611a9b565b50610608611706565b50505050565b61061661185c565b73ffffffffffffffffffffffffffffffffffffffff16610634610fc2565b73ffffffffffffffffffffffffffffffffffffffff161461068a576040517f08c379a000000000000000000000000000000000000000000000000000000000815260040161068190611eb0565b60405180910390fd5b80600260006101000a81548173ffffffffffffffffffffffffffffffffffffffff021916908373ffffffffffffffffffffffffffffffffffffffff16021790555050565b60001515600660019054906101000a900460ff161515146106ee57600080fd5b60008311806106fd5750600082115b61073c576040517f08c379a000000000000000000000000000000000000000000000000000000000815260040161073390611e10565b60405180910390fd5b610744611706565b60006005546004546107569190611fce565b90506004548410801561076a575060055483105b6107a9576040517f08c379a00000000000000000000000000000000000000000000000000000000081526004016107a090611ef0565b60405180910390fd5b73c02aaa39b223fe8d0a0e5c4f27ead9083c756cc273ffffffffffffffffffffffffffffffffffffffff168273ffffffffffffffffffffffffffffffffffffffff16141580156108475750600260009054906101000a900473ffffffffffffffffffffffffffffffffffffffff1673ffffffffffffffffffffffffffffffffffffffff168273ffffffffffffffffffffffffffffffffffffffff1614155b610886576040517f08c379a000000000000000000000000000000000000000000000000000000000815260040161087d90611e90565b60405180910390fd5b60008085111561094a57849050600260009054906101000a900473ffffffffffffffffffffffffffffffffffffffff1673ffffffffffffffffffffffffffffffffffffffff166323b872dd3330886040518463ffffffff1660e01b81526004016108f293929190611d70565b602060405180830381600087803b15801561090c57600080fd5b505af1158015610920573d6000803e3d6000fd5b505050506040513d601f19601f820116820180604052508101906109449190611a9b565b506109fc565b60008411156109fb5783905073c02aaa39b223fe8d0a0e5c4f27ead9083c756cc273ffffffffffffffffffffffffffffffffffffffff166323b872dd3330876040518463ffffffff1660e01b81526004016109a793929190611d70565b602060405180830381600087803b1580156109c157600080fd5b505af11580156109d5573d6000803e3d6000fd5b505050506040513d601f19601f820116820180604052508101906109f99190611a9b565b505b5b610a04611706565b6000610a1182848661157f565b90508373ffffffffffffffffffffffffffffffffffffffff1663a9059cbb33836040518363ffffffff1660e01b8152600401610a4e929190611da7565b602060405180830381600087803b158015610a6857600080fd5b505af1158015610a7c573d6000803e3d6000fd5b505050506040513d601f19601f82011682018060405250810190610aa09190611a9b565b50505050505050565b610ab161185c565b73ffffffffffffffffffffffffffffffffffffffff16610acf610fc2565b73ffffffffffffffffffffffffffffffffffffffff1614610b25576040517f08c379a0000000000000000000000000000000000000000000000000000000008152600401610b1c90611eb0565b60405180910390fd5b610b2f6000611864565b565b60045481565b60001515600660019054906101000a900460ff16151514610b5757600080fd5b81600260009054906101000a900473ffffffffffffffffffffffffffffffffffffffff1673ffffffffffffffffffffffffffffffffffffffff166370a08231336040518263ffffffff1660e01b8152600401610bb39190611d55565b60206040518083038186803b158015610bcb57600080fd5b505afa158015610bdf573d6000803e3d6000fd5b505050506040513d601f19601f82011682018060405250810190610c039190611aed565b1015610c44576040517f08c379a0000000000000000000000000000000000000000000000000000000008152600401610c3b90611e30565b60405180910390fd5b8073c02aaa39b223fe8d0a0e5c4f27ead9083c756cc273ffffffffffffffffffffffffffffffffffffffff166370a08231336040518263ffffffff1660e01b8152600401610c929190611d55565b60206040518083038186803b158015610caa57600080fd5b505afa158015610cbe573d6000803e3d6000fd5b505050506040513d601f19601f82011682018060405250810190610ce29190611aed565b1015610d23576040517f08c379a0000000000000000000000000000000000000000000000000000000008152600401610d1a90611e70565b60405180910390fd5b600260009054906101000a900473ffffffffffffffffffffffffffffffffffffffff1673ffffffffffffffffffffffffffffffffffffffff166323b872dd3330856040518463ffffffff1660e01b8152600401610d8293929190611d70565b602060405180830381600087803b158015610d9c57600080fd5b505af1158015610db0573d6000803e3d6000fd5b505050506040513d601f19601f82011682018060405250810190610dd49190611a9b565b5073c02aaa39b223fe8d0a0e5c4f27ead9083c756cc273ffffffffffffffffffffffffffffffffffffffff166323b872dd3330846040518463ffffffff1660e01b8152600401610e2693929190611d70565b602060405180830381600087803b158015610e4057600080fd5b505af1158015610e54573d6000803e3d6000fd5b505050506040513d601f19601f82011682018060405250810190610e789190611a9b565b50610e81611706565b6000610e8d8383610feb565b9050600160009054906101000a900473ffffffffffffffffffffffffffffffffffffffff1673ffffffffffffffffffffffffffffffffffffffff166340c10f1933836040518363ffffffff1660e01b8152600401610eec929190611da7565b600060405180830381600087803b158015610f0657600080fd5b505af1158015610f1a573d6000803e3d6000fd5b50505050505050565b60055481565b610f3161185c565b73ffffffffffffffffffffffffffffffffffffffff16610f4f610fc2565b73ffffffffffffffffffffffffffffffffffffffff1614610fa5576040517f08c379a0000000000000000000000000000000000000000000000000000000008152600401610f9c90611eb0565b60405180910390fd5b80600660016101000a81548160ff02191690831515021790555050565b60008060009054906101000a900473ffffffffffffffffffffffffffffffffffffffff16905090565b60008060001515600660009054906101000a900460ff16151514156110255761101e83856110199190611fce565b611928565b9050611086565b6000600454611032611090565b8661103d9190611fce565b6110479190611f9d565b90506000600554611056611090565b866110619190611fce565b61106b9190611f9d565b905080821161107d5781925082611082565b809250825b5050505b8091505092915050565b6000600160009054906101000a900473ffffffffffffffffffffffffffffffffffffffff1673ffffffffffffffffffffffffffffffffffffffff166318160ddd6040518163ffffffff1660e01b815260040160206040518083038186803b1580156110fa57600080fd5b505afa15801561110e573d6000803e3d6000fd5b505050506040513d601f19601f820116820180604052508101906111329190611aed565b905090565b61113f61185c565b73ffffffffffffffffffffffffffffffffffffffff1661115d610fc2565b73ffffffffffffffffffffffffffffffffffffffff16146111b3576040517f08c379a00000000000000000000000000000000000000000000000000000000081526004016111aa90611eb0565b60405180910390fd5b6111bb611706565b60006111c78383610feb565b90506001600660006101000a81548160ff021916908315150217905550600160009054906101000a900473ffffffffffffffffffffffffffffffffffffffff1673ffffffffffffffffffffffffffffffffffffffff166340c10f1930836040518363ffffffff1660e01b8152600401611241929190611da7565b600060405180830381600087803b15801561125b57600080fd5b505af115801561126f573d6000803e3d6000fd5b50505050505050565b61128061185c565b73ffffffffffffffffffffffffffffffffffffffff1661129e610fc2565b73ffffffffffffffffffffffffffffffffffffffff16146112f4576040517f08c379a00000000000000000000000000000000000000000000000000000000081526004016112eb90611eb0565b60405180910390fd5b600073c02aaa39b223fe8d0a0e5c4f27ead9083c756cc273ffffffffffffffffffffffffffffffffffffffff168260405161132e90611d40565b60006040518083038185875af1925050503d806000811461136b576040519150601f19603f3d011682016040523d82523d6000602084013e611370565b606091505b5050905060011515811515146113bb576040517f08c379a00000000000000000000000000000000000000000000000000000000081526004016113b290611e50565b60405180910390fd5b6113c3611706565b5050565b6113cf61185c565b73ffffffffffffffffffffffffffffffffffffffff166113ed610fc2565b73ffffffffffffffffffffffffffffffffffffffff1614611443576040517f08c379a000000000000000000000000000000000000000000000000000000000815260040161143a90611eb0565b60405180910390fd5b600073ffffffffffffffffffffffffffffffffffffffff168173ffffffffffffffffffffffffffffffffffffffff1614156114b3576040517f08c379a00000000000000000000000000000000000000000000000000000000081526004016114aa90611df0565b60405180910390fd5b6114bc81611864565b50565b6114c761185c565b73ffffffffffffffffffffffffffffffffffffffff166114e5610fc2565b73ffffffffffffffffffffffffffffffffffffffff161461153b576040517f08c379a000000000000000000000000000000000000000000000000000000000815260040161153290611eb0565b60405180910390fd5b80600160006101000a81548173ffffffffffffffffffffffffffffffffffffffff021916908373ffffffffffffffffffffffffffffffffffffffff16021790555050565b60008060648561158f9190611f9d565b8561159a9190612028565b945073c02aaa39b223fe8d0a0e5c4f27ead9083c756cc273ffffffffffffffffffffffffffffffffffffffff168373ffffffffffffffffffffffffffffffffffffffff1614156115f957836004546115f29190611fce565b90506116a0565b600260009054906101000a900473ffffffffffffffffffffffffffffffffffffffff1673ffffffffffffffffffffffffffffffffffffffff168373ffffffffffffffffffffffffffffffffffffffff161415611664578360055461165d9190611fce565b905061169f565b6040517f08c379a000000000000000000000000000000000000000000000000000000000815260040161169690611dd0565b60405180910390fd5b5b806064600a876116b09190611fce565b6116ba9190611f9d565b11156116fb576040517f08c379a00000000000000000000000000000000000000000000000000000000081526004016116f290611ed0565b60405180910390fd5b809150509392505050565b600260009054906101000a900473ffffffffffffffffffffffffffffffffffffffff1673ffffffffffffffffffffffffffffffffffffffff166370a08231306040518263ffffffff1660e01b81526004016117619190611d55565b60206040518083038186803b15801561177957600080fd5b505afa15801561178d573d6000803e3d6000fd5b505050506040513d601f19601f820116820180604052508101906117b19190611aed565b60048190555073c02aaa39b223fe8d0a0e5c4f27ead9083c756cc273ffffffffffffffffffffffffffffffffffffffff166370a08231306040518263ffffffff1660e01b81526004016118049190611d55565b60206040518083038186803b15801561181c57600080fd5b505afa158015611830573d6000803e3d6000fd5b505050506040513d601f19601f820116820180604052508101906118549190611aed565b600581905550565b600033905090565b60008060009054906101000a900473ffffffffffffffffffffffffffffffffffffffff169050816000806101000a81548173ffffffffffffffffffffffffffffffffffffffff021916908373ffffffffffffffffffffffffffffffffffffffff1602179055508173ffffffffffffffffffffffffffffffffffffffff168173ffffffffffffffffffffffffffffffffffffffff167f8be0079c531659141344cd1fd0a4f28419497f9722a3daafe3b4186f6b6457e060405160405180910390a35050565b6000600382111561198f57819050600060016002846119479190611f9d565b6119519190611f47565b90505b8181101561198957809150600281828561196e9190611f9d565b6119789190611f47565b6119829190611f9d565b9050611954565b5061199d565b6000821461199c57600190505b5b919050565b6000813590506119b1816122fd565b92915050565b6000813590506119c681612314565b92915050565b6000813590506119db8161232b565b92915050565b6000815190506119f08161232b565b92915050565b600081359050611a0581612342565b92915050565b600081519050611a1a81612342565b92915050565b600060208284031215611a3257600080fd5b6000611a40848285016119a2565b91505092915050565b600060208284031215611a5b57600080fd5b6000611a69848285016119b7565b91505092915050565b600060208284031215611a8457600080fd5b6000611a92848285016119cc565b91505092915050565b600060208284031215611aad57600080fd5b6000611abb848285016119e1565b91505092915050565b600060208284031215611ad657600080fd5b6000611ae4848285016119f6565b91505092915050565b600060208284031215611aff57600080fd5b6000611b0d84828501611a0b565b91505092915050565b60008060408385031215611b2957600080fd5b6000611b37858286016119f6565b9250506020611b48858286016119f6565b9150509250929050565b600080600060608486031215611b6757600080fd5b6000611b75868287016119f6565b9350506020611b86868287016119f6565b9250506040611b97868287016119a2565b9150509250925092565b611baa8161205c565b82525050565b6000611bbd602383611f36565b9150611bc882612114565b604082019050919050565b6000611be0602683611f36565b9150611beb82612163565b604082019050919050565b6000611c03601383611f36565b9150611c0e826121b2565b602082019050919050565b6000611c26600f83611f36565b9150611c31826121db565b602082019050919050565b6000611c49601683611f36565b9150611c5482612204565b602082019050919050565b6000611c6c600f83611f36565b9150611c778261222d565b602082019050919050565b6000611c8f601283611f36565b9150611c9a82612256565b602082019050919050565b6000611cb2602083611f36565b9150611cbd8261227f565b602082019050919050565b6000611cd5600083611f2b565b9150611ce0826122a8565b600082019050919050565b6000611cf8601e83611f36565b9150611d03826122ab565b602082019050919050565b6000611d1b601683611f36565b9150611d26826122d4565b602082019050919050565b611d3a816120ac565b82525050565b6000611d4b82611cc8565b9150819050919050565b6000602082019050611d6a6000830184611ba1565b92915050565b6000606082019050611d856000830186611ba1565b611d926020830185611ba1565b611d9f6040830184611d31565b949350505050565b6000604082019050611dbc6000830185611ba1565b611dc96020830184611d31565b9392505050565b60006020820190508181036000830152611de981611bb0565b9050919050565b60006020820190508181036000830152611e0981611bd3565b9050919050565b60006020820190508181036000830152611e2981611bf6565b9050919050565b60006020820190508181036000830152611e4981611c19565b9050919050565b60006020820190508181036000830152611e6981611c3c565b9050919050565b60006020820190508181036000830152611e8981611c5f565b9050919050565b60006020820190508181036000830152611ea981611c82565b9050919050565b60006020820190508181036000830152611ec981611ca5565b9050919050565b60006020820190508181036000830152611ee981611ceb565b9050919050565b60006020820190508181036000830152611f0981611d0e565b9050919050565b6000602082019050611f256000830184611d31565b92915050565b600081905092915050565b600082825260208201905092915050565b6000611f52826120ac565b9150611f5d836120ac565b9250827fffffffffffffffffffffffffffffffffffffffffffffffffffffffffffffffff03821115611f9257611f916120b6565b5b828201905092915050565b6000611fa8826120ac565b9150611fb3836120ac565b925082611fc357611fc26120e5565b5b828204905092915050565b6000611fd9826120ac565b9150611fe4836120ac565b9250817fffffffffffffffffffffffffffffffffffffffffffffffffffffffffffffffff048311821515161561201d5761201c6120b6565b5b828202905092915050565b6000612033826120ac565b915061203e836120ac565b925082821015612051576120506120b6565b5b828203905092915050565b60006120678261208c565b9050919050565b60006120798261208c565b9050919050565b60008115159050919050565b600073ffffffffffffffffffffffffffffffffffffffff82169050919050565b6000819050919050565b7f4e487b7100000000000000000000000000000000000000000000000000000000600052601160045260246000fd5b7f4e487b7100000000000000000000000000000000000000000000000000000000600052601260045260246000fd5b7f746f2061646472657373206e6565647320746f2062652057455448206f72205460008201527f4d544f0000000000000000000000000000000000000000000000000000000000602082015250565b7f4f776e61626c653a206e6577206f776e657220697320746865207a65726f206160008201527f6464726573730000000000000000000000000000000000000000000000000000602082015250565b7f696e73756666696369656e7420616d6f756e7400000000000000000000000000600082015250565b7f6e6f7420656e6f75676820544d544f0000000000000000000000000000000000600082015250565b7f7765746820636f6e76657273696f6e206661696c656400000000000000000000600082015250565b7f6e6f7420656e6f75676820574554480000000000000000000000000000000000600082015250565b7f696e76616c696420746f20616464726573730000000000000000000000000000600082015250565b7f4f776e61626c653a2063616c6c6572206973206e6f7420746865206f776e6572600082015250565b50565b7f6d6f7265207468616e2031302520736c697070616765206f6e20737761700000600082015250565b7f696e73756666696369656e74206c697175696469747900000000000000000000600082015250565b6123068161205c565b811461231157600080fd5b50565b61231d8161206e565b811461232857600080fd5b50565b61233481612080565b811461233f57600080fd5b50565b61234b816120ac565b811461235657600080fd5b5056fea26469706673582212202053fe69167f950f274902e9b831e2fbfa51efe31ccfef5a9d8d5601dac843b164736f6c63430008040033",
  "linkReferences": {},
  "deployedLinkReferences": {}
}