{
  "_format": "hh-sol-artifact-1",
  "contractName": "TomatoLP",
  "sourceName": "contracts/TomatoLP.sol",
  "abi": [
    {
      "inputs": [
        {
          "internalType": "address",
          "name": "treasuryAddress",
          "type": "address"
        }
      ],
      "stateMutability": "nonpayable",
      "type": "constructor"
    },
    {
      "anonymous": false,
      "inputs": [
        {
          "indexed": true,
          "internalType": "address",
          "name": "previousOwner",
          "type": "address"
        },
        {
          "indexed": true,
          "internalType": "address",
          "name": "newOwner",
          "type": "address"
        }
      ],
      "name": "OwnershipTransferred",
      "type": "event"
    },
    {
      "inputs": [],
      "name": "balanceTMTO",
      "outputs": [
        {
          "internalType": "uint256",
          "name": "",
          "type": "uint256"
        }
      ],
      "stateMutability": "view",
      "type": "function"
    },
    {
      "inputs": [],
      "name": "balanceWETH",
      "outputs": [
        {
          "internalType": "uint256",
          "name": "",
          "type": "uint256"
        }
      ],
      "stateMutability": "view",
      "type": "function"
    },
    {
      "inputs": [
        {
          "internalType": "uint256",
          "name": "amount0",
          "type": "uint256"
        },
        {
          "internalType": "uint256",
          "name": "amount1",
          "type": "uint256"
        }
      ],
      "name": "calcLPTokens",
      "outputs": [
        {
          "internalType": "uint256",
          "name": "",
          "type": "uint256"
        }
      ],
      "stateMutability": "view",
      "type": "function"
    },
    {
      "inputs": [
        {
          "internalType": "uint256",
          "name": "deposit",
          "type": "uint256"
        },
        {
          "internalType": "address",
          "name": "to",
          "type": "address"
        }
      ],
      "name": "calcSwap",
      "outputs": [
        {
          "internalType": "uint256",
          "name": "",
          "type": "uint256"
        }
      ],
      "stateMutability": "view",
      "type": "function"
    },
    {
      "inputs": [],
      "name": "getTotalSupply",
      "outputs": [
        {
          "internalType": "uint256",
          "name": "",
          "type": "uint256"
        }
      ],
      "stateMutability": "view",
      "type": "function"
    },
    {
      "inputs": [
        {
          "internalType": "uint256",
          "name": "amount0",
          "type": "uint256"
        },
        {
          "internalType": "uint256",
          "name": "amount1",
          "type": "uint256"
        }
      ],
      "name": "initialize",
      "outputs": [],
      "stateMutability": "nonpayable",
      "type": "function"
    },
    {
      "inputs": [
        {
          "internalType": "bool",
          "name": "state",
          "type": "bool"
        }
      ],
      "name": "lockContract",
      "outputs": [],
      "stateMutability": "nonpayable",
      "type": "function"
    },
    {
      "inputs": [],
      "name": "owner",
      "outputs": [
        {
          "internalType": "address",
          "name": "",
          "type": "address"
        }
      ],
      "stateMutability": "view",
      "type": "function"
    },
    {
      "inputs": [
        {
          "internalType": "uint256",
          "name": "amount0",
          "type": "uint256"
        },
        {
          "internalType": "uint256",
          "name": "amount1",
          "type": "uint256"
        }
      ],
      "name": "provideLiquidity",
      "outputs": [],
      "stateMutability": "nonpayable",
      "type": "function"
    },
    {
      "inputs": [],
      "name": "renounceOwnership",
      "outputs": [],
      "stateMutability": "nonpayable",
      "type": "function"
    },
    {
      "inputs": [
        {
          "internalType": "address payable",
          "name": "LPTokenAdress",
          "type": "address"
        }
      ],
      "name": "setLPTokenAddress",
      "outputs": [],
      "stateMutability": "nonpayable",
      "type": "function"
    },
    {
      "inputs": [
        {
          "internalType": "address",
          "name": "TMTOAddress",
          "type": "address"
        }
      ],
      "name": "setTMTOAddress",
      "outputs": [],
      "stateMutability": "nonpayable",
      "type": "function"
    },
    {
      "inputs": [
        {
          "internalType": "uint256",
          "name": "amount0",
          "type": "uint256"
        },
        {
          "internalType": "uint256",
          "name": "amount1",
          "type": "uint256"
        },
        {
          "internalType": "address",
          "name": "to",
          "type": "address"
        }
      ],
      "name": "swap",
      "outputs": [],
      "stateMutability": "nonpayable",
      "type": "function"
    },
    {
      "inputs": [
        {
          "internalType": "address",
          "name": "newOwner",
          "type": "address"
        }
      ],
      "name": "transferOwnership",
      "outputs": [],
      "stateMutability": "nonpayable",
      "type": "function"
    },
    {
      "inputs": [
        {
          "internalType": "uint256",
          "name": "amount",
          "type": "uint256"
        }
      ],
      "name": "withdrawLiquidity",
      "outputs": [],
      "stateMutability": "nonpayable",
      "type": "function"
    },
    {
      "inputs": [
        {
          "internalType": "uint256",
          "name": "amount",
          "type": "uint256"
        }
      ],
      "name": "wrapEther",
      "outputs": [],
      "stateMutability": "nonpayable",
      "type": "function"
    },
    {
      "stateMutability": "payable",
      "type": "receive"
    }
  ],
  "bytecode": "0x60806040523480156200001157600080fd5b50604051620025ba380380620025ba833981810160405281019062000037919062000182565b620000576200004b6200009f60201b60201c565b620000a760201b60201c565b80600360006101000a81548173ffffffffffffffffffffffffffffffffffffffff021916908373ffffffffffffffffffffffffffffffffffffffff16021790555050620001fc565b600033905090565b60008060009054906101000a900473ffffffffffffffffffffffffffffffffffffffff169050816000806101000a81548173ffffffffffffffffffffffffffffffffffffffff021916908373ffffffffffffffffffffffffffffffffffffffff1602179055508173ffffffffffffffffffffffffffffffffffffffff168173ffffffffffffffffffffffffffffffffffffffff167f8be0079c531659141344cd1fd0a4f28419497f9722a3daafe3b4186f6b6457e060405160405180910390a35050565b6000815190506200017c81620001e2565b92915050565b6000602082840312156200019557600080fd5b6000620001a5848285016200016b565b91505092915050565b6000620001bb82620001c2565b9050919050565b600073ffffffffffffffffffffffffffffffffffffffff82169050919050565b620001ed81620001ae565b8114620001f957600080fd5b50565b6123ae806200020c6000396000f3fe6080604052600436106100f75760003560e01c80638da5cb5b1161008a578063e670c11311610059578063e670c113146102f9578063ef590ca514610336578063f2fde38b1461035f578063f42ebbe014610388576100fe565b80638da5cb5b1461023d578063bcce9f3e14610268578063c4e41b22146102a5578063e4a30116146102d0576100fe565b806371d94be2116100c657806371d94be2146101955780637a16af7f146101c05780638827c1cd146101e9578063897cceee14610214576100fe565b80630a861f2a1461010357806332f1d03c1461012c5780636d9a640a14610155578063715018a61461017e576100fe565b366100fe57005b600080fd5b34801561010f57600080fd5b5061012a60048036038101906101259190611aa7565b6103b1565b005b34801561013857600080fd5b50610153600480360381019061014e9190611a03565b61060f565b005b34801561016157600080fd5b5061017c60048036038101906101779190611b71565b6106cf565b005b34801561018a57600080fd5b50610193610a9c565b005b3480156101a157600080fd5b506101aa610b24565b6040516101b79190611f2f565b60405180910390f35b3480156101cc57600080fd5b506101e760048036038101906101e29190611b35565b610b2a565b005b3480156101f557600080fd5b506101fe610f64565b60405161020b9190611f2f565b60405180910390f35b34801561022057600080fd5b5061023b60048036038101906102369190611a55565b610f6a565b005b34801561024957600080fd5b50610252611003565b60405161025f9190611d74565b60405180910390f35b34801561027457600080fd5b5061028f600480360381019061028a9190611b35565b61102c565b60405161029c9190611f2f565b60405180910390f35b3480156102b157600080fd5b506102ba6110d1565b6040516102c79190611f2f565b60405180910390f35b3480156102dc57600080fd5b506102f760048036038101906102f29190611b35565b611178565b005b34801561030557600080fd5b50610320600480360381019061031b9190611af9565b6112b9565b60405161032d9190611f2f565b60405180910390f35b34801561034257600080fd5b5061035d60048036038101906103589190611aa7565b6113e2565b005b34801561036b57600080fd5b5061038660048036038101906103819190611a03565b611531565b005b34801561039457600080fd5b506103af60048036038101906103aa9190611a2c565b611629565b005b60001515600660019054906101000a900460ff161515146103d157600080fd5b6103d96116e9565b60006004546103e66110d1565b836103f19190611fbc565b6103fb9190611fed565b9050600060055461040a6110d1565b846104159190611fbc565b61041f9190611fed565b9050600160009054906101000a900473ffffffffffffffffffffffffffffffffffffffff1673ffffffffffffffffffffffffffffffffffffffff16639dc29fac33856040518363ffffffff1660e01b815260040161047e929190611dc6565b600060405180830381600087803b15801561049857600080fd5b505af11580156104ac573d6000803e3d6000fd5b50505050600260009054906101000a900473ffffffffffffffffffffffffffffffffffffffff1673ffffffffffffffffffffffffffffffffffffffff1663a9059cbb33846040518363ffffffff1660e01b815260040161050d929190611dc6565b602060405180830381600087803b15801561052757600080fd5b505af115801561053b573d6000803e3d6000fd5b505050506040513d601f19601f8201168201806040525081019061055f9190611a7e565b5073c02aaa39b223fe8d0a0e5c4f27ead9083c756cc273ffffffffffffffffffffffffffffffffffffffff1663a9059cbb33836040518363ffffffff1660e01b81526004016105af929190611dc6565b602060405180830381600087803b1580156105c957600080fd5b505af11580156105dd573d6000803e3d6000fd5b505050506040513d601f19601f820116820180604052508101906106019190611a7e565b5061060a6116e9565b505050565b61061761183f565b73ffffffffffffffffffffffffffffffffffffffff16610635611003565b73ffffffffffffffffffffffffffffffffffffffff161461068b576040517f08c379a000000000000000000000000000000000000000000000000000000000815260040161068290611eef565b60405180910390fd5b80600260006101000a81548173ffffffffffffffffffffffffffffffffffffffff021916908373ffffffffffffffffffffffffffffffffffffffff16021790555050565b60001515600660019054906101000a900460ff161515146106ef57600080fd5b60008311806106fe5750600082115b61073d576040517f08c379a000000000000000000000000000000000000000000000000000000000815260040161073490611e2f565b60405180910390fd5b6107456116e9565b60045483108015610757575060055482105b610796576040517f08c379a000000000000000000000000000000000000000000000000000000000815260040161078d90611f0f565b60405180910390fd5b73c02aaa39b223fe8d0a0e5c4f27ead9083c756cc273ffffffffffffffffffffffffffffffffffffffff168173ffffffffffffffffffffffffffffffffffffffff16141580156108345750600260009054906101000a900473ffffffffffffffffffffffffffffffffffffffff1673ffffffffffffffffffffffffffffffffffffffff168173ffffffffffffffffffffffffffffffffffffffff1614155b610873576040517f08c379a000000000000000000000000000000000000000000000000000000000815260040161086a90611eaf565b60405180910390fd5b60008084111561093757839050600260009054906101000a900473ffffffffffffffffffffffffffffffffffffffff1673ffffffffffffffffffffffffffffffffffffffff166323b872dd3330876040518463ffffffff1660e01b81526004016108df93929190611d8f565b602060405180830381600087803b1580156108f957600080fd5b505af115801561090d573d6000803e3d6000fd5b505050506040513d601f19601f820116820180604052508101906109319190611a7e565b506109e9565b60008311156109e85782905073c02aaa39b223fe8d0a0e5c4f27ead9083c756cc273ffffffffffffffffffffffffffffffffffffffff166323b872dd3330866040518463ffffffff1660e01b815260040161099493929190611d8f565b602060405180830381600087803b1580156109ae57600080fd5b505af11580156109c2573d6000803e3d6000fd5b505050506040513d601f19601f820116820180604052508101906109e69190611a7e565b505b5b6109f16116e9565b60006109fd82846112b9565b90508273ffffffffffffffffffffffffffffffffffffffff1663a9059cbb33836040518363ffffffff1660e01b8152600401610a3a929190611dc6565b602060405180830381600087803b158015610a5457600080fd5b505af1158015610a68573d6000803e3d6000fd5b505050506040513d601f19601f82011682018060405250810190610a8c9190611a7e565b50610a956116e9565b5050505050565b610aa461183f565b73ffffffffffffffffffffffffffffffffffffffff16610ac2611003565b73ffffffffffffffffffffffffffffffffffffffff1614610b18576040517f08c379a0000000000000000000000000000000000000000000000000000000008152600401610b0f90611eef565b60405180910390fd5b610b226000611847565b565b60045481565b60001515600660019054906101000a900460ff16151514610b4a57600080fd5b81600260009054906101000a900473ffffffffffffffffffffffffffffffffffffffff1673ffffffffffffffffffffffffffffffffffffffff166370a08231336040518263ffffffff1660e01b8152600401610ba69190611d74565b60206040518083038186803b158015610bbe57600080fd5b505afa158015610bd2573d6000803e3d6000fd5b505050506040513d601f19601f82011682018060405250810190610bf69190611ad0565b1015610c37576040517f08c379a0000000000000000000000000000000000000000000000000000000008152600401610c2e90611e4f565b60405180910390fd5b8073c02aaa39b223fe8d0a0e5c4f27ead9083c756cc273ffffffffffffffffffffffffffffffffffffffff166370a08231336040518263ffffffff1660e01b8152600401610c859190611d74565b60206040518083038186803b158015610c9d57600080fd5b505afa158015610cb1573d6000803e3d6000fd5b505050506040513d601f19601f82011682018060405250810190610cd59190611ad0565b1015610d16576040517f08c379a0000000000000000000000000000000000000000000000000000000008152600401610d0d90611e8f565b60405180910390fd5b81600582610d249190611fed565b14610d64576040517f08c379a0000000000000000000000000000000000000000000000000000000008152600401610d5b90611ecf565b60405180910390fd5b600260009054906101000a900473ffffffffffffffffffffffffffffffffffffffff1673ffffffffffffffffffffffffffffffffffffffff166323b872dd3330856040518463ffffffff1660e01b8152600401610dc393929190611d8f565b602060405180830381600087803b158015610ddd57600080fd5b505af1158015610df1573d6000803e3d6000fd5b505050506040513d601f19601f82011682018060405250810190610e159190611a7e565b5073c02aaa39b223fe8d0a0e5c4f27ead9083c756cc273ffffffffffffffffffffffffffffffffffffffff166323b872dd3330846040518463ffffffff1660e01b8152600401610e6793929190611d8f565b602060405180830381600087803b158015610e8157600080fd5b505af1158015610e95573d6000803e3d6000fd5b505050506040513d601f19601f82011682018060405250810190610eb99190611a7e565b50610ec26116e9565b6000610ece838361102c565b9050600160009054906101000a900473ffffffffffffffffffffffffffffffffffffffff1673ffffffffffffffffffffffffffffffffffffffff166340c10f1933836040518363ffffffff1660e01b8152600401610f2d929190611dc6565b600060405180830381600087803b158015610f4757600080fd5b505af1158015610f5b573d6000803e3d6000fd5b50505050505050565b60055481565b610f7261183f565b73ffffffffffffffffffffffffffffffffffffffff16610f90611003565b73ffffffffffffffffffffffffffffffffffffffff1614610fe6576040517f08c379a0000000000000000000000000000000000000000000000000000000008152600401610fdd90611eef565b60405180910390fd5b80600660016101000a81548160ff02191690831515021790555050565b60008060009054906101000a900473ffffffffffffffffffffffffffffffffffffffff16905090565b60008060001515600660009054906101000a900460ff16151514156110665761105f838561105a9190611fed565b61190b565b90506110c7565b60006004546110736110d1565b8661107e9190611fed565b6110889190611fbc565b905060006005546110976110d1565b866110a29190611fed565b6110ac9190611fbc565b90508082116110be57819250826110c3565b809250825b5050505b8091505092915050565b6000600160009054906101000a900473ffffffffffffffffffffffffffffffffffffffff1673ffffffffffffffffffffffffffffffffffffffff166318160ddd6040518163ffffffff1660e01b815260040160206040518083038186803b15801561113b57600080fd5b505afa15801561114f573d6000803e3d6000fd5b505050506040513d601f19601f820116820180604052508101906111739190611ad0565b905090565b61118061183f565b73ffffffffffffffffffffffffffffffffffffffff1661119e611003565b73ffffffffffffffffffffffffffffffffffffffff16146111f4576040517f08c379a00000000000000000000000000000000000000000000000000000000081526004016111eb90611eef565b60405180910390fd5b6111fc6116e9565b6000611208838361102c565b90506001600660006101000a81548160ff021916908315150217905550600160009054906101000a900473ffffffffffffffffffffffffffffffffffffffff1673ffffffffffffffffffffffffffffffffffffffff166340c10f1930836040518363ffffffff1660e01b8152600401611282929190611dc6565b600060405180830381600087803b15801561129c57600080fd5b505af11580156112b0573d6000803e3d6000fd5b50505050505050565b6000806064846112c99190611fbc565b846112d49190612047565b935073c02aaa39b223fe8d0a0e5c4f27ead9083c756cc273ffffffffffffffffffffffffffffffffffffffff168373ffffffffffffffffffffffffffffffffffffffff1614156113325760058461132b9190611fbc565b90506113d8565b600260009054906101000a900473ffffffffffffffffffffffffffffffffffffffff1673ffffffffffffffffffffffffffffffffffffffff168373ffffffffffffffffffffffffffffffffffffffff16141561139c576005846113959190611fed565b90506113d7565b6040517f08c379a00000000000000000000000000000000000000000000000000000000081526004016113ce90611def565b60405180910390fd5b5b8091505092915050565b6113ea61183f565b73ffffffffffffffffffffffffffffffffffffffff16611408611003565b73ffffffffffffffffffffffffffffffffffffffff161461145e576040517f08c379a000000000000000000000000000000000000000000000000000000000815260040161145590611eef565b60405180910390fd5b600073c02aaa39b223fe8d0a0e5c4f27ead9083c756cc273ffffffffffffffffffffffffffffffffffffffff168260405161149890611d5f565b60006040518083038185875af1925050503d80600081146114d5576040519150601f19603f3d011682016040523d82523d6000602084013e6114da565b606091505b505090506001151581151514611525576040517f08c379a000000000000000000000000000000000000000000000000000000000815260040161151c90611e6f565b60405180910390fd5b61152d6116e9565b5050565b61153961183f565b73ffffffffffffffffffffffffffffffffffffffff16611557611003565b73ffffffffffffffffffffffffffffffffffffffff16146115ad576040517f08c379a00000000000000000000000000000000000000000000000000000000081526004016115a490611eef565b60405180910390fd5b600073ffffffffffffffffffffffffffffffffffffffff168173ffffffffffffffffffffffffffffffffffffffff16141561161d576040517f08c379a000000000000000000000000000000000000000000000000000000000815260040161161490611e0f565b60405180910390fd5b61162681611847565b50565b61163161183f565b73ffffffffffffffffffffffffffffffffffffffff1661164f611003565b73ffffffffffffffffffffffffffffffffffffffff16146116a5576040517f08c379a000000000000000000000000000000000000000000000000000000000815260040161169c90611eef565b60405180910390fd5b80600160006101000a81548173ffffffffffffffffffffffffffffffffffffffff021916908373ffffffffffffffffffffffffffffffffffffffff16021790555050565b600260009054906101000a900473ffffffffffffffffffffffffffffffffffffffff1673ffffffffffffffffffffffffffffffffffffffff166370a08231306040518263ffffffff1660e01b81526004016117449190611d74565b60206040518083038186803b15801561175c57600080fd5b505afa158015611770573d6000803e3d6000fd5b505050506040513d601f19601f820116820180604052508101906117949190611ad0565b60048190555073c02aaa39b223fe8d0a0e5c4f27ead9083c756cc273ffffffffffffffffffffffffffffffffffffffff166370a08231306040518263ffffffff1660e01b81526004016117e79190611d74565b60206040518083038186803b1580156117ff57600080fd5b505afa158015611813573d6000803e3d6000fd5b505050506040513d601f19601f820116820180604052508101906118379190611ad0565b600581905550565b600033905090565b60008060009054906101000a900473ffffffffffffffffffffffffffffffffffffffff169050816000806101000a81548173ffffffffffffffffffffffffffffffffffffffff021916908373ffffffffffffffffffffffffffffffffffffffff1602179055508173ffffffffffffffffffffffffffffffffffffffff168173ffffffffffffffffffffffffffffffffffffffff167f8be0079c531659141344cd1fd0a4f28419497f9722a3daafe3b4186f6b6457e060405160405180910390a35050565b60006003821115611972578190506000600160028461192a9190611fbc565b6119349190611f66565b90505b8181101561196c5780915060028182856119519190611fbc565b61195b9190611f66565b6119659190611fbc565b9050611937565b50611980565b6000821461197f57600190505b5b919050565b6000813590506119948161231c565b92915050565b6000813590506119a981612333565b92915050565b6000813590506119be8161234a565b92915050565b6000815190506119d38161234a565b92915050565b6000813590506119e881612361565b92915050565b6000815190506119fd81612361565b92915050565b600060208284031215611a1557600080fd5b6000611a2384828501611985565b91505092915050565b600060208284031215611a3e57600080fd5b6000611a4c8482850161199a565b91505092915050565b600060208284031215611a6757600080fd5b6000611a75848285016119af565b91505092915050565b600060208284031215611a9057600080fd5b6000611a9e848285016119c4565b91505092915050565b600060208284031215611ab957600080fd5b6000611ac7848285016119d9565b91505092915050565b600060208284031215611ae257600080fd5b6000611af0848285016119ee565b91505092915050565b60008060408385031215611b0c57600080fd5b6000611b1a858286016119d9565b9250506020611b2b85828601611985565b9150509250929050565b60008060408385031215611b4857600080fd5b6000611b56858286016119d9565b9250506020611b67858286016119d9565b9150509250929050565b600080600060608486031215611b8657600080fd5b6000611b94868287016119d9565b9350506020611ba5868287016119d9565b9250506040611bb686828701611985565b9150509250925092565b611bc98161207b565b82525050565b6000611bdc602383611f55565b9150611be782612133565b604082019050919050565b6000611bff602683611f55565b9150611c0a82612182565b604082019050919050565b6000611c22601383611f55565b9150611c2d826121d1565b602082019050919050565b6000611c45600f83611f55565b9150611c50826121fa565b602082019050919050565b6000611c68601683611f55565b9150611c7382612223565b602082019050919050565b6000611c8b600f83611f55565b9150611c968261224c565b602082019050919050565b6000611cae601283611f55565b9150611cb982612275565b602082019050919050565b6000611cd1601283611f55565b9150611cdc8261229e565b602082019050919050565b6000611cf4602083611f55565b9150611cff826122c7565b602082019050919050565b6000611d17600083611f4a565b9150611d22826122f0565b600082019050919050565b6000611d3a601683611f55565b9150611d45826122f3565b602082019050919050565b611d59816120cb565b82525050565b6000611d6a82611d0a565b9150819050919050565b6000602082019050611d896000830184611bc0565b92915050565b6000606082019050611da46000830186611bc0565b611db16020830185611bc0565b611dbe6040830184611d50565b949350505050565b6000604082019050611ddb6000830185611bc0565b611de86020830184611d50565b9392505050565b60006020820190508181036000830152611e0881611bcf565b9050919050565b60006020820190508181036000830152611e2881611bf2565b9050919050565b60006020820190508181036000830152611e4881611c15565b9050919050565b60006020820190508181036000830152611e6881611c38565b9050919050565b60006020820190508181036000830152611e8881611c5b565b9050919050565b60006020820190508181036000830152611ea881611c7e565b9050919050565b60006020820190508181036000830152611ec881611ca1565b9050919050565b60006020820190508181036000830152611ee881611cc4565b9050919050565b60006020820190508181036000830152611f0881611ce7565b9050919050565b60006020820190508181036000830152611f2881611d2d565b9050919050565b6000602082019050611f446000830184611d50565b92915050565b600081905092915050565b600082825260208201905092915050565b6000611f71826120cb565b9150611f7c836120cb565b9250827fffffffffffffffffffffffffffffffffffffffffffffffffffffffffffffffff03821115611fb157611fb06120d5565b5b828201905092915050565b6000611fc7826120cb565b9150611fd2836120cb565b925082611fe257611fe1612104565b5b828204905092915050565b6000611ff8826120cb565b9150612003836120cb565b9250817fffffffffffffffffffffffffffffffffffffffffffffffffffffffffffffffff048311821515161561203c5761203b6120d5565b5b828202905092915050565b6000612052826120cb565b915061205d836120cb565b9250828210156120705761206f6120d5565b5b828203905092915050565b6000612086826120ab565b9050919050565b6000612098826120ab565b9050919050565b60008115159050919050565b600073ffffffffffffffffffffffffffffffffffffffff82169050919050565b6000819050919050565b7f4e487b7100000000000000000000000000000000000000000000000000000000600052601160045260246000fd5b7f4e487b7100000000000000000000000000000000000000000000000000000000600052601260045260246000fd5b7f746f2061646472657373206e6565647320746f2062652057455448206f72205460008201527f4d544f0000000000000000000000000000000000000000000000000000000000602082015250565b7f4f776e61626c653a206e6577206f776e657220697320746865207a65726f206160008201527f6464726573730000000000000000000000000000000000000000000000000000602082015250565b7f696e73756666696369656e7420616d6f756e7400000000000000000000000000600082015250565b7f6e6f7420656e6f75676820544d544f0000000000000000000000000000000000600082015250565b7f7765746820636f6e76657273696f6e206661696c656400000000000000000000600082015250565b7f6e6f7420656e6f75676820574554480000000000000000000000000000000000600082015250565b7f696e76616c696420746f20616464726573730000000000000000000000000000600082015250565b7f6e6f7420616e64206576656e20726174696f0000000000000000000000000000600082015250565b7f4f776e61626c653a2063616c6c6572206973206e6f7420746865206f776e6572600082015250565b50565b7f696e73756666696369656e74206c697175696469747900000000000000000000600082015250565b6123258161207b565b811461233057600080fd5b50565b61233c8161208d565b811461234757600080fd5b50565b6123538161209f565b811461235e57600080fd5b50565b61236a816120cb565b811461237557600080fd5b5056fea2646970667358221220285dfd2f535cd218e9cd362f1b07703a71ecef4d7364cb24368d95824f43e33264736f6c63430008040033",
  "linkReferences": {},
  "deployedLinkReferences": {}
}