{
  "_format": "hh-sol-artifact-1",
  "contractName": "TomatoLP",
  "sourceName": "contracts/TomatoLP.sol",
  "abi": [
    {
      "anonymous": false,
      "inputs": [
        {
          "indexed": true,
          "internalType": "address",
          "name": "previousOwner",
          "type": "address"
        },
        {
          "indexed": true,
          "internalType": "address",
          "name": "newOwner",
          "type": "address"
        }
      ],
      "name": "OwnershipTransferred",
      "type": "event"
    },
    {
      "inputs": [],
      "name": "balanceTMTO",
      "outputs": [
        {
          "internalType": "uint256",
          "name": "",
          "type": "uint256"
        }
      ],
      "stateMutability": "view",
      "type": "function"
    },
    {
      "inputs": [],
      "name": "balanceWETH",
      "outputs": [
        {
          "internalType": "uint256",
          "name": "",
          "type": "uint256"
        }
      ],
      "stateMutability": "view",
      "type": "function"
    },
    {
      "inputs": [
        {
          "internalType": "uint256",
          "name": "amount0",
          "type": "uint256"
        },
        {
          "internalType": "uint256",
          "name": "amount1",
          "type": "uint256"
        }
      ],
      "name": "calcLPTokens",
      "outputs": [
        {
          "internalType": "uint256",
          "name": "",
          "type": "uint256"
        }
      ],
      "stateMutability": "view",
      "type": "function"
    },
    {
      "inputs": [
        {
          "internalType": "uint256",
          "name": "deposit",
          "type": "uint256"
        },
        {
          "internalType": "address",
          "name": "to",
          "type": "address"
        }
      ],
      "name": "calcSwap",
      "outputs": [
        {
          "internalType": "uint256",
          "name": "",
          "type": "uint256"
        }
      ],
      "stateMutability": "view",
      "type": "function"
    },
    {
      "inputs": [],
      "name": "getTotalSupply",
      "outputs": [
        {
          "internalType": "uint256",
          "name": "",
          "type": "uint256"
        }
      ],
      "stateMutability": "view",
      "type": "function"
    },
    {
      "inputs": [],
      "name": "owner",
      "outputs": [
        {
          "internalType": "address",
          "name": "",
          "type": "address"
        }
      ],
      "stateMutability": "view",
      "type": "function"
    },
    {
      "inputs": [
        {
          "internalType": "uint256",
          "name": "amount0",
          "type": "uint256"
        },
        {
          "internalType": "uint256",
          "name": "amount1",
          "type": "uint256"
        }
      ],
      "name": "provideLiquidity",
      "outputs": [],
      "stateMutability": "nonpayable",
      "type": "function"
    },
    {
      "inputs": [],
      "name": "renounceOwnership",
      "outputs": [],
      "stateMutability": "nonpayable",
      "type": "function"
    },
    {
      "inputs": [
        {
          "internalType": "address payable",
          "name": "LPTokenAdress",
          "type": "address"
        }
      ],
      "name": "setLPTokenAddress",
      "outputs": [],
      "stateMutability": "nonpayable",
      "type": "function"
    },
    {
      "inputs": [
        {
          "internalType": "address",
          "name": "TMTOAddress",
          "type": "address"
        }
      ],
      "name": "setTMTOAddress",
      "outputs": [],
      "stateMutability": "nonpayable",
      "type": "function"
    },
    {
      "inputs": [
        {
          "internalType": "uint256",
          "name": "amount0",
          "type": "uint256"
        },
        {
          "internalType": "uint256",
          "name": "amount1",
          "type": "uint256"
        },
        {
          "internalType": "address",
          "name": "to",
          "type": "address"
        }
      ],
      "name": "swap",
      "outputs": [],
      "stateMutability": "nonpayable",
      "type": "function"
    },
    {
      "inputs": [
        {
          "internalType": "address",
          "name": "newOwner",
          "type": "address"
        }
      ],
      "name": "transferOwnership",
      "outputs": [],
      "stateMutability": "nonpayable",
      "type": "function"
    },
    {
      "inputs": [
        {
          "internalType": "uint256",
          "name": "amount",
          "type": "uint256"
        }
      ],
      "name": "withdrawLiquidity",
      "outputs": [],
      "stateMutability": "nonpayable",
      "type": "function"
    },
    {
      "inputs": [
        {
          "internalType": "uint256",
          "name": "amount",
          "type": "uint256"
        }
      ],
      "name": "wrapEther",
      "outputs": [],
      "stateMutability": "nonpayable",
      "type": "function"
    }
  ],
  "bytecode": "0x608060405234801561001057600080fd5b5061002d61002261003260201b60201c565b61003a60201b60201c565b6100fe565b600033905090565b60008060009054906101000a900473ffffffffffffffffffffffffffffffffffffffff169050816000806101000a81548173ffffffffffffffffffffffffffffffffffffffff021916908373ffffffffffffffffffffffffffffffffffffffff1602179055508173ffffffffffffffffffffffffffffffffffffffff168173ffffffffffffffffffffffffffffffffffffffff167f8be0079c531659141344cd1fd0a4f28419497f9722a3daafe3b4186f6b6457e060405160405180910390a35050565b611f608061010d6000396000f3fe608060405234801561001057600080fd5b50600436106100ea5760003560e01c80638da5cb5b1161008c578063e670c11311610066578063e670c11314610211578063ef590ca514610241578063f2fde38b1461025d578063f42ebbe014610279576100ea565b80638da5cb5b146101a5578063bcce9f3e146101c3578063c4e41b22146101f3576100ea565b8063715018a6116100c8578063715018a61461014357806371d94be21461014d5780637a16af7f1461016b5780638827c1cd14610187576100ea565b80630a861f2a146100ef57806332f1d03c1461010b5780636d9a640a14610127575b600080fd5b610109600480360381019061010491906116c5565b610295565b005b6101256004803603810190610120919061164a565b6104d3565b005b610141600480360381019061013c919061178f565b610593565b005b61014b610940565b005b6101556109c8565b6040516101629190611b0a565b60405180910390f35b61018560048036038101906101809190611753565b6109ce565b005b61018f610d9a565b60405161019c9190611b0a565b60405180910390f35b6101ad610da0565b6040516101ba919061196f565b60405180910390f35b6101dd60048036038101906101d89190611753565b610dc9565b6040516101ea9190611b0a565b60405180910390f35b6101fb610e6e565b6040516102089190611b0a565b60405180910390f35b61022b60048036038101906102269190611717565b610f15565b6040516102389190611b0a565b60405180910390f35b61025b600480360381019061025691906116c5565b61103e565b005b6102776004803603810190610272919061164a565b61118d565b005b610293600480360381019061028e9190611673565b611285565b005b61029d611345565b60006003546102aa610e6e565b836102b59190611b97565b6102bf9190611bc8565b905060006004546102ce610e6e565b846102d99190611b97565b6102e39190611bc8565b9050600160009054906101000a900473ffffffffffffffffffffffffffffffffffffffff1673ffffffffffffffffffffffffffffffffffffffff16639dc29fac33856040518363ffffffff1660e01b81526004016103429291906119c1565b600060405180830381600087803b15801561035c57600080fd5b505af1158015610370573d6000803e3d6000fd5b50505050600260009054906101000a900473ffffffffffffffffffffffffffffffffffffffff1673ffffffffffffffffffffffffffffffffffffffff1663a9059cbb33846040518363ffffffff1660e01b81526004016103d19291906119c1565b602060405180830381600087803b1580156103eb57600080fd5b505af11580156103ff573d6000803e3d6000fd5b505050506040513d601f19601f82011682018060405250810190610423919061169c565b5073c02aaa39b223fe8d0a0e5c4f27ead9083c756cc273ffffffffffffffffffffffffffffffffffffffff1663a9059cbb33836040518363ffffffff1660e01b81526004016104739291906119c1565b602060405180830381600087803b15801561048d57600080fd5b505af11580156104a1573d6000803e3d6000fd5b505050506040513d601f19601f820116820180604052508101906104c5919061169c565b506104ce611345565b505050565b6104db61149b565b73ffffffffffffffffffffffffffffffffffffffff166104f9610da0565b73ffffffffffffffffffffffffffffffffffffffff161461054f576040517f08c379a000000000000000000000000000000000000000000000000000000000815260040161054690611aca565b60405180910390fd5b80600260006101000a81548173ffffffffffffffffffffffffffffffffffffffff021916908373ffffffffffffffffffffffffffffffffffffffff16021790555050565b60008311806105a25750600082115b6105e1576040517f08c379a00000000000000000000000000000000000000000000000000000000081526004016105d890611a2a565b60405180910390fd5b6105e9611345565b600354831080156105fb575060045482105b61063a576040517f08c379a000000000000000000000000000000000000000000000000000000000815260040161063190611aea565b60405180910390fd5b73c02aaa39b223fe8d0a0e5c4f27ead9083c756cc273ffffffffffffffffffffffffffffffffffffffff168173ffffffffffffffffffffffffffffffffffffffff16141580156106d85750600260009054906101000a900473ffffffffffffffffffffffffffffffffffffffff1673ffffffffffffffffffffffffffffffffffffffff168173ffffffffffffffffffffffffffffffffffffffff1614155b610717576040517f08c379a000000000000000000000000000000000000000000000000000000000815260040161070e90611aaa565b60405180910390fd5b6000808411156107db57839050600260009054906101000a900473ffffffffffffffffffffffffffffffffffffffff1673ffffffffffffffffffffffffffffffffffffffff166323b872dd3330876040518463ffffffff1660e01b81526004016107839392919061198a565b602060405180830381600087803b15801561079d57600080fd5b505af11580156107b1573d6000803e3d6000fd5b505050506040513d601f19601f820116820180604052508101906107d5919061169c565b5061088d565b600083111561088c5782905073c02aaa39b223fe8d0a0e5c4f27ead9083c756cc273ffffffffffffffffffffffffffffffffffffffff166323b872dd3330866040518463ffffffff1660e01b81526004016108389392919061198a565b602060405180830381600087803b15801561085257600080fd5b505af1158015610866573d6000803e3d6000fd5b505050506040513d601f19601f8201168201806040525081019061088a919061169c565b505b5b610895611345565b60006108a18284610f15565b90508273ffffffffffffffffffffffffffffffffffffffff1663a9059cbb33836040518363ffffffff1660e01b81526004016108de9291906119c1565b602060405180830381600087803b1580156108f857600080fd5b505af115801561090c573d6000803e3d6000fd5b505050506040513d601f19601f82011682018060405250810190610930919061169c565b50610939611345565b5050505050565b61094861149b565b73ffffffffffffffffffffffffffffffffffffffff16610966610da0565b73ffffffffffffffffffffffffffffffffffffffff16146109bc576040517f08c379a00000000000000000000000000000000000000000000000000000000081526004016109b390611aca565b60405180910390fd5b6109c660006114a3565b565b60035481565b81600260009054906101000a900473ffffffffffffffffffffffffffffffffffffffff1673ffffffffffffffffffffffffffffffffffffffff166370a08231336040518263ffffffff1660e01b8152600401610a2a919061196f565b60206040518083038186803b158015610a4257600080fd5b505afa158015610a56573d6000803e3d6000fd5b505050506040513d601f19601f82011682018060405250810190610a7a91906116ee565b1015610abb576040517f08c379a0000000000000000000000000000000000000000000000000000000008152600401610ab290611a4a565b60405180910390fd5b8073c02aaa39b223fe8d0a0e5c4f27ead9083c756cc273ffffffffffffffffffffffffffffffffffffffff166370a08231336040518263ffffffff1660e01b8152600401610b09919061196f565b60206040518083038186803b158015610b2157600080fd5b505afa158015610b35573d6000803e3d6000fd5b505050506040513d601f19601f82011682018060405250810190610b5991906116ee565b1015610b9a576040517f08c379a0000000000000000000000000000000000000000000000000000000008152600401610b9190611a8a565b60405180910390fd5b600260009054906101000a900473ffffffffffffffffffffffffffffffffffffffff1673ffffffffffffffffffffffffffffffffffffffff166323b872dd3330856040518463ffffffff1660e01b8152600401610bf99392919061198a565b602060405180830381600087803b158015610c1357600080fd5b505af1158015610c27573d6000803e3d6000fd5b505050506040513d601f19601f82011682018060405250810190610c4b919061169c565b5073c02aaa39b223fe8d0a0e5c4f27ead9083c756cc273ffffffffffffffffffffffffffffffffffffffff166323b872dd3330846040518463ffffffff1660e01b8152600401610c9d9392919061198a565b602060405180830381600087803b158015610cb757600080fd5b505af1158015610ccb573d6000803e3d6000fd5b505050506040513d601f19601f82011682018060405250810190610cef919061169c565b50610cf8611345565b6000610d048383610dc9565b9050600160009054906101000a900473ffffffffffffffffffffffffffffffffffffffff1673ffffffffffffffffffffffffffffffffffffffff166340c10f1933836040518363ffffffff1660e01b8152600401610d639291906119c1565b600060405180830381600087803b158015610d7d57600080fd5b505af1158015610d91573d6000803e3d6000fd5b50505050505050565b60045481565b60008060009054906101000a900473ffffffffffffffffffffffffffffffffffffffff16905090565b60008060001515600560009054906101000a900460ff1615151415610e0357610dfc8385610df79190611bc8565b611567565b9050610e64565b6000600354610e10610e6e565b86610e1b9190611bc8565b610e259190611b97565b90506000600454610e34610e6e565b86610e3f9190611bc8565b610e499190611b97565b9050808211610e5b5781925082610e60565b809250825b5050505b8091505092915050565b6000600160009054906101000a900473ffffffffffffffffffffffffffffffffffffffff1673ffffffffffffffffffffffffffffffffffffffff166318160ddd6040518163ffffffff1660e01b815260040160206040518083038186803b158015610ed857600080fd5b505afa158015610eec573d6000803e3d6000fd5b505050506040513d601f19601f82011682018060405250810190610f1091906116ee565b905090565b600080606484610f259190611b97565b84610f309190611c22565b935073c02aaa39b223fe8d0a0e5c4f27ead9083c756cc273ffffffffffffffffffffffffffffffffffffffff168373ffffffffffffffffffffffffffffffffffffffff161415610f8e57600584610f879190611b97565b9050611034565b600260009054906101000a900473ffffffffffffffffffffffffffffffffffffffff1673ffffffffffffffffffffffffffffffffffffffff168373ffffffffffffffffffffffffffffffffffffffff161415610ff857600584610ff19190611bc8565b9050611033565b6040517f08c379a000000000000000000000000000000000000000000000000000000000815260040161102a906119ea565b60405180910390fd5b5b8091505092915050565b61104661149b565b73ffffffffffffffffffffffffffffffffffffffff16611064610da0565b73ffffffffffffffffffffffffffffffffffffffff16146110ba576040517f08c379a00000000000000000000000000000000000000000000000000000000081526004016110b190611aca565b60405180910390fd5b600073c02aaa39b223fe8d0a0e5c4f27ead9083c756cc273ffffffffffffffffffffffffffffffffffffffff16826040516110f49061195a565b60006040518083038185875af1925050503d8060008114611131576040519150601f19603f3d011682016040523d82523d6000602084013e611136565b606091505b505090506001151581151514611181576040517f08c379a000000000000000000000000000000000000000000000000000000000815260040161117890611a6a565b60405180910390fd5b611189611345565b5050565b61119561149b565b73ffffffffffffffffffffffffffffffffffffffff166111b3610da0565b73ffffffffffffffffffffffffffffffffffffffff1614611209576040517f08c379a000000000000000000000000000000000000000000000000000000000815260040161120090611aca565b60405180910390fd5b600073ffffffffffffffffffffffffffffffffffffffff168173ffffffffffffffffffffffffffffffffffffffff161415611279576040517f08c379a000000000000000000000000000000000000000000000000000000000815260040161127090611a0a565b60405180910390fd5b611282816114a3565b50565b61128d61149b565b73ffffffffffffffffffffffffffffffffffffffff166112ab610da0565b73ffffffffffffffffffffffffffffffffffffffff1614611301576040517f08c379a00000000000000000000000000000000000000000000000000000000081526004016112f890611aca565b60405180910390fd5b80600160006101000a81548173ffffffffffffffffffffffffffffffffffffffff021916908373ffffffffffffffffffffffffffffffffffffffff16021790555050565b600260009054906101000a900473ffffffffffffffffffffffffffffffffffffffff1673ffffffffffffffffffffffffffffffffffffffff166370a08231306040518263ffffffff1660e01b81526004016113a0919061196f565b60206040518083038186803b1580156113b857600080fd5b505afa1580156113cc573d6000803e3d6000fd5b505050506040513d601f19601f820116820180604052508101906113f091906116ee565b60038190555073c02aaa39b223fe8d0a0e5c4f27ead9083c756cc273ffffffffffffffffffffffffffffffffffffffff166370a08231306040518263ffffffff1660e01b8152600401611443919061196f565b60206040518083038186803b15801561145b57600080fd5b505afa15801561146f573d6000803e3d6000fd5b505050506040513d601f19601f8201168201806040525081019061149391906116ee565b600481905550565b600033905090565b60008060009054906101000a900473ffffffffffffffffffffffffffffffffffffffff169050816000806101000a81548173ffffffffffffffffffffffffffffffffffffffff021916908373ffffffffffffffffffffffffffffffffffffffff1602179055508173ffffffffffffffffffffffffffffffffffffffff168173ffffffffffffffffffffffffffffffffffffffff167f8be0079c531659141344cd1fd0a4f28419497f9722a3daafe3b4186f6b6457e060405160405180910390a35050565b600060038211156115ce57819050600060016002846115869190611b97565b6115909190611b41565b90505b818110156115c85780915060028182856115ad9190611b97565b6115b79190611b41565b6115c19190611b97565b9050611593565b506115dc565b600082146115db57600190505b5b919050565b6000813590506115f081611ece565b92915050565b60008135905061160581611ee5565b92915050565b60008151905061161a81611efc565b92915050565b60008135905061162f81611f13565b92915050565b60008151905061164481611f13565b92915050565b60006020828403121561165c57600080fd5b600061166a848285016115e1565b91505092915050565b60006020828403121561168557600080fd5b6000611693848285016115f6565b91505092915050565b6000602082840312156116ae57600080fd5b60006116bc8482850161160b565b91505092915050565b6000602082840312156116d757600080fd5b60006116e584828501611620565b91505092915050565b60006020828403121561170057600080fd5b600061170e84828501611635565b91505092915050565b6000806040838503121561172a57600080fd5b600061173885828601611620565b9250506020611749858286016115e1565b9150509250929050565b6000806040838503121561176657600080fd5b600061177485828601611620565b925050602061178585828601611620565b9150509250929050565b6000806000606084860312156117a457600080fd5b60006117b286828701611620565b93505060206117c386828701611620565b92505060406117d4868287016115e1565b9150509250925092565b6117e781611c56565b82525050565b60006117fa602383611b30565b915061180582611d0e565b604082019050919050565b600061181d602683611b30565b915061182882611d5d565b604082019050919050565b6000611840601383611b30565b915061184b82611dac565b602082019050919050565b6000611863600f83611b30565b915061186e82611dd5565b602082019050919050565b6000611886601683611b30565b915061189182611dfe565b602082019050919050565b60006118a9600f83611b30565b91506118b482611e27565b602082019050919050565b60006118cc601283611b30565b91506118d782611e50565b602082019050919050565b60006118ef602083611b30565b91506118fa82611e79565b602082019050919050565b6000611912600083611b25565b915061191d82611ea2565b600082019050919050565b6000611935601683611b30565b915061194082611ea5565b602082019050919050565b61195481611ca6565b82525050565b600061196582611905565b9150819050919050565b600060208201905061198460008301846117de565b92915050565b600060608201905061199f60008301866117de565b6119ac60208301856117de565b6119b9604083018461194b565b949350505050565b60006040820190506119d660008301856117de565b6119e3602083018461194b565b9392505050565b60006020820190508181036000830152611a03816117ed565b9050919050565b60006020820190508181036000830152611a2381611810565b9050919050565b60006020820190508181036000830152611a4381611833565b9050919050565b60006020820190508181036000830152611a6381611856565b9050919050565b60006020820190508181036000830152611a8381611879565b9050919050565b60006020820190508181036000830152611aa38161189c565b9050919050565b60006020820190508181036000830152611ac3816118bf565b9050919050565b60006020820190508181036000830152611ae3816118e2565b9050919050565b60006020820190508181036000830152611b0381611928565b9050919050565b6000602082019050611b1f600083018461194b565b92915050565b600081905092915050565b600082825260208201905092915050565b6000611b4c82611ca6565b9150611b5783611ca6565b9250827fffffffffffffffffffffffffffffffffffffffffffffffffffffffffffffffff03821115611b8c57611b8b611cb0565b5b828201905092915050565b6000611ba282611ca6565b9150611bad83611ca6565b925082611bbd57611bbc611cdf565b5b828204905092915050565b6000611bd382611ca6565b9150611bde83611ca6565b9250817fffffffffffffffffffffffffffffffffffffffffffffffffffffffffffffffff0483118215151615611c1757611c16611cb0565b5b828202905092915050565b6000611c2d82611ca6565b9150611c3883611ca6565b925082821015611c4b57611c4a611cb0565b5b828203905092915050565b6000611c6182611c86565b9050919050565b6000611c7382611c86565b9050919050565b60008115159050919050565b600073ffffffffffffffffffffffffffffffffffffffff82169050919050565b6000819050919050565b7f4e487b7100000000000000000000000000000000000000000000000000000000600052601160045260246000fd5b7f4e487b7100000000000000000000000000000000000000000000000000000000600052601260045260246000fd5b7f746f2061646472657373206e6565647320746f2062652057455448206f72205460008201527f4d544f0000000000000000000000000000000000000000000000000000000000602082015250565b7f4f776e61626c653a206e6577206f776e657220697320746865207a65726f206160008201527f6464726573730000000000000000000000000000000000000000000000000000602082015250565b7f696e73756666696369656e7420616d6f756e7400000000000000000000000000600082015250565b7f6e6f7420656e6f75676820544d544f0000000000000000000000000000000000600082015250565b7f7765746820636f6e76657273696f6e206661696c656400000000000000000000600082015250565b7f6e6f7420656e6f75676820574554480000000000000000000000000000000000600082015250565b7f696e76616c696420746f20616464726573730000000000000000000000000000600082015250565b7f4f776e61626c653a2063616c6c6572206973206e6f7420746865206f776e6572600082015250565b50565b7f696e73756666696369656e74206c697175696469747900000000000000000000600082015250565b611ed781611c56565b8114611ee257600080fd5b50565b611eee81611c68565b8114611ef957600080fd5b50565b611f0581611c7a565b8114611f1057600080fd5b50565b611f1c81611ca6565b8114611f2757600080fd5b5056fea26469706673582212202d4cb4054b93d1ecd3082ee622ddf08788c4dec50b3da56c0c9ba09daa9e782164736f6c63430008040033",
  "linkReferences": {},
  "deployedLinkReferences": {}
}