{
  "_format": "hh-sol-artifact-1",
  "contractName": "TomatoLP",
  "sourceName": "contracts/TomatoLP.sol",
  "abi": [
    {
      "anonymous": false,
      "inputs": [
        {
          "indexed": true,
          "internalType": "address",
          "name": "previousOwner",
          "type": "address"
        },
        {
          "indexed": true,
          "internalType": "address",
          "name": "newOwner",
          "type": "address"
        }
      ],
      "name": "OwnershipTransferred",
      "type": "event"
    },
    {
      "inputs": [],
      "name": "balanceTMTO",
      "outputs": [
        {
          "internalType": "uint256",
          "name": "",
          "type": "uint256"
        }
      ],
      "stateMutability": "view",
      "type": "function"
    },
    {
      "inputs": [],
      "name": "balanceWETH",
      "outputs": [
        {
          "internalType": "uint256",
          "name": "",
          "type": "uint256"
        }
      ],
      "stateMutability": "view",
      "type": "function"
    },
    {
      "inputs": [
        {
          "internalType": "uint256",
          "name": "amount0",
          "type": "uint256"
        },
        {
          "internalType": "uint256",
          "name": "amount1",
          "type": "uint256"
        }
      ],
      "name": "calcLPTokens",
      "outputs": [
        {
          "internalType": "uint256",
          "name": "",
          "type": "uint256"
        }
      ],
      "stateMutability": "view",
      "type": "function"
    },
    {
      "inputs": [
        {
          "internalType": "uint256",
          "name": "deposit",
          "type": "uint256"
        },
        {
          "internalType": "address",
          "name": "to",
          "type": "address"
        }
      ],
      "name": "calcSwap",
      "outputs": [
        {
          "internalType": "uint256",
          "name": "",
          "type": "uint256"
        }
      ],
      "stateMutability": "view",
      "type": "function"
    },
    {
      "inputs": [],
      "name": "getTotalSupply",
      "outputs": [
        {
          "internalType": "uint256",
          "name": "",
          "type": "uint256"
        }
      ],
      "stateMutability": "view",
      "type": "function"
    },
    {
      "inputs": [],
      "name": "owner",
      "outputs": [
        {
          "internalType": "address",
          "name": "",
          "type": "address"
        }
      ],
      "stateMutability": "view",
      "type": "function"
    },
    {
      "inputs": [
        {
          "internalType": "uint256",
          "name": "amount0",
          "type": "uint256"
        },
        {
          "internalType": "uint256",
          "name": "amount1",
          "type": "uint256"
        }
      ],
      "name": "provideLiquidity",
      "outputs": [],
      "stateMutability": "nonpayable",
      "type": "function"
    },
    {
      "inputs": [],
      "name": "renounceOwnership",
      "outputs": [],
      "stateMutability": "nonpayable",
      "type": "function"
    },
    {
      "inputs": [
        {
          "internalType": "address payable",
          "name": "LPTokenAdress",
          "type": "address"
        }
      ],
      "name": "setLPTokenAddress",
      "outputs": [],
      "stateMutability": "nonpayable",
      "type": "function"
    },
    {
      "inputs": [
        {
          "internalType": "address",
          "name": "TMTOAddress",
          "type": "address"
        }
      ],
      "name": "setTMTOAddress",
      "outputs": [],
      "stateMutability": "nonpayable",
      "type": "function"
    },
    {
      "inputs": [
        {
          "internalType": "uint256",
          "name": "amount0",
          "type": "uint256"
        },
        {
          "internalType": "uint256",
          "name": "amount1",
          "type": "uint256"
        },
        {
          "internalType": "address",
          "name": "to",
          "type": "address"
        }
      ],
      "name": "swap",
      "outputs": [],
      "stateMutability": "nonpayable",
      "type": "function"
    },
    {
      "inputs": [
        {
          "internalType": "address",
          "name": "newOwner",
          "type": "address"
        }
      ],
      "name": "transferOwnership",
      "outputs": [],
      "stateMutability": "nonpayable",
      "type": "function"
    },
    {
      "inputs": [
        {
          "internalType": "uint256",
          "name": "amount",
          "type": "uint256"
        }
      ],
      "name": "withdrawLiquidity",
      "outputs": [],
      "stateMutability": "nonpayable",
      "type": "function"
    },
    {
      "inputs": [
        {
          "internalType": "uint256",
          "name": "amount",
          "type": "uint256"
        }
      ],
      "name": "wrapEther",
      "outputs": [],
      "stateMutability": "nonpayable",
      "type": "function"
    },
    {
      "stateMutability": "payable",
      "type": "receive"
    }
  ],
  "bytecode": "0x608060405234801561001057600080fd5b5061002d61002261003260201b60201c565b61003a60201b60201c565b6100fe565b600033905090565b60008060009054906101000a900473ffffffffffffffffffffffffffffffffffffffff169050816000806101000a81548173ffffffffffffffffffffffffffffffffffffffff021916908373ffffffffffffffffffffffffffffffffffffffff1602179055508173ffffffffffffffffffffffffffffffffffffffff168173ffffffffffffffffffffffffffffffffffffffff167f8be0079c531659141344cd1fd0a4f28419497f9722a3daafe3b4186f6b6457e060405160405180910390a35050565b612014806200010e6000396000f3fe6080604052600436106100e15760003560e01c80638da5cb5b1161007f578063e670c11311610059578063e670c11314610291578063ef590ca5146102ce578063f2fde38b146102f7578063f42ebbe014610320576100e8565b80638da5cb5b146101fe578063bcce9f3e14610229578063c4e41b2214610266576100e8565b8063715018a6116100bb578063715018a61461016857806371d94be21461017f5780637a16af7f146101aa5780638827c1cd146101d3576100e8565b80630a861f2a146100ed57806332f1d03c146101165780636d9a640a1461013f576100e8565b366100e857005b600080fd5b3480156100f957600080fd5b50610114600480360381019061010f9190611779565b610349565b005b34801561012257600080fd5b5061013d600480360381019061013891906116fe565b610587565b005b34801561014b57600080fd5b5061016660048036038101906101619190611843565b610647565b005b34801561017457600080fd5b5061017d6109f4565b005b34801561018b57600080fd5b50610194610a7c565b6040516101a19190611bbe565b60405180910390f35b3480156101b657600080fd5b506101d160048036038101906101cc9190611807565b610a82565b005b3480156101df57600080fd5b506101e8610e4e565b6040516101f59190611bbe565b60405180910390f35b34801561020a57600080fd5b50610213610e54565b6040516102209190611a23565b60405180910390f35b34801561023557600080fd5b50610250600480360381019061024b9190611807565b610e7d565b60405161025d9190611bbe565b60405180910390f35b34801561027257600080fd5b5061027b610f22565b6040516102889190611bbe565b60405180910390f35b34801561029d57600080fd5b506102b860048036038101906102b391906117cb565b610fc9565b6040516102c59190611bbe565b60405180910390f35b3480156102da57600080fd5b506102f560048036038101906102f09190611779565b6110f2565b005b34801561030357600080fd5b5061031e600480360381019061031991906116fe565b611241565b005b34801561032c57600080fd5b5061034760048036038101906103429190611727565b611339565b005b6103516113f9565b600060035461035e610f22565b836103699190611c4b565b6103739190611c7c565b90506000600454610382610f22565b8461038d9190611c4b565b6103979190611c7c565b9050600160009054906101000a900473ffffffffffffffffffffffffffffffffffffffff1673ffffffffffffffffffffffffffffffffffffffff16639dc29fac33856040518363ffffffff1660e01b81526004016103f6929190611a75565b600060405180830381600087803b15801561041057600080fd5b505af1158015610424573d6000803e3d6000fd5b50505050600260009054906101000a900473ffffffffffffffffffffffffffffffffffffffff1673ffffffffffffffffffffffffffffffffffffffff1663a9059cbb33846040518363ffffffff1660e01b8152600401610485929190611a75565b602060405180830381600087803b15801561049f57600080fd5b505af11580156104b3573d6000803e3d6000fd5b505050506040513d601f19601f820116820180604052508101906104d79190611750565b5073c02aaa39b223fe8d0a0e5c4f27ead9083c756cc273ffffffffffffffffffffffffffffffffffffffff1663a9059cbb33836040518363ffffffff1660e01b8152600401610527929190611a75565b602060405180830381600087803b15801561054157600080fd5b505af1158015610555573d6000803e3d6000fd5b505050506040513d601f19601f820116820180604052508101906105799190611750565b506105826113f9565b505050565b61058f61154f565b73ffffffffffffffffffffffffffffffffffffffff166105ad610e54565b73ffffffffffffffffffffffffffffffffffffffff1614610603576040517f08c379a00000000000000000000000000000000000000000000000000000000081526004016105fa90611b7e565b60405180910390fd5b80600260006101000a81548173ffffffffffffffffffffffffffffffffffffffff021916908373ffffffffffffffffffffffffffffffffffffffff16021790555050565b60008311806106565750600082115b610695576040517f08c379a000000000000000000000000000000000000000000000000000000000815260040161068c90611ade565b60405180910390fd5b61069d6113f9565b600354831080156106af575060045482105b6106ee576040517f08c379a00000000000000000000000000000000000000000000000000000000081526004016106e590611b9e565b60405180910390fd5b73c02aaa39b223fe8d0a0e5c4f27ead9083c756cc273ffffffffffffffffffffffffffffffffffffffff168173ffffffffffffffffffffffffffffffffffffffff161415801561078c5750600260009054906101000a900473ffffffffffffffffffffffffffffffffffffffff1673ffffffffffffffffffffffffffffffffffffffff168173ffffffffffffffffffffffffffffffffffffffff1614155b6107cb576040517f08c379a00000000000000000000000000000000000000000000000000000000081526004016107c290611b5e565b60405180910390fd5b60008084111561088f57839050600260009054906101000a900473ffffffffffffffffffffffffffffffffffffffff1673ffffffffffffffffffffffffffffffffffffffff166323b872dd3330876040518463ffffffff1660e01b815260040161083793929190611a3e565b602060405180830381600087803b15801561085157600080fd5b505af1158015610865573d6000803e3d6000fd5b505050506040513d601f19601f820116820180604052508101906108899190611750565b50610941565b60008311156109405782905073c02aaa39b223fe8d0a0e5c4f27ead9083c756cc273ffffffffffffffffffffffffffffffffffffffff166323b872dd3330866040518463ffffffff1660e01b81526004016108ec93929190611a3e565b602060405180830381600087803b15801561090657600080fd5b505af115801561091a573d6000803e3d6000fd5b505050506040513d601f19601f8201168201806040525081019061093e9190611750565b505b5b6109496113f9565b60006109558284610fc9565b90508273ffffffffffffffffffffffffffffffffffffffff1663a9059cbb33836040518363ffffffff1660e01b8152600401610992929190611a75565b602060405180830381600087803b1580156109ac57600080fd5b505af11580156109c0573d6000803e3d6000fd5b505050506040513d601f19601f820116820180604052508101906109e49190611750565b506109ed6113f9565b5050505050565b6109fc61154f565b73ffffffffffffffffffffffffffffffffffffffff16610a1a610e54565b73ffffffffffffffffffffffffffffffffffffffff1614610a70576040517f08c379a0000000000000000000000000000000000000000000000000000000008152600401610a6790611b7e565b60405180910390fd5b610a7a6000611557565b565b60035481565b81600260009054906101000a900473ffffffffffffffffffffffffffffffffffffffff1673ffffffffffffffffffffffffffffffffffffffff166370a08231336040518263ffffffff1660e01b8152600401610ade9190611a23565b60206040518083038186803b158015610af657600080fd5b505afa158015610b0a573d6000803e3d6000fd5b505050506040513d601f19601f82011682018060405250810190610b2e91906117a2565b1015610b6f576040517f08c379a0000000000000000000000000000000000000000000000000000000008152600401610b6690611afe565b60405180910390fd5b8073c02aaa39b223fe8d0a0e5c4f27ead9083c756cc273ffffffffffffffffffffffffffffffffffffffff166370a08231336040518263ffffffff1660e01b8152600401610bbd9190611a23565b60206040518083038186803b158015610bd557600080fd5b505afa158015610be9573d6000803e3d6000fd5b505050506040513d601f19601f82011682018060405250810190610c0d91906117a2565b1015610c4e576040517f08c379a0000000000000000000000000000000000000000000000000000000008152600401610c4590611b3e565b60405180910390fd5b600260009054906101000a900473ffffffffffffffffffffffffffffffffffffffff1673ffffffffffffffffffffffffffffffffffffffff166323b872dd3330856040518463ffffffff1660e01b8152600401610cad93929190611a3e565b602060405180830381600087803b158015610cc757600080fd5b505af1158015610cdb573d6000803e3d6000fd5b505050506040513d601f19601f82011682018060405250810190610cff9190611750565b5073c02aaa39b223fe8d0a0e5c4f27ead9083c756cc273ffffffffffffffffffffffffffffffffffffffff166323b872dd3330846040518463ffffffff1660e01b8152600401610d5193929190611a3e565b602060405180830381600087803b158015610d6b57600080fd5b505af1158015610d7f573d6000803e3d6000fd5b505050506040513d601f19601f82011682018060405250810190610da39190611750565b50610dac6113f9565b6000610db88383610e7d565b9050600160009054906101000a900473ffffffffffffffffffffffffffffffffffffffff1673ffffffffffffffffffffffffffffffffffffffff166340c10f1933836040518363ffffffff1660e01b8152600401610e17929190611a75565b600060405180830381600087803b158015610e3157600080fd5b505af1158015610e45573d6000803e3d6000fd5b50505050505050565b60045481565b60008060009054906101000a900473ffffffffffffffffffffffffffffffffffffffff16905090565b60008060001515600560009054906101000a900460ff1615151415610eb757610eb08385610eab9190611c7c565b61161b565b9050610f18565b6000600354610ec4610f22565b86610ecf9190611c7c565b610ed99190611c4b565b90506000600454610ee8610f22565b86610ef39190611c7c565b610efd9190611c4b565b9050808211610f0f5781925082610f14565b809250825b5050505b8091505092915050565b6000600160009054906101000a900473ffffffffffffffffffffffffffffffffffffffff1673ffffffffffffffffffffffffffffffffffffffff166318160ddd6040518163ffffffff1660e01b815260040160206040518083038186803b158015610f8c57600080fd5b505afa158015610fa0573d6000803e3d6000fd5b505050506040513d601f19601f82011682018060405250810190610fc491906117a2565b905090565b600080606484610fd99190611c4b565b84610fe49190611cd6565b935073c02aaa39b223fe8d0a0e5c4f27ead9083c756cc273ffffffffffffffffffffffffffffffffffffffff168373ffffffffffffffffffffffffffffffffffffffff1614156110425760058461103b9190611c4b565b90506110e8565b600260009054906101000a900473ffffffffffffffffffffffffffffffffffffffff1673ffffffffffffffffffffffffffffffffffffffff168373ffffffffffffffffffffffffffffffffffffffff1614156110ac576005846110a59190611c7c565b90506110e7565b6040517f08c379a00000000000000000000000000000000000000000000000000000000081526004016110de90611a9e565b60405180910390fd5b5b8091505092915050565b6110fa61154f565b73ffffffffffffffffffffffffffffffffffffffff16611118610e54565b73ffffffffffffffffffffffffffffffffffffffff161461116e576040517f08c379a000000000000000000000000000000000000000000000000000000000815260040161116590611b7e565b60405180910390fd5b600073c02aaa39b223fe8d0a0e5c4f27ead9083c756cc273ffffffffffffffffffffffffffffffffffffffff16826040516111a890611a0e565b60006040518083038185875af1925050503d80600081146111e5576040519150601f19603f3d011682016040523d82523d6000602084013e6111ea565b606091505b505090506001151581151514611235576040517f08c379a000000000000000000000000000000000000000000000000000000000815260040161122c90611b1e565b60405180910390fd5b61123d6113f9565b5050565b61124961154f565b73ffffffffffffffffffffffffffffffffffffffff16611267610e54565b73ffffffffffffffffffffffffffffffffffffffff16146112bd576040517f08c379a00000000000000000000000000000000000000000000000000000000081526004016112b490611b7e565b60405180910390fd5b600073ffffffffffffffffffffffffffffffffffffffff168173ffffffffffffffffffffffffffffffffffffffff16141561132d576040517f08c379a000000000000000000000000000000000000000000000000000000000815260040161132490611abe565b60405180910390fd5b61133681611557565b50565b61134161154f565b73ffffffffffffffffffffffffffffffffffffffff1661135f610e54565b73ffffffffffffffffffffffffffffffffffffffff16146113b5576040517f08c379a00000000000000000000000000000000000000000000000000000000081526004016113ac90611b7e565b60405180910390fd5b80600160006101000a81548173ffffffffffffffffffffffffffffffffffffffff021916908373ffffffffffffffffffffffffffffffffffffffff16021790555050565b600260009054906101000a900473ffffffffffffffffffffffffffffffffffffffff1673ffffffffffffffffffffffffffffffffffffffff166370a08231306040518263ffffffff1660e01b81526004016114549190611a23565b60206040518083038186803b15801561146c57600080fd5b505afa158015611480573d6000803e3d6000fd5b505050506040513d601f19601f820116820180604052508101906114a491906117a2565b60038190555073c02aaa39b223fe8d0a0e5c4f27ead9083c756cc273ffffffffffffffffffffffffffffffffffffffff166370a08231306040518263ffffffff1660e01b81526004016114f79190611a23565b60206040518083038186803b15801561150f57600080fd5b505afa158015611523573d6000803e3d6000fd5b505050506040513d601f19601f8201168201806040525081019061154791906117a2565b600481905550565b600033905090565b60008060009054906101000a900473ffffffffffffffffffffffffffffffffffffffff169050816000806101000a81548173ffffffffffffffffffffffffffffffffffffffff021916908373ffffffffffffffffffffffffffffffffffffffff1602179055508173ffffffffffffffffffffffffffffffffffffffff168173ffffffffffffffffffffffffffffffffffffffff167f8be0079c531659141344cd1fd0a4f28419497f9722a3daafe3b4186f6b6457e060405160405180910390a35050565b60006003821115611682578190506000600160028461163a9190611c4b565b6116449190611bf5565b90505b8181101561167c5780915060028182856116619190611c4b565b61166b9190611bf5565b6116759190611c4b565b9050611647565b50611690565b6000821461168f57600190505b5b919050565b6000813590506116a481611f82565b92915050565b6000813590506116b981611f99565b92915050565b6000815190506116ce81611fb0565b92915050565b6000813590506116e381611fc7565b92915050565b6000815190506116f881611fc7565b92915050565b60006020828403121561171057600080fd5b600061171e84828501611695565b91505092915050565b60006020828403121561173957600080fd5b6000611747848285016116aa565b91505092915050565b60006020828403121561176257600080fd5b6000611770848285016116bf565b91505092915050565b60006020828403121561178b57600080fd5b6000611799848285016116d4565b91505092915050565b6000602082840312156117b457600080fd5b60006117c2848285016116e9565b91505092915050565b600080604083850312156117de57600080fd5b60006117ec858286016116d4565b92505060206117fd85828601611695565b9150509250929050565b6000806040838503121561181a57600080fd5b6000611828858286016116d4565b9250506020611839858286016116d4565b9150509250929050565b60008060006060848603121561185857600080fd5b6000611866868287016116d4565b9350506020611877868287016116d4565b925050604061188886828701611695565b9150509250925092565b61189b81611d0a565b82525050565b60006118ae602383611be4565b91506118b982611dc2565b604082019050919050565b60006118d1602683611be4565b91506118dc82611e11565b604082019050919050565b60006118f4601383611be4565b91506118ff82611e60565b602082019050919050565b6000611917600f83611be4565b915061192282611e89565b602082019050919050565b600061193a601683611be4565b915061194582611eb2565b602082019050919050565b600061195d600f83611be4565b915061196882611edb565b602082019050919050565b6000611980601283611be4565b915061198b82611f04565b602082019050919050565b60006119a3602083611be4565b91506119ae82611f2d565b602082019050919050565b60006119c6600083611bd9565b91506119d182611f56565b600082019050919050565b60006119e9601683611be4565b91506119f482611f59565b602082019050919050565b611a0881611d5a565b82525050565b6000611a19826119b9565b9150819050919050565b6000602082019050611a386000830184611892565b92915050565b6000606082019050611a536000830186611892565b611a606020830185611892565b611a6d60408301846119ff565b949350505050565b6000604082019050611a8a6000830185611892565b611a9760208301846119ff565b9392505050565b60006020820190508181036000830152611ab7816118a1565b9050919050565b60006020820190508181036000830152611ad7816118c4565b9050919050565b60006020820190508181036000830152611af7816118e7565b9050919050565b60006020820190508181036000830152611b178161190a565b9050919050565b60006020820190508181036000830152611b378161192d565b9050919050565b60006020820190508181036000830152611b5781611950565b9050919050565b60006020820190508181036000830152611b7781611973565b9050919050565b60006020820190508181036000830152611b9781611996565b9050919050565b60006020820190508181036000830152611bb7816119dc565b9050919050565b6000602082019050611bd360008301846119ff565b92915050565b600081905092915050565b600082825260208201905092915050565b6000611c0082611d5a565b9150611c0b83611d5a565b9250827fffffffffffffffffffffffffffffffffffffffffffffffffffffffffffffffff03821115611c4057611c3f611d64565b5b828201905092915050565b6000611c5682611d5a565b9150611c6183611d5a565b925082611c7157611c70611d93565b5b828204905092915050565b6000611c8782611d5a565b9150611c9283611d5a565b9250817fffffffffffffffffffffffffffffffffffffffffffffffffffffffffffffffff0483118215151615611ccb57611cca611d64565b5b828202905092915050565b6000611ce182611d5a565b9150611cec83611d5a565b925082821015611cff57611cfe611d64565b5b828203905092915050565b6000611d1582611d3a565b9050919050565b6000611d2782611d3a565b9050919050565b60008115159050919050565b600073ffffffffffffffffffffffffffffffffffffffff82169050919050565b6000819050919050565b7f4e487b7100000000000000000000000000000000000000000000000000000000600052601160045260246000fd5b7f4e487b7100000000000000000000000000000000000000000000000000000000600052601260045260246000fd5b7f746f2061646472657373206e6565647320746f2062652057455448206f72205460008201527f4d544f0000000000000000000000000000000000000000000000000000000000602082015250565b7f4f776e61626c653a206e6577206f776e657220697320746865207a65726f206160008201527f6464726573730000000000000000000000000000000000000000000000000000602082015250565b7f696e73756666696369656e7420616d6f756e7400000000000000000000000000600082015250565b7f6e6f7420656e6f75676820544d544f0000000000000000000000000000000000600082015250565b7f7765746820636f6e76657273696f6e206661696c656400000000000000000000600082015250565b7f6e6f7420656e6f75676820574554480000000000000000000000000000000000600082015250565b7f696e76616c696420746f20616464726573730000000000000000000000000000600082015250565b7f4f776e61626c653a2063616c6c6572206973206e6f7420746865206f776e6572600082015250565b50565b7f696e73756666696369656e74206c697175696469747900000000000000000000600082015250565b611f8b81611d0a565b8114611f9657600080fd5b50565b611fa281611d1c565b8114611fad57600080fd5b50565b611fb981611d2e565b8114611fc457600080fd5b50565b611fd081611d5a565b8114611fdb57600080fd5b5056fea2646970667358221220a4ff7de7e6056e8a17babff7c6d269deb2147cbbe1eb022848ad7543710d5c0764736f6c63430008040033",
  "linkReferences": {},
  "deployedLinkReferences": {}
}