{
  "_format": "hh-sol-artifact-1",
  "contractName": "TomatoLP",
  "sourceName": "contracts/TomatoLP.sol",
  "abi": [
    {
      "inputs": [
        {
          "internalType": "address",
          "name": "treasuryAddress",
          "type": "address"
        }
      ],
      "stateMutability": "nonpayable",
      "type": "constructor"
    },
    {
      "anonymous": false,
      "inputs": [
        {
          "indexed": true,
          "internalType": "address",
          "name": "previousOwner",
          "type": "address"
        },
        {
          "indexed": true,
          "internalType": "address",
          "name": "newOwner",
          "type": "address"
        }
      ],
      "name": "OwnershipTransferred",
      "type": "event"
    },
    {
      "inputs": [],
      "name": "approve",
      "outputs": [],
      "stateMutability": "nonpayable",
      "type": "function"
    },
    {
      "inputs": [],
      "name": "balanceTMTO",
      "outputs": [
        {
          "internalType": "uint256",
          "name": "",
          "type": "uint256"
        }
      ],
      "stateMutability": "view",
      "type": "function"
    },
    {
      "inputs": [],
      "name": "balanceWETH",
      "outputs": [
        {
          "internalType": "uint256",
          "name": "",
          "type": "uint256"
        }
      ],
      "stateMutability": "view",
      "type": "function"
    },
    {
      "inputs": [
        {
          "internalType": "uint256",
          "name": "amount0",
          "type": "uint256"
        },
        {
          "internalType": "uint256",
          "name": "amount1",
          "type": "uint256"
        }
      ],
      "name": "calcLPTokens",
      "outputs": [
        {
          "internalType": "uint256",
          "name": "",
          "type": "uint256"
        }
      ],
      "stateMutability": "view",
      "type": "function"
    },
    {
      "inputs": [
        {
          "internalType": "uint256",
          "name": "deposit",
          "type": "uint256"
        },
        {
          "internalType": "uint256",
          "name": "k",
          "type": "uint256"
        },
        {
          "internalType": "address",
          "name": "to",
          "type": "address"
        }
      ],
      "name": "calcSwap",
      "outputs": [
        {
          "internalType": "uint256",
          "name": "",
          "type": "uint256"
        }
      ],
      "stateMutability": "view",
      "type": "function"
    },
    {
      "inputs": [],
      "name": "getTotalSupply",
      "outputs": [
        {
          "internalType": "uint256",
          "name": "",
          "type": "uint256"
        }
      ],
      "stateMutability": "view",
      "type": "function"
    },
    {
      "inputs": [
        {
          "internalType": "uint256",
          "name": "amount0",
          "type": "uint256"
        },
        {
          "internalType": "uint256",
          "name": "amount1",
          "type": "uint256"
        }
      ],
      "name": "initialize",
      "outputs": [],
      "stateMutability": "nonpayable",
      "type": "function"
    },
    {
      "inputs": [
        {
          "internalType": "bool",
          "name": "state",
          "type": "bool"
        }
      ],
      "name": "lockContract",
      "outputs": [],
      "stateMutability": "nonpayable",
      "type": "function"
    },
    {
      "inputs": [],
      "name": "owner",
      "outputs": [
        {
          "internalType": "address",
          "name": "",
          "type": "address"
        }
      ],
      "stateMutability": "view",
      "type": "function"
    },
    {
      "inputs": [
        {
          "internalType": "uint256",
          "name": "amount0",
          "type": "uint256"
        },
        {
          "internalType": "uint256",
          "name": "amount1",
          "type": "uint256"
        }
      ],
      "name": "provideLiquidity",
      "outputs": [],
      "stateMutability": "nonpayable",
      "type": "function"
    },
    {
      "inputs": [],
      "name": "renounceOwnership",
      "outputs": [],
      "stateMutability": "nonpayable",
      "type": "function"
    },
    {
      "inputs": [
        {
          "internalType": "address payable",
          "name": "LPTokenAdress",
          "type": "address"
        }
      ],
      "name": "setLPTokenAddress",
      "outputs": [],
      "stateMutability": "nonpayable",
      "type": "function"
    },
    {
      "inputs": [
        {
          "internalType": "address",
          "name": "TMTOAddress",
          "type": "address"
        }
      ],
      "name": "setTMTOAddress",
      "outputs": [],
      "stateMutability": "nonpayable",
      "type": "function"
    },
    {
      "inputs": [
        {
          "internalType": "uint256",
          "name": "amount0",
          "type": "uint256"
        },
        {
          "internalType": "uint256",
          "name": "amount1",
          "type": "uint256"
        },
        {
          "internalType": "address",
          "name": "to",
          "type": "address"
        }
      ],
      "name": "swap",
      "outputs": [],
      "stateMutability": "nonpayable",
      "type": "function"
    },
    {
      "inputs": [
        {
          "internalType": "address",
          "name": "newOwner",
          "type": "address"
        }
      ],
      "name": "transferOwnership",
      "outputs": [],
      "stateMutability": "nonpayable",
      "type": "function"
    },
    {
      "inputs": [
        {
          "internalType": "uint256",
          "name": "amount",
          "type": "uint256"
        }
      ],
      "name": "withdrawLiquidity",
      "outputs": [],
      "stateMutability": "nonpayable",
      "type": "function"
    },
    {
      "inputs": [
        {
          "internalType": "uint256",
          "name": "amount",
          "type": "uint256"
        }
      ],
      "name": "wrapEther",
      "outputs": [],
      "stateMutability": "nonpayable",
      "type": "function"
    },
    {
      "stateMutability": "payable",
      "type": "receive"
    }
  ],
  "bytecode": "0x60806040523480156200001157600080fd5b506040516200279f3803806200279f833981810160405281019062000037919062000182565b620000576200004b6200009f60201b60201c565b620000a760201b60201c565b80600360006101000a81548173ffffffffffffffffffffffffffffffffffffffff021916908373ffffffffffffffffffffffffffffffffffffffff16021790555050620001fc565b600033905090565b60008060009054906101000a900473ffffffffffffffffffffffffffffffffffffffff169050816000806101000a81548173ffffffffffffffffffffffffffffffffffffffff021916908373ffffffffffffffffffffffffffffffffffffffff1602179055508173ffffffffffffffffffffffffffffffffffffffff168173ffffffffffffffffffffffffffffffffffffffff167f8be0079c531659141344cd1fd0a4f28419497f9722a3daafe3b4186f6b6457e060405160405180910390a35050565b6000815190506200017c81620001e2565b92915050565b6000602082840312156200019557600080fd5b6000620001a5848285016200016b565b91505092915050565b6000620001bb82620001c2565b9050919050565b600073ffffffffffffffffffffffffffffffffffffffff82169050919050565b620001ed81620001ae565b8114620001f957600080fd5b50565b612593806200020c6000396000f3fe6080604052600436106101025760003560e01c8063897cceee11610095578063e4a3011611610064578063e4a30116146102f2578063ef590ca51461031b578063f2fde38b14610344578063f42ebbe01461036d578063f5879a411461039657610109565b8063897cceee146102365780638da5cb5b1461025f578063bcce9f3e1461028a578063c4e41b22146102c757610109565b8063715018a6116100d1578063715018a6146101a057806371d94be2146101b75780637a16af7f146101e25780638827c1cd1461020b57610109565b80630a861f2a1461010e57806312424e3f1461013757806332f1d03c1461014e5780636d9a640a1461017757610109565b3661010957005b600080fd5b34801561011a57600080fd5b5061013560048036038101906101309190611d34565b6103d3565b005b34801561014357600080fd5b5061014c610631565b005b34801561015a57600080fd5b5061017560048036038101906101709190611c90565b6108d9565b005b34801561018357600080fd5b5061019e60048036038101906101999190611dc2565b610999565b005b3480156101ac57600080fd5b506101b5610d74565b005b3480156101c357600080fd5b506101cc610dfc565b6040516101d9919061213d565b60405180910390f35b3480156101ee57600080fd5b5061020960048036038101906102049190611d86565b610e02565b005b34801561021757600080fd5b506102206111ee565b60405161022d919061213d565b60405180910390f35b34801561024257600080fd5b5061025d60048036038101906102589190611ce2565b6111f4565b005b34801561026b57600080fd5b5061027461128d565b6040516102819190611fa2565b60405180910390f35b34801561029657600080fd5b506102b160048036038101906102ac9190611d86565b6112b6565b6040516102be919061213d565b60405180910390f35b3480156102d357600080fd5b506102dc61135b565b6040516102e9919061213d565b60405180910390f35b3480156102fe57600080fd5b5061031960048036038101906103149190611d86565b611402565b005b34801561032757600080fd5b50610342600480360381019061033d9190611d34565b611543565b005b34801561035057600080fd5b5061036b60048036038101906103669190611c90565b611692565b005b34801561037957600080fd5b50610394600480360381019061038f9190611cb9565b61178a565b005b3480156103a257600080fd5b506103bd60048036038101906103b89190611dc2565b61184a565b6040516103ca919061213d565b60405180910390f35b60001515600660019054906101000a900460ff161515146103f357600080fd5b6103fb611976565b600060045461040861135b565b8361041391906121ca565b61041d91906121fb565b9050600060055461042c61135b565b8461043791906121ca565b61044191906121fb565b9050600160009054906101000a900473ffffffffffffffffffffffffffffffffffffffff1673ffffffffffffffffffffffffffffffffffffffff16639dc29fac33856040518363ffffffff1660e01b81526004016104a0929190611ff4565b600060405180830381600087803b1580156104ba57600080fd5b505af11580156104ce573d6000803e3d6000fd5b50505050600260009054906101000a900473ffffffffffffffffffffffffffffffffffffffff1673ffffffffffffffffffffffffffffffffffffffff1663a9059cbb33846040518363ffffffff1660e01b815260040161052f929190611ff4565b602060405180830381600087803b15801561054957600080fd5b505af115801561055d573d6000803e3d6000fd5b505050506040513d601f19601f820116820180604052508101906105819190611d0b565b5073c02aaa39b223fe8d0a0e5c4f27ead9083c756cc273ffffffffffffffffffffffffffffffffffffffff1663a9059cbb33836040518363ffffffff1660e01b81526004016105d1929190611ff4565b602060405180830381600087803b1580156105eb57600080fd5b505af11580156105ff573d6000803e3d6000fd5b505050506040513d601f19601f820116820180604052508101906106239190611d0b565b5061062c611976565b505050565b600260009054906101000a900473ffffffffffffffffffffffffffffffffffffffff1673ffffffffffffffffffffffffffffffffffffffff1663095ea7b330600260009054906101000a900473ffffffffffffffffffffffffffffffffffffffff1673ffffffffffffffffffffffffffffffffffffffff166370a08231336040518263ffffffff1660e01b81526004016106cb9190611fa2565b60206040518083038186803b1580156106e357600080fd5b505afa1580156106f7573d6000803e3d6000fd5b505050506040513d601f19601f8201168201806040525081019061071b9190611d5d565b6040518363ffffffff1660e01b8152600401610738929190611ff4565b602060405180830381600087803b15801561075257600080fd5b505af1158015610766573d6000803e3d6000fd5b505050506040513d601f19601f8201168201806040525081019061078a9190611d0b565b5073c02aaa39b223fe8d0a0e5c4f27ead9083c756cc273ffffffffffffffffffffffffffffffffffffffff1663095ea7b330600260009054906101000a900473ffffffffffffffffffffffffffffffffffffffff1673ffffffffffffffffffffffffffffffffffffffff166370a08231336040518263ffffffff1660e01b81526004016108179190611fa2565b60206040518083038186803b15801561082f57600080fd5b505afa158015610843573d6000803e3d6000fd5b505050506040513d601f19601f820116820180604052508101906108679190611d5d565b6040518363ffffffff1660e01b8152600401610884929190611ff4565b602060405180830381600087803b15801561089e57600080fd5b505af11580156108b2573d6000803e3d6000fd5b505050506040513d601f19601f820116820180604052508101906108d69190611d0b565b50565b6108e1611acc565b73ffffffffffffffffffffffffffffffffffffffff166108ff61128d565b73ffffffffffffffffffffffffffffffffffffffff1614610955576040517f08c379a000000000000000000000000000000000000000000000000000000000815260040161094c906120fd565b60405180910390fd5b80600260006101000a81548173ffffffffffffffffffffffffffffffffffffffff021916908373ffffffffffffffffffffffffffffffffffffffff16021790555050565b60001515600660019054906101000a900460ff161515146109b957600080fd5b60008311806109c85750600082115b610a07576040517f08c379a00000000000000000000000000000000000000000000000000000000081526004016109fe9061205d565b60405180910390fd5b610a0f611976565b6000600554600454610a2191906121fb565b905060045484108015610a35575060055483105b610a74576040517f08c379a0000000000000000000000000000000000000000000000000000000008152600401610a6b9061211d565b60405180910390fd5b73c02aaa39b223fe8d0a0e5c4f27ead9083c756cc273ffffffffffffffffffffffffffffffffffffffff168273ffffffffffffffffffffffffffffffffffffffff1614158015610b125750600260009054906101000a900473ffffffffffffffffffffffffffffffffffffffff1673ffffffffffffffffffffffffffffffffffffffff168273ffffffffffffffffffffffffffffffffffffffff1614155b610b51576040517f08c379a0000000000000000000000000000000000000000000000000000000008152600401610b48906120dd565b60405180910390fd5b600080851115610c1557849050600260009054906101000a900473ffffffffffffffffffffffffffffffffffffffff1673ffffffffffffffffffffffffffffffffffffffff166323b872dd3330886040518463ffffffff1660e01b8152600401610bbd93929190611fbd565b602060405180830381600087803b158015610bd757600080fd5b505af1158015610beb573d6000803e3d6000fd5b505050506040513d601f19601f82011682018060405250810190610c0f9190611d0b565b50610cc7565b6000841115610cc65783905073c02aaa39b223fe8d0a0e5c4f27ead9083c756cc273ffffffffffffffffffffffffffffffffffffffff166323b872dd3330876040518463ffffffff1660e01b8152600401610c7293929190611fbd565b602060405180830381600087803b158015610c8c57600080fd5b505af1158015610ca0573d6000803e3d6000fd5b505050506040513d601f19601f82011682018060405250810190610cc49190611d0b565b505b5b610ccf611976565b6000610cdc82848661184a565b90508373ffffffffffffffffffffffffffffffffffffffff1663a9059cbb33836040518363ffffffff1660e01b8152600401610d19929190611ff4565b602060405180830381600087803b158015610d3357600080fd5b505af1158015610d47573d6000803e3d6000fd5b505050506040513d601f19601f82011682018060405250810190610d6b9190611d0b565b50505050505050565b610d7c611acc565b73ffffffffffffffffffffffffffffffffffffffff16610d9a61128d565b73ffffffffffffffffffffffffffffffffffffffff1614610df0576040517f08c379a0000000000000000000000000000000000000000000000000000000008152600401610de7906120fd565b60405180910390fd5b610dfa6000611ad4565b565b60045481565b60001515600660019054906101000a900460ff16151514610e2257600080fd5b81600260009054906101000a900473ffffffffffffffffffffffffffffffffffffffff1673ffffffffffffffffffffffffffffffffffffffff166370a08231336040518263ffffffff1660e01b8152600401610e7e9190611fa2565b60206040518083038186803b158015610e9657600080fd5b505afa158015610eaa573d6000803e3d6000fd5b505050506040513d601f19601f82011682018060405250810190610ece9190611d5d565b1015610f0f576040517f08c379a0000000000000000000000000000000000000000000000000000000008152600401610f069061207d565b60405180910390fd5b8073c02aaa39b223fe8d0a0e5c4f27ead9083c756cc273ffffffffffffffffffffffffffffffffffffffff166370a08231336040518263ffffffff1660e01b8152600401610f5d9190611fa2565b60206040518083038186803b158015610f7557600080fd5b505afa158015610f89573d6000803e3d6000fd5b505050506040513d601f19601f82011682018060405250810190610fad9190611d5d565b1015610fee576040517f08c379a0000000000000000000000000000000000000000000000000000000008152600401610fe5906120bd565b60405180910390fd5b600260009054906101000a900473ffffffffffffffffffffffffffffffffffffffff1673ffffffffffffffffffffffffffffffffffffffff166323b872dd3330856040518463ffffffff1660e01b815260040161104d93929190611fbd565b602060405180830381600087803b15801561106757600080fd5b505af115801561107b573d6000803e3d6000fd5b505050506040513d601f19601f8201168201806040525081019061109f9190611d0b565b5073c02aaa39b223fe8d0a0e5c4f27ead9083c756cc273ffffffffffffffffffffffffffffffffffffffff166323b872dd3330846040518463ffffffff1660e01b81526004016110f193929190611fbd565b602060405180830381600087803b15801561110b57600080fd5b505af115801561111f573d6000803e3d6000fd5b505050506040513d601f19601f820116820180604052508101906111439190611d0b565b5061114c611976565b600061115883836112b6565b9050600160009054906101000a900473ffffffffffffffffffffffffffffffffffffffff1673ffffffffffffffffffffffffffffffffffffffff166340c10f1933836040518363ffffffff1660e01b81526004016111b7929190611ff4565b600060405180830381600087803b1580156111d157600080fd5b505af11580156111e5573d6000803e3d6000fd5b50505050505050565b60055481565b6111fc611acc565b73ffffffffffffffffffffffffffffffffffffffff1661121a61128d565b73ffffffffffffffffffffffffffffffffffffffff1614611270576040517f08c379a0000000000000000000000000000000000000000000000000000000008152600401611267906120fd565b60405180910390fd5b80600660016101000a81548160ff02191690831515021790555050565b60008060009054906101000a900473ffffffffffffffffffffffffffffffffffffffff16905090565b60008060001515600660009054906101000a900460ff16151514156112f0576112e983856112e491906121fb565b611b98565b9050611351565b60006004546112fd61135b565b8661130891906121fb565b61131291906121ca565b9050600060055461132161135b565b8661132c91906121fb565b61133691906121ca565b9050808211611348578192508261134d565b809250825b5050505b8091505092915050565b6000600160009054906101000a900473ffffffffffffffffffffffffffffffffffffffff1673ffffffffffffffffffffffffffffffffffffffff166318160ddd6040518163ffffffff1660e01b815260040160206040518083038186803b1580156113c557600080fd5b505afa1580156113d9573d6000803e3d6000fd5b505050506040513d601f19601f820116820180604052508101906113fd9190611d5d565b905090565b61140a611acc565b73ffffffffffffffffffffffffffffffffffffffff1661142861128d565b73ffffffffffffffffffffffffffffffffffffffff161461147e576040517f08c379a0000000000000000000000000000000000000000000000000000000008152600401611475906120fd565b60405180910390fd5b611486611976565b600061149283836112b6565b90506001600660006101000a81548160ff021916908315150217905550600160009054906101000a900473ffffffffffffffffffffffffffffffffffffffff1673ffffffffffffffffffffffffffffffffffffffff166340c10f1930836040518363ffffffff1660e01b815260040161150c929190611ff4565b600060405180830381600087803b15801561152657600080fd5b505af115801561153a573d6000803e3d6000fd5b50505050505050565b61154b611acc565b73ffffffffffffffffffffffffffffffffffffffff1661156961128d565b73ffffffffffffffffffffffffffffffffffffffff16146115bf576040517f08c379a00000000000000000000000000000000000000000000000000000000081526004016115b6906120fd565b60405180910390fd5b600073c02aaa39b223fe8d0a0e5c4f27ead9083c756cc273ffffffffffffffffffffffffffffffffffffffff16826040516115f990611f8d565b60006040518083038185875af1925050503d8060008114611636576040519150601f19603f3d011682016040523d82523d6000602084013e61163b565b606091505b505090506001151581151514611686576040517f08c379a000000000000000000000000000000000000000000000000000000000815260040161167d9061209d565b60405180910390fd5b61168e611976565b5050565b61169a611acc565b73ffffffffffffffffffffffffffffffffffffffff166116b861128d565b73ffffffffffffffffffffffffffffffffffffffff161461170e576040517f08c379a0000000000000000000000000000000000000000000000000000000008152600401611705906120fd565b60405180910390fd5b600073ffffffffffffffffffffffffffffffffffffffff168173ffffffffffffffffffffffffffffffffffffffff16141561177e576040517f08c379a00000000000000000000000000000000000000000000000000000000081526004016117759061203d565b60405180910390fd5b61178781611ad4565b50565b611792611acc565b73ffffffffffffffffffffffffffffffffffffffff166117b061128d565b73ffffffffffffffffffffffffffffffffffffffff1614611806576040517f08c379a00000000000000000000000000000000000000000000000000000000081526004016117fd906120fd565b60405180910390fd5b80600160006101000a81548173ffffffffffffffffffffffffffffffffffffffff021916908373ffffffffffffffffffffffffffffffffffffffff16021790555050565b60008060648561185a91906121ca565b856118659190612255565b945073c02aaa39b223fe8d0a0e5c4f27ead9083c756cc273ffffffffffffffffffffffffffffffffffffffff168373ffffffffffffffffffffffffffffffffffffffff1614156118c457836004546118bd91906121fb565b905061196b565b600260009054906101000a900473ffffffffffffffffffffffffffffffffffffffff1673ffffffffffffffffffffffffffffffffffffffff168373ffffffffffffffffffffffffffffffffffffffff16141561192f578360055461192891906121fb565b905061196a565b6040517f08c379a00000000000000000000000000000000000000000000000000000000081526004016119619061201d565b60405180910390fd5b5b809150509392505050565b600260009054906101000a900473ffffffffffffffffffffffffffffffffffffffff1673ffffffffffffffffffffffffffffffffffffffff166370a08231306040518263ffffffff1660e01b81526004016119d19190611fa2565b60206040518083038186803b1580156119e957600080fd5b505afa1580156119fd573d6000803e3d6000fd5b505050506040513d601f19601f82011682018060405250810190611a219190611d5d565b60048190555073c02aaa39b223fe8d0a0e5c4f27ead9083c756cc273ffffffffffffffffffffffffffffffffffffffff166370a08231306040518263ffffffff1660e01b8152600401611a749190611fa2565b60206040518083038186803b158015611a8c57600080fd5b505afa158015611aa0573d6000803e3d6000fd5b505050506040513d601f19601f82011682018060405250810190611ac49190611d5d565b600581905550565b600033905090565b60008060009054906101000a900473ffffffffffffffffffffffffffffffffffffffff169050816000806101000a81548173ffffffffffffffffffffffffffffffffffffffff021916908373ffffffffffffffffffffffffffffffffffffffff1602179055508173ffffffffffffffffffffffffffffffffffffffff168173ffffffffffffffffffffffffffffffffffffffff167f8be0079c531659141344cd1fd0a4f28419497f9722a3daafe3b4186f6b6457e060405160405180910390a35050565b60006003821115611bff5781905060006001600284611bb791906121ca565b611bc19190612174565b90505b81811015611bf9578091506002818285611bde91906121ca565b611be89190612174565b611bf291906121ca565b9050611bc4565b50611c0d565b60008214611c0c57600190505b5b919050565b600081359050611c2181612501565b92915050565b600081359050611c3681612518565b92915050565b600081359050611c4b8161252f565b92915050565b600081519050611c608161252f565b92915050565b600081359050611c7581612546565b92915050565b600081519050611c8a81612546565b92915050565b600060208284031215611ca257600080fd5b6000611cb084828501611c12565b91505092915050565b600060208284031215611ccb57600080fd5b6000611cd984828501611c27565b91505092915050565b600060208284031215611cf457600080fd5b6000611d0284828501611c3c565b91505092915050565b600060208284031215611d1d57600080fd5b6000611d2b84828501611c51565b91505092915050565b600060208284031215611d4657600080fd5b6000611d5484828501611c66565b91505092915050565b600060208284031215611d6f57600080fd5b6000611d7d84828501611c7b565b91505092915050565b60008060408385031215611d9957600080fd5b6000611da785828601611c66565b9250506020611db885828601611c66565b9150509250929050565b600080600060608486031215611dd757600080fd5b6000611de586828701611c66565b9350506020611df686828701611c66565b9250506040611e0786828701611c12565b9150509250925092565b611e1a81612289565b82525050565b6000611e2d602383612163565b9150611e3882612341565b604082019050919050565b6000611e50602683612163565b9150611e5b82612390565b604082019050919050565b6000611e73601383612163565b9150611e7e826123df565b602082019050919050565b6000611e96600f83612163565b9150611ea182612408565b602082019050919050565b6000611eb9601683612163565b9150611ec482612431565b602082019050919050565b6000611edc600f83612163565b9150611ee78261245a565b602082019050919050565b6000611eff601283612163565b9150611f0a82612483565b602082019050919050565b6000611f22602083612163565b9150611f2d826124ac565b602082019050919050565b6000611f45600083612158565b9150611f50826124d5565b600082019050919050565b6000611f68601683612163565b9150611f73826124d8565b602082019050919050565b611f87816122d9565b82525050565b6000611f9882611f38565b9150819050919050565b6000602082019050611fb76000830184611e11565b92915050565b6000606082019050611fd26000830186611e11565b611fdf6020830185611e11565b611fec6040830184611f7e565b949350505050565b60006040820190506120096000830185611e11565b6120166020830184611f7e565b9392505050565b6000602082019050818103600083015261203681611e20565b9050919050565b6000602082019050818103600083015261205681611e43565b9050919050565b6000602082019050818103600083015261207681611e66565b9050919050565b6000602082019050818103600083015261209681611e89565b9050919050565b600060208201905081810360008301526120b681611eac565b9050919050565b600060208201905081810360008301526120d681611ecf565b9050919050565b600060208201905081810360008301526120f681611ef2565b9050919050565b6000602082019050818103600083015261211681611f15565b9050919050565b6000602082019050818103600083015261213681611f5b565b9050919050565b60006020820190506121526000830184611f7e565b92915050565b600081905092915050565b600082825260208201905092915050565b600061217f826122d9565b915061218a836122d9565b9250827fffffffffffffffffffffffffffffffffffffffffffffffffffffffffffffffff038211156121bf576121be6122e3565b5b828201905092915050565b60006121d5826122d9565b91506121e0836122d9565b9250826121f0576121ef612312565b5b828204905092915050565b6000612206826122d9565b9150612211836122d9565b9250817fffffffffffffffffffffffffffffffffffffffffffffffffffffffffffffffff048311821515161561224a576122496122e3565b5b828202905092915050565b6000612260826122d9565b915061226b836122d9565b92508282101561227e5761227d6122e3565b5b828203905092915050565b6000612294826122b9565b9050919050565b60006122a6826122b9565b9050919050565b60008115159050919050565b600073ffffffffffffffffffffffffffffffffffffffff82169050919050565b6000819050919050565b7f4e487b7100000000000000000000000000000000000000000000000000000000600052601160045260246000fd5b7f4e487b7100000000000000000000000000000000000000000000000000000000600052601260045260246000fd5b7f746f2061646472657373206e6565647320746f2062652057455448206f72205460008201527f4d544f0000000000000000000000000000000000000000000000000000000000602082015250565b7f4f776e61626c653a206e6577206f776e657220697320746865207a65726f206160008201527f6464726573730000000000000000000000000000000000000000000000000000602082015250565b7f696e73756666696369656e7420616d6f756e7400000000000000000000000000600082015250565b7f6e6f7420656e6f75676820544d544f0000000000000000000000000000000000600082015250565b7f7765746820636f6e76657273696f6e206661696c656400000000000000000000600082015250565b7f6e6f7420656e6f75676820574554480000000000000000000000000000000000600082015250565b7f696e76616c696420746f20616464726573730000000000000000000000000000600082015250565b7f4f776e61626c653a2063616c6c6572206973206e6f7420746865206f776e6572600082015250565b50565b7f696e73756666696369656e74206c697175696469747900000000000000000000600082015250565b61250a81612289565b811461251557600080fd5b50565b6125218161229b565b811461252c57600080fd5b50565b612538816122ad565b811461254357600080fd5b50565b61254f816122d9565b811461255a57600080fd5b5056fea2646970667358221220a72fb446e55d32bb7dbbe2019b7374b14059cbcc1cf56ac50481030cf2fcd6f664736f6c63430008040033",
  "linkReferences": {},
  "deployedLinkReferences": {}
}