{
  "_format": "hh-sol-artifact-1",
  "contractName": "TomatoLP",
  "sourceName": "contracts/TomatoLP.sol",
  "abi": [
    {
      "inputs": [
        {
          "internalType": "address",
          "name": "treasuryAddress",
          "type": "address"
        }
      ],
      "stateMutability": "nonpayable",
      "type": "constructor"
    },
    {
      "anonymous": false,
      "inputs": [
        {
          "indexed": true,
          "internalType": "address",
          "name": "previousOwner",
          "type": "address"
        },
        {
          "indexed": true,
          "internalType": "address",
          "name": "newOwner",
          "type": "address"
        }
      ],
      "name": "OwnershipTransferred",
      "type": "event"
    },
    {
      "inputs": [],
      "name": "balanceTMTO",
      "outputs": [
        {
          "internalType": "uint256",
          "name": "",
          "type": "uint256"
        }
      ],
      "stateMutability": "view",
      "type": "function"
    },
    {
      "inputs": [],
      "name": "balanceWETH",
      "outputs": [
        {
          "internalType": "uint256",
          "name": "",
          "type": "uint256"
        }
      ],
      "stateMutability": "view",
      "type": "function"
    },
    {
      "inputs": [
        {
          "internalType": "uint256",
          "name": "amount0",
          "type": "uint256"
        },
        {
          "internalType": "uint256",
          "name": "amount1",
          "type": "uint256"
        }
      ],
      "name": "calcLPTokens",
      "outputs": [
        {
          "internalType": "uint256",
          "name": "",
          "type": "uint256"
        }
      ],
      "stateMutability": "view",
      "type": "function"
    },
    {
      "inputs": [
        {
          "internalType": "uint256",
          "name": "deposit",
          "type": "uint256"
        },
        {
          "internalType": "uint256",
          "name": "k",
          "type": "uint256"
        },
        {
          "internalType": "address",
          "name": "to",
          "type": "address"
        }
      ],
      "name": "calcSwap",
      "outputs": [
        {
          "internalType": "uint256",
          "name": "",
          "type": "uint256"
        }
      ],
      "stateMutability": "view",
      "type": "function"
    },
    {
      "inputs": [],
      "name": "getTotalSupply",
      "outputs": [
        {
          "internalType": "uint256",
          "name": "",
          "type": "uint256"
        }
      ],
      "stateMutability": "view",
      "type": "function"
    },
    {
      "inputs": [
        {
          "internalType": "uint256",
          "name": "amount0",
          "type": "uint256"
        },
        {
          "internalType": "uint256",
          "name": "amount1",
          "type": "uint256"
        }
      ],
      "name": "initialize",
      "outputs": [],
      "stateMutability": "nonpayable",
      "type": "function"
    },
    {
      "inputs": [
        {
          "internalType": "bool",
          "name": "state",
          "type": "bool"
        }
      ],
      "name": "lockContract",
      "outputs": [],
      "stateMutability": "nonpayable",
      "type": "function"
    },
    {
      "inputs": [],
      "name": "owner",
      "outputs": [
        {
          "internalType": "address",
          "name": "",
          "type": "address"
        }
      ],
      "stateMutability": "view",
      "type": "function"
    },
    {
      "inputs": [
        {
          "internalType": "uint256",
          "name": "amount0",
          "type": "uint256"
        },
        {
          "internalType": "uint256",
          "name": "amount1",
          "type": "uint256"
        }
      ],
      "name": "provideLiquidity",
      "outputs": [],
      "stateMutability": "nonpayable",
      "type": "function"
    },
    {
      "inputs": [],
      "name": "renounceOwnership",
      "outputs": [],
      "stateMutability": "nonpayable",
      "type": "function"
    },
    {
      "inputs": [
        {
          "internalType": "address payable",
          "name": "LPTokenAdress",
          "type": "address"
        }
      ],
      "name": "setLPTokenAddress",
      "outputs": [],
      "stateMutability": "nonpayable",
      "type": "function"
    },
    {
      "inputs": [
        {
          "internalType": "address",
          "name": "TMTOAddress",
          "type": "address"
        }
      ],
      "name": "setTMTOAddress",
      "outputs": [],
      "stateMutability": "nonpayable",
      "type": "function"
    },
    {
      "inputs": [
        {
          "internalType": "uint256",
          "name": "amount0",
          "type": "uint256"
        },
        {
          "internalType": "uint256",
          "name": "amount1",
          "type": "uint256"
        },
        {
          "internalType": "address",
          "name": "to",
          "type": "address"
        }
      ],
      "name": "swap",
      "outputs": [],
      "stateMutability": "nonpayable",
      "type": "function"
    },
    {
      "inputs": [
        {
          "internalType": "address",
          "name": "newOwner",
          "type": "address"
        }
      ],
      "name": "transferOwnership",
      "outputs": [],
      "stateMutability": "nonpayable",
      "type": "function"
    },
    {
      "inputs": [
        {
          "internalType": "uint256",
          "name": "amount",
          "type": "uint256"
        }
      ],
      "name": "withdrawLiquidity",
      "outputs": [],
      "stateMutability": "nonpayable",
      "type": "function"
    },
    {
      "inputs": [
        {
          "internalType": "uint256",
          "name": "amount",
          "type": "uint256"
        }
      ],
      "name": "wrapEther",
      "outputs": [],
      "stateMutability": "nonpayable",
      "type": "function"
    },
    {
      "stateMutability": "payable",
      "type": "receive"
    }
  ],
  "bytecode": "0x60806040523480156200001157600080fd5b506040516200288338038062002883833981810160405281019062000037919062000182565b620000576200004b6200009f60201b60201c565b620000a760201b60201c565b80600360006101000a81548173ffffffffffffffffffffffffffffffffffffffff021916908373ffffffffffffffffffffffffffffffffffffffff16021790555050620001fc565b600033905090565b60008060009054906101000a900473ffffffffffffffffffffffffffffffffffffffff169050816000806101000a81548173ffffffffffffffffffffffffffffffffffffffff021916908373ffffffffffffffffffffffffffffffffffffffff1602179055508173ffffffffffffffffffffffffffffffffffffffff168173ffffffffffffffffffffffffffffffffffffffff167f8be0079c531659141344cd1fd0a4f28419497f9722a3daafe3b4186f6b6457e060405160405180910390a35050565b6000815190506200017c81620001e2565b92915050565b6000602082840312156200019557600080fd5b6000620001a5848285016200016b565b91505092915050565b6000620001bb82620001c2565b9050919050565b600073ffffffffffffffffffffffffffffffffffffffff82169050919050565b620001ed81620001ae565b8114620001f957600080fd5b50565b612677806200020c6000396000f3fe6080604052600436106100f75760003560e01c80638da5cb5b1161008a578063ef590ca511610059578063ef590ca5146102f9578063f2fde38b14610322578063f42ebbe01461034b578063f5879a4114610374576100fe565b80638da5cb5b1461023d578063bcce9f3e14610268578063c4e41b22146102a5578063e4a30116146102d0576100fe565b806371d94be2116100c657806371d94be2146101955780637a16af7f146101c05780638827c1cd146101e9578063897cceee14610214576100fe565b80630a861f2a1461010357806332f1d03c1461012c5780636d9a640a14610155578063715018a61461017e576100fe565b366100fe57005b600080fd5b34801561010f57600080fd5b5061012a60048036038101906101259190611d60565b6103b1565b005b34801561013857600080fd5b50610153600480360381019061014e9190611cbc565b6107a7565b005b34801561016157600080fd5b5061017c60048036038101906101779190611dee565b610867565b005b34801561018a57600080fd5b50610193610c42565b005b3480156101a157600080fd5b506101aa610cca565b6040516101b791906121d2565b60405180910390f35b3480156101cc57600080fd5b506101e760048036038101906101e29190611db2565b610cd0565b005b3480156101f557600080fd5b506101fe6110bc565b60405161020b91906121d2565b60405180910390f35b34801561022057600080fd5b5061023b60048036038101906102369190611d0e565b6110c2565b005b34801561024957600080fd5b5061025261115b565b60405161025f9190612007565b60405180910390f35b34801561027457600080fd5b5061028f600480360381019061028a9190611db2565b611184565b60405161029c91906121d2565b60405180910390f35b3480156102b157600080fd5b506102ba611229565b6040516102c791906121d2565b60405180910390f35b3480156102dc57600080fd5b506102f760048036038101906102f29190611db2565b6112d0565b005b34801561030557600080fd5b50610320600480360381019061031b9190611d60565b611411565b005b34801561032e57600080fd5b5061034960048036038101906103449190611cbc565b611560565b005b34801561035757600080fd5b50610372600480360381019061036d9190611ce5565b611658565b005b34801561038057600080fd5b5061039b60048036038101906103969190611dee565b611718565b6040516103a891906121d2565b60405180910390f35b60001515600660019054906101000a900460ff161515146103d157600080fd5b6103d9611844565b60006103e3611229565b9050600081836004546103f6919061229b565b610400919061226a565b905060008284600554610413919061229b565b61041d919061226a565b905061045e6040518060400160405280600881526020017f616d6f756e743a200000000000000000000000000000000000000000000000008152508561199a565b61049d6040518060400160405280600981526020017f616d6f756e74303a2000000000000000000000000000000000000000000000008152508361199a565b6104dc6040518060400160405280600981526020017f616d6f756e74313a2000000000000000000000000000000000000000000000008152508261199a565b61051d6040518060400160405280600a81526020017f62616c20746d746f3a200000000000000000000000000000000000000000000081525060045461199a565b61055e6040518060400160405280600a81526020017f62616c20776574683a200000000000000000000000000000000000000000000081525060055461199a565b6105a46040518060400160405280601281526020017f746f74616c5370706c79206f66204c503a20000000000000000000000000000081525061059f611229565b61199a565b6105b883856105b3919061226a565b611a36565b600160009054906101000a900473ffffffffffffffffffffffffffffffffffffffff1673ffffffffffffffffffffffffffffffffffffffff16639dc29fac33866040518363ffffffff1660e01b8152600401610615929190612059565b600060405180830381600087803b15801561062f57600080fd5b505af1158015610643573d6000803e3d6000fd5b50505050600260009054906101000a900473ffffffffffffffffffffffffffffffffffffffff1673ffffffffffffffffffffffffffffffffffffffff1663a9059cbb33846040518363ffffffff1660e01b81526004016106a4929190612059565b602060405180830381600087803b1580156106be57600080fd5b505af11580156106d2573d6000803e3d6000fd5b505050506040513d601f19601f820116820180604052508101906106f69190611d37565b5073c02aaa39b223fe8d0a0e5c4f27ead9083c756cc273ffffffffffffffffffffffffffffffffffffffff1663a9059cbb33836040518363ffffffff1660e01b8152600401610746929190612059565b602060405180830381600087803b15801561076057600080fd5b505af1158015610774573d6000803e3d6000fd5b505050506040513d601f19601f820116820180604052508101906107989190611d37565b506107a1611844565b50505050565b6107af611acf565b73ffffffffffffffffffffffffffffffffffffffff166107cd61115b565b73ffffffffffffffffffffffffffffffffffffffff1614610823576040517f08c379a000000000000000000000000000000000000000000000000000000000815260040161081a90612192565b60405180910390fd5b80600260006101000a81548173ffffffffffffffffffffffffffffffffffffffff021916908373ffffffffffffffffffffffffffffffffffffffff16021790555050565b60001515600660019054906101000a900460ff1615151461088757600080fd5b60008311806108965750600082115b6108d5576040517f08c379a00000000000000000000000000000000000000000000000000000000081526004016108cc906120f2565b60405180910390fd5b6108dd611844565b60006005546004546108ef919061229b565b905060045484108015610903575060055483105b610942576040517f08c379a0000000000000000000000000000000000000000000000000000000008152600401610939906121b2565b60405180910390fd5b73c02aaa39b223fe8d0a0e5c4f27ead9083c756cc273ffffffffffffffffffffffffffffffffffffffff168273ffffffffffffffffffffffffffffffffffffffff16141580156109e05750600260009054906101000a900473ffffffffffffffffffffffffffffffffffffffff1673ffffffffffffffffffffffffffffffffffffffff168273ffffffffffffffffffffffffffffffffffffffff1614155b610a1f576040517f08c379a0000000000000000000000000000000000000000000000000000000008152600401610a1690612172565b60405180910390fd5b600080851115610ae357849050600260009054906101000a900473ffffffffffffffffffffffffffffffffffffffff1673ffffffffffffffffffffffffffffffffffffffff166323b872dd3330886040518463ffffffff1660e01b8152600401610a8b93929190612022565b602060405180830381600087803b158015610aa557600080fd5b505af1158015610ab9573d6000803e3d6000fd5b505050506040513d601f19601f82011682018060405250810190610add9190611d37565b50610b95565b6000841115610b945783905073c02aaa39b223fe8d0a0e5c4f27ead9083c756cc273ffffffffffffffffffffffffffffffffffffffff166323b872dd3330876040518463ffffffff1660e01b8152600401610b4093929190612022565b602060405180830381600087803b158015610b5a57600080fd5b505af1158015610b6e573d6000803e3d6000fd5b505050506040513d601f19601f82011682018060405250810190610b929190611d37565b505b5b610b9d611844565b6000610baa828486611718565b90508373ffffffffffffffffffffffffffffffffffffffff1663a9059cbb33836040518363ffffffff1660e01b8152600401610be7929190612059565b602060405180830381600087803b158015610c0157600080fd5b505af1158015610c15573d6000803e3d6000fd5b505050506040513d601f19601f82011682018060405250810190610c399190611d37565b50505050505050565b610c4a611acf565b73ffffffffffffffffffffffffffffffffffffffff16610c6861115b565b73ffffffffffffffffffffffffffffffffffffffff1614610cbe576040517f08c379a0000000000000000000000000000000000000000000000000000000008152600401610cb590612192565b60405180910390fd5b610cc86000611ad7565b565b60045481565b60001515600660019054906101000a900460ff16151514610cf057600080fd5b81600260009054906101000a900473ffffffffffffffffffffffffffffffffffffffff1673ffffffffffffffffffffffffffffffffffffffff166370a08231336040518263ffffffff1660e01b8152600401610d4c9190612007565b60206040518083038186803b158015610d6457600080fd5b505afa158015610d78573d6000803e3d6000fd5b505050506040513d601f19601f82011682018060405250810190610d9c9190611d89565b1015610ddd576040517f08c379a0000000000000000000000000000000000000000000000000000000008152600401610dd490612112565b60405180910390fd5b8073c02aaa39b223fe8d0a0e5c4f27ead9083c756cc273ffffffffffffffffffffffffffffffffffffffff166370a08231336040518263ffffffff1660e01b8152600401610e2b9190612007565b60206040518083038186803b158015610e4357600080fd5b505afa158015610e57573d6000803e3d6000fd5b505050506040513d601f19601f82011682018060405250810190610e7b9190611d89565b1015610ebc576040517f08c379a0000000000000000000000000000000000000000000000000000000008152600401610eb390612152565b60405180910390fd5b600260009054906101000a900473ffffffffffffffffffffffffffffffffffffffff1673ffffffffffffffffffffffffffffffffffffffff166323b872dd3330856040518463ffffffff1660e01b8152600401610f1b93929190612022565b602060405180830381600087803b158015610f3557600080fd5b505af1158015610f49573d6000803e3d6000fd5b505050506040513d601f19601f82011682018060405250810190610f6d9190611d37565b5073c02aaa39b223fe8d0a0e5c4f27ead9083c756cc273ffffffffffffffffffffffffffffffffffffffff166323b872dd3330846040518463ffffffff1660e01b8152600401610fbf93929190612022565b602060405180830381600087803b158015610fd957600080fd5b505af1158015610fed573d6000803e3d6000fd5b505050506040513d601f19601f820116820180604052508101906110119190611d37565b5061101a611844565b60006110268383611184565b9050600160009054906101000a900473ffffffffffffffffffffffffffffffffffffffff1673ffffffffffffffffffffffffffffffffffffffff166340c10f1933836040518363ffffffff1660e01b8152600401611085929190612059565b600060405180830381600087803b15801561109f57600080fd5b505af11580156110b3573d6000803e3d6000fd5b50505050505050565b60055481565b6110ca611acf565b73ffffffffffffffffffffffffffffffffffffffff166110e861115b565b73ffffffffffffffffffffffffffffffffffffffff161461113e576040517f08c379a000000000000000000000000000000000000000000000000000000000815260040161113590612192565b60405180910390fd5b80600660016101000a81548160ff02191690831515021790555050565b60008060009054906101000a900473ffffffffffffffffffffffffffffffffffffffff16905090565b60008060001515600660009054906101000a900460ff16151514156111be576111b783856111b2919061229b565b611b9b565b905061121f565b60006004546111cb611229565b866111d6919061229b565b6111e0919061226a565b905060006005546111ef611229565b866111fa919061229b565b611204919061226a565b9050808211611216578192508261121b565b809250825b5050505b8091505092915050565b6000600160009054906101000a900473ffffffffffffffffffffffffffffffffffffffff1673ffffffffffffffffffffffffffffffffffffffff166318160ddd6040518163ffffffff1660e01b815260040160206040518083038186803b15801561129357600080fd5b505afa1580156112a7573d6000803e3d6000fd5b505050506040513d601f19601f820116820180604052508101906112cb9190611d89565b905090565b6112d8611acf565b73ffffffffffffffffffffffffffffffffffffffff166112f661115b565b73ffffffffffffffffffffffffffffffffffffffff161461134c576040517f08c379a000000000000000000000000000000000000000000000000000000000815260040161134390612192565b60405180910390fd5b611354611844565b60006113608383611184565b90506001600660006101000a81548160ff021916908315150217905550600160009054906101000a900473ffffffffffffffffffffffffffffffffffffffff1673ffffffffffffffffffffffffffffffffffffffff166340c10f1930836040518363ffffffff1660e01b81526004016113da929190612059565b600060405180830381600087803b1580156113f457600080fd5b505af1158015611408573d6000803e3d6000fd5b50505050505050565b611419611acf565b73ffffffffffffffffffffffffffffffffffffffff1661143761115b565b73ffffffffffffffffffffffffffffffffffffffff161461148d576040517f08c379a000000000000000000000000000000000000000000000000000000000815260040161148490612192565b60405180910390fd5b600073c02aaa39b223fe8d0a0e5c4f27ead9083c756cc273ffffffffffffffffffffffffffffffffffffffff16826040516114c790611ff2565b60006040518083038185875af1925050503d8060008114611504576040519150601f19603f3d011682016040523d82523d6000602084013e611509565b606091505b505090506001151581151514611554576040517f08c379a000000000000000000000000000000000000000000000000000000000815260040161154b90612132565b60405180910390fd5b61155c611844565b5050565b611568611acf565b73ffffffffffffffffffffffffffffffffffffffff1661158661115b565b73ffffffffffffffffffffffffffffffffffffffff16146115dc576040517f08c379a00000000000000000000000000000000000000000000000000000000081526004016115d390612192565b60405180910390fd5b600073ffffffffffffffffffffffffffffffffffffffff168173ffffffffffffffffffffffffffffffffffffffff16141561164c576040517f08c379a0000000000000000000000000000000000000000000000000000000008152600401611643906120d2565b60405180910390fd5b61165581611ad7565b50565b611660611acf565b73ffffffffffffffffffffffffffffffffffffffff1661167e61115b565b73ffffffffffffffffffffffffffffffffffffffff16146116d4576040517f08c379a00000000000000000000000000000000000000000000000000000000081526004016116cb90612192565b60405180910390fd5b80600160006101000a81548173ffffffffffffffffffffffffffffffffffffffff021916908373ffffffffffffffffffffffffffffffffffffffff16021790555050565b600080606485611728919061226a565b8561173391906122f5565b945073c02aaa39b223fe8d0a0e5c4f27ead9083c756cc273ffffffffffffffffffffffffffffffffffffffff168373ffffffffffffffffffffffffffffffffffffffff161415611792578360045461178b919061229b565b9050611839565b600260009054906101000a900473ffffffffffffffffffffffffffffffffffffffff1673ffffffffffffffffffffffffffffffffffffffff168373ffffffffffffffffffffffffffffffffffffffff1614156117fd57836005546117f6919061229b565b9050611838565b6040517f08c379a000000000000000000000000000000000000000000000000000000000815260040161182f906120b2565b60405180910390fd5b5b809150509392505050565b600260009054906101000a900473ffffffffffffffffffffffffffffffffffffffff1673ffffffffffffffffffffffffffffffffffffffff166370a08231306040518263ffffffff1660e01b815260040161189f9190612007565b60206040518083038186803b1580156118b757600080fd5b505afa1580156118cb573d6000803e3d6000fd5b505050506040513d601f19601f820116820180604052508101906118ef9190611d89565b60048190555073c02aaa39b223fe8d0a0e5c4f27ead9083c756cc273ffffffffffffffffffffffffffffffffffffffff166370a08231306040518263ffffffff1660e01b81526004016119429190612007565b60206040518083038186803b15801561195a57600080fd5b505afa15801561196e573d6000803e3d6000fd5b505050506040513d601f19601f820116820180604052508101906119929190611d89565b600581905550565b611a3282826040516024016119b0929190612082565b6040516020818303038152906040527f9710a9d0000000000000000000000000000000000000000000000000000000007bffffffffffffffffffffffffffffffffffffffffffffffffffffffff19166020820180517bffffffffffffffffffffffffffffffffffffffffffffffffffffffff8381831617835250505050611c15565b5050565b611acc81604051602401611a4a91906121d2565b6040516020818303038152906040527ff5b1bba9000000000000000000000000000000000000000000000000000000007bffffffffffffffffffffffffffffffffffffffffffffffffffffffff19166020820180517bffffffffffffffffffffffffffffffffffffffffffffffffffffffff8381831617835250505050611c15565b50565b600033905090565b60008060009054906101000a900473ffffffffffffffffffffffffffffffffffffffff169050816000806101000a81548173ffffffffffffffffffffffffffffffffffffffff021916908373ffffffffffffffffffffffffffffffffffffffff1602179055508173ffffffffffffffffffffffffffffffffffffffff168173ffffffffffffffffffffffffffffffffffffffff167f8be0079c531659141344cd1fd0a4f28419497f9722a3daafe3b4186f6b6457e060405160405180910390a35050565b60006003821115611c025781905060006001600284611bba919061226a565b611bc49190612214565b90505b81811015611bfc578091506002818285611be1919061226a565b611beb9190612214565b611bf5919061226a565b9050611bc7565b50611c10565b60008214611c0f57600190505b5b919050565b60008151905060006a636f6e736f6c652e6c6f679050602083016000808483855afa5050505050565b600081359050611c4d816125e5565b92915050565b600081359050611c62816125fc565b92915050565b600081359050611c7781612613565b92915050565b600081519050611c8c81612613565b92915050565b600081359050611ca18161262a565b92915050565b600081519050611cb68161262a565b92915050565b600060208284031215611cce57600080fd5b6000611cdc84828501611c3e565b91505092915050565b600060208284031215611cf757600080fd5b6000611d0584828501611c53565b91505092915050565b600060208284031215611d2057600080fd5b6000611d2e84828501611c68565b91505092915050565b600060208284031215611d4957600080fd5b6000611d5784828501611c7d565b91505092915050565b600060208284031215611d7257600080fd5b6000611d8084828501611c92565b91505092915050565b600060208284031215611d9b57600080fd5b6000611da984828501611ca7565b91505092915050565b60008060408385031215611dc557600080fd5b6000611dd385828601611c92565b9250506020611de485828601611c92565b9150509250929050565b600080600060608486031215611e0357600080fd5b6000611e1186828701611c92565b9350506020611e2286828701611c92565b9250506040611e3386828701611c3e565b9150509250925092565b611e4681612329565b82525050565b6000611e57826121ed565b611e618185612203565b9350611e71818560208601612383565b611e7a81612414565b840191505092915050565b6000611e92602383612203565b9150611e9d82612425565b604082019050919050565b6000611eb5602683612203565b9150611ec082612474565b604082019050919050565b6000611ed8601383612203565b9150611ee3826124c3565b602082019050919050565b6000611efb600f83612203565b9150611f06826124ec565b602082019050919050565b6000611f1e601683612203565b9150611f2982612515565b602082019050919050565b6000611f41600f83612203565b9150611f4c8261253e565b602082019050919050565b6000611f64601283612203565b9150611f6f82612567565b602082019050919050565b6000611f87602083612203565b9150611f9282612590565b602082019050919050565b6000611faa6000836121f8565b9150611fb5826125b9565b600082019050919050565b6000611fcd601683612203565b9150611fd8826125bc565b602082019050919050565b611fec81612379565b82525050565b6000611ffd82611f9d565b9150819050919050565b600060208201905061201c6000830184611e3d565b92915050565b60006060820190506120376000830186611e3d565b6120446020830185611e3d565b6120516040830184611fe3565b949350505050565b600060408201905061206e6000830185611e3d565b61207b6020830184611fe3565b9392505050565b6000604082019050818103600083015261209c8185611e4c565b90506120ab6020830184611fe3565b9392505050565b600060208201905081810360008301526120cb81611e85565b9050919050565b600060208201905081810360008301526120eb81611ea8565b9050919050565b6000602082019050818103600083015261210b81611ecb565b9050919050565b6000602082019050818103600083015261212b81611eee565b9050919050565b6000602082019050818103600083015261214b81611f11565b9050919050565b6000602082019050818103600083015261216b81611f34565b9050919050565b6000602082019050818103600083015261218b81611f57565b9050919050565b600060208201905081810360008301526121ab81611f7a565b9050919050565b600060208201905081810360008301526121cb81611fc0565b9050919050565b60006020820190506121e76000830184611fe3565b92915050565b600081519050919050565b600081905092915050565b600082825260208201905092915050565b600061221f82612379565b915061222a83612379565b9250827fffffffffffffffffffffffffffffffffffffffffffffffffffffffffffffffff0382111561225f5761225e6123b6565b5b828201905092915050565b600061227582612379565b915061228083612379565b9250826122905761228f6123e5565b5b828204905092915050565b60006122a682612379565b91506122b183612379565b9250817fffffffffffffffffffffffffffffffffffffffffffffffffffffffffffffffff04831182151516156122ea576122e96123b6565b5b828202905092915050565b600061230082612379565b915061230b83612379565b92508282101561231e5761231d6123b6565b5b828203905092915050565b600061233482612359565b9050919050565b600061234682612359565b9050919050565b60008115159050919050565b600073ffffffffffffffffffffffffffffffffffffffff82169050919050565b6000819050919050565b60005b838110156123a1578082015181840152602081019050612386565b838111156123b0576000848401525b50505050565b7f4e487b7100000000000000000000000000000000000000000000000000000000600052601160045260246000fd5b7f4e487b7100000000000000000000000000000000000000000000000000000000600052601260045260246000fd5b6000601f19601f8301169050919050565b7f746f2061646472657373206e6565647320746f2062652057455448206f72205460008201527f4d544f0000000000000000000000000000000000000000000000000000000000602082015250565b7f4f776e61626c653a206e6577206f776e657220697320746865207a65726f206160008201527f6464726573730000000000000000000000000000000000000000000000000000602082015250565b7f696e73756666696369656e7420616d6f756e7400000000000000000000000000600082015250565b7f6e6f7420656e6f75676820544d544f0000000000000000000000000000000000600082015250565b7f7765746820636f6e76657273696f6e206661696c656400000000000000000000600082015250565b7f6e6f7420656e6f75676820574554480000000000000000000000000000000000600082015250565b7f696e76616c696420746f20616464726573730000000000000000000000000000600082015250565b7f4f776e61626c653a2063616c6c6572206973206e6f7420746865206f776e6572600082015250565b50565b7f696e73756666696369656e74206c697175696469747900000000000000000000600082015250565b6125ee81612329565b81146125f957600080fd5b50565b6126058161233b565b811461261057600080fd5b50565b61261c8161234d565b811461262757600080fd5b50565b61263381612379565b811461263e57600080fd5b5056fea26469706673582212200ac3b06c29517ced41764c84d5f9f26eca218ca8123ca3b639f7c4f61d58c98f64736f6c63430008040033",
  "linkReferences": {},
  "deployedLinkReferences": {}
}