{
  "_format": "hh-sol-artifact-1",
  "contractName": "TomatoLP",
  "sourceName": "contracts/TomatoLP.sol",
  "abi": [
    {
      "inputs": [
        {
          "internalType": "address",
          "name": "treasuryAddress",
          "type": "address"
        }
      ],
      "stateMutability": "nonpayable",
      "type": "constructor"
    },
    {
      "anonymous": false,
      "inputs": [
        {
          "indexed": true,
          "internalType": "address",
          "name": "previousOwner",
          "type": "address"
        },
        {
          "indexed": true,
          "internalType": "address",
          "name": "newOwner",
          "type": "address"
        }
      ],
      "name": "OwnershipTransferred",
      "type": "event"
    },
    {
      "inputs": [],
      "name": "balanceTMTO",
      "outputs": [
        {
          "internalType": "uint256",
          "name": "",
          "type": "uint256"
        }
      ],
      "stateMutability": "view",
      "type": "function"
    },
    {
      "inputs": [],
      "name": "balanceWETH",
      "outputs": [
        {
          "internalType": "uint256",
          "name": "",
          "type": "uint256"
        }
      ],
      "stateMutability": "view",
      "type": "function"
    },
    {
      "inputs": [
        {
          "internalType": "uint256",
          "name": "amount0",
          "type": "uint256"
        },
        {
          "internalType": "uint256",
          "name": "amount1",
          "type": "uint256"
        }
      ],
      "name": "calcLPTokens",
      "outputs": [
        {
          "internalType": "uint256",
          "name": "",
          "type": "uint256"
        }
      ],
      "stateMutability": "view",
      "type": "function"
    },
    {
      "inputs": [
        {
          "internalType": "uint256",
          "name": "deposit",
          "type": "uint256"
        },
        {
          "internalType": "address",
          "name": "to",
          "type": "address"
        }
      ],
      "name": "calcSwap",
      "outputs": [
        {
          "internalType": "uint256",
          "name": "",
          "type": "uint256"
        }
      ],
      "stateMutability": "view",
      "type": "function"
    },
    {
      "inputs": [],
      "name": "getTotalSupply",
      "outputs": [
        {
          "internalType": "uint256",
          "name": "",
          "type": "uint256"
        }
      ],
      "stateMutability": "view",
      "type": "function"
    },
    {
      "inputs": [
        {
          "internalType": "uint256",
          "name": "amount0",
          "type": "uint256"
        },
        {
          "internalType": "uint256",
          "name": "amount1",
          "type": "uint256"
        }
      ],
      "name": "initialize",
      "outputs": [],
      "stateMutability": "nonpayable",
      "type": "function"
    },
    {
      "inputs": [
        {
          "internalType": "bool",
          "name": "state",
          "type": "bool"
        }
      ],
      "name": "lockContract",
      "outputs": [],
      "stateMutability": "nonpayable",
      "type": "function"
    },
    {
      "inputs": [],
      "name": "owner",
      "outputs": [
        {
          "internalType": "address",
          "name": "",
          "type": "address"
        }
      ],
      "stateMutability": "view",
      "type": "function"
    },
    {
      "inputs": [
        {
          "internalType": "uint256",
          "name": "amount0",
          "type": "uint256"
        },
        {
          "internalType": "uint256",
          "name": "amount1",
          "type": "uint256"
        }
      ],
      "name": "provideLiquidity",
      "outputs": [],
      "stateMutability": "nonpayable",
      "type": "function"
    },
    {
      "inputs": [],
      "name": "renounceOwnership",
      "outputs": [],
      "stateMutability": "nonpayable",
      "type": "function"
    },
    {
      "inputs": [
        {
          "internalType": "address payable",
          "name": "LPTokenAdress",
          "type": "address"
        }
      ],
      "name": "setLPTokenAddress",
      "outputs": [],
      "stateMutability": "nonpayable",
      "type": "function"
    },
    {
      "inputs": [
        {
          "internalType": "address",
          "name": "TMTOAddress",
          "type": "address"
        }
      ],
      "name": "setTMTOAddress",
      "outputs": [],
      "stateMutability": "nonpayable",
      "type": "function"
    },
    {
      "inputs": [
        {
          "internalType": "uint256",
          "name": "amount0",
          "type": "uint256"
        },
        {
          "internalType": "uint256",
          "name": "amount1",
          "type": "uint256"
        },
        {
          "internalType": "address",
          "name": "to",
          "type": "address"
        }
      ],
      "name": "swap",
      "outputs": [],
      "stateMutability": "nonpayable",
      "type": "function"
    },
    {
      "inputs": [
        {
          "internalType": "address",
          "name": "newOwner",
          "type": "address"
        }
      ],
      "name": "transferOwnership",
      "outputs": [],
      "stateMutability": "nonpayable",
      "type": "function"
    },
    {
      "inputs": [
        {
          "internalType": "uint256",
          "name": "amount",
          "type": "uint256"
        }
      ],
      "name": "withdrawLiquidity",
      "outputs": [],
      "stateMutability": "nonpayable",
      "type": "function"
    },
    {
      "inputs": [
        {
          "internalType": "uint256",
          "name": "amount",
          "type": "uint256"
        }
      ],
      "name": "wrapEther",
      "outputs": [],
      "stateMutability": "nonpayable",
      "type": "function"
    },
    {
      "stateMutability": "payable",
      "type": "receive"
    }
  ],
  "bytecode": "0x60806040523480156200001157600080fd5b506040516200250038038062002500833981810160405281019062000037919062000182565b620000576200004b6200009f60201b60201c565b620000a760201b60201c565b80600360006101000a81548173ffffffffffffffffffffffffffffffffffffffff021916908373ffffffffffffffffffffffffffffffffffffffff16021790555050620001fc565b600033905090565b60008060009054906101000a900473ffffffffffffffffffffffffffffffffffffffff169050816000806101000a81548173ffffffffffffffffffffffffffffffffffffffff021916908373ffffffffffffffffffffffffffffffffffffffff1602179055508173ffffffffffffffffffffffffffffffffffffffff168173ffffffffffffffffffffffffffffffffffffffff167f8be0079c531659141344cd1fd0a4f28419497f9722a3daafe3b4186f6b6457e060405160405180910390a35050565b6000815190506200017c81620001e2565b92915050565b6000602082840312156200019557600080fd5b6000620001a5848285016200016b565b91505092915050565b6000620001bb82620001c2565b9050919050565b600073ffffffffffffffffffffffffffffffffffffffff82169050919050565b620001ed81620001ae565b8114620001f957600080fd5b50565b6122f4806200020c6000396000f3fe6080604052600436106100f75760003560e01c80638da5cb5b1161008a578063e670c11311610059578063e670c113146102f9578063ef590ca514610336578063f2fde38b1461035f578063f42ebbe014610388576100fe565b80638da5cb5b1461023d578063bcce9f3e14610268578063c4e41b22146102a5578063e4a30116146102d0576100fe565b806371d94be2116100c657806371d94be2146101955780637a16af7f146101c05780638827c1cd146101e9578063897cceee14610214576100fe565b80630a861f2a1461010357806332f1d03c1461012c5780636d9a640a14610155578063715018a61461017e576100fe565b366100fe57005b600080fd5b34801561010f57600080fd5b5061012a60048036038101906101259190611a59565b6103b1565b005b34801561013857600080fd5b50610153600480360381019061014e91906119b5565b61060f565b005b34801561016157600080fd5b5061017c60048036038101906101779190611b23565b6106cf565b005b34801561018a57600080fd5b50610193610a9c565b005b3480156101a157600080fd5b506101aa610b24565b6040516101b79190611e9e565b60405180910390f35b3480156101cc57600080fd5b506101e760048036038101906101e29190611ae7565b610b2a565b005b3480156101f557600080fd5b506101fe610f16565b60405161020b9190611e9e565b60405180910390f35b34801561022057600080fd5b5061023b60048036038101906102369190611a07565b610f1c565b005b34801561024957600080fd5b50610252610fb5565b60405161025f9190611d03565b60405180910390f35b34801561027457600080fd5b5061028f600480360381019061028a9190611ae7565b610fde565b60405161029c9190611e9e565b60405180910390f35b3480156102b157600080fd5b506102ba611083565b6040516102c79190611e9e565b60405180910390f35b3480156102dc57600080fd5b506102f760048036038101906102f29190611ae7565b61112a565b005b34801561030557600080fd5b50610320600480360381019061031b9190611aab565b61126b565b60405161032d9190611e9e565b60405180910390f35b34801561034257600080fd5b5061035d60048036038101906103589190611a59565b611394565b005b34801561036b57600080fd5b50610386600480360381019061038191906119b5565b6114e3565b005b34801561039457600080fd5b506103af60048036038101906103aa91906119de565b6115db565b005b60001515600660019054906101000a900460ff161515146103d157600080fd5b6103d961169b565b60006004546103e6611083565b836103f19190611f2b565b6103fb9190611f5c565b9050600060055461040a611083565b846104159190611f2b565b61041f9190611f5c565b9050600160009054906101000a900473ffffffffffffffffffffffffffffffffffffffff1673ffffffffffffffffffffffffffffffffffffffff16639dc29fac33856040518363ffffffff1660e01b815260040161047e929190611d55565b600060405180830381600087803b15801561049857600080fd5b505af11580156104ac573d6000803e3d6000fd5b50505050600260009054906101000a900473ffffffffffffffffffffffffffffffffffffffff1673ffffffffffffffffffffffffffffffffffffffff1663a9059cbb33846040518363ffffffff1660e01b815260040161050d929190611d55565b602060405180830381600087803b15801561052757600080fd5b505af115801561053b573d6000803e3d6000fd5b505050506040513d601f19601f8201168201806040525081019061055f9190611a30565b5073c02aaa39b223fe8d0a0e5c4f27ead9083c756cc273ffffffffffffffffffffffffffffffffffffffff1663a9059cbb33836040518363ffffffff1660e01b81526004016105af929190611d55565b602060405180830381600087803b1580156105c957600080fd5b505af11580156105dd573d6000803e3d6000fd5b505050506040513d601f19601f820116820180604052508101906106019190611a30565b5061060a61169b565b505050565b6106176117f1565b73ffffffffffffffffffffffffffffffffffffffff16610635610fb5565b73ffffffffffffffffffffffffffffffffffffffff161461068b576040517f08c379a000000000000000000000000000000000000000000000000000000000815260040161068290611e5e565b60405180910390fd5b80600260006101000a81548173ffffffffffffffffffffffffffffffffffffffff021916908373ffffffffffffffffffffffffffffffffffffffff16021790555050565b60001515600660019054906101000a900460ff161515146106ef57600080fd5b60008311806106fe5750600082115b61073d576040517f08c379a000000000000000000000000000000000000000000000000000000000815260040161073490611dbe565b60405180910390fd5b61074561169b565b60045483108015610757575060055482105b610796576040517f08c379a000000000000000000000000000000000000000000000000000000000815260040161078d90611e7e565b60405180910390fd5b73c02aaa39b223fe8d0a0e5c4f27ead9083c756cc273ffffffffffffffffffffffffffffffffffffffff168173ffffffffffffffffffffffffffffffffffffffff16141580156108345750600260009054906101000a900473ffffffffffffffffffffffffffffffffffffffff1673ffffffffffffffffffffffffffffffffffffffff168173ffffffffffffffffffffffffffffffffffffffff1614155b610873576040517f08c379a000000000000000000000000000000000000000000000000000000000815260040161086a90611e3e565b60405180910390fd5b60008084111561093757839050600260009054906101000a900473ffffffffffffffffffffffffffffffffffffffff1673ffffffffffffffffffffffffffffffffffffffff166323b872dd3330876040518463ffffffff1660e01b81526004016108df93929190611d1e565b602060405180830381600087803b1580156108f957600080fd5b505af115801561090d573d6000803e3d6000fd5b505050506040513d601f19601f820116820180604052508101906109319190611a30565b506109e9565b60008311156109e85782905073c02aaa39b223fe8d0a0e5c4f27ead9083c756cc273ffffffffffffffffffffffffffffffffffffffff166323b872dd3330866040518463ffffffff1660e01b815260040161099493929190611d1e565b602060405180830381600087803b1580156109ae57600080fd5b505af11580156109c2573d6000803e3d6000fd5b505050506040513d601f19601f820116820180604052508101906109e69190611a30565b505b5b6109f161169b565b60006109fd828461126b565b90508273ffffffffffffffffffffffffffffffffffffffff1663a9059cbb33836040518363ffffffff1660e01b8152600401610a3a929190611d55565b602060405180830381600087803b158015610a5457600080fd5b505af1158015610a68573d6000803e3d6000fd5b505050506040513d601f19601f82011682018060405250810190610a8c9190611a30565b50610a9561169b565b5050505050565b610aa46117f1565b73ffffffffffffffffffffffffffffffffffffffff16610ac2610fb5565b73ffffffffffffffffffffffffffffffffffffffff1614610b18576040517f08c379a0000000000000000000000000000000000000000000000000000000008152600401610b0f90611e5e565b60405180910390fd5b610b2260006117f9565b565b60045481565b60001515600660019054906101000a900460ff16151514610b4a57600080fd5b81600260009054906101000a900473ffffffffffffffffffffffffffffffffffffffff1673ffffffffffffffffffffffffffffffffffffffff166370a08231336040518263ffffffff1660e01b8152600401610ba69190611d03565b60206040518083038186803b158015610bbe57600080fd5b505afa158015610bd2573d6000803e3d6000fd5b505050506040513d601f19601f82011682018060405250810190610bf69190611a82565b1015610c37576040517f08c379a0000000000000000000000000000000000000000000000000000000008152600401610c2e90611dde565b60405180910390fd5b8073c02aaa39b223fe8d0a0e5c4f27ead9083c756cc273ffffffffffffffffffffffffffffffffffffffff166370a08231336040518263ffffffff1660e01b8152600401610c859190611d03565b60206040518083038186803b158015610c9d57600080fd5b505afa158015610cb1573d6000803e3d6000fd5b505050506040513d601f19601f82011682018060405250810190610cd59190611a82565b1015610d16576040517f08c379a0000000000000000000000000000000000000000000000000000000008152600401610d0d90611e1e565b60405180910390fd5b600260009054906101000a900473ffffffffffffffffffffffffffffffffffffffff1673ffffffffffffffffffffffffffffffffffffffff166323b872dd3330856040518463ffffffff1660e01b8152600401610d7593929190611d1e565b602060405180830381600087803b158015610d8f57600080fd5b505af1158015610da3573d6000803e3d6000fd5b505050506040513d601f19601f82011682018060405250810190610dc79190611a30565b5073c02aaa39b223fe8d0a0e5c4f27ead9083c756cc273ffffffffffffffffffffffffffffffffffffffff166323b872dd3330846040518463ffffffff1660e01b8152600401610e1993929190611d1e565b602060405180830381600087803b158015610e3357600080fd5b505af1158015610e47573d6000803e3d6000fd5b505050506040513d601f19601f82011682018060405250810190610e6b9190611a30565b50610e7461169b565b6000610e808383610fde565b9050600160009054906101000a900473ffffffffffffffffffffffffffffffffffffffff1673ffffffffffffffffffffffffffffffffffffffff166340c10f1933836040518363ffffffff1660e01b8152600401610edf929190611d55565b600060405180830381600087803b158015610ef957600080fd5b505af1158015610f0d573d6000803e3d6000fd5b50505050505050565b60055481565b610f246117f1565b73ffffffffffffffffffffffffffffffffffffffff16610f42610fb5565b73ffffffffffffffffffffffffffffffffffffffff1614610f98576040517f08c379a0000000000000000000000000000000000000000000000000000000008152600401610f8f90611e5e565b60405180910390fd5b80600660016101000a81548160ff02191690831515021790555050565b60008060009054906101000a900473ffffffffffffffffffffffffffffffffffffffff16905090565b60008060001515600660009054906101000a900460ff161515141561101857611011838561100c9190611f5c565b6118bd565b9050611079565b6000600454611025611083565b866110309190611f5c565b61103a9190611f2b565b90506000600554611049611083565b866110549190611f5c565b61105e9190611f2b565b90508082116110705781925082611075565b809250825b5050505b8091505092915050565b6000600160009054906101000a900473ffffffffffffffffffffffffffffffffffffffff1673ffffffffffffffffffffffffffffffffffffffff166318160ddd6040518163ffffffff1660e01b815260040160206040518083038186803b1580156110ed57600080fd5b505afa158015611101573d6000803e3d6000fd5b505050506040513d601f19601f820116820180604052508101906111259190611a82565b905090565b6111326117f1565b73ffffffffffffffffffffffffffffffffffffffff16611150610fb5565b73ffffffffffffffffffffffffffffffffffffffff16146111a6576040517f08c379a000000000000000000000000000000000000000000000000000000000815260040161119d90611e5e565b60405180910390fd5b6111ae61169b565b60006111ba8383610fde565b90506001600660006101000a81548160ff021916908315150217905550600160009054906101000a900473ffffffffffffffffffffffffffffffffffffffff1673ffffffffffffffffffffffffffffffffffffffff166340c10f1930836040518363ffffffff1660e01b8152600401611234929190611d55565b600060405180830381600087803b15801561124e57600080fd5b505af1158015611262573d6000803e3d6000fd5b50505050505050565b60008060648461127b9190611f2b565b846112869190611fb6565b935073c02aaa39b223fe8d0a0e5c4f27ead9083c756cc273ffffffffffffffffffffffffffffffffffffffff168373ffffffffffffffffffffffffffffffffffffffff1614156112e4576005846112dd9190611f2b565b905061138a565b600260009054906101000a900473ffffffffffffffffffffffffffffffffffffffff1673ffffffffffffffffffffffffffffffffffffffff168373ffffffffffffffffffffffffffffffffffffffff16141561134e576005846113479190611f5c565b9050611389565b6040517f08c379a000000000000000000000000000000000000000000000000000000000815260040161138090611d7e565b60405180910390fd5b5b8091505092915050565b61139c6117f1565b73ffffffffffffffffffffffffffffffffffffffff166113ba610fb5565b73ffffffffffffffffffffffffffffffffffffffff1614611410576040517f08c379a000000000000000000000000000000000000000000000000000000000815260040161140790611e5e565b60405180910390fd5b600073c02aaa39b223fe8d0a0e5c4f27ead9083c756cc273ffffffffffffffffffffffffffffffffffffffff168260405161144a90611cee565b60006040518083038185875af1925050503d8060008114611487576040519150601f19603f3d011682016040523d82523d6000602084013e61148c565b606091505b5050905060011515811515146114d7576040517f08c379a00000000000000000000000000000000000000000000000000000000081526004016114ce90611dfe565b60405180910390fd5b6114df61169b565b5050565b6114eb6117f1565b73ffffffffffffffffffffffffffffffffffffffff16611509610fb5565b73ffffffffffffffffffffffffffffffffffffffff161461155f576040517f08c379a000000000000000000000000000000000000000000000000000000000815260040161155690611e5e565b60405180910390fd5b600073ffffffffffffffffffffffffffffffffffffffff168173ffffffffffffffffffffffffffffffffffffffff1614156115cf576040517f08c379a00000000000000000000000000000000000000000000000000000000081526004016115c690611d9e565b60405180910390fd5b6115d8816117f9565b50565b6115e36117f1565b73ffffffffffffffffffffffffffffffffffffffff16611601610fb5565b73ffffffffffffffffffffffffffffffffffffffff1614611657576040517f08c379a000000000000000000000000000000000000000000000000000000000815260040161164e90611e5e565b60405180910390fd5b80600160006101000a81548173ffffffffffffffffffffffffffffffffffffffff021916908373ffffffffffffffffffffffffffffffffffffffff16021790555050565b600260009054906101000a900473ffffffffffffffffffffffffffffffffffffffff1673ffffffffffffffffffffffffffffffffffffffff166370a08231306040518263ffffffff1660e01b81526004016116f69190611d03565b60206040518083038186803b15801561170e57600080fd5b505afa158015611722573d6000803e3d6000fd5b505050506040513d601f19601f820116820180604052508101906117469190611a82565b60048190555073c02aaa39b223fe8d0a0e5c4f27ead9083c756cc273ffffffffffffffffffffffffffffffffffffffff166370a08231306040518263ffffffff1660e01b81526004016117999190611d03565b60206040518083038186803b1580156117b157600080fd5b505afa1580156117c5573d6000803e3d6000fd5b505050506040513d601f19601f820116820180604052508101906117e99190611a82565b600581905550565b600033905090565b60008060009054906101000a900473ffffffffffffffffffffffffffffffffffffffff169050816000806101000a81548173ffffffffffffffffffffffffffffffffffffffff021916908373ffffffffffffffffffffffffffffffffffffffff1602179055508173ffffffffffffffffffffffffffffffffffffffff168173ffffffffffffffffffffffffffffffffffffffff167f8be0079c531659141344cd1fd0a4f28419497f9722a3daafe3b4186f6b6457e060405160405180910390a35050565b6000600382111561192457819050600060016002846118dc9190611f2b565b6118e69190611ed5565b90505b8181101561191e5780915060028182856119039190611f2b565b61190d9190611ed5565b6119179190611f2b565b90506118e9565b50611932565b6000821461193157600190505b5b919050565b60008135905061194681612262565b92915050565b60008135905061195b81612279565b92915050565b60008135905061197081612290565b92915050565b60008151905061198581612290565b92915050565b60008135905061199a816122a7565b92915050565b6000815190506119af816122a7565b92915050565b6000602082840312156119c757600080fd5b60006119d584828501611937565b91505092915050565b6000602082840312156119f057600080fd5b60006119fe8482850161194c565b91505092915050565b600060208284031215611a1957600080fd5b6000611a2784828501611961565b91505092915050565b600060208284031215611a4257600080fd5b6000611a5084828501611976565b91505092915050565b600060208284031215611a6b57600080fd5b6000611a798482850161198b565b91505092915050565b600060208284031215611a9457600080fd5b6000611aa2848285016119a0565b91505092915050565b60008060408385031215611abe57600080fd5b6000611acc8582860161198b565b9250506020611add85828601611937565b9150509250929050565b60008060408385031215611afa57600080fd5b6000611b088582860161198b565b9250506020611b198582860161198b565b9150509250929050565b600080600060608486031215611b3857600080fd5b6000611b468682870161198b565b9350506020611b578682870161198b565b9250506040611b6886828701611937565b9150509250925092565b611b7b81611fea565b82525050565b6000611b8e602383611ec4565b9150611b99826120a2565b604082019050919050565b6000611bb1602683611ec4565b9150611bbc826120f1565b604082019050919050565b6000611bd4601383611ec4565b9150611bdf82612140565b602082019050919050565b6000611bf7600f83611ec4565b9150611c0282612169565b602082019050919050565b6000611c1a601683611ec4565b9150611c2582612192565b602082019050919050565b6000611c3d600f83611ec4565b9150611c48826121bb565b602082019050919050565b6000611c60601283611ec4565b9150611c6b826121e4565b602082019050919050565b6000611c83602083611ec4565b9150611c8e8261220d565b602082019050919050565b6000611ca6600083611eb9565b9150611cb182612236565b600082019050919050565b6000611cc9601683611ec4565b9150611cd482612239565b602082019050919050565b611ce88161203a565b82525050565b6000611cf982611c99565b9150819050919050565b6000602082019050611d186000830184611b72565b92915050565b6000606082019050611d336000830186611b72565b611d406020830185611b72565b611d4d6040830184611cdf565b949350505050565b6000604082019050611d6a6000830185611b72565b611d776020830184611cdf565b9392505050565b60006020820190508181036000830152611d9781611b81565b9050919050565b60006020820190508181036000830152611db781611ba4565b9050919050565b60006020820190508181036000830152611dd781611bc7565b9050919050565b60006020820190508181036000830152611df781611bea565b9050919050565b60006020820190508181036000830152611e1781611c0d565b9050919050565b60006020820190508181036000830152611e3781611c30565b9050919050565b60006020820190508181036000830152611e5781611c53565b9050919050565b60006020820190508181036000830152611e7781611c76565b9050919050565b60006020820190508181036000830152611e9781611cbc565b9050919050565b6000602082019050611eb36000830184611cdf565b92915050565b600081905092915050565b600082825260208201905092915050565b6000611ee08261203a565b9150611eeb8361203a565b9250827fffffffffffffffffffffffffffffffffffffffffffffffffffffffffffffffff03821115611f2057611f1f612044565b5b828201905092915050565b6000611f368261203a565b9150611f418361203a565b925082611f5157611f50612073565b5b828204905092915050565b6000611f678261203a565b9150611f728361203a565b9250817fffffffffffffffffffffffffffffffffffffffffffffffffffffffffffffffff0483118215151615611fab57611faa612044565b5b828202905092915050565b6000611fc18261203a565b9150611fcc8361203a565b925082821015611fdf57611fde612044565b5b828203905092915050565b6000611ff58261201a565b9050919050565b60006120078261201a565b9050919050565b60008115159050919050565b600073ffffffffffffffffffffffffffffffffffffffff82169050919050565b6000819050919050565b7f4e487b7100000000000000000000000000000000000000000000000000000000600052601160045260246000fd5b7f4e487b7100000000000000000000000000000000000000000000000000000000600052601260045260246000fd5b7f746f2061646472657373206e6565647320746f2062652057455448206f72205460008201527f4d544f0000000000000000000000000000000000000000000000000000000000602082015250565b7f4f776e61626c653a206e6577206f776e657220697320746865207a65726f206160008201527f6464726573730000000000000000000000000000000000000000000000000000602082015250565b7f696e73756666696369656e7420616d6f756e7400000000000000000000000000600082015250565b7f6e6f7420656e6f75676820544d544f0000000000000000000000000000000000600082015250565b7f7765746820636f6e76657273696f6e206661696c656400000000000000000000600082015250565b7f6e6f7420656e6f75676820574554480000000000000000000000000000000000600082015250565b7f696e76616c696420746f20616464726573730000000000000000000000000000600082015250565b7f4f776e61626c653a2063616c6c6572206973206e6f7420746865206f776e6572600082015250565b50565b7f696e73756666696369656e74206c697175696469747900000000000000000000600082015250565b61226b81611fea565b811461227657600080fd5b50565b61228281611ffc565b811461228d57600080fd5b50565b6122998161200e565b81146122a457600080fd5b50565b6122b08161203a565b81146122bb57600080fd5b5056fea2646970667358221220e8c4f8d27a570c5d8cdffe35dc222417c316bb793c75d5ed95de6518b636732d64736f6c63430008040033",
  "linkReferences": {},
  "deployedLinkReferences": {}
}