{
  "_format": "hh-sol-artifact-1",
  "contractName": "TomatoLP",
  "sourceName": "contracts/TomatoLP.sol",
  "abi": [
    {
      "anonymous": false,
      "inputs": [
        {
          "indexed": true,
          "internalType": "address",
          "name": "previousOwner",
          "type": "address"
        },
        {
          "indexed": true,
          "internalType": "address",
          "name": "newOwner",
          "type": "address"
        }
      ],
      "name": "OwnershipTransferred",
      "type": "event"
    },
    {
      "inputs": [],
      "name": "balanceETH",
      "outputs": [
        {
          "internalType": "uint256",
          "name": "",
          "type": "uint256"
        }
      ],
      "stateMutability": "view",
      "type": "function"
    },
    {
      "inputs": [],
      "name": "balanceTMTO",
      "outputs": [
        {
          "internalType": "uint256",
          "name": "",
          "type": "uint256"
        }
      ],
      "stateMutability": "view",
      "type": "function"
    },
    {
      "inputs": [
        {
          "internalType": "uint256",
          "name": "amount0",
          "type": "uint256"
        },
        {
          "internalType": "uint256",
          "name": "amount1",
          "type": "uint256"
        }
      ],
      "name": "calcLPTokens",
      "outputs": [
        {
          "internalType": "uint256",
          "name": "",
          "type": "uint256"
        }
      ],
      "stateMutability": "nonpayable",
      "type": "function"
    },
    {
      "inputs": [],
      "name": "owner",
      "outputs": [
        {
          "internalType": "address",
          "name": "",
          "type": "address"
        }
      ],
      "stateMutability": "view",
      "type": "function"
    },
    {
      "inputs": [],
      "name": "renounceOwnership",
      "outputs": [],
      "stateMutability": "nonpayable",
      "type": "function"
    },
    {
      "inputs": [
        {
          "internalType": "address",
          "name": "newOwner",
          "type": "address"
        }
      ],
      "name": "transferOwnership",
      "outputs": [],
      "stateMutability": "nonpayable",
      "type": "function"
    }
  ],
  "bytecode": "0x608060405234801561001057600080fd5b5061002d61002261003260201b60201c565b61003a60201b60201c565b6100fe565b600033905090565b60008060009054906101000a900473ffffffffffffffffffffffffffffffffffffffff169050816000806101000a81548173ffffffffffffffffffffffffffffffffffffffff021916908373ffffffffffffffffffffffffffffffffffffffff1602179055508173ffffffffffffffffffffffffffffffffffffffff168173ffffffffffffffffffffffffffffffffffffffff167f8be0079c531659141344cd1fd0a4f28419497f9722a3daafe3b4186f6b6457e060405160405180910390a35050565b61096d8061010d6000396000f3fe608060405234801561001057600080fd5b50600436106100625760003560e01c8063715018a61461006757806371d94be2146100715780638da5cb5b1461008f578063bcce9f3e146100ad578063ecbdbb32146100dd578063f2fde38b146100fb575b600080fd5b61006f610117565b005b61007961019f565b60405161008691906106ea565b60405180910390f35b6100976101a5565b6040516100a4919061068f565b60405180910390f35b6100c760048036038101906100c291906105ef565b6101ce565b6040516100d491906106ea565b60405180910390f35b6100e5610273565b6040516100f291906106ea565b60405180910390f35b6101156004803603810190610110919061059d565b610279565b005b61011f610371565b73ffffffffffffffffffffffffffffffffffffffff1661013d6101a5565b73ffffffffffffffffffffffffffffffffffffffff1614610193576040517f08c379a000000000000000000000000000000000000000000000000000000000815260040161018a906106ca565b60405180910390fd5b61019d6000610379565b565b60035481565b60008060009054906101000a900473ffffffffffffffffffffffffffffffffffffffff16905090565b60008060001515600560009054906101000a900460ff16151514156102085761020183856101fc919061079d565b61043d565b9050610269565b60006003546102156104b7565b86610220919061079d565b61022a919061076c565b905060006004546102396104b7565b86610244919061079d565b61024e919061076c565b90508082116102605781925082610265565b809250825b5050505b8091505092915050565b60045481565b610281610371565b73ffffffffffffffffffffffffffffffffffffffff1661029f6101a5565b73ffffffffffffffffffffffffffffffffffffffff16146102f5576040517f08c379a00000000000000000000000000000000000000000000000000000000081526004016102ec906106ca565b60405180910390fd5b600073ffffffffffffffffffffffffffffffffffffffff168173ffffffffffffffffffffffffffffffffffffffff161415610365576040517f08c379a000000000000000000000000000000000000000000000000000000000815260040161035c906106aa565b60405180910390fd5b61036e81610379565b50565b600033905090565b60008060009054906101000a900473ffffffffffffffffffffffffffffffffffffffff169050816000806101000a81548173ffffffffffffffffffffffffffffffffffffffff021916908373ffffffffffffffffffffffffffffffffffffffff1602179055508173ffffffffffffffffffffffffffffffffffffffff168173ffffffffffffffffffffffffffffffffffffffff167f8be0079c531659141344cd1fd0a4f28419497f9722a3daafe3b4186f6b6457e060405160405180910390a35050565b600060038211156104a4578190506000600160028461045c919061076c565b6104669190610716565b90505b8181101561049e578091506002818285610483919061076c565b61048d9190610716565b610497919061076c565b9050610469565b506104b2565b600082146104b157600190505b5b919050565b6000600160009054906101000a900473ffffffffffffffffffffffffffffffffffffffff1673ffffffffffffffffffffffffffffffffffffffff166318160ddd6040518163ffffffff1660e01b815260040160206040518083038186803b15801561052157600080fd5b505afa158015610535573d6000803e3d6000fd5b505050506040513d601f19601f8201168201806040525081019061055991906105c6565b905090565b60008135905061056d81610909565b92915050565b60008135905061058281610920565b92915050565b60008151905061059781610920565b92915050565b6000602082840312156105af57600080fd5b60006105bd8482850161055e565b91505092915050565b6000602082840312156105d857600080fd5b60006105e684828501610588565b91505092915050565b6000806040838503121561060257600080fd5b600061061085828601610573565b925050602061062185828601610573565b9150509250929050565b610634816107f7565b82525050565b6000610647602683610705565b915061065282610891565b604082019050919050565b600061066a602083610705565b9150610675826108e0565b602082019050919050565b61068981610829565b82525050565b60006020820190506106a4600083018461062b565b92915050565b600060208201905081810360008301526106c38161063a565b9050919050565b600060208201905081810360008301526106e38161065d565b9050919050565b60006020820190506106ff6000830184610680565b92915050565b600082825260208201905092915050565b600061072182610829565b915061072c83610829565b9250827fffffffffffffffffffffffffffffffffffffffffffffffffffffffffffffffff0382111561076157610760610833565b5b828201905092915050565b600061077782610829565b915061078283610829565b92508261079257610791610862565b5b828204905092915050565b60006107a882610829565b91506107b383610829565b9250817fffffffffffffffffffffffffffffffffffffffffffffffffffffffffffffffff04831182151516156107ec576107eb610833565b5b828202905092915050565b600061080282610809565b9050919050565b600073ffffffffffffffffffffffffffffffffffffffff82169050919050565b6000819050919050565b7f4e487b7100000000000000000000000000000000000000000000000000000000600052601160045260246000fd5b7f4e487b7100000000000000000000000000000000000000000000000000000000600052601260045260246000fd5b7f4f776e61626c653a206e6577206f776e657220697320746865207a65726f206160008201527f6464726573730000000000000000000000000000000000000000000000000000602082015250565b7f4f776e61626c653a2063616c6c6572206973206e6f7420746865206f776e6572600082015250565b610912816107f7565b811461091d57600080fd5b50565b61092981610829565b811461093457600080fd5b5056fea2646970667358221220b447106a25b1f8bae3360a33429dd37463b2549a92db4dbc065b86c984b743c864736f6c63430008040033",
  "linkReferences": {},
  "deployedLinkReferences": {}
}