{
  "_format": "hh-sol-artifact-1",
  "contractName": "TomatoLP",
  "sourceName": "contracts/TomatoLP.sol",
  "abi": [
    {
      "anonymous": false,
      "inputs": [
        {
          "indexed": true,
          "internalType": "address",
          "name": "previousOwner",
          "type": "address"
        },
        {
          "indexed": true,
          "internalType": "address",
          "name": "newOwner",
          "type": "address"
        }
      ],
      "name": "OwnershipTransferred",
      "type": "event"
    },
    {
      "inputs": [],
      "name": "balanceTMTO",
      "outputs": [
        {
          "internalType": "uint256",
          "name": "",
          "type": "uint256"
        }
      ],
      "stateMutability": "view",
      "type": "function"
    },
    {
      "inputs": [],
      "name": "balanceWETH",
      "outputs": [
        {
          "internalType": "uint256",
          "name": "",
          "type": "uint256"
        }
      ],
      "stateMutability": "view",
      "type": "function"
    },
    {
      "inputs": [
        {
          "internalType": "uint256",
          "name": "amount0",
          "type": "uint256"
        },
        {
          "internalType": "uint256",
          "name": "amount1",
          "type": "uint256"
        }
      ],
      "name": "calcLPTokens",
      "outputs": [
        {
          "internalType": "uint256",
          "name": "",
          "type": "uint256"
        }
      ],
      "stateMutability": "view",
      "type": "function"
    },
    {
      "inputs": [
        {
          "internalType": "uint256",
          "name": "deposit",
          "type": "uint256"
        },
        {
          "internalType": "address",
          "name": "to",
          "type": "address"
        }
      ],
      "name": "calcSwap",
      "outputs": [
        {
          "internalType": "uint256",
          "name": "",
          "type": "uint256"
        }
      ],
      "stateMutability": "view",
      "type": "function"
    },
    {
      "inputs": [],
      "name": "owner",
      "outputs": [
        {
          "internalType": "address",
          "name": "",
          "type": "address"
        }
      ],
      "stateMutability": "view",
      "type": "function"
    },
    {
      "inputs": [
        {
          "internalType": "uint256",
          "name": "amount0",
          "type": "uint256"
        },
        {
          "internalType": "uint256",
          "name": "amount1",
          "type": "uint256"
        }
      ],
      "name": "provideLiquidity",
      "outputs": [],
      "stateMutability": "nonpayable",
      "type": "function"
    },
    {
      "inputs": [],
      "name": "renounceOwnership",
      "outputs": [],
      "stateMutability": "nonpayable",
      "type": "function"
    },
    {
      "inputs": [
        {
          "internalType": "address payable",
          "name": "LPTokenAdress",
          "type": "address"
        }
      ],
      "name": "setLPTokenAddress",
      "outputs": [],
      "stateMutability": "nonpayable",
      "type": "function"
    },
    {
      "inputs": [
        {
          "internalType": "address",
          "name": "TMTOAddress",
          "type": "address"
        }
      ],
      "name": "setTMTOAddress",
      "outputs": [],
      "stateMutability": "nonpayable",
      "type": "function"
    },
    {
      "inputs": [
        {
          "internalType": "uint256",
          "name": "amount0",
          "type": "uint256"
        },
        {
          "internalType": "uint256",
          "name": "amount1",
          "type": "uint256"
        },
        {
          "internalType": "address",
          "name": "to",
          "type": "address"
        }
      ],
      "name": "swap",
      "outputs": [],
      "stateMutability": "nonpayable",
      "type": "function"
    },
    {
      "inputs": [
        {
          "internalType": "address",
          "name": "newOwner",
          "type": "address"
        }
      ],
      "name": "transferOwnership",
      "outputs": [],
      "stateMutability": "nonpayable",
      "type": "function"
    },
    {
      "inputs": [
        {
          "internalType": "uint256",
          "name": "amount",
          "type": "uint256"
        }
      ],
      "name": "withdrawLiquidity",
      "outputs": [],
      "stateMutability": "nonpayable",
      "type": "function"
    }
  ],
  "bytecode": "0x608060405234801561001057600080fd5b5061002d61002261003260201b60201c565b61003a60201b60201c565b6100fe565b600033905090565b60008060009054906101000a900473ffffffffffffffffffffffffffffffffffffffff169050816000806101000a81548173ffffffffffffffffffffffffffffffffffffffff021916908373ffffffffffffffffffffffffffffffffffffffff1602179055508173ffffffffffffffffffffffffffffffffffffffff168173ffffffffffffffffffffffffffffffffffffffff167f8be0079c531659141344cd1fd0a4f28419497f9722a3daafe3b4186f6b6457e060405160405180910390a35050565b611cef8061010d6000396000f3fe608060405234801561001057600080fd5b50600436106100b45760003560e01c80638827c1cd116100715780638827c1cd146101515780638da5cb5b1461016f578063bcce9f3e1461018d578063e670c113146101bd578063f2fde38b146101ed578063f42ebbe014610209576100b4565b80630a861f2a146100b957806332f1d03c146100d55780636d9a640a146100f1578063715018a61461010d57806371d94be2146101175780637a16af7f14610135575b600080fd5b6100d360048036038101906100ce9190611506565b610225565b005b6100ef60048036038101906100ea919061148b565b610463565b005b61010b600480360381019061010691906115d0565b610523565b005b6101156108d0565b005b61011f610958565b60405161012c91906118d0565b60405180910390f35b61014f600480360381019061014a9190611594565b61095e565b005b610159610d2a565b60405161016691906118d0565b60405180910390f35b610177610d30565b6040516101849190611755565b60405180910390f35b6101a760048036038101906101a29190611594565b610d59565b6040516101b491906118d0565b60405180910390f35b6101d760048036038101906101d29190611558565b610dfe565b6040516101e491906118d0565b60405180910390f35b6102076004803603810190610202919061148b565b610f27565b005b610223600480360381019061021e91906114b4565b61101f565b005b61022d6110df565b600060035461023a611235565b836102459190611952565b61024f9190611983565b9050600060045461025e611235565b846102699190611952565b6102739190611983565b9050600160009054906101000a900473ffffffffffffffffffffffffffffffffffffffff1673ffffffffffffffffffffffffffffffffffffffff16639dc29fac33856040518363ffffffff1660e01b81526004016102d29291906117a7565b600060405180830381600087803b1580156102ec57600080fd5b505af1158015610300573d6000803e3d6000fd5b50505050600260009054906101000a900473ffffffffffffffffffffffffffffffffffffffff1673ffffffffffffffffffffffffffffffffffffffff1663a9059cbb33846040518363ffffffff1660e01b81526004016103619291906117a7565b602060405180830381600087803b15801561037b57600080fd5b505af115801561038f573d6000803e3d6000fd5b505050506040513d601f19601f820116820180604052508101906103b391906114dd565b5073ecf8f87f810ecf450940c9f60066b4a7a501d6a773ffffffffffffffffffffffffffffffffffffffff1663a9059cbb33836040518363ffffffff1660e01b81526004016104039291906117a7565b602060405180830381600087803b15801561041d57600080fd5b505af1158015610431573d6000803e3d6000fd5b505050506040513d601f19601f8201168201806040525081019061045591906114dd565b5061045e6110df565b505050565b61046b6112dc565b73ffffffffffffffffffffffffffffffffffffffff16610489610d30565b73ffffffffffffffffffffffffffffffffffffffff16146104df576040517f08c379a00000000000000000000000000000000000000000000000000000000081526004016104d690611890565b60405180910390fd5b80600260006101000a81548173ffffffffffffffffffffffffffffffffffffffff021916908373ffffffffffffffffffffffffffffffffffffffff16021790555050565b60008311806105325750600082115b610571576040517f08c379a000000000000000000000000000000000000000000000000000000000815260040161056890611810565b60405180910390fd5b6105796110df565b6003548310801561058b575060045482105b6105ca576040517f08c379a00000000000000000000000000000000000000000000000000000000081526004016105c1906118b0565b60405180910390fd5b73ecf8f87f810ecf450940c9f60066b4a7a501d6a773ffffffffffffffffffffffffffffffffffffffff168173ffffffffffffffffffffffffffffffffffffffff16141580156106685750600260009054906101000a900473ffffffffffffffffffffffffffffffffffffffff1673ffffffffffffffffffffffffffffffffffffffff168173ffffffffffffffffffffffffffffffffffffffff1614155b6106a7576040517f08c379a000000000000000000000000000000000000000000000000000000000815260040161069e90611870565b60405180910390fd5b60008084111561076b57839050600260009054906101000a900473ffffffffffffffffffffffffffffffffffffffff1673ffffffffffffffffffffffffffffffffffffffff166323b872dd3330876040518463ffffffff1660e01b815260040161071393929190611770565b602060405180830381600087803b15801561072d57600080fd5b505af1158015610741573d6000803e3d6000fd5b505050506040513d601f19601f8201168201806040525081019061076591906114dd565b5061081d565b600083111561081c5782905073ecf8f87f810ecf450940c9f60066b4a7a501d6a773ffffffffffffffffffffffffffffffffffffffff166323b872dd3330866040518463ffffffff1660e01b81526004016107c893929190611770565b602060405180830381600087803b1580156107e257600080fd5b505af11580156107f6573d6000803e3d6000fd5b505050506040513d601f19601f8201168201806040525081019061081a91906114dd565b505b5b6108256110df565b60006108318284610dfe565b90508273ffffffffffffffffffffffffffffffffffffffff1663a9059cbb33836040518363ffffffff1660e01b815260040161086e9291906117a7565b602060405180830381600087803b15801561088857600080fd5b505af115801561089c573d6000803e3d6000fd5b505050506040513d601f19601f820116820180604052508101906108c091906114dd565b506108c96110df565b5050505050565b6108d86112dc565b73ffffffffffffffffffffffffffffffffffffffff166108f6610d30565b73ffffffffffffffffffffffffffffffffffffffff161461094c576040517f08c379a000000000000000000000000000000000000000000000000000000000815260040161094390611890565b60405180910390fd5b61095660006112e4565b565b60035481565b81600260009054906101000a900473ffffffffffffffffffffffffffffffffffffffff1673ffffffffffffffffffffffffffffffffffffffff166370a08231336040518263ffffffff1660e01b81526004016109ba9190611755565b60206040518083038186803b1580156109d257600080fd5b505afa1580156109e6573d6000803e3d6000fd5b505050506040513d601f19601f82011682018060405250810190610a0a919061152f565b1015610a4b576040517f08c379a0000000000000000000000000000000000000000000000000000000008152600401610a4290611830565b60405180910390fd5b8073ecf8f87f810ecf450940c9f60066b4a7a501d6a773ffffffffffffffffffffffffffffffffffffffff166370a08231336040518263ffffffff1660e01b8152600401610a999190611755565b60206040518083038186803b158015610ab157600080fd5b505afa158015610ac5573d6000803e3d6000fd5b505050506040513d601f19601f82011682018060405250810190610ae9919061152f565b1015610b2a576040517f08c379a0000000000000000000000000000000000000000000000000000000008152600401610b2190611850565b60405180910390fd5b600260009054906101000a900473ffffffffffffffffffffffffffffffffffffffff1673ffffffffffffffffffffffffffffffffffffffff166323b872dd3330856040518463ffffffff1660e01b8152600401610b8993929190611770565b602060405180830381600087803b158015610ba357600080fd5b505af1158015610bb7573d6000803e3d6000fd5b505050506040513d601f19601f82011682018060405250810190610bdb91906114dd565b5073ecf8f87f810ecf450940c9f60066b4a7a501d6a773ffffffffffffffffffffffffffffffffffffffff166323b872dd3330846040518463ffffffff1660e01b8152600401610c2d93929190611770565b602060405180830381600087803b158015610c4757600080fd5b505af1158015610c5b573d6000803e3d6000fd5b505050506040513d601f19601f82011682018060405250810190610c7f91906114dd565b50610c886110df565b6000610c948383610d59565b9050600160009054906101000a900473ffffffffffffffffffffffffffffffffffffffff1673ffffffffffffffffffffffffffffffffffffffff166340c10f1933836040518363ffffffff1660e01b8152600401610cf39291906117a7565b600060405180830381600087803b158015610d0d57600080fd5b505af1158015610d21573d6000803e3d6000fd5b50505050505050565b60045481565b60008060009054906101000a900473ffffffffffffffffffffffffffffffffffffffff16905090565b60008060001515600560009054906101000a900460ff1615151415610d9357610d8c8385610d879190611983565b6113a8565b9050610df4565b6000600354610da0611235565b86610dab9190611983565b610db59190611952565b90506000600454610dc4611235565b86610dcf9190611983565b610dd99190611952565b9050808211610deb5781925082610df0565b809250825b5050505b8091505092915050565b600080606484610e0e9190611952565b84610e1991906119dd565b935073ecf8f87f810ecf450940c9f60066b4a7a501d6a773ffffffffffffffffffffffffffffffffffffffff168373ffffffffffffffffffffffffffffffffffffffff161415610e7757600584610e709190611952565b9050610f1d565b600260009054906101000a900473ffffffffffffffffffffffffffffffffffffffff1673ffffffffffffffffffffffffffffffffffffffff168373ffffffffffffffffffffffffffffffffffffffff161415610ee157600584610eda9190611983565b9050610f1c565b6040517f08c379a0000000000000000000000000000000000000000000000000000000008152600401610f13906117d0565b60405180910390fd5b5b8091505092915050565b610f2f6112dc565b73ffffffffffffffffffffffffffffffffffffffff16610f4d610d30565b73ffffffffffffffffffffffffffffffffffffffff1614610fa3576040517f08c379a0000000000000000000000000000000000000000000000000000000008152600401610f9a90611890565b60405180910390fd5b600073ffffffffffffffffffffffffffffffffffffffff168173ffffffffffffffffffffffffffffffffffffffff161415611013576040517f08c379a000000000000000000000000000000000000000000000000000000000815260040161100a906117f0565b60405180910390fd5b61101c816112e4565b50565b6110276112dc565b73ffffffffffffffffffffffffffffffffffffffff16611045610d30565b73ffffffffffffffffffffffffffffffffffffffff161461109b576040517f08c379a000000000000000000000000000000000000000000000000000000000815260040161109290611890565b60405180910390fd5b80600160006101000a81548173ffffffffffffffffffffffffffffffffffffffff021916908373ffffffffffffffffffffffffffffffffffffffff16021790555050565b600260009054906101000a900473ffffffffffffffffffffffffffffffffffffffff1673ffffffffffffffffffffffffffffffffffffffff166370a08231306040518263ffffffff1660e01b815260040161113a9190611755565b60206040518083038186803b15801561115257600080fd5b505afa158015611166573d6000803e3d6000fd5b505050506040513d601f19601f8201168201806040525081019061118a919061152f565b60038190555073ecf8f87f810ecf450940c9f60066b4a7a501d6a773ffffffffffffffffffffffffffffffffffffffff166370a08231306040518263ffffffff1660e01b81526004016111dd9190611755565b60206040518083038186803b1580156111f557600080fd5b505afa158015611209573d6000803e3d6000fd5b505050506040513d601f19601f8201168201806040525081019061122d919061152f565b600481905550565b6000600160009054906101000a900473ffffffffffffffffffffffffffffffffffffffff1673ffffffffffffffffffffffffffffffffffffffff166318160ddd6040518163ffffffff1660e01b815260040160206040518083038186803b15801561129f57600080fd5b505afa1580156112b3573d6000803e3d6000fd5b505050506040513d601f19601f820116820180604052508101906112d7919061152f565b905090565b600033905090565b60008060009054906101000a900473ffffffffffffffffffffffffffffffffffffffff169050816000806101000a81548173ffffffffffffffffffffffffffffffffffffffff021916908373ffffffffffffffffffffffffffffffffffffffff1602179055508173ffffffffffffffffffffffffffffffffffffffff168173ffffffffffffffffffffffffffffffffffffffff167f8be0079c531659141344cd1fd0a4f28419497f9722a3daafe3b4186f6b6457e060405160405180910390a35050565b6000600382111561140f57819050600060016002846113c79190611952565b6113d191906118fc565b90505b818110156114095780915060028182856113ee9190611952565b6113f891906118fc565b6114029190611952565b90506113d4565b5061141d565b6000821461141c57600190505b5b919050565b60008135905061143181611c5d565b92915050565b60008135905061144681611c74565b92915050565b60008151905061145b81611c8b565b92915050565b60008135905061147081611ca2565b92915050565b60008151905061148581611ca2565b92915050565b60006020828403121561149d57600080fd5b60006114ab84828501611422565b91505092915050565b6000602082840312156114c657600080fd5b60006114d484828501611437565b91505092915050565b6000602082840312156114ef57600080fd5b60006114fd8482850161144c565b91505092915050565b60006020828403121561151857600080fd5b600061152684828501611461565b91505092915050565b60006020828403121561154157600080fd5b600061154f84828501611476565b91505092915050565b6000806040838503121561156b57600080fd5b600061157985828601611461565b925050602061158a85828601611422565b9150509250929050565b600080604083850312156115a757600080fd5b60006115b585828601611461565b92505060206115c685828601611461565b9150509250929050565b6000806000606084860312156115e557600080fd5b60006115f386828701611461565b935050602061160486828701611461565b925050604061161586828701611422565b9150509250925092565b61162881611a11565b82525050565b600061163b6023836118eb565b915061164682611ac9565b604082019050919050565b600061165e6026836118eb565b915061166982611b18565b604082019050919050565b60006116816013836118eb565b915061168c82611b67565b602082019050919050565b60006116a4600f836118eb565b91506116af82611b90565b602082019050919050565b60006116c7600f836118eb565b91506116d282611bb9565b602082019050919050565b60006116ea6012836118eb565b91506116f582611be2565b602082019050919050565b600061170d6020836118eb565b915061171882611c0b565b602082019050919050565b60006117306016836118eb565b915061173b82611c34565b602082019050919050565b61174f81611a61565b82525050565b600060208201905061176a600083018461161f565b92915050565b6000606082019050611785600083018661161f565b611792602083018561161f565b61179f6040830184611746565b949350505050565b60006040820190506117bc600083018561161f565b6117c96020830184611746565b9392505050565b600060208201905081810360008301526117e98161162e565b9050919050565b6000602082019050818103600083015261180981611651565b9050919050565b6000602082019050818103600083015261182981611674565b9050919050565b6000602082019050818103600083015261184981611697565b9050919050565b60006020820190508181036000830152611869816116ba565b9050919050565b60006020820190508181036000830152611889816116dd565b9050919050565b600060208201905081810360008301526118a981611700565b9050919050565b600060208201905081810360008301526118c981611723565b9050919050565b60006020820190506118e56000830184611746565b92915050565b600082825260208201905092915050565b600061190782611a61565b915061191283611a61565b9250827fffffffffffffffffffffffffffffffffffffffffffffffffffffffffffffffff0382111561194757611946611a6b565b5b828201905092915050565b600061195d82611a61565b915061196883611a61565b92508261197857611977611a9a565b5b828204905092915050565b600061198e82611a61565b915061199983611a61565b9250817fffffffffffffffffffffffffffffffffffffffffffffffffffffffffffffffff04831182151516156119d2576119d1611a6b565b5b828202905092915050565b60006119e882611a61565b91506119f383611a61565b925082821015611a0657611a05611a6b565b5b828203905092915050565b6000611a1c82611a41565b9050919050565b6000611a2e82611a41565b9050919050565b60008115159050919050565b600073ffffffffffffffffffffffffffffffffffffffff82169050919050565b6000819050919050565b7f4e487b7100000000000000000000000000000000000000000000000000000000600052601160045260246000fd5b7f4e487b7100000000000000000000000000000000000000000000000000000000600052601260045260246000fd5b7f746f2061646472657373206e6565647320746f2062652057455448206f72205460008201527f4d544f0000000000000000000000000000000000000000000000000000000000602082015250565b7f4f776e61626c653a206e6577206f776e657220697320746865207a65726f206160008201527f6464726573730000000000000000000000000000000000000000000000000000602082015250565b7f696e73756666696369656e7420616d6f756e7400000000000000000000000000600082015250565b7f6e6f7420656e6f75676820544d544f0000000000000000000000000000000000600082015250565b7f6e6f7420656e6f75676820574554480000000000000000000000000000000000600082015250565b7f696e76616c696420746f20616464726573730000000000000000000000000000600082015250565b7f4f776e61626c653a2063616c6c6572206973206e6f7420746865206f776e6572600082015250565b7f696e73756666696369656e74206c697175696469747900000000000000000000600082015250565b611c6681611a11565b8114611c7157600080fd5b50565b611c7d81611a23565b8114611c8857600080fd5b50565b611c9481611a35565b8114611c9f57600080fd5b50565b611cab81611a61565b8114611cb657600080fd5b5056fea2646970667358221220dbd82e9120e139baaf858e393b247e0cf364baf6678e16646c17c13cf823967564736f6c63430008040033",
  "linkReferences": {},
  "deployedLinkReferences": {}
}