{
  "_format": "hh-sol-artifact-1",
  "contractName": "TomatoLP",
  "sourceName": "contracts/TomatoLP.sol",
  "abi": [
    {
      "inputs": [
        {
          "internalType": "address",
          "name": "TMTOAddress",
          "type": "address"
        }
      ],
      "stateMutability": "nonpayable",
      "type": "constructor"
    },
    {
      "anonymous": false,
      "inputs": [
        {
          "indexed": true,
          "internalType": "address",
          "name": "previousOwner",
          "type": "address"
        },
        {
          "indexed": true,
          "internalType": "address",
          "name": "newOwner",
          "type": "address"
        }
      ],
      "name": "OwnershipTransferred",
      "type": "event"
    },
    {
      "inputs": [],
      "name": "balanceTMTO",
      "outputs": [
        {
          "internalType": "uint256",
          "name": "",
          "type": "uint256"
        }
      ],
      "stateMutability": "view",
      "type": "function"
    },
    {
      "inputs": [],
      "name": "balanceWETH",
      "outputs": [
        {
          "internalType": "uint256",
          "name": "",
          "type": "uint256"
        }
      ],
      "stateMutability": "view",
      "type": "function"
    },
    {
      "inputs": [
        {
          "internalType": "uint256",
          "name": "amount0",
          "type": "uint256"
        },
        {
          "internalType": "uint256",
          "name": "amount1",
          "type": "uint256"
        }
      ],
      "name": "calcLPTokens",
      "outputs": [
        {
          "internalType": "uint256",
          "name": "",
          "type": "uint256"
        }
      ],
      "stateMutability": "nonpayable",
      "type": "function"
    },
    {
      "inputs": [],
      "name": "owner",
      "outputs": [
        {
          "internalType": "address",
          "name": "",
          "type": "address"
        }
      ],
      "stateMutability": "view",
      "type": "function"
    },
    {
      "inputs": [
        {
          "internalType": "uint256",
          "name": "amount0",
          "type": "uint256"
        },
        {
          "internalType": "uint256",
          "name": "amount1",
          "type": "uint256"
        }
      ],
      "name": "provideLiquidity",
      "outputs": [],
      "stateMutability": "nonpayable",
      "type": "function"
    },
    {
      "inputs": [],
      "name": "renounceOwnership",
      "outputs": [],
      "stateMutability": "nonpayable",
      "type": "function"
    },
    {
      "inputs": [
        {
          "internalType": "address payable",
          "name": "LPTokenAdress",
          "type": "address"
        }
      ],
      "name": "setLPTokenAddress",
      "outputs": [],
      "stateMutability": "nonpayable",
      "type": "function"
    },
    {
      "inputs": [],
      "name": "swap",
      "outputs": [],
      "stateMutability": "nonpayable",
      "type": "function"
    },
    {
      "inputs": [
        {
          "internalType": "address",
          "name": "newOwner",
          "type": "address"
        }
      ],
      "name": "transferOwnership",
      "outputs": [],
      "stateMutability": "nonpayable",
      "type": "function"
    },
    {
      "inputs": [
        {
          "internalType": "uint256",
          "name": "amount",
          "type": "uint256"
        }
      ],
      "name": "withdrawLiquidity",
      "outputs": [],
      "stateMutability": "nonpayable",
      "type": "function"
    }
  ],
  "bytecode": "0x60806040523480156200001157600080fd5b506040516200115738038062001157833981810160405281019062000037919062000182565b620000576200004b6200009f60201b60201c565b620000a760201b60201c565b80600260006101000a81548173ffffffffffffffffffffffffffffffffffffffff021916908373ffffffffffffffffffffffffffffffffffffffff16021790555050620001fc565b600033905090565b60008060009054906101000a900473ffffffffffffffffffffffffffffffffffffffff169050816000806101000a81548173ffffffffffffffffffffffffffffffffffffffff021916908373ffffffffffffffffffffffffffffffffffffffff1602179055508173ffffffffffffffffffffffffffffffffffffffff168173ffffffffffffffffffffffffffffffffffffffff167f8be0079c531659141344cd1fd0a4f28419497f9722a3daafe3b4186f6b6457e060405160405180910390a35050565b6000815190506200017c81620001e2565b92915050565b6000602082840312156200019557600080fd5b6000620001a5848285016200016b565b91505092915050565b6000620001bb82620001c2565b9050919050565b600073ffffffffffffffffffffffffffffffffffffffff82169050919050565b620001ed81620001ae565b8114620001f957600080fd5b50565b610f4b806200020c6000396000f3fe608060405234801561001057600080fd5b506004361061009e5760003560e01c80638827c1cd116100665780638827c1cd1461010d5780638da5cb5b1461012b578063bcce9f3e14610149578063f2fde38b14610179578063f42ebbe0146101955761009e565b80630a861f2a146100a3578063715018a6146100bf57806371d94be2146100c95780637a16af7f146100e75780638119c06514610103575b600080fd5b6100bd60048036038101906100b89190610ad2565b6101b1565b005b6100c7610411565b005b6100d1610499565b6040516100de9190610c48565b60405180910390f35b61010160048036038101906100fc9190610b24565b61049f565b005b61010b610573565b005b610115610575565b6040516101229190610c48565b60405180910390f35b61013361057b565b6040516101409190610bc4565b60405180910390f35b610163600480360381019061015e9190610b24565b6105a4565b6040516101709190610c48565b60405180910390f35b610193600480360381019061018e9190610a57565b610649565b005b6101af60048036038101906101aa9190610a80565b610741565b005b60006003546101be610801565b836101c99190610cca565b6101d39190610cfb565b905060006004546101e2610801565b846101ed9190610cca565b6101f79190610cfb565b9050816003600082825461020b9190610d55565b9250508190555080600460008282546102249190610d55565b92505081905550600160009054906101000a900473ffffffffffffffffffffffffffffffffffffffff1673ffffffffffffffffffffffffffffffffffffffff16639dc29fac33856040518363ffffffff1660e01b8152600401610288929190610bdf565b600060405180830381600087803b1580156102a257600080fd5b505af11580156102b6573d6000803e3d6000fd5b50505050600260009054906101000a900473ffffffffffffffffffffffffffffffffffffffff1673ffffffffffffffffffffffffffffffffffffffff1663a9059cbb33846040518363ffffffff1660e01b8152600401610317929190610bdf565b602060405180830381600087803b15801561033157600080fd5b505af1158015610345573d6000803e3d6000fd5b505050506040513d601f19601f820116820180604052508101906103699190610aa9565b5073ecf8f87f810ecf450940c9f60066b4a7a501d6a773ffffffffffffffffffffffffffffffffffffffff1663a9059cbb33836040518363ffffffff1660e01b81526004016103b9929190610bdf565b602060405180830381600087803b1580156103d357600080fd5b505af11580156103e7573d6000803e3d6000fd5b505050506040513d601f19601f8201168201806040525081019061040b9190610aa9565b50505050565b6104196108a8565b73ffffffffffffffffffffffffffffffffffffffff1661043761057b565b73ffffffffffffffffffffffffffffffffffffffff161461048d576040517f08c379a000000000000000000000000000000000000000000000000000000000815260040161048490610c28565b60405180910390fd5b61049760006108b0565b565b60035481565b60006104ab83836105a4565b905082600360008282546104bf9190610c74565b9250508190555081600460008282546104d89190610c74565b92505081905550600160009054906101000a900473ffffffffffffffffffffffffffffffffffffffff1673ffffffffffffffffffffffffffffffffffffffff166340c10f1933836040518363ffffffff1660e01b815260040161053c929190610bdf565b600060405180830381600087803b15801561055657600080fd5b505af115801561056a573d6000803e3d6000fd5b50505050505050565b565b60045481565b60008060009054906101000a900473ffffffffffffffffffffffffffffffffffffffff16905090565b60008060001515600560009054906101000a900460ff16151514156105de576105d783856105d29190610cfb565b610974565b905061063f565b60006003546105eb610801565b866105f69190610cfb565b6106009190610cca565b9050600060045461060f610801565b8661061a9190610cfb565b6106249190610cca565b9050808211610636578192508261063b565b809250825b5050505b8091505092915050565b6106516108a8565b73ffffffffffffffffffffffffffffffffffffffff1661066f61057b565b73ffffffffffffffffffffffffffffffffffffffff16146106c5576040517f08c379a00000000000000000000000000000000000000000000000000000000081526004016106bc90610c28565b60405180910390fd5b600073ffffffffffffffffffffffffffffffffffffffff168173ffffffffffffffffffffffffffffffffffffffff161415610735576040517f08c379a000000000000000000000000000000000000000000000000000000000815260040161072c90610c08565b60405180910390fd5b61073e816108b0565b50565b6107496108a8565b73ffffffffffffffffffffffffffffffffffffffff1661076761057b565b73ffffffffffffffffffffffffffffffffffffffff16146107bd576040517f08c379a00000000000000000000000000000000000000000000000000000000081526004016107b490610c28565b60405180910390fd5b80600160006101000a81548173ffffffffffffffffffffffffffffffffffffffff021916908373ffffffffffffffffffffffffffffffffffffffff16021790555050565b6000600160009054906101000a900473ffffffffffffffffffffffffffffffffffffffff1673ffffffffffffffffffffffffffffffffffffffff166318160ddd6040518163ffffffff1660e01b815260040160206040518083038186803b15801561086b57600080fd5b505afa15801561087f573d6000803e3d6000fd5b505050506040513d601f19601f820116820180604052508101906108a39190610afb565b905090565b600033905090565b60008060009054906101000a900473ffffffffffffffffffffffffffffffffffffffff169050816000806101000a81548173ffffffffffffffffffffffffffffffffffffffff021916908373ffffffffffffffffffffffffffffffffffffffff1602179055508173ffffffffffffffffffffffffffffffffffffffff168173ffffffffffffffffffffffffffffffffffffffff167f8be0079c531659141344cd1fd0a4f28419497f9722a3daafe3b4186f6b6457e060405160405180910390a35050565b600060038211156109db57819050600060016002846109939190610cca565b61099d9190610c74565b90505b818110156109d55780915060028182856109ba9190610cca565b6109c49190610c74565b6109ce9190610cca565b90506109a0565b506109e9565b600082146109e857600190505b5b919050565b6000813590506109fd81610eb9565b92915050565b600081359050610a1281610ed0565b92915050565b600081519050610a2781610ee7565b92915050565b600081359050610a3c81610efe565b92915050565b600081519050610a5181610efe565b92915050565b600060208284031215610a6957600080fd5b6000610a77848285016109ee565b91505092915050565b600060208284031215610a9257600080fd5b6000610aa084828501610a03565b91505092915050565b600060208284031215610abb57600080fd5b6000610ac984828501610a18565b91505092915050565b600060208284031215610ae457600080fd5b6000610af284828501610a2d565b91505092915050565b600060208284031215610b0d57600080fd5b6000610b1b84828501610a42565b91505092915050565b60008060408385031215610b3757600080fd5b6000610b4585828601610a2d565b9250506020610b5685828601610a2d565b9150509250929050565b610b6981610d89565b82525050565b6000610b7c602683610c63565b9150610b8782610e41565b604082019050919050565b6000610b9f602083610c63565b9150610baa82610e90565b602082019050919050565b610bbe81610dd9565b82525050565b6000602082019050610bd96000830184610b60565b92915050565b6000604082019050610bf46000830185610b60565b610c016020830184610bb5565b9392505050565b60006020820190508181036000830152610c2181610b6f565b9050919050565b60006020820190508181036000830152610c4181610b92565b9050919050565b6000602082019050610c5d6000830184610bb5565b92915050565b600082825260208201905092915050565b6000610c7f82610dd9565b9150610c8a83610dd9565b9250827fffffffffffffffffffffffffffffffffffffffffffffffffffffffffffffffff03821115610cbf57610cbe610de3565b5b828201905092915050565b6000610cd582610dd9565b9150610ce083610dd9565b925082610cf057610cef610e12565b5b828204905092915050565b6000610d0682610dd9565b9150610d1183610dd9565b9250817fffffffffffffffffffffffffffffffffffffffffffffffffffffffffffffffff0483118215151615610d4a57610d49610de3565b5b828202905092915050565b6000610d6082610dd9565b9150610d6b83610dd9565b925082821015610d7e57610d7d610de3565b5b828203905092915050565b6000610d9482610db9565b9050919050565b6000610da682610db9565b9050919050565b60008115159050919050565b600073ffffffffffffffffffffffffffffffffffffffff82169050919050565b6000819050919050565b7f4e487b7100000000000000000000000000000000000000000000000000000000600052601160045260246000fd5b7f4e487b7100000000000000000000000000000000000000000000000000000000600052601260045260246000fd5b7f4f776e61626c653a206e6577206f776e657220697320746865207a65726f206160008201527f6464726573730000000000000000000000000000000000000000000000000000602082015250565b7f4f776e61626c653a2063616c6c6572206973206e6f7420746865206f776e6572600082015250565b610ec281610d89565b8114610ecd57600080fd5b50565b610ed981610d9b565b8114610ee457600080fd5b50565b610ef081610dad565b8114610efb57600080fd5b50565b610f0781610dd9565b8114610f1257600080fd5b5056fea264697066735822122010b81c438809e26195a4fec35bc36d20685e3ccd688264b4ba2c6252d2a0237464736f6c63430008040033",
  "linkReferences": {},
  "deployedLinkReferences": {}
}