{
  "_format": "hh-sol-artifact-1",
  "contractName": "Treasury",
  "sourceName": "contracts/Treasury.sol",
  "abi": [
    {
      "anonymous": false,
      "inputs": [
        {
          "indexed": true,
          "internalType": "address",
          "name": "previousOwner",
          "type": "address"
        },
        {
          "indexed": true,
          "internalType": "address",
          "name": "newOwner",
          "type": "address"
        }
      ],
      "name": "OwnershipTransferred",
      "type": "event"
    },
    {
      "inputs": [],
      "name": "claimTreasuryTax",
      "outputs": [],
      "stateMutability": "nonpayable",
      "type": "function"
    },
    {
      "inputs": [],
      "name": "owner",
      "outputs": [
        {
          "internalType": "address",
          "name": "",
          "type": "address"
        }
      ],
      "stateMutability": "view",
      "type": "function"
    },
    {
      "inputs": [],
      "name": "renounceOwnership",
      "outputs": [],
      "stateMutability": "nonpayable",
      "type": "function"
    },
    {
      "inputs": [
        {
          "internalType": "address",
          "name": "tokenContract",
          "type": "address"
        }
      ],
      "name": "setTokenContract",
      "outputs": [],
      "stateMutability": "nonpayable",
      "type": "function"
    },
    {
      "inputs": [
        {
          "internalType": "address",
          "name": "newOwner",
          "type": "address"
        }
      ],
      "name": "transferOwnership",
      "outputs": [],
      "stateMutability": "nonpayable",
      "type": "function"
    }
  ],
  "bytecode": "0x608060405234801561001057600080fd5b5061002d61002261003260201b60201c565b61003a60201b60201c565b6100fe565b600033905090565b60008060009054906101000a900473ffffffffffffffffffffffffffffffffffffffff169050816000806101000a81548173ffffffffffffffffffffffffffffffffffffffff021916908373ffffffffffffffffffffffffffffffffffffffff1602179055508173ffffffffffffffffffffffffffffffffffffffff168173ffffffffffffffffffffffffffffffffffffffff167f8be0079c531659141344cd1fd0a4f28419497f9722a3daafe3b4186f6b6457e060405160405180910390a35050565b6106f18061010d6000396000f3fe608060405234801561001057600080fd5b50600436106100575760003560e01c8063386750f41461005c578063715018a6146100665780638da5cb5b14610070578063bbcd5bbe1461008e578063f2fde38b146100aa575b600080fd5b6100646100c6565b005b61006e6101c6565b005b61007861024e565b604051610085919061058e565b60405180910390f35b6100a860048036038101906100a39190610510565b610277565b005b6100c460048036038101906100bf9190610510565b610337565b005b6100ce61042f565b73ffffffffffffffffffffffffffffffffffffffff166100ec61024e565b73ffffffffffffffffffffffffffffffffffffffff1614610142576040517f08c379a0000000000000000000000000000000000000000000000000000000008152600401610139906105c9565b60405180910390fd5b600160009054906101000a900473ffffffffffffffffffffffffffffffffffffffff1673ffffffffffffffffffffffffffffffffffffffff1663166bab956040518163ffffffff1660e01b8152600401600060405180830381600087803b1580156101ac57600080fd5b505af11580156101c0573d6000803e3d6000fd5b50505050565b6101ce61042f565b73ffffffffffffffffffffffffffffffffffffffff166101ec61024e565b73ffffffffffffffffffffffffffffffffffffffff1614610242576040517f08c379a0000000000000000000000000000000000000000000000000000000008152600401610239906105c9565b60405180910390fd5b61024c6000610437565b565b60008060009054906101000a900473ffffffffffffffffffffffffffffffffffffffff16905090565b61027f61042f565b73ffffffffffffffffffffffffffffffffffffffff1661029d61024e565b73ffffffffffffffffffffffffffffffffffffffff16146102f3576040517f08c379a00000000000000000000000000000000000000000000000000000000081526004016102ea906105c9565b60405180910390fd5b80600160006101000a81548173ffffffffffffffffffffffffffffffffffffffff021916908373ffffffffffffffffffffffffffffffffffffffff16021790555050565b61033f61042f565b73ffffffffffffffffffffffffffffffffffffffff1661035d61024e565b73ffffffffffffffffffffffffffffffffffffffff16146103b3576040517f08c379a00000000000000000000000000000000000000000000000000000000081526004016103aa906105c9565b60405180910390fd5b600073ffffffffffffffffffffffffffffffffffffffff168173ffffffffffffffffffffffffffffffffffffffff161415610423576040517f08c379a000000000000000000000000000000000000000000000000000000000815260040161041a906105a9565b60405180910390fd5b61042c81610437565b50565b600033905090565b60008060009054906101000a900473ffffffffffffffffffffffffffffffffffffffff169050816000806101000a81548173ffffffffffffffffffffffffffffffffffffffff021916908373ffffffffffffffffffffffffffffffffffffffff1602179055508173ffffffffffffffffffffffffffffffffffffffff168173ffffffffffffffffffffffffffffffffffffffff167f8be0079c531659141344cd1fd0a4f28419497f9722a3daafe3b4186f6b6457e060405160405180910390a35050565b60008135905061050a816106a4565b92915050565b60006020828403121561052257600080fd5b6000610530848285016104fb565b91505092915050565b610542816105fa565b82525050565b60006105556026836105e9565b91506105608261062c565b604082019050919050565b60006105786020836105e9565b91506105838261067b565b602082019050919050565b60006020820190506105a36000830184610539565b92915050565b600060208201905081810360008301526105c281610548565b9050919050565b600060208201905081810360008301526105e28161056b565b9050919050565b600082825260208201905092915050565b60006106058261060c565b9050919050565b600073ffffffffffffffffffffffffffffffffffffffff82169050919050565b7f4f776e61626c653a206e6577206f776e657220697320746865207a65726f206160008201527f6464726573730000000000000000000000000000000000000000000000000000602082015250565b7f4f776e61626c653a2063616c6c6572206973206e6f7420746865206f776e6572600082015250565b6106ad816105fa565b81146106b857600080fd5b5056fea264697066735822122035ad35b6eb1f24681e8ad8d8f9d58c8c2b561dd8e09d5c6dfb8e3aa4fac2109364736f6c63430008040033",
  "linkReferences": {},
  "deployedLinkReferences": {}
}