{
  "_format": "hh-sol-artifact-1",
  "contractName": "Treasury",
  "sourceName": "contracts/Treasury.sol",
  "abi": [
    {
      "anonymous": false,
      "inputs": [
        {
          "indexed": true,
          "internalType": "address",
          "name": "previousOwner",
          "type": "address"
        },
        {
          "indexed": true,
          "internalType": "address",
          "name": "newOwner",
          "type": "address"
        }
      ],
      "name": "OwnershipTransferred",
      "type": "event"
    },
    {
      "inputs": [],
      "name": "claimTreasuryTax",
      "outputs": [],
      "stateMutability": "nonpayable",
      "type": "function"
    },
    {
      "inputs": [],
      "name": "owner",
      "outputs": [
        {
          "internalType": "address",
          "name": "",
          "type": "address"
        }
      ],
      "stateMutability": "view",
      "type": "function"
    },
    {
      "inputs": [],
      "name": "renounceOwnership",
      "outputs": [],
      "stateMutability": "nonpayable",
      "type": "function"
    },
    {
      "inputs": [
        {
          "internalType": "address",
          "name": "to",
          "type": "address"
        },
        {
          "internalType": "uint256",
          "name": "amount",
          "type": "uint256"
        }
      ],
      "name": "send",
      "outputs": [],
      "stateMutability": "nonpayable",
      "type": "function"
    },
    {
      "inputs": [
        {
          "internalType": "address",
          "name": "tokenContract",
          "type": "address"
        }
      ],
      "name": "setTokenContract",
      "outputs": [],
      "stateMutability": "nonpayable",
      "type": "function"
    },
    {
      "inputs": [
        {
          "internalType": "address",
          "name": "newOwner",
          "type": "address"
        }
      ],
      "name": "transferOwnership",
      "outputs": [],
      "stateMutability": "nonpayable",
      "type": "function"
    },
    {
      "inputs": [],
      "name": "treasuryBalance",
      "outputs": [
        {
          "internalType": "uint256",
          "name": "",
          "type": "uint256"
        }
      ],
      "stateMutability": "view",
      "type": "function"
    },
    {
      "stateMutability": "payable",
      "type": "receive"
    }
  ],
  "bytecode": "0x608060405234801561001057600080fd5b5061002d61002261003260201b60201c565b61003a60201b60201c565b6100fe565b600033905090565b60008060009054906101000a900473ffffffffffffffffffffffffffffffffffffffff169050816000806101000a81548173ffffffffffffffffffffffffffffffffffffffff021916908373ffffffffffffffffffffffffffffffffffffffff1602179055508173ffffffffffffffffffffffffffffffffffffffff168173ffffffffffffffffffffffffffffffffffffffff167f8be0079c531659141344cd1fd0a4f28419497f9722a3daafe3b4186f6b6457e060405160405180910390a35050565b6108cc8061010d6000396000f3fe6080604052600436106100745760003560e01c80638da5cb5b1161004e5780638da5cb5b146100d9578063bbcd5bbe14610104578063d0679d341461012d578063f2fde38b146101565761007b565b8063313dab2014610080578063386750f4146100ab578063715018a6146100c25761007b565b3661007b57005b600080fd5b34801561008c57600080fd5b5061009561017f565b6040516100a29190610788565b60405180910390f35b3480156100b757600080fd5b506100c0610185565b005b3480156100ce57600080fd5b506100d7610285565b005b3480156100e557600080fd5b506100ee61030d565b6040516100fb919061072d565b60405180910390f35b34801561011057600080fd5b5061012b60048036038101906101269190610664565b610336565b005b34801561013957600080fd5b50610154600480360381019061014f919061068d565b6103f6565b005b34801561016257600080fd5b5061017d60048036038101906101789190610664565b610476565b005b60025481565b61018d61056e565b73ffffffffffffffffffffffffffffffffffffffff166101ab61030d565b73ffffffffffffffffffffffffffffffffffffffff1614610201576040517f08c379a00000000000000000000000000000000000000000000000000000000081526004016101f890610768565b60405180910390fd5b600160009054906101000a900473ffffffffffffffffffffffffffffffffffffffff1673ffffffffffffffffffffffffffffffffffffffff1663166bab956040518163ffffffff1660e01b8152600401600060405180830381600087803b15801561026b57600080fd5b505af115801561027f573d6000803e3d6000fd5b50505050565b61028d61056e565b73ffffffffffffffffffffffffffffffffffffffff166102ab61030d565b73ffffffffffffffffffffffffffffffffffffffff1614610301576040517f08c379a00000000000000000000000000000000000000000000000000000000081526004016102f890610768565b60405180910390fd5b61030b6000610576565b565b60008060009054906101000a900473ffffffffffffffffffffffffffffffffffffffff16905090565b61033e61056e565b73ffffffffffffffffffffffffffffffffffffffff1661035c61030d565b73ffffffffffffffffffffffffffffffffffffffff16146103b2576040517f08c379a00000000000000000000000000000000000000000000000000000000081526004016103a990610768565b60405180910390fd5b80600160006101000a81548173ffffffffffffffffffffffffffffffffffffffff021916908373ffffffffffffffffffffffffffffffffffffffff16021790555050565b6103fe61056e565b73ffffffffffffffffffffffffffffffffffffffff1661041c61030d565b73ffffffffffffffffffffffffffffffffffffffff1614610472576040517f08c379a000000000000000000000000000000000000000000000000000000000815260040161046990610768565b60405180910390fd5b5050565b61047e61056e565b73ffffffffffffffffffffffffffffffffffffffff1661049c61030d565b73ffffffffffffffffffffffffffffffffffffffff16146104f2576040517f08c379a00000000000000000000000000000000000000000000000000000000081526004016104e990610768565b60405180910390fd5b600073ffffffffffffffffffffffffffffffffffffffff168173ffffffffffffffffffffffffffffffffffffffff161415610562576040517f08c379a000000000000000000000000000000000000000000000000000000000815260040161055990610748565b60405180910390fd5b61056b81610576565b50565b600033905090565b60008060009054906101000a900473ffffffffffffffffffffffffffffffffffffffff169050816000806101000a81548173ffffffffffffffffffffffffffffffffffffffff021916908373ffffffffffffffffffffffffffffffffffffffff1602179055508173ffffffffffffffffffffffffffffffffffffffff168173ffffffffffffffffffffffffffffffffffffffff167f8be0079c531659141344cd1fd0a4f28419497f9722a3daafe3b4186f6b6457e060405160405180910390a35050565b60008135905061064981610868565b92915050565b60008135905061065e8161087f565b92915050565b60006020828403121561067657600080fd5b60006106848482850161063a565b91505092915050565b600080604083850312156106a057600080fd5b60006106ae8582860161063a565b92505060206106bf8582860161064f565b9150509250929050565b6106d2816107b4565b82525050565b60006106e56026836107a3565b91506106f0826107f0565b604082019050919050565b60006107086020836107a3565b91506107138261083f565b602082019050919050565b610727816107e6565b82525050565b600060208201905061074260008301846106c9565b92915050565b60006020820190508181036000830152610761816106d8565b9050919050565b60006020820190508181036000830152610781816106fb565b9050919050565b600060208201905061079d600083018461071e565b92915050565b600082825260208201905092915050565b60006107bf826107c6565b9050919050565b600073ffffffffffffffffffffffffffffffffffffffff82169050919050565b6000819050919050565b7f4f776e61626c653a206e6577206f776e657220697320746865207a65726f206160008201527f6464726573730000000000000000000000000000000000000000000000000000602082015250565b7f4f776e61626c653a2063616c6c6572206973206e6f7420746865206f776e6572600082015250565b610871816107b4565b811461087c57600080fd5b50565b610888816107e6565b811461089357600080fd5b5056fea26469706673582212203931a00e5b59e149102a5b29e1a93b4b02ab214b2fb8069938c06d43276060e764736f6c63430008040033",
  "linkReferences": {},
  "deployedLinkReferences": {}
}