{
  "_format": "hh-sol-artifact-1",
  "contractName": "Treasury",
  "sourceName": "contracts/Treasury.sol",
  "abi": [
    {
      "anonymous": false,
      "inputs": [
        {
          "indexed": true,
          "internalType": "address",
          "name": "previousOwner",
          "type": "address"
        },
        {
          "indexed": true,
          "internalType": "address",
          "name": "newOwner",
          "type": "address"
        }
      ],
      "name": "OwnershipTransferred",
      "type": "event"
    },
    {
      "inputs": [],
      "name": "claimTreasury",
      "outputs": [],
      "stateMutability": "nonpayable",
      "type": "function"
    },
    {
      "inputs": [],
      "name": "owner",
      "outputs": [
        {
          "internalType": "address",
          "name": "",
          "type": "address"
        }
      ],
      "stateMutability": "view",
      "type": "function"
    },
    {
      "inputs": [],
      "name": "renounceOwnership",
      "outputs": [],
      "stateMutability": "nonpayable",
      "type": "function"
    },
    {
      "inputs": [
        {
          "internalType": "address",
          "name": "tokenContract",
          "type": "address"
        }
      ],
      "name": "setTokenContract",
      "outputs": [],
      "stateMutability": "nonpayable",
      "type": "function"
    },
    {
      "inputs": [
        {
          "internalType": "address",
          "name": "newOwner",
          "type": "address"
        }
      ],
      "name": "transferOwnership",
      "outputs": [],
      "stateMutability": "nonpayable",
      "type": "function"
    }
  ],
  "bytecode": "0x608060405234801561001057600080fd5b5061002d61002261003260201b60201c565b61003a60201b60201c565b6100fe565b600033905090565b60008060009054906101000a900473ffffffffffffffffffffffffffffffffffffffff169050816000806101000a81548173ffffffffffffffffffffffffffffffffffffffff021916908373ffffffffffffffffffffffffffffffffffffffff1602179055508173ffffffffffffffffffffffffffffffffffffffff168173ffffffffffffffffffffffffffffffffffffffff167f8be0079c531659141344cd1fd0a4f28419497f9722a3daafe3b4186f6b6457e060405160405180910390a35050565b6106f08061010d6000396000f3fe608060405234801561001057600080fd5b50600436106100565760003560e01c80623bdc741461005b578063715018a6146100655780638da5cb5b1461006f578063bbcd5bbe1461008d578063f2fde38b146100a9575b600080fd5b6100636100c5565b005b61006d6101c5565b005b61007761024d565b604051610084919061058d565b60405180910390f35b6100a760048036038101906100a2919061050f565b610276565b005b6100c360048036038101906100be919061050f565b610336565b005b6100cd61042e565b73ffffffffffffffffffffffffffffffffffffffff166100eb61024d565b73ffffffffffffffffffffffffffffffffffffffff1614610141576040517f08c379a0000000000000000000000000000000000000000000000000000000008152600401610138906105c8565b60405180910390fd5b600160009054906101000a900473ffffffffffffffffffffffffffffffffffffffff1673ffffffffffffffffffffffffffffffffffffffff1663166bab956040518163ffffffff1660e01b8152600401600060405180830381600087803b1580156101ab57600080fd5b505af11580156101bf573d6000803e3d6000fd5b50505050565b6101cd61042e565b73ffffffffffffffffffffffffffffffffffffffff166101eb61024d565b73ffffffffffffffffffffffffffffffffffffffff1614610241576040517f08c379a0000000000000000000000000000000000000000000000000000000008152600401610238906105c8565b60405180910390fd5b61024b6000610436565b565b60008060009054906101000a900473ffffffffffffffffffffffffffffffffffffffff16905090565b61027e61042e565b73ffffffffffffffffffffffffffffffffffffffff1661029c61024d565b73ffffffffffffffffffffffffffffffffffffffff16146102f2576040517f08c379a00000000000000000000000000000000000000000000000000000000081526004016102e9906105c8565b60405180910390fd5b80600160006101000a81548173ffffffffffffffffffffffffffffffffffffffff021916908373ffffffffffffffffffffffffffffffffffffffff16021790555050565b61033e61042e565b73ffffffffffffffffffffffffffffffffffffffff1661035c61024d565b73ffffffffffffffffffffffffffffffffffffffff16146103b2576040517f08c379a00000000000000000000000000000000000000000000000000000000081526004016103a9906105c8565b60405180910390fd5b600073ffffffffffffffffffffffffffffffffffffffff168173ffffffffffffffffffffffffffffffffffffffff161415610422576040517f08c379a0000000000000000000000000000000000000000000000000000000008152600401610419906105a8565b60405180910390fd5b61042b81610436565b50565b600033905090565b60008060009054906101000a900473ffffffffffffffffffffffffffffffffffffffff169050816000806101000a81548173ffffffffffffffffffffffffffffffffffffffff021916908373ffffffffffffffffffffffffffffffffffffffff1602179055508173ffffffffffffffffffffffffffffffffffffffff168173ffffffffffffffffffffffffffffffffffffffff167f8be0079c531659141344cd1fd0a4f28419497f9722a3daafe3b4186f6b6457e060405160405180910390a35050565b600081359050610509816106a3565b92915050565b60006020828403121561052157600080fd5b600061052f848285016104fa565b91505092915050565b610541816105f9565b82525050565b60006105546026836105e8565b915061055f8261062b565b604082019050919050565b60006105776020836105e8565b91506105828261067a565b602082019050919050565b60006020820190506105a26000830184610538565b92915050565b600060208201905081810360008301526105c181610547565b9050919050565b600060208201905081810360008301526105e18161056a565b9050919050565b600082825260208201905092915050565b60006106048261060b565b9050919050565b600073ffffffffffffffffffffffffffffffffffffffff82169050919050565b7f4f776e61626c653a206e6577206f776e657220697320746865207a65726f206160008201527f6464726573730000000000000000000000000000000000000000000000000000602082015250565b7f4f776e61626c653a2063616c6c6572206973206e6f7420746865206f776e6572600082015250565b6106ac816105f9565b81146106b757600080fd5b5056fea264697066735822122026a6aed154159dd6d858ffa009eda0d75bdfe2a1fa90dc202251bc3664a92cfd64736f6c63430008040033",
  "linkReferences": {},
  "deployedLinkReferences": {}
}