{
  "_format": "hh-sol-artifact-1",
  "contractName": "Treasury",
  "sourceName": "contracts/Treasury.sol",
  "abi": [
    {
      "anonymous": false,
      "inputs": [
        {
          "indexed": true,
          "internalType": "address",
          "name": "previousOwner",
          "type": "address"
        },
        {
          "indexed": true,
          "internalType": "address",
          "name": "newOwner",
          "type": "address"
        }
      ],
      "name": "OwnershipTransferred",
      "type": "event"
    },
    {
      "inputs": [
        {
          "internalType": "address",
          "name": "to",
          "type": "address"
        },
        {
          "internalType": "uint256",
          "name": "amount",
          "type": "uint256"
        }
      ],
      "name": "icoDistribute",
      "outputs": [],
      "stateMutability": "nonpayable",
      "type": "function"
    },
    {
      "inputs": [],
      "name": "owner",
      "outputs": [
        {
          "internalType": "address",
          "name": "",
          "type": "address"
        }
      ],
      "stateMutability": "view",
      "type": "function"
    },
    {
      "inputs": [],
      "name": "renounceOwnership",
      "outputs": [],
      "stateMutability": "nonpayable",
      "type": "function"
    },
    {
      "inputs": [
        {
          "internalType": "address",
          "name": "to",
          "type": "address"
        },
        {
          "internalType": "uint256",
          "name": "amount",
          "type": "uint256"
        }
      ],
      "name": "send",
      "outputs": [],
      "stateMutability": "nonpayable",
      "type": "function"
    },
    {
      "inputs": [
        {
          "internalType": "address",
          "name": "to",
          "type": "address"
        },
        {
          "internalType": "uint256",
          "name": "amount",
          "type": "uint256"
        }
      ],
      "name": "sendEther",
      "outputs": [],
      "stateMutability": "nonpayable",
      "type": "function"
    },
    {
      "inputs": [
        {
          "internalType": "address payable",
          "name": "icoContract",
          "type": "address"
        }
      ],
      "name": "setICOContract",
      "outputs": [],
      "stateMutability": "nonpayable",
      "type": "function"
    },
    {
      "inputs": [
        {
          "internalType": "address",
          "name": "tokenContract",
          "type": "address"
        }
      ],
      "name": "setTokenContract",
      "outputs": [],
      "stateMutability": "nonpayable",
      "type": "function"
    },
    {
      "inputs": [
        {
          "internalType": "address",
          "name": "newOwner",
          "type": "address"
        }
      ],
      "name": "transferOwnership",
      "outputs": [],
      "stateMutability": "nonpayable",
      "type": "function"
    },
    {
      "stateMutability": "payable",
      "type": "receive"
    }
  ],
  "bytecode": "0x608060405234801561001057600080fd5b5061002d61002261003260201b60201c565b61003a60201b60201c565b6100fe565b600033905090565b60008060009054906101000a900473ffffffffffffffffffffffffffffffffffffffff169050816000806101000a81548173ffffffffffffffffffffffffffffffffffffffff021916908373ffffffffffffffffffffffffffffffffffffffff1602179055508173ffffffffffffffffffffffffffffffffffffffff168173ffffffffffffffffffffffffffffffffffffffff167f8be0079c531659141344cd1fd0a4f28419497f9722a3daafe3b4186f6b6457e060405160405180910390a35050565b61112e8061010d6000396000f3fe60806040526004361061007f5760003560e01c8063bbcd5bbe1161004e578063bbcd5bbe1461011f578063c1756a2c14610148578063d0679d3414610171578063f2fde38b1461019a57610086565b80632e0d2a001461008b578063715018a6146100b45780638da5cb5b146100cb5780639b6d40a4146100f657610086565b3661008657005b600080fd5b34801561009757600080fd5b506100b260048036038101906100ad9190610bbb565b6101c3565b005b3480156100c057600080fd5b506100c9610334565b005b3480156100d757600080fd5b506100e06103bc565b6040516100ed9190610d94565b60405180910390f35b34801561010257600080fd5b5061011d60048036038101906101189190610be4565b6103e5565b005b34801561012b57600080fd5b5061014660048036038101906101419190610b92565b6104cf565b005b34801561015457600080fd5b5061016f600480360381019061016a9190610be4565b6105ff565b005b34801561017d57600080fd5b5061019860048036038101906101939190610be4565b6107e6565b005b3480156101a657600080fd5b506101c160048036038101906101bc9190610b92565b6108bc565b005b6101cb6109b4565b73ffffffffffffffffffffffffffffffffffffffff166101e96103bc565b73ffffffffffffffffffffffffffffffffffffffff161461023f576040517f08c379a000000000000000000000000000000000000000000000000000000000815260040161023690610e18565b60405180910390fd5b600073ffffffffffffffffffffffffffffffffffffffff168173ffffffffffffffffffffffffffffffffffffffff1614156102af576040517f08c379a00000000000000000000000000000000000000000000000000000000081526004016102a690610e38565b60405180910390fd5b80600260006101000a81548173ffffffffffffffffffffffffffffffffffffffff021916908373ffffffffffffffffffffffffffffffffffffffff16021790555080600360006101000a81548173ffffffffffffffffffffffffffffffffffffffff021916908373ffffffffffffffffffffffffffffffffffffffff16021790555050565b61033c6109b4565b73ffffffffffffffffffffffffffffffffffffffff1661035a6103bc565b73ffffffffffffffffffffffffffffffffffffffff16146103b0576040517f08c379a00000000000000000000000000000000000000000000000000000000081526004016103a790610e18565b60405180910390fd5b6103ba60006109bc565b565b60008060009054906101000a900473ffffffffffffffffffffffffffffffffffffffff16905090565b600360009054906101000a900473ffffffffffffffffffffffffffffffffffffffff1673ffffffffffffffffffffffffffffffffffffffff163373ffffffffffffffffffffffffffffffffffffffff1614610475576040517f08c379a000000000000000000000000000000000000000000000000000000000815260040161046c90610e98565b60405180910390fd5b60006104818383610a80565b905060011515811515146104ca576040517f08c379a00000000000000000000000000000000000000000000000000000000081526004016104c190610e78565b60405180910390fd5b505050565b6104d76109b4565b73ffffffffffffffffffffffffffffffffffffffff166104f56103bc565b73ffffffffffffffffffffffffffffffffffffffff161461054b576040517f08c379a000000000000000000000000000000000000000000000000000000000815260040161054290610e18565b60405180910390fd5b600073ffffffffffffffffffffffffffffffffffffffff168173ffffffffffffffffffffffffffffffffffffffff1614156105bb576040517f08c379a00000000000000000000000000000000000000000000000000000000081526004016105b290610e38565b60405180910390fd5b80600160006101000a81548173ffffffffffffffffffffffffffffffffffffffff021916908373ffffffffffffffffffffffffffffffffffffffff16021790555050565b6106076109b4565b73ffffffffffffffffffffffffffffffffffffffff166106256103bc565b73ffffffffffffffffffffffffffffffffffffffff161461067b576040517f08c379a000000000000000000000000000000000000000000000000000000000815260040161067290610e18565b60405180910390fd5b600081116106be576040517f08c379a00000000000000000000000000000000000000000000000000000000081526004016106b590610e58565b60405180910390fd5b600073ffffffffffffffffffffffffffffffffffffffff168273ffffffffffffffffffffffffffffffffffffffff16141561072e576040517f08c379a000000000000000000000000000000000000000000000000000000000815260040161072590610df8565b60405180910390fd5b60008273ffffffffffffffffffffffffffffffffffffffff168260405161075490610d7f565b60006040518083038185875af1925050503d8060008114610791576040519150601f19603f3d011682016040523d82523d6000602084013e610796565b606091505b5050905060011515811515146107e1576040517f08c379a00000000000000000000000000000000000000000000000000000000081526004016107d890610e78565b60405180910390fd5b505050565b6107ee6109b4565b73ffffffffffffffffffffffffffffffffffffffff1661080c6103bc565b73ffffffffffffffffffffffffffffffffffffffff1614610862576040517f08c379a000000000000000000000000000000000000000000000000000000000815260040161085990610e18565b60405180910390fd5b600061086e8383610a80565b905060011515811515146108b7576040517f08c379a00000000000000000000000000000000000000000000000000000000081526004016108ae90610e78565b60405180910390fd5b505050565b6108c46109b4565b73ffffffffffffffffffffffffffffffffffffffff166108e26103bc565b73ffffffffffffffffffffffffffffffffffffffff1614610938576040517f08c379a000000000000000000000000000000000000000000000000000000000815260040161092f90610e18565b60405180910390fd5b600073ffffffffffffffffffffffffffffffffffffffff168173ffffffffffffffffffffffffffffffffffffffff1614156109a8576040517f08c379a000000000000000000000000000000000000000000000000000000000815260040161099f90610dd8565b60405180910390fd5b6109b1816109bc565b50565b600033905090565b60008060009054906101000a900473ffffffffffffffffffffffffffffffffffffffff169050816000806101000a81548173ffffffffffffffffffffffffffffffffffffffff021916908373ffffffffffffffffffffffffffffffffffffffff1602179055508173ffffffffffffffffffffffffffffffffffffffff168173ffffffffffffffffffffffffffffffffffffffff167f8be0079c531659141344cd1fd0a4f28419497f9722a3daafe3b4186f6b6457e060405160405180910390a35050565b600080600160009054906101000a900473ffffffffffffffffffffffffffffffffffffffff1673ffffffffffffffffffffffffffffffffffffffff1663a9059cbb85856040518363ffffffff1660e01b8152600401610ae0929190610daf565b602060405180830381600087803b158015610afa57600080fd5b505af1158015610b0e573d6000803e3d6000fd5b505050506040513d601f19601f82011682018060405250810190610b329190610c20565b90508091505092915050565b600081359050610b4d8161109c565b92915050565b600081359050610b62816110b3565b92915050565b600081519050610b77816110ca565b92915050565b600081359050610b8c816110e1565b92915050565b600060208284031215610ba457600080fd5b6000610bb284828501610b3e565b91505092915050565b600060208284031215610bcd57600080fd5b6000610bdb84828501610b53565b91505092915050565b60008060408385031215610bf757600080fd5b6000610c0585828601610b3e565b9250506020610c1685828601610b7d565b9150509250929050565b600060208284031215610c3257600080fd5b6000610c4084828501610b68565b91505092915050565b610c5281610ed4565b82525050565b6000610c65602683610ec3565b9150610c7082610f2e565b604082019050919050565b6000610c88601e83610ec3565b9150610c9382610f7d565b602082019050919050565b6000610cab602083610ec3565b9150610cb682610fa6565b602082019050919050565b6000610cce601483610ec3565b9150610cd982610fcf565b602082019050919050565b6000610cf1600083610eb8565b9150610cfc82610ff8565b600082019050919050565b6000610d14601283610ec3565b9150610d1f82610ffb565b602082019050919050565b6000610d37600f83610ec3565b9150610d4282611024565b602082019050919050565b6000610d5a602283610ec3565b9150610d658261104d565b604082019050919050565b610d7981610f24565b82525050565b6000610d8a82610ce4565b9150819050919050565b6000602082019050610da96000830184610c49565b92915050565b6000604082019050610dc46000830185610c49565b610dd16020830184610d70565b9392505050565b60006020820190508181036000830152610df181610c58565b9050919050565b60006020820190508181036000830152610e1181610c7b565b9050919050565b60006020820190508181036000830152610e3181610c9e565b9050919050565b60006020820190508181036000830152610e5181610cc1565b9050919050565b60006020820190508181036000830152610e7181610d07565b9050919050565b60006020820190508181036000830152610e9181610d2a565b9050919050565b60006020820190508181036000830152610eb181610d4d565b9050919050565b600081905092915050565b600082825260208201905092915050565b6000610edf82610f04565b9050919050565b6000610ef182610f04565b9050919050565b60008115159050919050565b600073ffffffffffffffffffffffffffffffffffffffff82169050919050565b6000819050919050565b7f4f776e61626c653a206e6577206f776e657220697320746865207a65726f206160008201527f6464726573730000000000000000000000000000000000000000000000000000602082015250565b7f616464726573732830292063616e6e6f7420626520726563697069656e740000600082015250565b7f4f776e61626c653a2063616c6c6572206973206e6f7420746865206f776e6572600082015250565b7f63616e6e6f742062652061646472657373283029000000000000000000000000600082015250565b50565b7f616d6f756e742063616e6e6f7420626520300000000000000000000000000000600082015250565b7f7472616e73666572206661696c65640000000000000000000000000000000000600082015250565b7f6d73672e73656e646572206973206e6f74207468652069636f20636f6e74726160008201527f6374000000000000000000000000000000000000000000000000000000000000602082015250565b6110a581610ed4565b81146110b057600080fd5b50565b6110bc81610ee6565b81146110c757600080fd5b50565b6110d381610ef8565b81146110de57600080fd5b50565b6110ea81610f24565b81146110f557600080fd5b5056fea264697066735822122076a92e2b51b45b5f2b1f60269ee140dfdf9331d285bfa530b11ef08c1d139cee64736f6c63430008040033",
  "linkReferences": {},
  "deployedLinkReferences": {}
}