{
  "_format": "hh-sol-artifact-1",
  "contractName": "Treasury",
  "sourceName": "contracts/Treasury.sol",
  "abi": [
    {
      "anonymous": false,
      "inputs": [
        {
          "indexed": true,
          "internalType": "address",
          "name": "previousOwner",
          "type": "address"
        },
        {
          "indexed": true,
          "internalType": "address",
          "name": "newOwner",
          "type": "address"
        }
      ],
      "name": "OwnershipTransferred",
      "type": "event"
    },
    {
      "inputs": [],
      "name": "claimTreasuryTax",
      "outputs": [],
      "stateMutability": "nonpayable",
      "type": "function"
    },
    {
      "inputs": [
        {
          "internalType": "address",
          "name": "to",
          "type": "address"
        },
        {
          "internalType": "uint256",
          "name": "amount",
          "type": "uint256"
        }
      ],
      "name": "icoDistribute",
      "outputs": [],
      "stateMutability": "nonpayable",
      "type": "function"
    },
    {
      "inputs": [],
      "name": "owner",
      "outputs": [
        {
          "internalType": "address",
          "name": "",
          "type": "address"
        }
      ],
      "stateMutability": "view",
      "type": "function"
    },
    {
      "inputs": [],
      "name": "renounceOwnership",
      "outputs": [],
      "stateMutability": "nonpayable",
      "type": "function"
    },
    {
      "inputs": [
        {
          "internalType": "address",
          "name": "to",
          "type": "address"
        },
        {
          "internalType": "uint256",
          "name": "amount",
          "type": "uint256"
        }
      ],
      "name": "send",
      "outputs": [],
      "stateMutability": "nonpayable",
      "type": "function"
    },
    {
      "inputs": [
        {
          "internalType": "address",
          "name": "to",
          "type": "address"
        },
        {
          "internalType": "uint256",
          "name": "amount",
          "type": "uint256"
        }
      ],
      "name": "sendEther",
      "outputs": [],
      "stateMutability": "nonpayable",
      "type": "function"
    },
    {
      "inputs": [
        {
          "internalType": "address payable",
          "name": "icoContract",
          "type": "address"
        }
      ],
      "name": "setICOContract",
      "outputs": [],
      "stateMutability": "nonpayable",
      "type": "function"
    },
    {
      "inputs": [
        {
          "internalType": "address",
          "name": "tokenContract",
          "type": "address"
        }
      ],
      "name": "setTokenContract",
      "outputs": [],
      "stateMutability": "nonpayable",
      "type": "function"
    },
    {
      "inputs": [
        {
          "internalType": "address",
          "name": "newOwner",
          "type": "address"
        }
      ],
      "name": "transferOwnership",
      "outputs": [],
      "stateMutability": "nonpayable",
      "type": "function"
    },
    {
      "inputs": [],
      "name": "treasuryBalance",
      "outputs": [
        {
          "internalType": "uint256",
          "name": "",
          "type": "uint256"
        }
      ],
      "stateMutability": "view",
      "type": "function"
    },
    {
      "stateMutability": "payable",
      "type": "receive"
    }
  ],
  "bytecode": "0x608060405234801561001057600080fd5b5061002d61002261003260201b60201c565b61003a60201b60201c565b6100fe565b600033905090565b60008060009054906101000a900473ffffffffffffffffffffffffffffffffffffffff169050816000806101000a81548173ffffffffffffffffffffffffffffffffffffffff021916908373ffffffffffffffffffffffffffffffffffffffff1602179055508173ffffffffffffffffffffffffffffffffffffffff168173ffffffffffffffffffffffffffffffffffffffff167f8be0079c531659141344cd1fd0a4f28419497f9722a3daafe3b4186f6b6457e060405160405180910390a35050565b61115b8061010d6000396000f3fe6080604052600436106100955760003560e01c80639b6d40a4116100595780639b6d40a41461014e578063bbcd5bbe14610177578063c1756a2c146101a0578063d0679d34146101c9578063f2fde38b146101f25761009c565b80632e0d2a00146100a1578063313dab20146100ca578063386750f4146100f5578063715018a61461010c5780638da5cb5b146101235761009c565b3661009c57005b600080fd5b3480156100ad57600080fd5b506100c860048036038101906100c39190610c39565b61021b565b005b3480156100d657600080fd5b506100df61031c565b6040516100ec9190610ef3565b60405180910390f35b34801561010157600080fd5b5061010a610322565b005b34801561011857600080fd5b50610121610422565b005b34801561012f57600080fd5b506101386104aa565b6040516101459190610def565b60405180910390f35b34801561015a57600080fd5b5061017560048036038101906101709190610c62565b6104d3565b005b34801561018357600080fd5b5061019e60048036038101906101999190610c10565b6105bd565b005b3480156101ac57600080fd5b506101c760048036038101906101c29190610c62565b61067d565b005b3480156101d557600080fd5b506101f060048036038101906101eb9190610c62565b610864565b005b3480156101fe57600080fd5b5061021960048036038101906102149190610c10565b61093a565b005b610223610a32565b73ffffffffffffffffffffffffffffffffffffffff166102416104aa565b73ffffffffffffffffffffffffffffffffffffffff1614610297576040517f08c379a000000000000000000000000000000000000000000000000000000000815260040161028e90610e73565b60405180910390fd5b80600260006101000a81548173ffffffffffffffffffffffffffffffffffffffff021916908373ffffffffffffffffffffffffffffffffffffffff16021790555080600360006101000a81548173ffffffffffffffffffffffffffffffffffffffff021916908373ffffffffffffffffffffffffffffffffffffffff16021790555050565b60045481565b61032a610a32565b73ffffffffffffffffffffffffffffffffffffffff166103486104aa565b73ffffffffffffffffffffffffffffffffffffffff161461039e576040517f08c379a000000000000000000000000000000000000000000000000000000000815260040161039590610e73565b60405180910390fd5b600160009054906101000a900473ffffffffffffffffffffffffffffffffffffffff1673ffffffffffffffffffffffffffffffffffffffff1663166bab956040518163ffffffff1660e01b8152600401600060405180830381600087803b15801561040857600080fd5b505af115801561041c573d6000803e3d6000fd5b50505050565b61042a610a32565b73ffffffffffffffffffffffffffffffffffffffff166104486104aa565b73ffffffffffffffffffffffffffffffffffffffff161461049e576040517f08c379a000000000000000000000000000000000000000000000000000000000815260040161049590610e73565b60405180910390fd5b6104a86000610a3a565b565b60008060009054906101000a900473ffffffffffffffffffffffffffffffffffffffff16905090565b600360009054906101000a900473ffffffffffffffffffffffffffffffffffffffff1673ffffffffffffffffffffffffffffffffffffffff163373ffffffffffffffffffffffffffffffffffffffff1614610563576040517f08c379a000000000000000000000000000000000000000000000000000000000815260040161055a90610ed3565b60405180910390fd5b600061056f8383610afe565b905060011515811515146105b8576040517f08c379a00000000000000000000000000000000000000000000000000000000081526004016105af90610eb3565b60405180910390fd5b505050565b6105c5610a32565b73ffffffffffffffffffffffffffffffffffffffff166105e36104aa565b73ffffffffffffffffffffffffffffffffffffffff1614610639576040517f08c379a000000000000000000000000000000000000000000000000000000000815260040161063090610e73565b60405180910390fd5b80600160006101000a81548173ffffffffffffffffffffffffffffffffffffffff021916908373ffffffffffffffffffffffffffffffffffffffff16021790555050565b610685610a32565b73ffffffffffffffffffffffffffffffffffffffff166106a36104aa565b73ffffffffffffffffffffffffffffffffffffffff16146106f9576040517f08c379a00000000000000000000000000000000000000000000000000000000081526004016106f090610e73565b60405180910390fd5b6000811161073c576040517f08c379a000000000000000000000000000000000000000000000000000000000815260040161073390610e93565b60405180910390fd5b600073ffffffffffffffffffffffffffffffffffffffff168273ffffffffffffffffffffffffffffffffffffffff1614156107ac576040517f08c379a00000000000000000000000000000000000000000000000000000000081526004016107a390610e53565b60405180910390fd5b60008273ffffffffffffffffffffffffffffffffffffffff16826040516107d290610dda565b60006040518083038185875af1925050503d806000811461080f576040519150601f19603f3d011682016040523d82523d6000602084013e610814565b606091505b50509050600115158115151461085f576040517f08c379a000000000000000000000000000000000000000000000000000000000815260040161085690610eb3565b60405180910390fd5b505050565b61086c610a32565b73ffffffffffffffffffffffffffffffffffffffff1661088a6104aa565b73ffffffffffffffffffffffffffffffffffffffff16146108e0576040517f08c379a00000000000000000000000000000000000000000000000000000000081526004016108d790610e73565b60405180910390fd5b60006108ec8383610afe565b90506001151581151514610935576040517f08c379a000000000000000000000000000000000000000000000000000000000815260040161092c90610eb3565b60405180910390fd5b505050565b610942610a32565b73ffffffffffffffffffffffffffffffffffffffff166109606104aa565b73ffffffffffffffffffffffffffffffffffffffff16146109b6576040517f08c379a00000000000000000000000000000000000000000000000000000000081526004016109ad90610e73565b60405180910390fd5b600073ffffffffffffffffffffffffffffffffffffffff168173ffffffffffffffffffffffffffffffffffffffff161415610a26576040517f08c379a0000000000000000000000000000000000000000000000000000000008152600401610a1d90610e33565b60405180910390fd5b610a2f81610a3a565b50565b600033905090565b60008060009054906101000a900473ffffffffffffffffffffffffffffffffffffffff169050816000806101000a81548173ffffffffffffffffffffffffffffffffffffffff021916908373ffffffffffffffffffffffffffffffffffffffff1602179055508173ffffffffffffffffffffffffffffffffffffffff168173ffffffffffffffffffffffffffffffffffffffff167f8be0079c531659141344cd1fd0a4f28419497f9722a3daafe3b4186f6b6457e060405160405180910390a35050565b600080600160009054906101000a900473ffffffffffffffffffffffffffffffffffffffff1673ffffffffffffffffffffffffffffffffffffffff1663a9059cbb85856040518363ffffffff1660e01b8152600401610b5e929190610e0a565b602060405180830381600087803b158015610b7857600080fd5b505af1158015610b8c573d6000803e3d6000fd5b505050506040513d601f19601f82011682018060405250810190610bb09190610c9e565b90508091505092915050565b600081359050610bcb816110c9565b92915050565b600081359050610be0816110e0565b92915050565b600081519050610bf5816110f7565b92915050565b600081359050610c0a8161110e565b92915050565b600060208284031215610c2257600080fd5b6000610c3084828501610bbc565b91505092915050565b600060208284031215610c4b57600080fd5b6000610c5984828501610bd1565b91505092915050565b60008060408385031215610c7557600080fd5b6000610c8385828601610bbc565b9250506020610c9485828601610bfb565b9150509250929050565b600060208284031215610cb057600080fd5b6000610cbe84828501610be6565b91505092915050565b610cd081610f2a565b82525050565b6000610ce3602683610f19565b9150610cee82610f84565b604082019050919050565b6000610d06601e83610f19565b9150610d1182610fd3565b602082019050919050565b6000610d29602083610f19565b9150610d3482610ffc565b602082019050919050565b6000610d4c600083610f0e565b9150610d5782611025565b600082019050919050565b6000610d6f601283610f19565b9150610d7a82611028565b602082019050919050565b6000610d92600f83610f19565b9150610d9d82611051565b602082019050919050565b6000610db5602283610f19565b9150610dc08261107a565b604082019050919050565b610dd481610f7a565b82525050565b6000610de582610d3f565b9150819050919050565b6000602082019050610e046000830184610cc7565b92915050565b6000604082019050610e1f6000830185610cc7565b610e2c6020830184610dcb565b9392505050565b60006020820190508181036000830152610e4c81610cd6565b9050919050565b60006020820190508181036000830152610e6c81610cf9565b9050919050565b60006020820190508181036000830152610e8c81610d1c565b9050919050565b60006020820190508181036000830152610eac81610d62565b9050919050565b60006020820190508181036000830152610ecc81610d85565b9050919050565b60006020820190508181036000830152610eec81610da8565b9050919050565b6000602082019050610f086000830184610dcb565b92915050565b600081905092915050565b600082825260208201905092915050565b6000610f3582610f5a565b9050919050565b6000610f4782610f5a565b9050919050565b60008115159050919050565b600073ffffffffffffffffffffffffffffffffffffffff82169050919050565b6000819050919050565b7f4f776e61626c653a206e6577206f776e657220697320746865207a65726f206160008201527f6464726573730000000000000000000000000000000000000000000000000000602082015250565b7f616464726573732830292063616e6e6f7420626520726563697069656e740000600082015250565b7f4f776e61626c653a2063616c6c6572206973206e6f7420746865206f776e6572600082015250565b50565b7f616d6f756e742063616e6e6f7420626520300000000000000000000000000000600082015250565b7f7472616e73666572206661696c65640000000000000000000000000000000000600082015250565b7f6d73672e73656e646572206973206e6f74207468652069636f20636f6e74726160008201527f6374000000000000000000000000000000000000000000000000000000000000602082015250565b6110d281610f2a565b81146110dd57600080fd5b50565b6110e981610f3c565b81146110f457600080fd5b50565b61110081610f4e565b811461110b57600080fd5b50565b61111781610f7a565b811461112257600080fd5b5056fea26469706673582212202caab05bcf55f50a7197a388aa1e3823edb3ef64ab3f17a05b814c727b786a5864736f6c63430008040033",
  "linkReferences": {},
  "deployedLinkReferences": {}
}