{
  "_format": "hh-sol-artifact-1",
  "contractName": "Treasury",
  "sourceName": "contracts/Treasury.sol",
  "abi": [
    {
      "anonymous": false,
      "inputs": [
        {
          "indexed": true,
          "internalType": "address",
          "name": "previousOwner",
          "type": "address"
        },
        {
          "indexed": true,
          "internalType": "address",
          "name": "newOwner",
          "type": "address"
        }
      ],
      "name": "OwnershipTransferred",
      "type": "event"
    },
    {
      "inputs": [],
      "name": "claimTreasuryTax",
      "outputs": [],
      "stateMutability": "nonpayable",
      "type": "function"
    },
    {
      "inputs": [
        {
          "internalType": "address",
          "name": "to",
          "type": "address"
        },
        {
          "internalType": "uint256",
          "name": "amount",
          "type": "uint256"
        }
      ],
      "name": "icoDistribute",
      "outputs": [],
      "stateMutability": "nonpayable",
      "type": "function"
    },
    {
      "inputs": [],
      "name": "owner",
      "outputs": [
        {
          "internalType": "address",
          "name": "",
          "type": "address"
        }
      ],
      "stateMutability": "view",
      "type": "function"
    },
    {
      "inputs": [],
      "name": "renounceOwnership",
      "outputs": [],
      "stateMutability": "nonpayable",
      "type": "function"
    },
    {
      "inputs": [
        {
          "internalType": "address",
          "name": "to",
          "type": "address"
        },
        {
          "internalType": "uint256",
          "name": "amount",
          "type": "uint256"
        }
      ],
      "name": "send",
      "outputs": [],
      "stateMutability": "nonpayable",
      "type": "function"
    },
    {
      "inputs": [
        {
          "internalType": "address payable",
          "name": "icoContract",
          "type": "address"
        }
      ],
      "name": "setICOContract",
      "outputs": [],
      "stateMutability": "nonpayable",
      "type": "function"
    },
    {
      "inputs": [
        {
          "internalType": "address",
          "name": "tokenContract",
          "type": "address"
        }
      ],
      "name": "setTokenContract",
      "outputs": [],
      "stateMutability": "nonpayable",
      "type": "function"
    },
    {
      "inputs": [
        {
          "internalType": "address",
          "name": "newOwner",
          "type": "address"
        }
      ],
      "name": "transferOwnership",
      "outputs": [],
      "stateMutability": "nonpayable",
      "type": "function"
    },
    {
      "inputs": [],
      "name": "treasuryBalance",
      "outputs": [
        {
          "internalType": "uint256",
          "name": "",
          "type": "uint256"
        }
      ],
      "stateMutability": "view",
      "type": "function"
    },
    {
      "stateMutability": "payable",
      "type": "receive"
    }
  ],
  "bytecode": "0x608060405234801561001057600080fd5b5061002d61002261003260201b60201c565b61003a60201b60201c565b6100fe565b600033905090565b60008060009054906101000a900473ffffffffffffffffffffffffffffffffffffffff169050816000806101000a81548173ffffffffffffffffffffffffffffffffffffffff021916908373ffffffffffffffffffffffffffffffffffffffff1602179055508173ffffffffffffffffffffffffffffffffffffffff168173ffffffffffffffffffffffffffffffffffffffff167f8be0079c531659141344cd1fd0a4f28419497f9722a3daafe3b4186f6b6457e060405160405180910390a35050565b610e228061010d6000396000f3fe60806040526004361061008a5760003560e01c80638da5cb5b116100595780638da5cb5b146101185780639b6d40a414610143578063bbcd5bbe1461016c578063d0679d3414610195578063f2fde38b146101be57610091565b80632e0d2a0014610096578063313dab20146100bf578063386750f4146100ea578063715018a61461010157610091565b3661009157005b600080fd5b3480156100a257600080fd5b506100bd60048036038101906100b89190610a1e565b6101e7565b005b3480156100cb57600080fd5b506100d46102e8565b6040516100e19190610c1a565b60405180910390f35b3480156100f657600080fd5b506100ff6102ee565b005b34801561010d57600080fd5b506101166103ee565b005b34801561012457600080fd5b5061012d610476565b60405161013a9190610b56565b60405180910390f35b34801561014f57600080fd5b5061016a60048036038101906101659190610a47565b61049f565b005b34801561017857600080fd5b50610193600480360381019061018e91906109f5565b610589565b005b3480156101a157600080fd5b506101bc60048036038101906101b79190610a47565b610649565b005b3480156101ca57600080fd5b506101e560048036038101906101e091906109f5565b61071f565b005b6101ef610817565b73ffffffffffffffffffffffffffffffffffffffff1661020d610476565b73ffffffffffffffffffffffffffffffffffffffff1614610263576040517f08c379a000000000000000000000000000000000000000000000000000000000815260040161025a90610bba565b60405180910390fd5b80600260006101000a81548173ffffffffffffffffffffffffffffffffffffffff021916908373ffffffffffffffffffffffffffffffffffffffff16021790555080600360006101000a81548173ffffffffffffffffffffffffffffffffffffffff021916908373ffffffffffffffffffffffffffffffffffffffff16021790555050565b60045481565b6102f6610817565b73ffffffffffffffffffffffffffffffffffffffff16610314610476565b73ffffffffffffffffffffffffffffffffffffffff161461036a576040517f08c379a000000000000000000000000000000000000000000000000000000000815260040161036190610bba565b60405180910390fd5b600160009054906101000a900473ffffffffffffffffffffffffffffffffffffffff1673ffffffffffffffffffffffffffffffffffffffff1663166bab956040518163ffffffff1660e01b8152600401600060405180830381600087803b1580156103d457600080fd5b505af11580156103e8573d6000803e3d6000fd5b50505050565b6103f6610817565b73ffffffffffffffffffffffffffffffffffffffff16610414610476565b73ffffffffffffffffffffffffffffffffffffffff161461046a576040517f08c379a000000000000000000000000000000000000000000000000000000000815260040161046190610bba565b60405180910390fd5b610474600061081f565b565b60008060009054906101000a900473ffffffffffffffffffffffffffffffffffffffff16905090565b600360009054906101000a900473ffffffffffffffffffffffffffffffffffffffff1673ffffffffffffffffffffffffffffffffffffffff163373ffffffffffffffffffffffffffffffffffffffff161461052f576040517f08c379a000000000000000000000000000000000000000000000000000000000815260040161052690610bfa565b60405180910390fd5b600061053b83836108e3565b90506001151581151514610584576040517f08c379a000000000000000000000000000000000000000000000000000000000815260040161057b90610bda565b60405180910390fd5b505050565b610591610817565b73ffffffffffffffffffffffffffffffffffffffff166105af610476565b73ffffffffffffffffffffffffffffffffffffffff1614610605576040517f08c379a00000000000000000000000000000000000000000000000000000000081526004016105fc90610bba565b60405180910390fd5b80600160006101000a81548173ffffffffffffffffffffffffffffffffffffffff021916908373ffffffffffffffffffffffffffffffffffffffff16021790555050565b610651610817565b73ffffffffffffffffffffffffffffffffffffffff1661066f610476565b73ffffffffffffffffffffffffffffffffffffffff16146106c5576040517f08c379a00000000000000000000000000000000000000000000000000000000081526004016106bc90610bba565b60405180910390fd5b60006106d183836108e3565b9050600115158115151461071a576040517f08c379a000000000000000000000000000000000000000000000000000000000815260040161071190610bda565b60405180910390fd5b505050565b610727610817565b73ffffffffffffffffffffffffffffffffffffffff16610745610476565b73ffffffffffffffffffffffffffffffffffffffff161461079b576040517f08c379a000000000000000000000000000000000000000000000000000000000815260040161079290610bba565b60405180910390fd5b600073ffffffffffffffffffffffffffffffffffffffff168173ffffffffffffffffffffffffffffffffffffffff16141561080b576040517f08c379a000000000000000000000000000000000000000000000000000000000815260040161080290610b9a565b60405180910390fd5b6108148161081f565b50565b600033905090565b60008060009054906101000a900473ffffffffffffffffffffffffffffffffffffffff169050816000806101000a81548173ffffffffffffffffffffffffffffffffffffffff021916908373ffffffffffffffffffffffffffffffffffffffff1602179055508173ffffffffffffffffffffffffffffffffffffffff168173ffffffffffffffffffffffffffffffffffffffff167f8be0079c531659141344cd1fd0a4f28419497f9722a3daafe3b4186f6b6457e060405160405180910390a35050565b600080600160009054906101000a900473ffffffffffffffffffffffffffffffffffffffff1673ffffffffffffffffffffffffffffffffffffffff1663a9059cbb85856040518363ffffffff1660e01b8152600401610943929190610b71565b602060405180830381600087803b15801561095d57600080fd5b505af1158015610971573d6000803e3d6000fd5b505050506040513d601f19601f820116820180604052508101906109959190610a83565b90508091505092915050565b6000813590506109b081610d90565b92915050565b6000813590506109c581610da7565b92915050565b6000815190506109da81610dbe565b92915050565b6000813590506109ef81610dd5565b92915050565b600060208284031215610a0757600080fd5b6000610a15848285016109a1565b91505092915050565b600060208284031215610a3057600080fd5b6000610a3e848285016109b6565b91505092915050565b60008060408385031215610a5a57600080fd5b6000610a68858286016109a1565b9250506020610a79858286016109e0565b9150509250929050565b600060208284031215610a9557600080fd5b6000610aa3848285016109cb565b91505092915050565b610ab581610c46565b82525050565b6000610ac8602683610c35565b9150610ad382610ca0565b604082019050919050565b6000610aeb602083610c35565b9150610af682610cef565b602082019050919050565b6000610b0e600f83610c35565b9150610b1982610d18565b602082019050919050565b6000610b31602283610c35565b9150610b3c82610d41565b604082019050919050565b610b5081610c96565b82525050565b6000602082019050610b6b6000830184610aac565b92915050565b6000604082019050610b866000830185610aac565b610b936020830184610b47565b9392505050565b60006020820190508181036000830152610bb381610abb565b9050919050565b60006020820190508181036000830152610bd381610ade565b9050919050565b60006020820190508181036000830152610bf381610b01565b9050919050565b60006020820190508181036000830152610c1381610b24565b9050919050565b6000602082019050610c2f6000830184610b47565b92915050565b600082825260208201905092915050565b6000610c5182610c76565b9050919050565b6000610c6382610c76565b9050919050565b60008115159050919050565b600073ffffffffffffffffffffffffffffffffffffffff82169050919050565b6000819050919050565b7f4f776e61626c653a206e6577206f776e657220697320746865207a65726f206160008201527f6464726573730000000000000000000000000000000000000000000000000000602082015250565b7f4f776e61626c653a2063616c6c6572206973206e6f7420746865206f776e6572600082015250565b7f7472616e73666572206661696c65640000000000000000000000000000000000600082015250565b7f6d73672e73656e646572206973206e6f74207468652069636f20636f6e74726160008201527f6374000000000000000000000000000000000000000000000000000000000000602082015250565b610d9981610c46565b8114610da457600080fd5b50565b610db081610c58565b8114610dbb57600080fd5b50565b610dc781610c6a565b8114610dd257600080fd5b50565b610dde81610c96565b8114610de957600080fd5b5056fea26469706673582212201dc928f2a9e833613adcca018675d211837f65aff25be2ec343d5571688a8da664736f6c63430008040033",
  "linkReferences": {},
  "deployedLinkReferences": {}
}