{
  "_format": "hh-sol-artifact-1",
  "contractName": "Treasury",
  "sourceName": "contracts/Treasury.sol",
  "abi": [
    {
      "anonymous": false,
      "inputs": [
        {
          "indexed": true,
          "internalType": "address",
          "name": "previousOwner",
          "type": "address"
        },
        {
          "indexed": true,
          "internalType": "address",
          "name": "newOwner",
          "type": "address"
        }
      ],
      "name": "OwnershipTransferred",
      "type": "event"
    },
    {
      "inputs": [],
      "name": "claimTreasuryTax",
      "outputs": [],
      "stateMutability": "nonpayable",
      "type": "function"
    },
    {
      "inputs": [
        {
          "internalType": "address",
          "name": "to",
          "type": "address"
        },
        {
          "internalType": "uint256",
          "name": "amount",
          "type": "uint256"
        }
      ],
      "name": "icoDistribute",
      "outputs": [],
      "stateMutability": "nonpayable",
      "type": "function"
    },
    {
      "inputs": [],
      "name": "owner",
      "outputs": [
        {
          "internalType": "address",
          "name": "",
          "type": "address"
        }
      ],
      "stateMutability": "view",
      "type": "function"
    },
    {
      "inputs": [],
      "name": "renounceOwnership",
      "outputs": [],
      "stateMutability": "nonpayable",
      "type": "function"
    },
    {
      "inputs": [
        {
          "internalType": "address",
          "name": "to",
          "type": "address"
        },
        {
          "internalType": "uint256",
          "name": "amount",
          "type": "uint256"
        }
      ],
      "name": "send",
      "outputs": [],
      "stateMutability": "nonpayable",
      "type": "function"
    },
    {
      "inputs": [
        {
          "internalType": "address",
          "name": "to",
          "type": "address"
        },
        {
          "internalType": "uint256",
          "name": "amount",
          "type": "uint256"
        }
      ],
      "name": "sendEther",
      "outputs": [],
      "stateMutability": "nonpayable",
      "type": "function"
    },
    {
      "inputs": [
        {
          "internalType": "address payable",
          "name": "icoContract",
          "type": "address"
        }
      ],
      "name": "setICOContract",
      "outputs": [],
      "stateMutability": "nonpayable",
      "type": "function"
    },
    {
      "inputs": [
        {
          "internalType": "address",
          "name": "tokenContract",
          "type": "address"
        }
      ],
      "name": "setTokenContract",
      "outputs": [],
      "stateMutability": "nonpayable",
      "type": "function"
    },
    {
      "inputs": [
        {
          "internalType": "address",
          "name": "newOwner",
          "type": "address"
        }
      ],
      "name": "transferOwnership",
      "outputs": [],
      "stateMutability": "nonpayable",
      "type": "function"
    },
    {
      "inputs": [],
      "name": "treasuryBalance",
      "outputs": [
        {
          "internalType": "uint256",
          "name": "",
          "type": "uint256"
        }
      ],
      "stateMutability": "view",
      "type": "function"
    },
    {
      "stateMutability": "payable",
      "type": "receive"
    }
  ],
  "bytecode": "0x608060405234801561001057600080fd5b5061002d61002261003260201b60201c565b61003a60201b60201c565b6100fe565b600033905090565b60008060009054906101000a900473ffffffffffffffffffffffffffffffffffffffff169050816000806101000a81548173ffffffffffffffffffffffffffffffffffffffff021916908373ffffffffffffffffffffffffffffffffffffffff1602179055508173ffffffffffffffffffffffffffffffffffffffff168173ffffffffffffffffffffffffffffffffffffffff167f8be0079c531659141344cd1fd0a4f28419497f9722a3daafe3b4186f6b6457e060405160405180910390a35050565b6113a88061010d6000396000f3fe6080604052600436106100955760003560e01c80639b6d40a4116100595780639b6d40a41461014e578063bbcd5bbe14610177578063c1756a2c146101a0578063d0679d34146101c9578063f2fde38b146101f25761009c565b80632e0d2a00146100a1578063313dab20146100ca578063386750f4146100f5578063715018a61461010c5780638da5cb5b146101235761009c565b3661009c57005b600080fd5b3480156100ad57600080fd5b506100c860048036038101906100c39190610d6c565b61021b565b005b3480156100d657600080fd5b506100df61038c565b6040516100ec9190611092565b60405180910390f35b34801561010157600080fd5b5061010a610392565b005b34801561011857600080fd5b506101216104d0565b005b34801561012f57600080fd5b50610138610558565b6040516101459190610f6e565b60405180910390f35b34801561015a57600080fd5b5061017560048036038101906101709190610d95565b610581565b005b34801561018357600080fd5b5061019e60048036038101906101999190610d43565b61066b565b005b3480156101ac57600080fd5b506101c760048036038101906101c29190610d95565b61079b565b005b3480156101d557600080fd5b506101f060048036038101906101eb9190610d95565b610982565b005b3480156101fe57600080fd5b5061021960048036038101906102149190610d43565b610a58565b005b610223610b50565b73ffffffffffffffffffffffffffffffffffffffff16610241610558565b73ffffffffffffffffffffffffffffffffffffffff1614610297576040517f08c379a000000000000000000000000000000000000000000000000000000000815260040161028e90610ff2565b60405180910390fd5b600073ffffffffffffffffffffffffffffffffffffffff168173ffffffffffffffffffffffffffffffffffffffff161415610307576040517f08c379a00000000000000000000000000000000000000000000000000000000081526004016102fe90611012565b60405180910390fd5b80600260006101000a81548173ffffffffffffffffffffffffffffffffffffffff021916908373ffffffffffffffffffffffffffffffffffffffff16021790555080600360006101000a81548173ffffffffffffffffffffffffffffffffffffffff021916908373ffffffffffffffffffffffffffffffffffffffff16021790555050565b60045481565b61039a610b50565b73ffffffffffffffffffffffffffffffffffffffff166103b8610558565b73ffffffffffffffffffffffffffffffffffffffff161461040e576040517f08c379a000000000000000000000000000000000000000000000000000000000815260040161040590610ff2565b60405180910390fd5b6000600160009054906101000a900473ffffffffffffffffffffffffffffffffffffffff1673ffffffffffffffffffffffffffffffffffffffff1663166bab956040518163ffffffff1660e01b8152600401602060405180830381600087803b15801561047a57600080fd5b505af115801561048e573d6000803e3d6000fd5b505050506040513d601f19601f820116820180604052508101906104b29190610dfa565b905080600460008282546104c691906110c9565b9250508190555050565b6104d8610b50565b73ffffffffffffffffffffffffffffffffffffffff166104f6610558565b73ffffffffffffffffffffffffffffffffffffffff161461054c576040517f08c379a000000000000000000000000000000000000000000000000000000000815260040161054390610ff2565b60405180910390fd5b6105566000610b58565b565b60008060009054906101000a900473ffffffffffffffffffffffffffffffffffffffff16905090565b600360009054906101000a900473ffffffffffffffffffffffffffffffffffffffff1673ffffffffffffffffffffffffffffffffffffffff163373ffffffffffffffffffffffffffffffffffffffff1614610611576040517f08c379a000000000000000000000000000000000000000000000000000000000815260040161060890611072565b60405180910390fd5b600061061d8383610c1c565b90506001151581151514610666576040517f08c379a000000000000000000000000000000000000000000000000000000000815260040161065d90611052565b60405180910390fd5b505050565b610673610b50565b73ffffffffffffffffffffffffffffffffffffffff16610691610558565b73ffffffffffffffffffffffffffffffffffffffff16146106e7576040517f08c379a00000000000000000000000000000000000000000000000000000000081526004016106de90610ff2565b60405180910390fd5b600073ffffffffffffffffffffffffffffffffffffffff168173ffffffffffffffffffffffffffffffffffffffff161415610757576040517f08c379a000000000000000000000000000000000000000000000000000000000815260040161074e90611012565b60405180910390fd5b80600160006101000a81548173ffffffffffffffffffffffffffffffffffffffff021916908373ffffffffffffffffffffffffffffffffffffffff16021790555050565b6107a3610b50565b73ffffffffffffffffffffffffffffffffffffffff166107c1610558565b73ffffffffffffffffffffffffffffffffffffffff1614610817576040517f08c379a000000000000000000000000000000000000000000000000000000000815260040161080e90610ff2565b60405180910390fd5b6000811161085a576040517f08c379a000000000000000000000000000000000000000000000000000000000815260040161085190611032565b60405180910390fd5b600073ffffffffffffffffffffffffffffffffffffffff168273ffffffffffffffffffffffffffffffffffffffff1614156108ca576040517f08c379a00000000000000000000000000000000000000000000000000000000081526004016108c190610fd2565b60405180910390fd5b60008273ffffffffffffffffffffffffffffffffffffffff16826040516108f090610f59565b60006040518083038185875af1925050503d806000811461092d576040519150601f19603f3d011682016040523d82523d6000602084013e610932565b606091505b50509050600115158115151461097d576040517f08c379a000000000000000000000000000000000000000000000000000000000815260040161097490611052565b60405180910390fd5b505050565b61098a610b50565b73ffffffffffffffffffffffffffffffffffffffff166109a8610558565b73ffffffffffffffffffffffffffffffffffffffff16146109fe576040517f08c379a00000000000000000000000000000000000000000000000000000000081526004016109f590610ff2565b60405180910390fd5b6000610a0a8383610c1c565b90506001151581151514610a53576040517f08c379a0000000000000000000000000000000000000000000000000000000008152600401610a4a90611052565b60405180910390fd5b505050565b610a60610b50565b73ffffffffffffffffffffffffffffffffffffffff16610a7e610558565b73ffffffffffffffffffffffffffffffffffffffff1614610ad4576040517f08c379a0000000000000000000000000000000000000000000000000000000008152600401610acb90610ff2565b60405180910390fd5b600073ffffffffffffffffffffffffffffffffffffffff168173ffffffffffffffffffffffffffffffffffffffff161415610b44576040517f08c379a0000000000000000000000000000000000000000000000000000000008152600401610b3b90610fb2565b60405180910390fd5b610b4d81610b58565b50565b600033905090565b60008060009054906101000a900473ffffffffffffffffffffffffffffffffffffffff169050816000806101000a81548173ffffffffffffffffffffffffffffffffffffffff021916908373ffffffffffffffffffffffffffffffffffffffff1602179055508173ffffffffffffffffffffffffffffffffffffffff168173ffffffffffffffffffffffffffffffffffffffff167f8be0079c531659141344cd1fd0a4f28419497f9722a3daafe3b4186f6b6457e060405160405180910390a35050565b600080600160009054906101000a900473ffffffffffffffffffffffffffffffffffffffff1673ffffffffffffffffffffffffffffffffffffffff1663a9059cbb85856040518363ffffffff1660e01b8152600401610c7c929190610f89565b602060405180830381600087803b158015610c9657600080fd5b505af1158015610caa573d6000803e3d6000fd5b505050506040513d601f19601f82011682018060405250810190610cce9190610dd1565b90508091505092915050565b600081359050610ce981611316565b92915050565b600081359050610cfe8161132d565b92915050565b600081519050610d1381611344565b92915050565b600081359050610d288161135b565b92915050565b600081519050610d3d8161135b565b92915050565b600060208284031215610d5557600080fd5b6000610d6384828501610cda565b91505092915050565b600060208284031215610d7e57600080fd5b6000610d8c84828501610cef565b91505092915050565b60008060408385031215610da857600080fd5b6000610db685828601610cda565b9250506020610dc785828601610d19565b9150509250929050565b600060208284031215610de357600080fd5b6000610df184828501610d04565b91505092915050565b600060208284031215610e0c57600080fd5b6000610e1a84828501610d2e565b91505092915050565b610e2c8161111f565b82525050565b6000610e3f6026836110b8565b9150610e4a826111a8565b604082019050919050565b6000610e62601e836110b8565b9150610e6d826111f7565b602082019050919050565b6000610e856020836110b8565b9150610e9082611220565b602082019050919050565b6000610ea86014836110b8565b9150610eb382611249565b602082019050919050565b6000610ecb6000836110ad565b9150610ed682611272565b600082019050919050565b6000610eee6012836110b8565b9150610ef982611275565b602082019050919050565b6000610f11600f836110b8565b9150610f1c8261129e565b602082019050919050565b6000610f346022836110b8565b9150610f3f826112c7565b604082019050919050565b610f538161116f565b82525050565b6000610f6482610ebe565b9150819050919050565b6000602082019050610f836000830184610e23565b92915050565b6000604082019050610f9e6000830185610e23565b610fab6020830184610f4a565b9392505050565b60006020820190508181036000830152610fcb81610e32565b9050919050565b60006020820190508181036000830152610feb81610e55565b9050919050565b6000602082019050818103600083015261100b81610e78565b9050919050565b6000602082019050818103600083015261102b81610e9b565b9050919050565b6000602082019050818103600083015261104b81610ee1565b9050919050565b6000602082019050818103600083015261106b81610f04565b9050919050565b6000602082019050818103600083015261108b81610f27565b9050919050565b60006020820190506110a76000830184610f4a565b92915050565b600081905092915050565b600082825260208201905092915050565b60006110d48261116f565b91506110df8361116f565b9250827fffffffffffffffffffffffffffffffffffffffffffffffffffffffffffffffff0382111561111457611113611179565b5b828201905092915050565b600061112a8261114f565b9050919050565b600061113c8261114f565b9050919050565b60008115159050919050565b600073ffffffffffffffffffffffffffffffffffffffff82169050919050565b6000819050919050565b7f4e487b7100000000000000000000000000000000000000000000000000000000600052601160045260246000fd5b7f4f776e61626c653a206e6577206f776e657220697320746865207a65726f206160008201527f6464726573730000000000000000000000000000000000000000000000000000602082015250565b7f616464726573732830292063616e6e6f7420626520726563697069656e740000600082015250565b7f4f776e61626c653a2063616c6c6572206973206e6f7420746865206f776e6572600082015250565b7f63616e6e6f742062652061646472657373283029000000000000000000000000600082015250565b50565b7f616d6f756e742063616e6e6f7420626520300000000000000000000000000000600082015250565b7f7472616e73666572206661696c65640000000000000000000000000000000000600082015250565b7f6d73672e73656e646572206973206e6f74207468652069636f20636f6e74726160008201527f6374000000000000000000000000000000000000000000000000000000000000602082015250565b61131f8161111f565b811461132a57600080fd5b50565b61133681611131565b811461134157600080fd5b50565b61134d81611143565b811461135857600080fd5b50565b6113648161116f565b811461136f57600080fd5b5056fea264697066735822122066c6ad81ab369ae488686a06a1232840e78a3ca6a4ac5a84cb3612ff03cf8baa64736f6c63430008040033",
  "linkReferences": {},
  "deployedLinkReferences": {}
}