{
  "_format": "hh-sol-artifact-1",
  "contractName": "LPToken",
  "sourceName": "contracts/LPToken.sol",
  "abi": [
    {
      "inputs": [
        {
          "internalType": "address payable",
          "name": "tomatoLPAddress",
          "type": "address"
        }
      ],
      "stateMutability": "nonpayable",
      "type": "constructor"
    },
    {
      "anonymous": false,
      "inputs": [
        {
          "indexed": true,
          "internalType": "address",
          "name": "owner",
          "type": "address"
        },
        {
          "indexed": true,
          "internalType": "address",
          "name": "spender",
          "type": "address"
        },
        {
          "indexed": false,
          "internalType": "uint256",
          "name": "value",
          "type": "uint256"
        }
      ],
      "name": "Approval",
      "type": "event"
    },
    {
      "anonymous": false,
      "inputs": [
        {
          "indexed": true,
          "internalType": "address",
          "name": "from",
          "type": "address"
        },
        {
          "indexed": true,
          "internalType": "address",
          "name": "to",
          "type": "address"
        },
        {
          "indexed": false,
          "internalType": "uint256",
          "name": "value",
          "type": "uint256"
        }
      ],
      "name": "Transfer",
      "type": "event"
    },
    {
      "inputs": [
        {
          "internalType": "address",
          "name": "owner",
          "type": "address"
        },
        {
          "internalType": "address",
          "name": "spender",
          "type": "address"
        }
      ],
      "name": "allowance",
      "outputs": [
        {
          "internalType": "uint256",
          "name": "",
          "type": "uint256"
        }
      ],
      "stateMutability": "view",
      "type": "function"
    },
    {
      "inputs": [
        {
          "internalType": "address",
          "name": "spender",
          "type": "address"
        },
        {
          "internalType": "uint256",
          "name": "amount",
          "type": "uint256"
        }
      ],
      "name": "approve",
      "outputs": [
        {
          "internalType": "bool",
          "name": "",
          "type": "bool"
        }
      ],
      "stateMutability": "nonpayable",
      "type": "function"
    },
    {
      "inputs": [],
      "name": "approve",
      "outputs": [],
      "stateMutability": "nonpayable",
      "type": "function"
    },
    {
      "inputs": [
        {
          "internalType": "address",
          "name": "account",
          "type": "address"
        }
      ],
      "name": "balanceOf",
      "outputs": [
        {
          "internalType": "uint256",
          "name": "",
          "type": "uint256"
        }
      ],
      "stateMutability": "view",
      "type": "function"
    },
    {
      "inputs": [
        {
          "internalType": "address",
          "name": "sender",
          "type": "address"
        },
        {
          "internalType": "uint256",
          "name": "amount",
          "type": "uint256"
        }
      ],
      "name": "burn",
      "outputs": [],
      "stateMutability": "nonpayable",
      "type": "function"
    },
    {
      "inputs": [],
      "name": "decimals",
      "outputs": [
        {
          "internalType": "uint8",
          "name": "",
          "type": "uint8"
        }
      ],
      "stateMutability": "view",
      "type": "function"
    },
    {
      "inputs": [
        {
          "internalType": "address",
          "name": "spender",
          "type": "address"
        },
        {
          "internalType": "uint256",
          "name": "subtractedValue",
          "type": "uint256"
        }
      ],
      "name": "decreaseAllowance",
      "outputs": [
        {
          "internalType": "bool",
          "name": "",
          "type": "bool"
        }
      ],
      "stateMutability": "nonpayable",
      "type": "function"
    },
    {
      "inputs": [
        {
          "internalType": "address",
          "name": "spender",
          "type": "address"
        },
        {
          "internalType": "uint256",
          "name": "addedValue",
          "type": "uint256"
        }
      ],
      "name": "increaseAllowance",
      "outputs": [
        {
          "internalType": "bool",
          "name": "",
          "type": "bool"
        }
      ],
      "stateMutability": "nonpayable",
      "type": "function"
    },
    {
      "inputs": [
        {
          "internalType": "address",
          "name": "to",
          "type": "address"
        },
        {
          "internalType": "uint256",
          "name": "liquidity",
          "type": "uint256"
        }
      ],
      "name": "mint",
      "outputs": [],
      "stateMutability": "nonpayable",
      "type": "function"
    },
    {
      "inputs": [],
      "name": "name",
      "outputs": [
        {
          "internalType": "string",
          "name": "",
          "type": "string"
        }
      ],
      "stateMutability": "view",
      "type": "function"
    },
    {
      "inputs": [],
      "name": "symbol",
      "outputs": [
        {
          "internalType": "string",
          "name": "",
          "type": "string"
        }
      ],
      "stateMutability": "view",
      "type": "function"
    },
    {
      "inputs": [],
      "name": "totalSupply",
      "outputs": [
        {
          "internalType": "uint256",
          "name": "",
          "type": "uint256"
        }
      ],
      "stateMutability": "view",
      "type": "function"
    },
    {
      "inputs": [
        {
          "internalType": "address",
          "name": "recipient",
          "type": "address"
        },
        {
          "internalType": "uint256",
          "name": "amount",
          "type": "uint256"
        }
      ],
      "name": "transfer",
      "outputs": [
        {
          "internalType": "bool",
          "name": "",
          "type": "bool"
        }
      ],
      "stateMutability": "nonpayable",
      "type": "function"
    },
    {
      "inputs": [
        {
          "internalType": "address",
          "name": "sender",
          "type": "address"
        },
        {
          "internalType": "address",
          "name": "recipient",
          "type": "address"
        },
        {
          "internalType": "uint256",
          "name": "amount",
          "type": "uint256"
        }
      ],
      "name": "transferFrom",
      "outputs": [
        {
          "internalType": "bool",
          "name": "",
          "type": "bool"
        }
      ],
      "stateMutability": "nonpayable",
      "type": "function"
    }
  ],
  "bytecode": "0x60806040523480156200001157600080fd5b5060405162001ebc38038062001ebc8339818101604052810190620000379190620001e6565b6040518060400160405280601181526020017f544d544f784554485f4c505f544f4b454e0000000000000000000000000000008152506040518060400160405280600381526020017f54584500000000000000000000000000000000000000000000000000000000008152508160039080519060200190620000bb9291906200011f565b508060049080519060200190620000d49291906200011f565b50505080600560006101000a81548173ffffffffffffffffffffffffffffffffffffffff021916908373ffffffffffffffffffffffffffffffffffffffff16021790555050620002c5565b8280546200012d9062000246565b90600052602060002090601f0160209004810192826200015157600085556200019d565b82601f106200016c57805160ff19168380011785556200019d565b828001600101855582156200019d579182015b828111156200019c5782518255916020019190600101906200017f565b5b509050620001ac9190620001b0565b5090565b5b80821115620001cb576000816000905550600101620001b1565b5090565b600081519050620001e081620002ab565b92915050565b600060208284031215620001f957600080fd5b60006200020984828501620001cf565b91505092915050565b60006200021f8262000226565b9050919050565b600073ffffffffffffffffffffffffffffffffffffffff82169050919050565b600060028204905060018216806200025f57607f821691505b602082108114156200027657620002756200027c565b5b50919050565b7f4e487b7100000000000000000000000000000000000000000000000000000000600052602260045260246000fd5b620002b68162000212565b8114620002c257600080fd5b50565b611be780620002d56000396000f3fe608060405234801561001057600080fd5b50600436106100ea5760003560e01c806340c10f191161008c5780639dc29fac116100665780639dc29fac1461024d578063a457c2d714610269578063a9059cbb14610299578063dd62ed3e146102c9576100ea565b806340c10f19146101e357806370a08231146101ff57806395d89b411461022f576100ea565b806318160ddd116100c857806318160ddd1461014757806323b872dd14610165578063313ce5671461019557806339509351146101b3576100ea565b806306fdde03146100ef578063095ea7b31461010d57806312424e3f1461013d575b600080fd5b6100f76102f9565b6040516101049190611474565b60405180910390f35b61012760048036038101906101229190611213565b61038b565b6040516101349190611459565b60405180910390f35b6101456103a9565b005b61014f6103f8565b60405161015c9190611616565b60405180910390f35b61017f600480360381019061017a91906111c4565b610402565b60405161018c9190611459565b60405180910390f35b61019d6104fa565b6040516101aa9190611631565b60405180910390f35b6101cd60048036038101906101c89190611213565b610503565b6040516101da9190611459565b60405180910390f35b6101fd60048036038101906101f89190611213565b6105af565b005b6102196004803603810190610214919061115f565b61064d565b6040516102269190611616565b60405180910390f35b610237610695565b6040516102449190611474565b60405180910390f35b61026760048036038101906102629190611213565b610727565b005b610283600480360381019061027e9190611213565b610810565b6040516102909190611459565b60405180910390f35b6102b360048036038101906102ae9190611213565b6108fb565b6040516102c09190611459565b60405180910390f35b6102e360048036038101906102de9190611188565b610919565b6040516102f09190611616565b60405180910390f35b6060600380546103089061177a565b80601f01602080910402602001604051908101604052809291908181526020018280546103349061177a565b80156103815780601f1061035657610100808354040283529160200191610381565b820191906000526020600020905b81548152906001019060200180831161036457829003601f168201915b5050505050905090565b600061039f6103986109a0565b84846109a8565b6001905092915050565b6103f6600560009054906101000a900473ffffffffffffffffffffffffffffffffffffffff16337fffffffffffffffffffffffffffffffffffffffffffffffffffffffffffffffff6109a8565b565b6000600254905090565b600061040f848484610b73565b6000600160008673ffffffffffffffffffffffffffffffffffffffff1673ffffffffffffffffffffffffffffffffffffffff168152602001908152602001600020600061045a6109a0565b73ffffffffffffffffffffffffffffffffffffffff1673ffffffffffffffffffffffffffffffffffffffff168152602001908152602001600020549050828110156104da576040517f08c379a00000000000000000000000000000000000000000000000000000000081526004016104d190611536565b60405180910390fd5b6104ee856104e66109a0565b8584036109a8565b60019150509392505050565b60006012905090565b60006105a56105106109a0565b84846001600061051e6109a0565b73ffffffffffffffffffffffffffffffffffffffff1673ffffffffffffffffffffffffffffffffffffffff16815260200190815260200160002060008873ffffffffffffffffffffffffffffffffffffffff1673ffffffffffffffffffffffffffffffffffffffff168152602001908152602001600020546105a09190611668565b6109a8565b6001905092915050565b600560009054906101000a900473ffffffffffffffffffffffffffffffffffffffff1673ffffffffffffffffffffffffffffffffffffffff163373ffffffffffffffffffffffffffffffffffffffff161461063f576040517f08c379a000000000000000000000000000000000000000000000000000000000815260040161063690611516565b60405180910390fd5b6106498282610df4565b5050565b60008060008373ffffffffffffffffffffffffffffffffffffffff1673ffffffffffffffffffffffffffffffffffffffff168152602001908152602001600020549050919050565b6060600480546106a49061177a565b80601f01602080910402602001604051908101604052809291908181526020018280546106d09061177a565b801561071d5780601f106106f25761010080835404028352916020019161071d565b820191906000526020600020905b81548152906001019060200180831161070057829003601f168201915b5050505050905090565b600560009054906101000a900473ffffffffffffffffffffffffffffffffffffffff1673ffffffffffffffffffffffffffffffffffffffff163373ffffffffffffffffffffffffffffffffffffffff16146107b7576040517f08c379a00000000000000000000000000000000000000000000000000000000081526004016107ae90611516565b60405180910390fd5b806107c18361064d565b1015610802576040517f08c379a00000000000000000000000000000000000000000000000000000000081526004016107f9906115b6565b60405180910390fd5b61080c8282610f54565b5050565b6000806001600061081f6109a0565b73ffffffffffffffffffffffffffffffffffffffff1673ffffffffffffffffffffffffffffffffffffffff16815260200190815260200160002060008573ffffffffffffffffffffffffffffffffffffffff1673ffffffffffffffffffffffffffffffffffffffff168152602001908152602001600020549050828110156108dc576040517f08c379a00000000000000000000000000000000000000000000000000000000081526004016108d3906115d6565b60405180910390fd5b6108f06108e76109a0565b858584036109a8565b600191505092915050565b600061090f6109086109a0565b8484610b73565b6001905092915050565b6000600160008473ffffffffffffffffffffffffffffffffffffffff1673ffffffffffffffffffffffffffffffffffffffff16815260200190815260200160002060008373ffffffffffffffffffffffffffffffffffffffff1673ffffffffffffffffffffffffffffffffffffffff16815260200190815260200160002054905092915050565b600033905090565b600073ffffffffffffffffffffffffffffffffffffffff168373ffffffffffffffffffffffffffffffffffffffff161415610a18576040517f08c379a0000000000000000000000000000000000000000000000000000000008152600401610a0f90611596565b60405180910390fd5b600073ffffffffffffffffffffffffffffffffffffffff168273ffffffffffffffffffffffffffffffffffffffff161415610a88576040517f08c379a0000000000000000000000000000000000000000000000000000000008152600401610a7f906114d6565b60405180910390fd5b80600160008573ffffffffffffffffffffffffffffffffffffffff1673ffffffffffffffffffffffffffffffffffffffff16815260200190815260200160002060008473ffffffffffffffffffffffffffffffffffffffff1673ffffffffffffffffffffffffffffffffffffffff168152602001908152602001600020819055508173ffffffffffffffffffffffffffffffffffffffff168373ffffffffffffffffffffffffffffffffffffffff167f8c5be1e5ebec7d5bd14f71427d1e84f3dd0314c0f7b2291e5b200ac8c7c3b92583604051610b669190611616565b60405180910390a3505050565b600073ffffffffffffffffffffffffffffffffffffffff168373ffffffffffffffffffffffffffffffffffffffff161415610be3576040517f08c379a0000000000000000000000000000000000000000000000000000000008152600401610bda90611576565b60405180910390fd5b600073ffffffffffffffffffffffffffffffffffffffff168273ffffffffffffffffffffffffffffffffffffffff161415610c53576040517f08c379a0000000000000000000000000000000000000000000000000000000008152600401610c4a90611496565b60405180910390fd5b610c5e83838361112b565b60008060008573ffffffffffffffffffffffffffffffffffffffff1673ffffffffffffffffffffffffffffffffffffffff16815260200190815260200160002054905081811015610ce4576040517f08c379a0000000000000000000000000000000000000000000000000000000008152600401610cdb906114f6565b60405180910390fd5b8181036000808673ffffffffffffffffffffffffffffffffffffffff1673ffffffffffffffffffffffffffffffffffffffff16815260200190815260200160002081905550816000808573ffffffffffffffffffffffffffffffffffffffff1673ffffffffffffffffffffffffffffffffffffffff1681526020019081526020016000206000828254610d779190611668565b925050819055508273ffffffffffffffffffffffffffffffffffffffff168473ffffffffffffffffffffffffffffffffffffffff167fddf252ad1be2c89b69c2b068fc378daa952ba7f163c4a11628f55a4df523b3ef84604051610ddb9190611616565b60405180910390a3610dee848484611130565b50505050565b600073ffffffffffffffffffffffffffffffffffffffff168273ffffffffffffffffffffffffffffffffffffffff161415610e64576040517f08c379a0000000000000000000000000000000000000000000000000000000008152600401610e5b906115f6565b60405180910390fd5b610e706000838361112b565b8060026000828254610e829190611668565b92505081905550806000808473ffffffffffffffffffffffffffffffffffffffff1673ffffffffffffffffffffffffffffffffffffffff1681526020019081526020016000206000828254610ed79190611668565b925050819055508173ffffffffffffffffffffffffffffffffffffffff16600073ffffffffffffffffffffffffffffffffffffffff167fddf252ad1be2c89b69c2b068fc378daa952ba7f163c4a11628f55a4df523b3ef83604051610f3c9190611616565b60405180910390a3610f5060008383611130565b5050565b600073ffffffffffffffffffffffffffffffffffffffff168273ffffffffffffffffffffffffffffffffffffffff161415610fc4576040517f08c379a0000000000000000000000000000000000000000000000000000000008152600401610fbb90611556565b60405180910390fd5b610fd08260008361112b565b60008060008473ffffffffffffffffffffffffffffffffffffffff1673ffffffffffffffffffffffffffffffffffffffff16815260200190815260200160002054905081811015611056576040517f08c379a000000000000000000000000000000000000000000000000000000000815260040161104d906114b6565b60405180910390fd5b8181036000808573ffffffffffffffffffffffffffffffffffffffff1673ffffffffffffffffffffffffffffffffffffffff1681526020019081526020016000208190555081600260008282546110ad91906116be565b92505081905550600073ffffffffffffffffffffffffffffffffffffffff168373ffffffffffffffffffffffffffffffffffffffff167fddf252ad1be2c89b69c2b068fc378daa952ba7f163c4a11628f55a4df523b3ef846040516111129190611616565b60405180910390a361112683600084611130565b505050565b505050565b505050565b60008135905061114481611b83565b92915050565b60008135905061115981611b9a565b92915050565b60006020828403121561117157600080fd5b600061117f84828501611135565b91505092915050565b6000806040838503121561119b57600080fd5b60006111a985828601611135565b92505060206111ba85828601611135565b9150509250929050565b6000806000606084860312156111d957600080fd5b60006111e786828701611135565b93505060206111f886828701611135565b92505060406112098682870161114a565b9150509250925092565b6000806040838503121561122657600080fd5b600061123485828601611135565b92505060206112458582860161114a565b9150509250929050565b61125881611704565b82525050565b60006112698261164c565b6112738185611657565b9350611283818560208601611747565b61128c8161180a565b840191505092915050565b60006112a4602383611657565b91506112af8261181b565b604082019050919050565b60006112c7602283611657565b91506112d28261186a565b604082019050919050565b60006112ea602283611657565b91506112f5826118b9565b604082019050919050565b600061130d602683611657565b915061131882611908565b604082019050919050565b6000611330602083611657565b915061133b82611957565b602082019050919050565b6000611353602883611657565b915061135e82611980565b604082019050919050565b6000611376602183611657565b9150611381826119cf565b604082019050919050565b6000611399602583611657565b91506113a482611a1e565b604082019050919050565b60006113bc602483611657565b91506113c782611a6d565b604082019050919050565b60006113df602583611657565b91506113ea82611abc565b604082019050919050565b6000611402602583611657565b915061140d82611b0b565b604082019050919050565b6000611425601f83611657565b915061143082611b5a565b602082019050919050565b61144481611730565b82525050565b6114538161173a565b82525050565b600060208201905061146e600083018461124f565b92915050565b6000602082019050818103600083015261148e818461125e565b905092915050565b600060208201905081810360008301526114af81611297565b9050919050565b600060208201905081810360008301526114cf816112ba565b9050919050565b600060208201905081810360008301526114ef816112dd565b9050919050565b6000602082019050818103600083015261150f81611300565b9050919050565b6000602082019050818103600083015261152f81611323565b9050919050565b6000602082019050818103600083015261154f81611346565b9050919050565b6000602082019050818103600083015261156f81611369565b9050919050565b6000602082019050818103600083015261158f8161138c565b9050919050565b600060208201905081810360008301526115af816113af565b9050919050565b600060208201905081810360008301526115cf816113d2565b9050919050565b600060208201905081810360008301526115ef816113f5565b9050919050565b6000602082019050818103600083015261160f81611418565b9050919050565b600060208201905061162b600083018461143b565b92915050565b6000602082019050611646600083018461144a565b92915050565b600081519050919050565b600082825260208201905092915050565b600061167382611730565b915061167e83611730565b9250827fffffffffffffffffffffffffffffffffffffffffffffffffffffffffffffffff038211156116b3576116b26117ac565b5b828201905092915050565b60006116c982611730565b91506116d483611730565b9250828210156116e7576116e66117ac565b5b828203905092915050565b60006116fd82611710565b9050919050565b60008115159050919050565b600073ffffffffffffffffffffffffffffffffffffffff82169050919050565b6000819050919050565b600060ff82169050919050565b60005b8381101561176557808201518184015260208101905061174a565b83811115611774576000848401525b50505050565b6000600282049050600182168061179257607f821691505b602082108114156117a6576117a56117db565b5b50919050565b7f4e487b7100000000000000000000000000000000000000000000000000000000600052601160045260246000fd5b7f4e487b7100000000000000000000000000000000000000000000000000000000600052602260045260246000fd5b6000601f19601f8301169050919050565b7f45524332303a207472616e7366657220746f20746865207a65726f206164647260008201527f6573730000000000000000000000000000000000000000000000000000000000602082015250565b7f45524332303a206275726e20616d6f756e7420657863656564732062616c616e60008201527f6365000000000000000000000000000000000000000000000000000000000000602082015250565b7f45524332303a20617070726f766520746f20746865207a65726f20616464726560008201527f7373000000000000000000000000000000000000000000000000000000000000602082015250565b7f45524332303a207472616e7366657220616d6f756e742065786365656473206260008201527f616c616e63650000000000000000000000000000000000000000000000000000602082015250565b7f73656e646572206d75737420626520746f6d61746f4c5020636f6e7472616374600082015250565b7f45524332303a207472616e7366657220616d6f756e742065786365656473206160008201527f6c6c6f77616e6365000000000000000000000000000000000000000000000000602082015250565b7f45524332303a206275726e2066726f6d20746865207a65726f2061646472657360008201527f7300000000000000000000000000000000000000000000000000000000000000602082015250565b7f45524332303a207472616e736665722066726f6d20746865207a65726f20616460008201527f6472657373000000000000000000000000000000000000000000000000000000602082015250565b7f45524332303a20617070726f76652066726f6d20746865207a65726f2061646460008201527f7265737300000000000000000000000000000000000000000000000000000000602082015250565b7f73656e64657220646f6573206e6f74206861766520656e6f756768204c50207460008201527f6f6b656e73000000000000000000000000000000000000000000000000000000602082015250565b7f45524332303a2064656372656173656420616c6c6f77616e63652062656c6f7760008201527f207a65726f000000000000000000000000000000000000000000000000000000602082015250565b7f45524332303a206d696e7420746f20746865207a65726f206164647265737300600082015250565b611b8c816116f2565b8114611b9757600080fd5b50565b611ba381611730565b8114611bae57600080fd5b5056fea26469706673582212203e37f30a9f2ee00177b25e3fca63392904e3749a0d4dc82faa356fe8dd3abe4164736f6c63430008040033",
  "linkReferences": {},
  "deployedLinkReferences": {}
}