{
  "_format": "hh-sol-artifact-1",
  "contractName": "ICO",
  "sourceName": "contracts/ICO.sol",
  "abi": [
    {
      "inputs": [
        {
          "internalType": "address",
          "name": "tokenContract",
          "type": "address"
        }
      ],
      "stateMutability": "nonpayable",
      "type": "constructor"
    },
    {
      "anonymous": false,
      "inputs": [
        {
          "indexed": true,
          "internalType": "address",
          "name": "previousOwner",
          "type": "address"
        },
        {
          "indexed": true,
          "internalType": "address",
          "name": "newOwner",
          "type": "address"
        }
      ],
      "name": "OwnershipTransferred",
      "type": "event"
    },
    {
      "inputs": [
        {
          "internalType": "address[]",
          "name": "privateInvestors",
          "type": "address[]"
        }
      ],
      "name": "addToWhitelist",
      "outputs": [],
      "stateMutability": "nonpayable",
      "type": "function"
    },
    {
      "inputs": [
        {
          "internalType": "address",
          "name": "",
          "type": "address"
        }
      ],
      "name": "balances",
      "outputs": [
        {
          "internalType": "uint256",
          "name": "",
          "type": "uint256"
        }
      ],
      "stateMutability": "view",
      "type": "function"
    },
    {
      "inputs": [],
      "name": "changePhase",
      "outputs": [],
      "stateMutability": "nonpayable",
      "type": "function"
    },
    {
      "inputs": [],
      "name": "claimTomatoTokens",
      "outputs": [],
      "stateMutability": "nonpayable",
      "type": "function"
    },
    {
      "inputs": [],
      "name": "owner",
      "outputs": [
        {
          "internalType": "address",
          "name": "",
          "type": "address"
        }
      ],
      "stateMutability": "view",
      "type": "function"
    },
    {
      "inputs": [],
      "name": "paused",
      "outputs": [
        {
          "internalType": "bool",
          "name": "",
          "type": "bool"
        }
      ],
      "stateMutability": "view",
      "type": "function"
    },
    {
      "inputs": [],
      "name": "phase",
      "outputs": [
        {
          "internalType": "enum ICO.phases",
          "name": "",
          "type": "uint8"
        }
      ],
      "stateMutability": "view",
      "type": "function"
    },
    {
      "inputs": [],
      "name": "renounceOwnership",
      "outputs": [],
      "stateMutability": "nonpayable",
      "type": "function"
    },
    {
      "inputs": [
        {
          "internalType": "bool",
          "name": "state",
          "type": "bool"
        }
      ],
      "name": "togglePause",
      "outputs": [],
      "stateMutability": "nonpayable",
      "type": "function"
    },
    {
      "inputs": [],
      "name": "totalFunds",
      "outputs": [
        {
          "internalType": "uint256",
          "name": "",
          "type": "uint256"
        }
      ],
      "stateMutability": "view",
      "type": "function"
    },
    {
      "inputs": [
        {
          "internalType": "address",
          "name": "newOwner",
          "type": "address"
        }
      ],
      "name": "transferOwnership",
      "outputs": [],
      "stateMutability": "nonpayable",
      "type": "function"
    },
    {
      "inputs": [
        {
          "internalType": "address",
          "name": "",
          "type": "address"
        }
      ],
      "name": "whitelist",
      "outputs": [
        {
          "internalType": "bool",
          "name": "",
          "type": "bool"
        }
      ],
      "stateMutability": "view",
      "type": "function"
    },
    {
      "stateMutability": "payable",
      "type": "receive"
    }
  ],
  "bytecode": "0x60806040523480156200001157600080fd5b5060405162001faa38038062001faa8339818101604052810190620000379190620001d4565b620000576200004b620000f160201b60201c565b620000f960201b60201c565b6000600560016101000a81548160ff02191690836002811115620000a4577f4e487b7100000000000000000000000000000000000000000000000000000000600052602160045260246000fd5b021790555080600160006101000a81548173ffffffffffffffffffffffffffffffffffffffff021916908373ffffffffffffffffffffffffffffffffffffffff160217905550506200024e565b600033905090565b60008060009054906101000a900473ffffffffffffffffffffffffffffffffffffffff169050816000806101000a81548173ffffffffffffffffffffffffffffffffffffffff021916908373ffffffffffffffffffffffffffffffffffffffff1602179055508173ffffffffffffffffffffffffffffffffffffffff168173ffffffffffffffffffffffffffffffffffffffff167f8be0079c531659141344cd1fd0a4f28419497f9722a3daafe3b4186f6b6457e060405160405180910390a35050565b600081519050620001ce8162000234565b92915050565b600060208284031215620001e757600080fd5b6000620001f784828501620001bd565b91505092915050565b60006200020d8262000214565b9050919050565b600073ffffffffffffffffffffffffffffffffffffffff82169050919050565b6200023f8162000200565b81146200024b57600080fd5b50565b611d4c806200025e6000396000f3fe6080604052600436106100ab5760003560e01c8063968ed60011610064578063968ed6001461080657806397e0175b146108315780639b19251a14610848578063b1c9fe6e14610885578063db6f5953146108b0578063f2fde38b146108c757610705565b806327e235e31461070a57806357d159c6146107475780635c975abb14610770578063715018a61461079b5780637f649783146107b25780638da5cb5b146107db57610705565b3661070557662386f26fc1000034116100f9576040517f08c379a00000000000000000000000000000000000000000000000000000000081526004016100f09061173d565b60405180910390fd5b60001515600560009054906101000a900460ff1615151461014f576040517f08c379a0000000000000000000000000000000000000000000000000000000008152600401610146906115fd565b60405180910390fd5b60006002811115610189577f4e487b7100000000000000000000000000000000000000000000000000000000600052602160045260246000fd5b600560019054906101000a900460ff1660028111156101d1577f4e487b7100000000000000000000000000000000000000000000000000000000600052602160045260246000fd5b14156103ca5769032d26d12e980b600000346004546101f091906117da565b1115610231576040517f08c379a00000000000000000000000000000000000000000000000000000000081526004016102289061167d565b60405180910390fd5b60011515600360003373ffffffffffffffffffffffffffffffffffffffff1673ffffffffffffffffffffffffffffffffffffffff16815260200190815260200160002060009054906101000a900460ff161515146102c4576040517f08c379a00000000000000000000000000000000000000000000000000000000081526004016102bb906115bd565b60405180910390fd5b685150ae84a8cdf0000034600260003373ffffffffffffffffffffffffffffffffffffffff1673ffffffffffffffffffffffffffffffffffffffff1681526020019081526020016000205461031991906117da565b111561035a576040517f08c379a0000000000000000000000000000000000000000000000000000000008152600401610351906116bd565b60405180910390fd5b346004600082825461036c91906117da565b9250508190555034600260003373ffffffffffffffffffffffffffffffffffffffff1673ffffffffffffffffffffffffffffffffffffffff16815260200190815260200160002060008282546103c291906117da565b925050819055505b60016002811115610404577f4e487b7100000000000000000000000000000000000000000000000000000000600052602160045260246000fd5b600560019054906101000a900460ff16600281111561044c577f4e487b7100000000000000000000000000000000000000000000000000000000600052602160045260246000fd5b14156105b25769065a4da25d3016c000003460045461046b91906117da565b11156104ac576040517f08c379a00000000000000000000000000000000000000000000000000000000081526004016104a3906116fd565b60405180910390fd5b683635c9adc5dea0000034600260003373ffffffffffffffffffffffffffffffffffffffff1673ffffffffffffffffffffffffffffffffffffffff1681526020019081526020016000205461050191906117da565b1115610542576040517f08c379a00000000000000000000000000000000000000000000000000000000081526004016105399061169d565b60405180910390fd5b346004600082825461055491906117da565b9250508190555034600260003373ffffffffffffffffffffffffffffffffffffffff1673ffffffffffffffffffffffffffffffffffffffff16815260200190815260200160002060008282546105aa91906117da565b925050819055505b6002808111156105eb577f4e487b7100000000000000000000000000000000000000000000000000000000600052602160045260246000fd5b600560019054906101000a900460ff166002811115610633577f4e487b7100000000000000000000000000000000000000000000000000000000600052602160045260246000fd5b14156107035769065a4da25d3016c000003460045461065291906117da565b1115610693576040517f08c379a000000000000000000000000000000000000000000000000000000000815260040161068a906116fd565b60405180910390fd5b34600460008282546106a591906117da565b9250508190555034600260003373ffffffffffffffffffffffffffffffffffffffff1673ffffffffffffffffffffffffffffffffffffffff16815260200190815260200160002060008282546106fb91906117da565b925050819055505b005b600080fd5b34801561071657600080fd5b50610731600480360381019061072c91906112d6565b6108f0565b60405161073e919061175d565b60405180910390f35b34801561075357600080fd5b5061076e60048036038101906107699190611340565b610908565b005b34801561077c57600080fd5b506107856109a1565b6040516107929190611587565b60405180910390f35b3480156107a757600080fd5b506107b06109b4565b005b3480156107be57600080fd5b506107d960048036038101906107d491906112ff565b610a3c565b005b3480156107e757600080fd5b506107f0610c35565b6040516107fd919061156c565b60405180910390f35b34801561081257600080fd5b5061081b610c5e565b604051610828919061175d565b60405180910390f35b34801561083d57600080fd5b50610846610c64565b005b34801561085457600080fd5b5061086f600480360381019061086a91906112d6565b610da9565b60405161087c9190611587565b60405180910390f35b34801561089157600080fd5b5061089a610dc9565b6040516108a791906115a2565b60405180910390f35b3480156108bc57600080fd5b506108c5610ddc565b005b3480156108d357600080fd5b506108ee60048036038101906108e991906112d6565b611052565b005b60026020528060005260406000206000915090505481565b61091061114a565b73ffffffffffffffffffffffffffffffffffffffff1661092e610c35565b73ffffffffffffffffffffffffffffffffffffffff1614610984576040517f08c379a000000000000000000000000000000000000000000000000000000000815260040161097b9061163d565b60405180910390fd5b80600560006101000a81548160ff02191690831515021790555050565b600560009054906101000a900460ff1681565b6109bc61114a565b73ffffffffffffffffffffffffffffffffffffffff166109da610c35565b73ffffffffffffffffffffffffffffffffffffffff1614610a30576040517f08c379a0000000000000000000000000000000000000000000000000000000008152600401610a279061163d565b60405180910390fd5b610a3a6000611152565b565b610a4461114a565b73ffffffffffffffffffffffffffffffffffffffff16610a62610c35565b73ffffffffffffffffffffffffffffffffffffffff1614610ab8576040517f08c379a0000000000000000000000000000000000000000000000000000000008152600401610aaf9061163d565b60405180910390fd5b60006002811115610af2577f4e487b7100000000000000000000000000000000000000000000000000000000600052602160045260246000fd5b600560019054906101000a900460ff166002811115610b3a577f4e487b7100000000000000000000000000000000000000000000000000000000600052602160045260246000fd5b14610b7a576040517f08c379a0000000000000000000000000000000000000000000000000000000008152600401610b719061171d565b60405180910390fd5b60005b8151811015610c3157600160036000848481518110610bc5577f4e487b7100000000000000000000000000000000000000000000000000000000600052603260045260246000fd5b602002602001015173ffffffffffffffffffffffffffffffffffffffff1673ffffffffffffffffffffffffffffffffffffffff16815260200190815260200160002060006101000a81548160ff0219169083151502179055508080610c29906118ce565b915050610b7d565b5050565b60008060009054906101000a900473ffffffffffffffffffffffffffffffffffffffff16905090565b60045481565b600280811115610c9d577f4e487b7100000000000000000000000000000000000000000000000000000000600052602160045260246000fd5b600560019054906101000a900460ff166002811115610ce5577f4e487b7100000000000000000000000000000000000000000000000000000000600052602160045260246000fd5b14610d25576040517f08c379a0000000000000000000000000000000000000000000000000000000008152600401610d1c9061161d565b60405180910390fd5b6000600260003373ffffffffffffffffffffffffffffffffffffffff1673ffffffffffffffffffffffffffffffffffffffff1681526020019081526020016000205411610da7576040517f08c379a0000000000000000000000000000000000000000000000000000000008152600401610d9e906116dd565b60405180910390fd5b565b60036020528060005260406000206000915054906101000a900460ff1681565b600560019054906101000a900460ff1681565b610de461114a565b73ffffffffffffffffffffffffffffffffffffffff16610e02610c35565b73ffffffffffffffffffffffffffffffffffffffff1614610e58576040517f08c379a0000000000000000000000000000000000000000000000000000000008152600401610e4f9061163d565b60405180910390fd5b60006002811115610e92577f4e487b7100000000000000000000000000000000000000000000000000000000600052602160045260246000fd5b600560019054906101000a900460ff166002811115610eda577f4e487b7100000000000000000000000000000000000000000000000000000000600052602160045260246000fd5b1415610f36576001600560016101000a81548160ff02191690836002811115610f2c577f4e487b7100000000000000000000000000000000000000000000000000000000600052602160045260246000fd5b0217905550611050565b60016002811115610f70577f4e487b7100000000000000000000000000000000000000000000000000000000600052602160045260246000fd5b600560019054906101000a900460ff166002811115610fb8577f4e487b7100000000000000000000000000000000000000000000000000000000600052602160045260246000fd5b1415611014576002600560016101000a81548160ff0219169083600281111561100a577f4e487b7100000000000000000000000000000000000000000000000000000000600052602160045260246000fd5b021790555061104f565b6040517f08c379a00000000000000000000000000000000000000000000000000000000081526004016110469061165d565b60405180910390fd5b5b565b61105a61114a565b73ffffffffffffffffffffffffffffffffffffffff16611078610c35565b73ffffffffffffffffffffffffffffffffffffffff16146110ce576040517f08c379a00000000000000000000000000000000000000000000000000000000081526004016110c59061163d565b60405180910390fd5b600073ffffffffffffffffffffffffffffffffffffffff168173ffffffffffffffffffffffffffffffffffffffff16141561113e576040517f08c379a0000000000000000000000000000000000000000000000000000000008152600401611135906115dd565b60405180910390fd5b61114781611152565b50565b600033905090565b60008060009054906101000a900473ffffffffffffffffffffffffffffffffffffffff169050816000806101000a81548173ffffffffffffffffffffffffffffffffffffffff021916908373ffffffffffffffffffffffffffffffffffffffff1602179055508173ffffffffffffffffffffffffffffffffffffffff168173ffffffffffffffffffffffffffffffffffffffff167f8be0079c531659141344cd1fd0a4f28419497f9722a3daafe3b4186f6b6457e060405160405180910390a35050565b60006112296112248461179d565b611778565b9050808382526020820190508285602086028201111561124857600080fd5b60005b85811015611278578161125e8882611282565b84526020840193506020830192505060018101905061124b565b5050509392505050565b60008135905061129181611ce8565b92915050565b600082601f8301126112a857600080fd5b81356112b8848260208601611216565b91505092915050565b6000813590506112d081611cff565b92915050565b6000602082840312156112e857600080fd5b60006112f684828501611282565b91505092915050565b60006020828403121561131157600080fd5b600082013567ffffffffffffffff81111561132b57600080fd5b61133784828501611297565b91505092915050565b60006020828403121561135257600080fd5b6000611360848285016112c1565b91505092915050565b61137281611830565b82525050565b61138181611842565b82525050565b6113908161188b565b82525050565b60006113a36025836117c9565b91506113ae826119b5565b604082019050919050565b60006113c66026836117c9565b91506113d182611a04565b604082019050919050565b60006113e9600d836117c9565b91506113f482611a53565b602082019050919050565b600061140c6020836117c9565b915061141782611a7c565b602082019050919050565b600061142f6020836117c9565b915061143a82611aa5565b602082019050919050565b60006114526014836117c9565b915061145d82611ace565b602082019050919050565b60006114756023836117c9565b915061148082611af7565b604082019050919050565b60006114986030836117c9565b91506114a382611b46565b604082019050919050565b60006114bb6030836117c9565b91506114c682611b95565b604082019050919050565b60006114de601a836117c9565b91506114e982611be4565b602082019050919050565b6000611501602b836117c9565b915061150c82611c0d565b604082019050919050565b60006115246028836117c9565b915061152f82611c5c565b604082019050919050565b60006115476010836117c9565b915061155282611cab565b602082019050919050565b61156681611881565b82525050565b60006020820190506115816000830184611369565b92915050565b600060208201905061159c6000830184611378565b92915050565b60006020820190506115b76000830184611387565b92915050565b600060208201905081810360008301526115d681611396565b9050919050565b600060208201905081810360008301526115f6816113b9565b9050919050565b60006020820190508181036000830152611616816113dc565b9050919050565b60006020820190508181036000830152611636816113ff565b9050919050565b6000602082019050818103600083015261165681611422565b9050919050565b6000602082019050818103600083015261167681611445565b9050919050565b6000602082019050818103600083015261169681611468565b9050919050565b600060208201905081810360008301526116b68161148b565b9050919050565b600060208201905081810360008301526116d6816114ae565b9050919050565b600060208201905081810360008301526116f6816114d1565b9050919050565b60006020820190508181036000830152611716816114f4565b9050919050565b6000602082019050818103600083015261173681611517565b9050919050565b600060208201905081810360008301526117568161153a565b9050919050565b6000602082019050611772600083018461155d565b92915050565b6000611782611793565b905061178e828261189d565b919050565b6000604051905090565b600067ffffffffffffffff8211156117b8576117b7611975565b5b602082029050602081019050919050565b600082825260208201905092915050565b60006117e582611881565b91506117f083611881565b9250827fffffffffffffffffffffffffffffffffffffffffffffffffffffffffffffffff0382111561182557611824611917565b5b828201905092915050565b600061183b82611861565b9050919050565b60008115159050919050565b600081905061185c82611cd4565b919050565b600073ffffffffffffffffffffffffffffffffffffffff82169050919050565b6000819050919050565b60006118968261184e565b9050919050565b6118a6826119a4565b810181811067ffffffffffffffff821117156118c5576118c4611975565b5b80604052505050565b60006118d982611881565b91507fffffffffffffffffffffffffffffffffffffffffffffffffffffffffffffffff82141561190c5761190b611917565b5b600182019050919050565b7f4e487b7100000000000000000000000000000000000000000000000000000000600052601160045260246000fd5b7f4e487b7100000000000000000000000000000000000000000000000000000000600052602160045260246000fd5b7f4e487b7100000000000000000000000000000000000000000000000000000000600052604160045260246000fd5b6000601f19601f8301169050919050565b7f61646472657373206e6f742077686974656c697374656420666f72207365656460008201527f2073616c65000000000000000000000000000000000000000000000000000000602082015250565b7f4f776e61626c653a206e6577206f776e657220697320746865207a65726f206160008201527f6464726573730000000000000000000000000000000000000000000000000000602082015250565b7f49434f2069732070617573656400000000000000000000000000000000000000600082015250565b7f63616e6e6f7420776974686472617720756e74696c207068617365206f70656e600082015250565b7f4f776e61626c653a2063616c6c6572206973206e6f7420746865206f776e6572600082015250565b7f49434f20697320696e207068617365206f70656e000000000000000000000000600082015250565b7f7365656420706861736520676f616c2063616e6e6f742062652073757270617360008201527f7365640000000000000000000000000000000000000000000000000000000000602082015250565b7f616d6f756e7420776f756c64206265206d6f7265207468616e2031303030206560008201527f7468657220636f6e747269627574656400000000000000000000000000000000602082015250565b7f616d6f756e7420776f756c64206265206d6f7265207468616e2031353030206560008201527f7468657220636f6e747269627574656400000000000000000000000000000000602082015250565b7f6e6f2062616c616e6365206f6e20746869732061646472657373000000000000600082015250565b7f333030303020657468657220636f6e74726962757465642063616e6e6f74206260008201527f6520737572706173736564000000000000000000000000000000000000000000602082015250565b7f77686974656c69737420697320697272656c6576616e7420616674657220736560008201527f6564207068617365000000000000000000000000000000000000000000000000602082015250565b7f6e6f7420656e6f75676820657468657200000000000000000000000000000000600082015250565b60038110611ce557611ce4611946565b5b50565b611cf181611830565b8114611cfc57600080fd5b50565b611d0881611842565b8114611d1357600080fd5b5056fea26469706673582212208a3e23e30efad70eb2b4a500a67d323ca0f5d01b52d682aeb42fe252f2414fe664736f6c63430008040033",
  "linkReferences": {},
  "deployedLinkReferences": {}
}