{
  "_format": "hh-sol-artifact-1",
  "contractName": "ICO",
  "sourceName": "contracts/ICO.sol",
  "abi": [
    {
      "inputs": [
        {
          "internalType": "address",
          "name": "tokenContract",
          "type": "address"
        }
      ],
      "stateMutability": "nonpayable",
      "type": "constructor"
    },
    {
      "anonymous": false,
      "inputs": [
        {
          "indexed": true,
          "internalType": "address",
          "name": "previousOwner",
          "type": "address"
        },
        {
          "indexed": true,
          "internalType": "address",
          "name": "newOwner",
          "type": "address"
        }
      ],
      "name": "OwnershipTransferred",
      "type": "event"
    },
    {
      "inputs": [
        {
          "internalType": "address[]",
          "name": "privateInvestors",
          "type": "address[]"
        }
      ],
      "name": "addToWhitelist",
      "outputs": [],
      "stateMutability": "nonpayable",
      "type": "function"
    },
    {
      "inputs": [
        {
          "internalType": "address",
          "name": "",
          "type": "address"
        }
      ],
      "name": "balances",
      "outputs": [
        {
          "internalType": "uint256",
          "name": "",
          "type": "uint256"
        }
      ],
      "stateMutability": "view",
      "type": "function"
    },
    {
      "inputs": [],
      "name": "changePhase",
      "outputs": [],
      "stateMutability": "nonpayable",
      "type": "function"
    },
    {
      "inputs": [],
      "name": "claimTomatoTokens",
      "outputs": [],
      "stateMutability": "nonpayable",
      "type": "function"
    },
    {
      "inputs": [],
      "name": "owner",
      "outputs": [
        {
          "internalType": "address",
          "name": "",
          "type": "address"
        }
      ],
      "stateMutability": "view",
      "type": "function"
    },
    {
      "inputs": [],
      "name": "paused",
      "outputs": [
        {
          "internalType": "bool",
          "name": "",
          "type": "bool"
        }
      ],
      "stateMutability": "view",
      "type": "function"
    },
    {
      "inputs": [],
      "name": "phase",
      "outputs": [
        {
          "internalType": "enum ICO.phases",
          "name": "",
          "type": "uint8"
        }
      ],
      "stateMutability": "view",
      "type": "function"
    },
    {
      "inputs": [],
      "name": "recieve",
      "outputs": [],
      "stateMutability": "payable",
      "type": "function"
    },
    {
      "inputs": [],
      "name": "renounceOwnership",
      "outputs": [],
      "stateMutability": "nonpayable",
      "type": "function"
    },
    {
      "inputs": [
        {
          "internalType": "bool",
          "name": "state",
          "type": "bool"
        }
      ],
      "name": "togglePause",
      "outputs": [],
      "stateMutability": "nonpayable",
      "type": "function"
    },
    {
      "inputs": [],
      "name": "totalFunds",
      "outputs": [
        {
          "internalType": "uint256",
          "name": "",
          "type": "uint256"
        }
      ],
      "stateMutability": "view",
      "type": "function"
    },
    {
      "inputs": [
        {
          "internalType": "address",
          "name": "newOwner",
          "type": "address"
        }
      ],
      "name": "transferOwnership",
      "outputs": [],
      "stateMutability": "nonpayable",
      "type": "function"
    },
    {
      "inputs": [
        {
          "internalType": "address",
          "name": "",
          "type": "address"
        }
      ],
      "name": "whitelist",
      "outputs": [
        {
          "internalType": "bool",
          "name": "",
          "type": "bool"
        }
      ],
      "stateMutability": "view",
      "type": "function"
    }
  ],
  "bytecode": "0x60806040523480156200001157600080fd5b5060405162001fc638038062001fc68339818101604052810190620000379190620001d4565b620000576200004b620000f160201b60201c565b620000f960201b60201c565b6000600560016101000a81548160ff02191690836002811115620000a4577f4e487b7100000000000000000000000000000000000000000000000000000000600052602160045260246000fd5b021790555080600160006101000a81548173ffffffffffffffffffffffffffffffffffffffff021916908373ffffffffffffffffffffffffffffffffffffffff160217905550506200024e565b600033905090565b60008060009054906101000a900473ffffffffffffffffffffffffffffffffffffffff169050816000806101000a81548173ffffffffffffffffffffffffffffffffffffffff021916908373ffffffffffffffffffffffffffffffffffffffff1602179055508173ffffffffffffffffffffffffffffffffffffffff168173ffffffffffffffffffffffffffffffffffffffff167f8be0079c531659141344cd1fd0a4f28419497f9722a3daafe3b4186f6b6457e060405160405180910390a35050565b600081519050620001ce8162000234565b92915050565b600060208284031215620001e757600080fd5b6000620001f784828501620001bd565b91505092915050565b60006200020d8262000214565b9050919050565b600073ffffffffffffffffffffffffffffffffffffffff82169050919050565b6200023f8162000200565b81146200024b57600080fd5b50565b611d68806200025e6000396000f3fe6080604052600436106100c25760003560e01c8063968ed6001161007f578063a9e10bf211610059578063a9e10bf214610242578063b1c9fe6e1461024c578063db6f595314610277578063f2fde38b1461028e576100c2565b8063968ed600146101c357806397e0175b146101ee5780639b19251a14610205576100c2565b806327e235e3146100c757806357d159c6146101045780635c975abb1461012d578063715018a6146101585780637f6497831461016f5780638da5cb5b14610198575b600080fd5b3480156100d357600080fd5b506100ee60048036038101906100e991906112f2565b6102b7565b6040516100fb9190611779565b60405180910390f35b34801561011057600080fd5b5061012b6004803603810190610126919061135c565b6102cf565b005b34801561013957600080fd5b50610142610368565b60405161014f91906115a3565b60405180910390f35b34801561016457600080fd5b5061016d61037b565b005b34801561017b57600080fd5b506101966004803603810190610191919061131b565b610403565b005b3480156101a457600080fd5b506101ad6105fc565b6040516101ba9190611588565b60405180910390f35b3480156101cf57600080fd5b506101d8610625565b6040516101e59190611779565b60405180910390f35b3480156101fa57600080fd5b5061020361062b565b005b34801561021157600080fd5b5061022c600480360381019061022791906112f2565b610770565b60405161023991906115a3565b60405180910390f35b61024a610790565b005b34801561025857600080fd5b50610261610de5565b60405161026e91906115be565b60405180910390f35b34801561028357600080fd5b5061028c610df8565b005b34801561029a57600080fd5b506102b560048036038101906102b091906112f2565b61106e565b005b60026020528060005260406000206000915090505481565b6102d7611166565b73ffffffffffffffffffffffffffffffffffffffff166102f56105fc565b73ffffffffffffffffffffffffffffffffffffffff161461034b576040517f08c379a000000000000000000000000000000000000000000000000000000000815260040161034290611659565b60405180910390fd5b80600560006101000a81548160ff02191690831515021790555050565b600560009054906101000a900460ff1681565b610383611166565b73ffffffffffffffffffffffffffffffffffffffff166103a16105fc565b73ffffffffffffffffffffffffffffffffffffffff16146103f7576040517f08c379a00000000000000000000000000000000000000000000000000000000081526004016103ee90611659565b60405180910390fd5b610401600061116e565b565b61040b611166565b73ffffffffffffffffffffffffffffffffffffffff166104296105fc565b73ffffffffffffffffffffffffffffffffffffffff161461047f576040517f08c379a000000000000000000000000000000000000000000000000000000000815260040161047690611659565b60405180910390fd5b600060028111156104b9577f4e487b7100000000000000000000000000000000000000000000000000000000600052602160045260246000fd5b600560019054906101000a900460ff166002811115610501577f4e487b7100000000000000000000000000000000000000000000000000000000600052602160045260246000fd5b14610541576040517f08c379a000000000000000000000000000000000000000000000000000000000815260040161053890611739565b60405180910390fd5b60005b81518110156105f85760016003600084848151811061058c577f4e487b7100000000000000000000000000000000000000000000000000000000600052603260045260246000fd5b602002602001015173ffffffffffffffffffffffffffffffffffffffff1673ffffffffffffffffffffffffffffffffffffffff16815260200190815260200160002060006101000a81548160ff02191690831515021790555080806105f0906118ea565b915050610544565b5050565b60008060009054906101000a900473ffffffffffffffffffffffffffffffffffffffff16905090565b60045481565b600280811115610664577f4e487b7100000000000000000000000000000000000000000000000000000000600052602160045260246000fd5b600560019054906101000a900460ff1660028111156106ac577f4e487b7100000000000000000000000000000000000000000000000000000000600052602160045260246000fd5b146106ec576040517f08c379a00000000000000000000000000000000000000000000000000000000081526004016106e390611639565b60405180910390fd5b6000600260003373ffffffffffffffffffffffffffffffffffffffff1673ffffffffffffffffffffffffffffffffffffffff168152602001908152602001600020541161076e576040517f08c379a0000000000000000000000000000000000000000000000000000000008152600401610765906116f9565b60405180910390fd5b565b60036020528060005260406000206000915054906101000a900460ff1681565b662386f26fc1000034116107d9576040517f08c379a00000000000000000000000000000000000000000000000000000000081526004016107d090611759565b60405180910390fd5b60001515600560009054906101000a900460ff1615151461082f576040517f08c379a000000000000000000000000000000000000000000000000000000000815260040161082690611619565b60405180910390fd5b60006002811115610869577f4e487b7100000000000000000000000000000000000000000000000000000000600052602160045260246000fd5b600560019054906101000a900460ff1660028111156108b1577f4e487b7100000000000000000000000000000000000000000000000000000000600052602160045260246000fd5b1415610aaa5769032d26d12e980b600000346004546108d091906117f6565b1115610911576040517f08c379a000000000000000000000000000000000000000000000000000000000815260040161090890611699565b60405180910390fd5b60011515600360003373ffffffffffffffffffffffffffffffffffffffff1673ffffffffffffffffffffffffffffffffffffffff16815260200190815260200160002060009054906101000a900460ff161515146109a4576040517f08c379a000000000000000000000000000000000000000000000000000000000815260040161099b906115d9565b60405180910390fd5b685150ae84a8cdf0000034600260003373ffffffffffffffffffffffffffffffffffffffff1673ffffffffffffffffffffffffffffffffffffffff168152602001908152602001600020546109f991906117f6565b1115610a3a576040517f08c379a0000000000000000000000000000000000000000000000000000000008152600401610a31906116d9565b60405180910390fd5b3460046000828254610a4c91906117f6565b9250508190555034600260003373ffffffffffffffffffffffffffffffffffffffff1673ffffffffffffffffffffffffffffffffffffffff1681526020019081526020016000206000828254610aa291906117f6565b925050819055505b60016002811115610ae4577f4e487b7100000000000000000000000000000000000000000000000000000000600052602160045260246000fd5b600560019054906101000a900460ff166002811115610b2c577f4e487b7100000000000000000000000000000000000000000000000000000000600052602160045260246000fd5b1415610c925769065a4da25d3016c0000034600454610b4b91906117f6565b1115610b8c576040517f08c379a0000000000000000000000000000000000000000000000000000000008152600401610b8390611719565b60405180910390fd5b683635c9adc5dea0000034600260003373ffffffffffffffffffffffffffffffffffffffff1673ffffffffffffffffffffffffffffffffffffffff16815260200190815260200160002054610be191906117f6565b1115610c22576040517f08c379a0000000000000000000000000000000000000000000000000000000008152600401610c19906116b9565b60405180910390fd5b3460046000828254610c3491906117f6565b9250508190555034600260003373ffffffffffffffffffffffffffffffffffffffff1673ffffffffffffffffffffffffffffffffffffffff1681526020019081526020016000206000828254610c8a91906117f6565b925050819055505b600280811115610ccb577f4e487b7100000000000000000000000000000000000000000000000000000000600052602160045260246000fd5b600560019054906101000a900460ff166002811115610d13577f4e487b7100000000000000000000000000000000000000000000000000000000600052602160045260246000fd5b1415610de35769065a4da25d3016c0000034600454610d3291906117f6565b1115610d73576040517f08c379a0000000000000000000000000000000000000000000000000000000008152600401610d6a90611719565b60405180910390fd5b3460046000828254610d8591906117f6565b9250508190555034600260003373ffffffffffffffffffffffffffffffffffffffff1673ffffffffffffffffffffffffffffffffffffffff1681526020019081526020016000206000828254610ddb91906117f6565b925050819055505b565b600560019054906101000a900460ff1681565b610e00611166565b73ffffffffffffffffffffffffffffffffffffffff16610e1e6105fc565b73ffffffffffffffffffffffffffffffffffffffff1614610e74576040517f08c379a0000000000000000000000000000000000000000000000000000000008152600401610e6b90611659565b60405180910390fd5b60006002811115610eae577f4e487b7100000000000000000000000000000000000000000000000000000000600052602160045260246000fd5b600560019054906101000a900460ff166002811115610ef6577f4e487b7100000000000000000000000000000000000000000000000000000000600052602160045260246000fd5b1415610f52576001600560016101000a81548160ff02191690836002811115610f48577f4e487b7100000000000000000000000000000000000000000000000000000000600052602160045260246000fd5b021790555061106c565b60016002811115610f8c577f4e487b7100000000000000000000000000000000000000000000000000000000600052602160045260246000fd5b600560019054906101000a900460ff166002811115610fd4577f4e487b7100000000000000000000000000000000000000000000000000000000600052602160045260246000fd5b1415611030576002600560016101000a81548160ff02191690836002811115611026577f4e487b7100000000000000000000000000000000000000000000000000000000600052602160045260246000fd5b021790555061106b565b6040517f08c379a000000000000000000000000000000000000000000000000000000000815260040161106290611679565b60405180910390fd5b5b565b611076611166565b73ffffffffffffffffffffffffffffffffffffffff166110946105fc565b73ffffffffffffffffffffffffffffffffffffffff16146110ea576040517f08c379a00000000000000000000000000000000000000000000000000000000081526004016110e190611659565b60405180910390fd5b600073ffffffffffffffffffffffffffffffffffffffff168173ffffffffffffffffffffffffffffffffffffffff16141561115a576040517f08c379a0000000000000000000000000000000000000000000000000000000008152600401611151906115f9565b60405180910390fd5b6111638161116e565b50565b600033905090565b60008060009054906101000a900473ffffffffffffffffffffffffffffffffffffffff169050816000806101000a81548173ffffffffffffffffffffffffffffffffffffffff021916908373ffffffffffffffffffffffffffffffffffffffff1602179055508173ffffffffffffffffffffffffffffffffffffffff168173ffffffffffffffffffffffffffffffffffffffff167f8be0079c531659141344cd1fd0a4f28419497f9722a3daafe3b4186f6b6457e060405160405180910390a35050565b6000611245611240846117b9565b611794565b9050808382526020820190508285602086028201111561126457600080fd5b60005b85811015611294578161127a888261129e565b845260208401935060208301925050600181019050611267565b5050509392505050565b6000813590506112ad81611d04565b92915050565b600082601f8301126112c457600080fd5b81356112d4848260208601611232565b91505092915050565b6000813590506112ec81611d1b565b92915050565b60006020828403121561130457600080fd5b60006113128482850161129e565b91505092915050565b60006020828403121561132d57600080fd5b600082013567ffffffffffffffff81111561134757600080fd5b611353848285016112b3565b91505092915050565b60006020828403121561136e57600080fd5b600061137c848285016112dd565b91505092915050565b61138e8161184c565b82525050565b61139d8161185e565b82525050565b6113ac816118a7565b82525050565b60006113bf6025836117e5565b91506113ca826119d1565b604082019050919050565b60006113e26026836117e5565b91506113ed82611a20565b604082019050919050565b6000611405600d836117e5565b915061141082611a6f565b602082019050919050565b60006114286020836117e5565b915061143382611a98565b602082019050919050565b600061144b6020836117e5565b915061145682611ac1565b602082019050919050565b600061146e6014836117e5565b915061147982611aea565b602082019050919050565b60006114916023836117e5565b915061149c82611b13565b604082019050919050565b60006114b46030836117e5565b91506114bf82611b62565b604082019050919050565b60006114d76030836117e5565b91506114e282611bb1565b604082019050919050565b60006114fa601a836117e5565b915061150582611c00565b602082019050919050565b600061151d602b836117e5565b915061152882611c29565b604082019050919050565b60006115406028836117e5565b915061154b82611c78565b604082019050919050565b60006115636010836117e5565b915061156e82611cc7565b602082019050919050565b6115828161189d565b82525050565b600060208201905061159d6000830184611385565b92915050565b60006020820190506115b86000830184611394565b92915050565b60006020820190506115d360008301846113a3565b92915050565b600060208201905081810360008301526115f2816113b2565b9050919050565b60006020820190508181036000830152611612816113d5565b9050919050565b60006020820190508181036000830152611632816113f8565b9050919050565b600060208201905081810360008301526116528161141b565b9050919050565b600060208201905081810360008301526116728161143e565b9050919050565b6000602082019050818103600083015261169281611461565b9050919050565b600060208201905081810360008301526116b281611484565b9050919050565b600060208201905081810360008301526116d2816114a7565b9050919050565b600060208201905081810360008301526116f2816114ca565b9050919050565b60006020820190508181036000830152611712816114ed565b9050919050565b6000602082019050818103600083015261173281611510565b9050919050565b6000602082019050818103600083015261175281611533565b9050919050565b6000602082019050818103600083015261177281611556565b9050919050565b600060208201905061178e6000830184611579565b92915050565b600061179e6117af565b90506117aa82826118b9565b919050565b6000604051905090565b600067ffffffffffffffff8211156117d4576117d3611991565b5b602082029050602081019050919050565b600082825260208201905092915050565b60006118018261189d565b915061180c8361189d565b9250827fffffffffffffffffffffffffffffffffffffffffffffffffffffffffffffffff0382111561184157611840611933565b5b828201905092915050565b60006118578261187d565b9050919050565b60008115159050919050565b600081905061187882611cf0565b919050565b600073ffffffffffffffffffffffffffffffffffffffff82169050919050565b6000819050919050565b60006118b28261186a565b9050919050565b6118c2826119c0565b810181811067ffffffffffffffff821117156118e1576118e0611991565b5b80604052505050565b60006118f58261189d565b91507fffffffffffffffffffffffffffffffffffffffffffffffffffffffffffffffff82141561192857611927611933565b5b600182019050919050565b7f4e487b7100000000000000000000000000000000000000000000000000000000600052601160045260246000fd5b7f4e487b7100000000000000000000000000000000000000000000000000000000600052602160045260246000fd5b7f4e487b7100000000000000000000000000000000000000000000000000000000600052604160045260246000fd5b6000601f19601f8301169050919050565b7f61646472657373206e6f742077686974656c697374656420666f72207365656460008201527f2073616c65000000000000000000000000000000000000000000000000000000602082015250565b7f4f776e61626c653a206e6577206f776e657220697320746865207a65726f206160008201527f6464726573730000000000000000000000000000000000000000000000000000602082015250565b7f49434f2069732070617573656400000000000000000000000000000000000000600082015250565b7f63616e6e6f7420776974686472617720756e74696c207068617365206f70656e600082015250565b7f4f776e61626c653a2063616c6c6572206973206e6f7420746865206f776e6572600082015250565b7f49434f20697320696e207068617365206f70656e000000000000000000000000600082015250565b7f7365656420706861736520676f616c2063616e6e6f742062652073757270617360008201527f7365640000000000000000000000000000000000000000000000000000000000602082015250565b7f616d6f756e7420776f756c64206265206d6f7265207468616e2031303030206560008201527f7468657220636f6e747269627574656400000000000000000000000000000000602082015250565b7f616d6f756e7420776f756c64206265206d6f7265207468616e2031353030206560008201527f7468657220636f6e747269627574656400000000000000000000000000000000602082015250565b7f6e6f2062616c616e6365206f6e20746869732061646472657373000000000000600082015250565b7f333030303020657468657220636f6e74726962757465642063616e6e6f74206260008201527f6520737572706173736564000000000000000000000000000000000000000000602082015250565b7f77686974656c69737420697320697272656c6576616e7420616674657220736560008201527f6564207068617365000000000000000000000000000000000000000000000000602082015250565b7f6e6f7420656e6f75676820657468657200000000000000000000000000000000600082015250565b60038110611d0157611d00611962565b5b50565b611d0d8161184c565b8114611d1857600080fd5b50565b611d248161185e565b8114611d2f57600080fd5b5056fea2646970667358221220d135ced7256dec1f36e980c0ee41fb7fe7255ad906c3909223b7df3255cd19ce64736f6c63430008040033",
  "linkReferences": {},
  "deployedLinkReferences": {}
}