{
  "_format": "hh-sol-artifact-1",
  "contractName": "ICO",
  "sourceName": "contracts/ICO.sol",
  "abi": [
    {
      "inputs": [
        {
          "internalType": "address",
          "name": "tokenContract",
          "type": "address"
        }
      ],
      "stateMutability": "nonpayable",
      "type": "constructor"
    },
    {
      "anonymous": false,
      "inputs": [
        {
          "indexed": true,
          "internalType": "address",
          "name": "previousOwner",
          "type": "address"
        },
        {
          "indexed": true,
          "internalType": "address",
          "name": "newOwner",
          "type": "address"
        }
      ],
      "name": "OwnershipTransferred",
      "type": "event"
    },
    {
      "inputs": [
        {
          "internalType": "address[]",
          "name": "privateInvestors",
          "type": "address[]"
        }
      ],
      "name": "addToWhitelist",
      "outputs": [],
      "stateMutability": "nonpayable",
      "type": "function"
    },
    {
      "inputs": [],
      "name": "changePhase",
      "outputs": [],
      "stateMutability": "nonpayable",
      "type": "function"
    },
    {
      "inputs": [],
      "name": "claimTomatoTokens",
      "outputs": [],
      "stateMutability": "nonpayable",
      "type": "function"
    },
    {
      "inputs": [],
      "name": "owner",
      "outputs": [
        {
          "internalType": "address",
          "name": "",
          "type": "address"
        }
      ],
      "stateMutability": "view",
      "type": "function"
    },
    {
      "inputs": [],
      "name": "recieve",
      "outputs": [],
      "stateMutability": "payable",
      "type": "function"
    },
    {
      "inputs": [],
      "name": "renounceOwnership",
      "outputs": [],
      "stateMutability": "nonpayable",
      "type": "function"
    },
    {
      "inputs": [
        {
          "internalType": "bool",
          "name": "state",
          "type": "bool"
        }
      ],
      "name": "togglePause",
      "outputs": [],
      "stateMutability": "nonpayable",
      "type": "function"
    },
    {
      "inputs": [
        {
          "internalType": "address",
          "name": "newOwner",
          "type": "address"
        }
      ],
      "name": "transferOwnership",
      "outputs": [],
      "stateMutability": "nonpayable",
      "type": "function"
    }
  ],
  "bytecode": "0x60806040523480156200001157600080fd5b5060405162001d3a38038062001d3a8339818101604052810190620000379190620001d4565b620000576200004b620000f160201b60201c565b620000f960201b60201c565b6000600560016101000a81548160ff02191690836002811115620000a4577f4e487b7100000000000000000000000000000000000000000000000000000000600052602160045260246000fd5b021790555080600160006101000a81548173ffffffffffffffffffffffffffffffffffffffff021916908373ffffffffffffffffffffffffffffffffffffffff160217905550506200024e565b600033905090565b60008060009054906101000a900473ffffffffffffffffffffffffffffffffffffffff169050816000806101000a81548173ffffffffffffffffffffffffffffffffffffffff021916908373ffffffffffffffffffffffffffffffffffffffff1602179055508173ffffffffffffffffffffffffffffffffffffffff168173ffffffffffffffffffffffffffffffffffffffff167f8be0079c531659141344cd1fd0a4f28419497f9722a3daafe3b4186f6b6457e060405160405180910390a35050565b600081519050620001ce8162000234565b92915050565b600060208284031215620001e757600080fd5b6000620001f784828501620001bd565b91505092915050565b60006200020d8262000214565b9050919050565b600073ffffffffffffffffffffffffffffffffffffffff82169050919050565b6200023f8162000200565b81146200024b57600080fd5b50565b611adc806200025e6000396000f3fe60806040526004361061007b5760003560e01c806397e0175b1161004e57806397e0175b14610114578063a9e10bf21461012b578063db6f595314610135578063f2fde38b1461014c5761007b565b806357d159c614610080578063715018a6146100a95780637f649783146100c05780638da5cb5b146100e9575b600080fd5b34801561008c57600080fd5b506100a760048036038101906100a291906111b6565b610175565b005b3480156100b557600080fd5b506100be61020e565b005b3480156100cc57600080fd5b506100e760048036038101906100e29190611175565b610296565b005b3480156100f557600080fd5b506100fe61048f565b60405161010b91906113b5565b60405180910390f35b34801561012057600080fd5b506101296104b8565b005b6101336105fd565b005b34801561014157600080fd5b5061014a610c52565b005b34801561015857600080fd5b50610173600480360381019061016e919061114c565b610ec8565b005b61017d610fc0565b73ffffffffffffffffffffffffffffffffffffffff1661019b61048f565b73ffffffffffffffffffffffffffffffffffffffff16146101f1576040517f08c379a00000000000000000000000000000000000000000000000000000000081526004016101e890611450565b60405180910390fd5b80600560006101000a81548160ff02191690831515021790555050565b610216610fc0565b73ffffffffffffffffffffffffffffffffffffffff1661023461048f565b73ffffffffffffffffffffffffffffffffffffffff161461028a576040517f08c379a000000000000000000000000000000000000000000000000000000000815260040161028190611450565b60405180910390fd5b6102946000610fc8565b565b61029e610fc0565b73ffffffffffffffffffffffffffffffffffffffff166102bc61048f565b73ffffffffffffffffffffffffffffffffffffffff1614610312576040517f08c379a000000000000000000000000000000000000000000000000000000000815260040161030990611450565b60405180910390fd5b6000600281111561034c577f4e487b7100000000000000000000000000000000000000000000000000000000600052602160045260246000fd5b600560019054906101000a900460ff166002811115610394577f4e487b7100000000000000000000000000000000000000000000000000000000600052602160045260246000fd5b146103d4576040517f08c379a00000000000000000000000000000000000000000000000000000000081526004016103cb90611530565b60405180910390fd5b60005b815181101561048b5760016003600084848151811061041f577f4e487b7100000000000000000000000000000000000000000000000000000000600052603260045260246000fd5b602002602001015173ffffffffffffffffffffffffffffffffffffffff1673ffffffffffffffffffffffffffffffffffffffff16815260200190815260200160002060006101000a81548160ff0219169083151502179055508080610483906116a1565b9150506103d7565b5050565b60008060009054906101000a900473ffffffffffffffffffffffffffffffffffffffff16905090565b6002808111156104f1577f4e487b7100000000000000000000000000000000000000000000000000000000600052602160045260246000fd5b600560019054906101000a900460ff166002811115610539577f4e487b7100000000000000000000000000000000000000000000000000000000600052602160045260246000fd5b14610579576040517f08c379a000000000000000000000000000000000000000000000000000000000815260040161057090611430565b60405180910390fd5b6000600260003373ffffffffffffffffffffffffffffffffffffffff1673ffffffffffffffffffffffffffffffffffffffff16815260200190815260200160002054116105fb576040517f08c379a00000000000000000000000000000000000000000000000000000000081526004016105f2906114f0565b60405180910390fd5b565b662386f26fc100003411610646576040517f08c379a000000000000000000000000000000000000000000000000000000000815260040161063d90611550565b60405180910390fd5b60001515600560009054906101000a900460ff1615151461069c576040517f08c379a000000000000000000000000000000000000000000000000000000000815260040161069390611410565b60405180910390fd5b600060028111156106d6577f4e487b7100000000000000000000000000000000000000000000000000000000600052602160045260246000fd5b600560019054906101000a900460ff16600281111561071e577f4e487b7100000000000000000000000000000000000000000000000000000000600052602160045260246000fd5b14156109175769032d26d12e980b6000003460045461073d91906115d2565b111561077e576040517f08c379a000000000000000000000000000000000000000000000000000000000815260040161077590611490565b60405180910390fd5b60011515600360003373ffffffffffffffffffffffffffffffffffffffff1673ffffffffffffffffffffffffffffffffffffffff16815260200190815260200160002060009054906101000a900460ff16151514610811576040517f08c379a0000000000000000000000000000000000000000000000000000000008152600401610808906113d0565b60405180910390fd5b685150ae84a8cdf0000034600260003373ffffffffffffffffffffffffffffffffffffffff1673ffffffffffffffffffffffffffffffffffffffff1681526020019081526020016000205461086691906115d2565b11156108a7576040517f08c379a000000000000000000000000000000000000000000000000000000000815260040161089e906114d0565b60405180910390fd5b34600460008282546108b991906115d2565b9250508190555034600260003373ffffffffffffffffffffffffffffffffffffffff1673ffffffffffffffffffffffffffffffffffffffff168152602001908152602001600020600082825461090f91906115d2565b925050819055505b60016002811115610951577f4e487b7100000000000000000000000000000000000000000000000000000000600052602160045260246000fd5b600560019054906101000a900460ff166002811115610999577f4e487b7100000000000000000000000000000000000000000000000000000000600052602160045260246000fd5b1415610aff5769065a4da25d3016c00000346004546109b891906115d2565b11156109f9576040517f08c379a00000000000000000000000000000000000000000000000000000000081526004016109f090611510565b60405180910390fd5b683635c9adc5dea0000034600260003373ffffffffffffffffffffffffffffffffffffffff1673ffffffffffffffffffffffffffffffffffffffff16815260200190815260200160002054610a4e91906115d2565b1115610a8f576040517f08c379a0000000000000000000000000000000000000000000000000000000008152600401610a86906114b0565b60405180910390fd5b3460046000828254610aa191906115d2565b9250508190555034600260003373ffffffffffffffffffffffffffffffffffffffff1673ffffffffffffffffffffffffffffffffffffffff1681526020019081526020016000206000828254610af791906115d2565b925050819055505b600280811115610b38577f4e487b7100000000000000000000000000000000000000000000000000000000600052602160045260246000fd5b600560019054906101000a900460ff166002811115610b80577f4e487b7100000000000000000000000000000000000000000000000000000000600052602160045260246000fd5b1415610c505769065a4da25d3016c0000034600454610b9f91906115d2565b1115610be0576040517f08c379a0000000000000000000000000000000000000000000000000000000008152600401610bd790611510565b60405180910390fd5b3460046000828254610bf291906115d2565b9250508190555034600260003373ffffffffffffffffffffffffffffffffffffffff1673ffffffffffffffffffffffffffffffffffffffff1681526020019081526020016000206000828254610c4891906115d2565b925050819055505b565b610c5a610fc0565b73ffffffffffffffffffffffffffffffffffffffff16610c7861048f565b73ffffffffffffffffffffffffffffffffffffffff1614610cce576040517f08c379a0000000000000000000000000000000000000000000000000000000008152600401610cc590611450565b60405180910390fd5b60006002811115610d08577f4e487b7100000000000000000000000000000000000000000000000000000000600052602160045260246000fd5b600560019054906101000a900460ff166002811115610d50577f4e487b7100000000000000000000000000000000000000000000000000000000600052602160045260246000fd5b1415610dac576001600560016101000a81548160ff02191690836002811115610da2577f4e487b7100000000000000000000000000000000000000000000000000000000600052602160045260246000fd5b0217905550610ec6565b60016002811115610de6577f4e487b7100000000000000000000000000000000000000000000000000000000600052602160045260246000fd5b600560019054906101000a900460ff166002811115610e2e577f4e487b7100000000000000000000000000000000000000000000000000000000600052602160045260246000fd5b1415610e8a576002600560016101000a81548160ff02191690836002811115610e80577f4e487b7100000000000000000000000000000000000000000000000000000000600052602160045260246000fd5b0217905550610ec5565b6040517f08c379a0000000000000000000000000000000000000000000000000000000008152600401610ebc90611470565b60405180910390fd5b5b565b610ed0610fc0565b73ffffffffffffffffffffffffffffffffffffffff16610eee61048f565b73ffffffffffffffffffffffffffffffffffffffff1614610f44576040517f08c379a0000000000000000000000000000000000000000000000000000000008152600401610f3b90611450565b60405180910390fd5b600073ffffffffffffffffffffffffffffffffffffffff168173ffffffffffffffffffffffffffffffffffffffff161415610fb4576040517f08c379a0000000000000000000000000000000000000000000000000000000008152600401610fab906113f0565b60405180910390fd5b610fbd81610fc8565b50565b600033905090565b60008060009054906101000a900473ffffffffffffffffffffffffffffffffffffffff169050816000806101000a81548173ffffffffffffffffffffffffffffffffffffffff021916908373ffffffffffffffffffffffffffffffffffffffff1602179055508173ffffffffffffffffffffffffffffffffffffffff168173ffffffffffffffffffffffffffffffffffffffff167f8be0079c531659141344cd1fd0a4f28419497f9722a3daafe3b4186f6b6457e060405160405180910390a35050565b600061109f61109a84611595565b611570565b905080838252602082019050828560208602820111156110be57600080fd5b60005b858110156110ee57816110d488826110f8565b8452602084019350602083019250506001810190506110c1565b5050509392505050565b60008135905061110781611a78565b92915050565b600082601f83011261111e57600080fd5b813561112e84826020860161108c565b91505092915050565b60008135905061114681611a8f565b92915050565b60006020828403121561115e57600080fd5b600061116c848285016110f8565b91505092915050565b60006020828403121561118757600080fd5b600082013567ffffffffffffffff8111156111a157600080fd5b6111ad8482850161110d565b91505092915050565b6000602082840312156111c857600080fd5b60006111d684828501611137565b91505092915050565b6111e881611628565b82525050565b60006111fb6025836115c1565b915061120682611759565b604082019050919050565b600061121e6026836115c1565b9150611229826117a8565b604082019050919050565b6000611241600d836115c1565b915061124c826117f7565b602082019050919050565b60006112646020836115c1565b915061126f82611820565b602082019050919050565b60006112876020836115c1565b915061129282611849565b602082019050919050565b60006112aa6014836115c1565b91506112b582611872565b602082019050919050565b60006112cd6023836115c1565b91506112d88261189b565b604082019050919050565b60006112f06030836115c1565b91506112fb826118ea565b604082019050919050565b60006113136030836115c1565b915061131e82611939565b604082019050919050565b6000611336601a836115c1565b915061134182611988565b602082019050919050565b6000611359602b836115c1565b9150611364826119b1565b604082019050919050565b600061137c6028836115c1565b915061138782611a00565b604082019050919050565b600061139f6010836115c1565b91506113aa82611a4f565b602082019050919050565b60006020820190506113ca60008301846111df565b92915050565b600060208201905081810360008301526113e9816111ee565b9050919050565b6000602082019050818103600083015261140981611211565b9050919050565b6000602082019050818103600083015261142981611234565b9050919050565b6000602082019050818103600083015261144981611257565b9050919050565b600060208201905081810360008301526114698161127a565b9050919050565b600060208201905081810360008301526114898161129d565b9050919050565b600060208201905081810360008301526114a9816112c0565b9050919050565b600060208201905081810360008301526114c9816112e3565b9050919050565b600060208201905081810360008301526114e981611306565b9050919050565b6000602082019050818103600083015261150981611329565b9050919050565b600060208201905081810360008301526115298161134c565b9050919050565b600060208201905081810360008301526115498161136f565b9050919050565b6000602082019050818103600083015261156981611392565b9050919050565b600061157a61158b565b90506115868282611670565b919050565b6000604051905090565b600067ffffffffffffffff8211156115b0576115af611719565b5b602082029050602081019050919050565b600082825260208201905092915050565b60006115dd82611666565b91506115e883611666565b9250827fffffffffffffffffffffffffffffffffffffffffffffffffffffffffffffffff0382111561161d5761161c6116ea565b5b828201905092915050565b600061163382611646565b9050919050565b60008115159050919050565b600073ffffffffffffffffffffffffffffffffffffffff82169050919050565b6000819050919050565b61167982611748565b810181811067ffffffffffffffff8211171561169857611697611719565b5b80604052505050565b60006116ac82611666565b91507fffffffffffffffffffffffffffffffffffffffffffffffffffffffffffffffff8214156116df576116de6116ea565b5b600182019050919050565b7f4e487b7100000000000000000000000000000000000000000000000000000000600052601160045260246000fd5b7f4e487b7100000000000000000000000000000000000000000000000000000000600052604160045260246000fd5b6000601f19601f8301169050919050565b7f61646472657373206e6f742077686974656c697374656420666f72207365656460008201527f2073616c65000000000000000000000000000000000000000000000000000000602082015250565b7f4f776e61626c653a206e6577206f776e657220697320746865207a65726f206160008201527f6464726573730000000000000000000000000000000000000000000000000000602082015250565b7f49434f2069732070617573656400000000000000000000000000000000000000600082015250565b7f63616e6e6f7420776974686472617720756e74696c207068617365206f70656e600082015250565b7f4f776e61626c653a2063616c6c6572206973206e6f7420746865206f776e6572600082015250565b7f49434f20697320696e207068617365206f70656e000000000000000000000000600082015250565b7f7365656420706861736520676f616c2063616e6e6f742062652073757270617360008201527f7365640000000000000000000000000000000000000000000000000000000000602082015250565b7f616d6f756e7420776f756c64206265206d6f7265207468616e2031303030206560008201527f7468657220636f6e747269627574656400000000000000000000000000000000602082015250565b7f616d6f756e7420776f756c64206265206d6f7265207468616e2031353030206560008201527f7468657220636f6e747269627574656400000000000000000000000000000000602082015250565b7f6e6f2062616c616e6365206f6e20746869732061646472657373000000000000600082015250565b7f333030303020657468657220636f6e74726962757465642063616e6e6f74206260008201527f6520737572706173736564000000000000000000000000000000000000000000602082015250565b7f77686974656c69737420697320697272656c6576616e7420616674657220736560008201527f6564207068617365000000000000000000000000000000000000000000000000602082015250565b7f6e6f7420656e6f75676820657468657200000000000000000000000000000000600082015250565b611a8181611628565b8114611a8c57600080fd5b50565b611a988161163a565b8114611aa357600080fd5b5056fea2646970667358221220d7ec708ff4e3e5e9dc16a3d2f83d5885f4faa5d35c95a9cb748a16425195809464736f6c63430008040033",
  "linkReferences": {},
  "deployedLinkReferences": {}
}