{
  "_format": "hh-sol-artifact-1",
  "contractName": "ICO",
  "sourceName": "contracts/ICO.sol",
  "abi": [
    {
      "inputs": [
        {
          "internalType": "address",
          "name": "tokenContract",
          "type": "address"
        }
      ],
      "stateMutability": "nonpayable",
      "type": "constructor"
    },
    {
      "anonymous": false,
      "inputs": [
        {
          "indexed": true,
          "internalType": "address",
          "name": "previousOwner",
          "type": "address"
        },
        {
          "indexed": true,
          "internalType": "address",
          "name": "newOwner",
          "type": "address"
        }
      ],
      "name": "OwnershipTransferred",
      "type": "event"
    },
    {
      "inputs": [
        {
          "internalType": "address[]",
          "name": "privateInvestors",
          "type": "address[]"
        }
      ],
      "name": "addToWhitelist",
      "outputs": [],
      "stateMutability": "nonpayable",
      "type": "function"
    },
    {
      "inputs": [
        {
          "internalType": "address",
          "name": "",
          "type": "address"
        }
      ],
      "name": "balances",
      "outputs": [
        {
          "internalType": "uint256",
          "name": "",
          "type": "uint256"
        }
      ],
      "stateMutability": "view",
      "type": "function"
    },
    {
      "inputs": [],
      "name": "changePhase",
      "outputs": [],
      "stateMutability": "nonpayable",
      "type": "function"
    },
    {
      "inputs": [],
      "name": "claimTomatoTokens",
      "outputs": [],
      "stateMutability": "nonpayable",
      "type": "function"
    },
    {
      "inputs": [],
      "name": "owner",
      "outputs": [
        {
          "internalType": "address",
          "name": "",
          "type": "address"
        }
      ],
      "stateMutability": "view",
      "type": "function"
    },
    {
      "inputs": [],
      "name": "paused",
      "outputs": [
        {
          "internalType": "bool",
          "name": "",
          "type": "bool"
        }
      ],
      "stateMutability": "view",
      "type": "function"
    },
    {
      "inputs": [],
      "name": "phase",
      "outputs": [
        {
          "internalType": "enum ICO.phases",
          "name": "",
          "type": "uint8"
        }
      ],
      "stateMutability": "view",
      "type": "function"
    },
    {
      "inputs": [],
      "name": "recieve",
      "outputs": [],
      "stateMutability": "payable",
      "type": "function"
    },
    {
      "inputs": [],
      "name": "renounceOwnership",
      "outputs": [],
      "stateMutability": "nonpayable",
      "type": "function"
    },
    {
      "inputs": [
        {
          "internalType": "bool",
          "name": "state",
          "type": "bool"
        }
      ],
      "name": "togglePause",
      "outputs": [],
      "stateMutability": "nonpayable",
      "type": "function"
    },
    {
      "inputs": [],
      "name": "totalFunds",
      "outputs": [
        {
          "internalType": "uint256",
          "name": "",
          "type": "uint256"
        }
      ],
      "stateMutability": "view",
      "type": "function"
    },
    {
      "inputs": [
        {
          "internalType": "address",
          "name": "newOwner",
          "type": "address"
        }
      ],
      "name": "transferOwnership",
      "outputs": [],
      "stateMutability": "nonpayable",
      "type": "function"
    }
  ],
  "bytecode": "0x60806040523480156200001157600080fd5b5060405162001f4e38038062001f4e8339818101604052810190620000379190620001d4565b620000576200004b620000f160201b60201c565b620000f960201b60201c565b6000600560016101000a81548160ff02191690836002811115620000a4577f4e487b7100000000000000000000000000000000000000000000000000000000600052602160045260246000fd5b021790555080600160006101000a81548173ffffffffffffffffffffffffffffffffffffffff021916908373ffffffffffffffffffffffffffffffffffffffff160217905550506200024e565b600033905090565b60008060009054906101000a900473ffffffffffffffffffffffffffffffffffffffff169050816000806101000a81548173ffffffffffffffffffffffffffffffffffffffff021916908373ffffffffffffffffffffffffffffffffffffffff1602179055508173ffffffffffffffffffffffffffffffffffffffff168173ffffffffffffffffffffffffffffffffffffffff167f8be0079c531659141344cd1fd0a4f28419497f9722a3daafe3b4186f6b6457e060405160405180910390a35050565b600081519050620001ce8162000234565b92915050565b600060208284031215620001e757600080fd5b6000620001f784828501620001bd565b91505092915050565b60006200020d8262000214565b9050919050565b600073ffffffffffffffffffffffffffffffffffffffff82169050919050565b6200023f8162000200565b81146200024b57600080fd5b50565b611cf0806200025e6000396000f3fe6080604052600436106100a75760003560e01c8063968ed60011610064578063968ed600146101a857806397e0175b146101d3578063a9e10bf2146101ea578063b1c9fe6e146101f4578063db6f59531461021f578063f2fde38b14610236576100a7565b806327e235e3146100ac57806357d159c6146100e95780635c975abb14610112578063715018a61461013d5780637f649783146101545780638da5cb5b1461017d575b600080fd5b3480156100b857600080fd5b506100d360048036038101906100ce919061127a565b61025f565b6040516100e09190611701565b60405180910390f35b3480156100f557600080fd5b50610110600480360381019061010b91906112e4565b610277565b005b34801561011e57600080fd5b50610127610310565b604051610134919061152b565b60405180910390f35b34801561014957600080fd5b50610152610323565b005b34801561016057600080fd5b5061017b600480360381019061017691906112a3565b6103ab565b005b34801561018957600080fd5b506101926105a4565b60405161019f9190611510565b60405180910390f35b3480156101b457600080fd5b506101bd6105cd565b6040516101ca9190611701565b60405180910390f35b3480156101df57600080fd5b506101e86105d3565b005b6101f2610718565b005b34801561020057600080fd5b50610209610d6d565b6040516102169190611546565b60405180910390f35b34801561022b57600080fd5b50610234610d80565b005b34801561024257600080fd5b5061025d6004803603810190610258919061127a565b610ff6565b005b60026020528060005260406000206000915090505481565b61027f6110ee565b73ffffffffffffffffffffffffffffffffffffffff1661029d6105a4565b73ffffffffffffffffffffffffffffffffffffffff16146102f3576040517f08c379a00000000000000000000000000000000000000000000000000000000081526004016102ea906115e1565b60405180910390fd5b80600560006101000a81548160ff02191690831515021790555050565b600560009054906101000a900460ff1681565b61032b6110ee565b73ffffffffffffffffffffffffffffffffffffffff166103496105a4565b73ffffffffffffffffffffffffffffffffffffffff161461039f576040517f08c379a0000000000000000000000000000000000000000000000000000000008152600401610396906115e1565b60405180910390fd5b6103a960006110f6565b565b6103b36110ee565b73ffffffffffffffffffffffffffffffffffffffff166103d16105a4565b73ffffffffffffffffffffffffffffffffffffffff1614610427576040517f08c379a000000000000000000000000000000000000000000000000000000000815260040161041e906115e1565b60405180910390fd5b60006002811115610461577f4e487b7100000000000000000000000000000000000000000000000000000000600052602160045260246000fd5b600560019054906101000a900460ff1660028111156104a9577f4e487b7100000000000000000000000000000000000000000000000000000000600052602160045260246000fd5b146104e9576040517f08c379a00000000000000000000000000000000000000000000000000000000081526004016104e0906116c1565b60405180910390fd5b60005b81518110156105a057600160036000848481518110610534577f4e487b7100000000000000000000000000000000000000000000000000000000600052603260045260246000fd5b602002602001015173ffffffffffffffffffffffffffffffffffffffff1673ffffffffffffffffffffffffffffffffffffffff16815260200190815260200160002060006101000a81548160ff021916908315150217905550808061059890611872565b9150506104ec565b5050565b60008060009054906101000a900473ffffffffffffffffffffffffffffffffffffffff16905090565b60045481565b60028081111561060c577f4e487b7100000000000000000000000000000000000000000000000000000000600052602160045260246000fd5b600560019054906101000a900460ff166002811115610654577f4e487b7100000000000000000000000000000000000000000000000000000000600052602160045260246000fd5b14610694576040517f08c379a000000000000000000000000000000000000000000000000000000000815260040161068b906115c1565b60405180910390fd5b6000600260003373ffffffffffffffffffffffffffffffffffffffff1673ffffffffffffffffffffffffffffffffffffffff1681526020019081526020016000205411610716576040517f08c379a000000000000000000000000000000000000000000000000000000000815260040161070d90611681565b60405180910390fd5b565b662386f26fc100003411610761576040517f08c379a0000000000000000000000000000000000000000000000000000000008152600401610758906116e1565b60405180910390fd5b60001515600560009054906101000a900460ff161515146107b7576040517f08c379a00000000000000000000000000000000000000000000000000000000081526004016107ae906115a1565b60405180910390fd5b600060028111156107f1577f4e487b7100000000000000000000000000000000000000000000000000000000600052602160045260246000fd5b600560019054906101000a900460ff166002811115610839577f4e487b7100000000000000000000000000000000000000000000000000000000600052602160045260246000fd5b1415610a325769032d26d12e980b60000034600454610858919061177e565b1115610899576040517f08c379a000000000000000000000000000000000000000000000000000000000815260040161089090611621565b60405180910390fd5b60011515600360003373ffffffffffffffffffffffffffffffffffffffff1673ffffffffffffffffffffffffffffffffffffffff16815260200190815260200160002060009054906101000a900460ff1615151461092c576040517f08c379a000000000000000000000000000000000000000000000000000000000815260040161092390611561565b60405180910390fd5b685150ae84a8cdf0000034600260003373ffffffffffffffffffffffffffffffffffffffff1673ffffffffffffffffffffffffffffffffffffffff16815260200190815260200160002054610981919061177e565b11156109c2576040517f08c379a00000000000000000000000000000000000000000000000000000000081526004016109b990611661565b60405180910390fd5b34600460008282546109d4919061177e565b9250508190555034600260003373ffffffffffffffffffffffffffffffffffffffff1673ffffffffffffffffffffffffffffffffffffffff1681526020019081526020016000206000828254610a2a919061177e565b925050819055505b60016002811115610a6c577f4e487b7100000000000000000000000000000000000000000000000000000000600052602160045260246000fd5b600560019054906101000a900460ff166002811115610ab4577f4e487b7100000000000000000000000000000000000000000000000000000000600052602160045260246000fd5b1415610c1a5769065a4da25d3016c0000034600454610ad3919061177e565b1115610b14576040517f08c379a0000000000000000000000000000000000000000000000000000000008152600401610b0b906116a1565b60405180910390fd5b683635c9adc5dea0000034600260003373ffffffffffffffffffffffffffffffffffffffff1673ffffffffffffffffffffffffffffffffffffffff16815260200190815260200160002054610b69919061177e565b1115610baa576040517f08c379a0000000000000000000000000000000000000000000000000000000008152600401610ba190611641565b60405180910390fd5b3460046000828254610bbc919061177e565b9250508190555034600260003373ffffffffffffffffffffffffffffffffffffffff1673ffffffffffffffffffffffffffffffffffffffff1681526020019081526020016000206000828254610c12919061177e565b925050819055505b600280811115610c53577f4e487b7100000000000000000000000000000000000000000000000000000000600052602160045260246000fd5b600560019054906101000a900460ff166002811115610c9b577f4e487b7100000000000000000000000000000000000000000000000000000000600052602160045260246000fd5b1415610d6b5769065a4da25d3016c0000034600454610cba919061177e565b1115610cfb576040517f08c379a0000000000000000000000000000000000000000000000000000000008152600401610cf2906116a1565b60405180910390fd5b3460046000828254610d0d919061177e565b9250508190555034600260003373ffffffffffffffffffffffffffffffffffffffff1673ffffffffffffffffffffffffffffffffffffffff1681526020019081526020016000206000828254610d63919061177e565b925050819055505b565b600560019054906101000a900460ff1681565b610d886110ee565b73ffffffffffffffffffffffffffffffffffffffff16610da66105a4565b73ffffffffffffffffffffffffffffffffffffffff1614610dfc576040517f08c379a0000000000000000000000000000000000000000000000000000000008152600401610df3906115e1565b60405180910390fd5b60006002811115610e36577f4e487b7100000000000000000000000000000000000000000000000000000000600052602160045260246000fd5b600560019054906101000a900460ff166002811115610e7e577f4e487b7100000000000000000000000000000000000000000000000000000000600052602160045260246000fd5b1415610eda576001600560016101000a81548160ff02191690836002811115610ed0577f4e487b7100000000000000000000000000000000000000000000000000000000600052602160045260246000fd5b0217905550610ff4565b60016002811115610f14577f4e487b7100000000000000000000000000000000000000000000000000000000600052602160045260246000fd5b600560019054906101000a900460ff166002811115610f5c577f4e487b7100000000000000000000000000000000000000000000000000000000600052602160045260246000fd5b1415610fb8576002600560016101000a81548160ff02191690836002811115610fae577f4e487b7100000000000000000000000000000000000000000000000000000000600052602160045260246000fd5b0217905550610ff3565b6040517f08c379a0000000000000000000000000000000000000000000000000000000008152600401610fea90611601565b60405180910390fd5b5b565b610ffe6110ee565b73ffffffffffffffffffffffffffffffffffffffff1661101c6105a4565b73ffffffffffffffffffffffffffffffffffffffff1614611072576040517f08c379a0000000000000000000000000000000000000000000000000000000008152600401611069906115e1565b60405180910390fd5b600073ffffffffffffffffffffffffffffffffffffffff168173ffffffffffffffffffffffffffffffffffffffff1614156110e2576040517f08c379a00000000000000000000000000000000000000000000000000000000081526004016110d990611581565b60405180910390fd5b6110eb816110f6565b50565b600033905090565b60008060009054906101000a900473ffffffffffffffffffffffffffffffffffffffff169050816000806101000a81548173ffffffffffffffffffffffffffffffffffffffff021916908373ffffffffffffffffffffffffffffffffffffffff1602179055508173ffffffffffffffffffffffffffffffffffffffff168173ffffffffffffffffffffffffffffffffffffffff167f8be0079c531659141344cd1fd0a4f28419497f9722a3daafe3b4186f6b6457e060405160405180910390a35050565b60006111cd6111c884611741565b61171c565b905080838252602082019050828560208602820111156111ec57600080fd5b60005b8581101561121c57816112028882611226565b8452602084019350602083019250506001810190506111ef565b5050509392505050565b60008135905061123581611c8c565b92915050565b600082601f83011261124c57600080fd5b813561125c8482602086016111ba565b91505092915050565b60008135905061127481611ca3565b92915050565b60006020828403121561128c57600080fd5b600061129a84828501611226565b91505092915050565b6000602082840312156112b557600080fd5b600082013567ffffffffffffffff8111156112cf57600080fd5b6112db8482850161123b565b91505092915050565b6000602082840312156112f657600080fd5b600061130484828501611265565b91505092915050565b611316816117d4565b82525050565b611325816117e6565b82525050565b6113348161182f565b82525050565b600061134760258361176d565b915061135282611959565b604082019050919050565b600061136a60268361176d565b9150611375826119a8565b604082019050919050565b600061138d600d8361176d565b9150611398826119f7565b602082019050919050565b60006113b060208361176d565b91506113bb82611a20565b602082019050919050565b60006113d360208361176d565b91506113de82611a49565b602082019050919050565b60006113f660148361176d565b915061140182611a72565b602082019050919050565b600061141960238361176d565b915061142482611a9b565b604082019050919050565b600061143c60308361176d565b915061144782611aea565b604082019050919050565b600061145f60308361176d565b915061146a82611b39565b604082019050919050565b6000611482601a8361176d565b915061148d82611b88565b602082019050919050565b60006114a5602b8361176d565b91506114b082611bb1565b604082019050919050565b60006114c860288361176d565b91506114d382611c00565b604082019050919050565b60006114eb60108361176d565b91506114f682611c4f565b602082019050919050565b61150a81611825565b82525050565b6000602082019050611525600083018461130d565b92915050565b6000602082019050611540600083018461131c565b92915050565b600060208201905061155b600083018461132b565b92915050565b6000602082019050818103600083015261157a8161133a565b9050919050565b6000602082019050818103600083015261159a8161135d565b9050919050565b600060208201905081810360008301526115ba81611380565b9050919050565b600060208201905081810360008301526115da816113a3565b9050919050565b600060208201905081810360008301526115fa816113c6565b9050919050565b6000602082019050818103600083015261161a816113e9565b9050919050565b6000602082019050818103600083015261163a8161140c565b9050919050565b6000602082019050818103600083015261165a8161142f565b9050919050565b6000602082019050818103600083015261167a81611452565b9050919050565b6000602082019050818103600083015261169a81611475565b9050919050565b600060208201905081810360008301526116ba81611498565b9050919050565b600060208201905081810360008301526116da816114bb565b9050919050565b600060208201905081810360008301526116fa816114de565b9050919050565b60006020820190506117166000830184611501565b92915050565b6000611726611737565b90506117328282611841565b919050565b6000604051905090565b600067ffffffffffffffff82111561175c5761175b611919565b5b602082029050602081019050919050565b600082825260208201905092915050565b600061178982611825565b915061179483611825565b9250827fffffffffffffffffffffffffffffffffffffffffffffffffffffffffffffffff038211156117c9576117c86118bb565b5b828201905092915050565b60006117df82611805565b9050919050565b60008115159050919050565b600081905061180082611c78565b919050565b600073ffffffffffffffffffffffffffffffffffffffff82169050919050565b6000819050919050565b600061183a826117f2565b9050919050565b61184a82611948565b810181811067ffffffffffffffff8211171561186957611868611919565b5b80604052505050565b600061187d82611825565b91507fffffffffffffffffffffffffffffffffffffffffffffffffffffffffffffffff8214156118b0576118af6118bb565b5b600182019050919050565b7f4e487b7100000000000000000000000000000000000000000000000000000000600052601160045260246000fd5b7f4e487b7100000000000000000000000000000000000000000000000000000000600052602160045260246000fd5b7f4e487b7100000000000000000000000000000000000000000000000000000000600052604160045260246000fd5b6000601f19601f8301169050919050565b7f61646472657373206e6f742077686974656c697374656420666f72207365656460008201527f2073616c65000000000000000000000000000000000000000000000000000000602082015250565b7f4f776e61626c653a206e6577206f776e657220697320746865207a65726f206160008201527f6464726573730000000000000000000000000000000000000000000000000000602082015250565b7f49434f2069732070617573656400000000000000000000000000000000000000600082015250565b7f63616e6e6f7420776974686472617720756e74696c207068617365206f70656e600082015250565b7f4f776e61626c653a2063616c6c6572206973206e6f7420746865206f776e6572600082015250565b7f49434f20697320696e207068617365206f70656e000000000000000000000000600082015250565b7f7365656420706861736520676f616c2063616e6e6f742062652073757270617360008201527f7365640000000000000000000000000000000000000000000000000000000000602082015250565b7f616d6f756e7420776f756c64206265206d6f7265207468616e2031303030206560008201527f7468657220636f6e747269627574656400000000000000000000000000000000602082015250565b7f616d6f756e7420776f756c64206265206d6f7265207468616e2031353030206560008201527f7468657220636f6e747269627574656400000000000000000000000000000000602082015250565b7f6e6f2062616c616e6365206f6e20746869732061646472657373000000000000600082015250565b7f333030303020657468657220636f6e74726962757465642063616e6e6f74206260008201527f6520737572706173736564000000000000000000000000000000000000000000602082015250565b7f77686974656c69737420697320697272656c6576616e7420616674657220736560008201527f6564207068617365000000000000000000000000000000000000000000000000602082015250565b7f6e6f7420656e6f75676820657468657200000000000000000000000000000000600082015250565b60038110611c8957611c886118ea565b5b50565b611c95816117d4565b8114611ca057600080fd5b50565b611cac816117e6565b8114611cb757600080fd5b5056fea26469706673582212209902aabbc1721b31bbffa44814c8966812be3f367b84d911f9aa2777ac2ad26564736f6c63430008040033",
  "linkReferences": {},
  "deployedLinkReferences": {}
}