{
  "_format": "hh-sol-artifact-1",
  "contractName": "ICO",
  "sourceName": "contracts/ICO.sol",
  "abi": [
    {
      "inputs": [
        {
          "internalType": "address payable",
          "name": "treasuryContract",
          "type": "address"
        }
      ],
      "stateMutability": "nonpayable",
      "type": "constructor"
    },
    {
      "anonymous": false,
      "inputs": [
        {
          "indexed": true,
          "internalType": "address",
          "name": "previousOwner",
          "type": "address"
        },
        {
          "indexed": true,
          "internalType": "address",
          "name": "newOwner",
          "type": "address"
        }
      ],
      "name": "OwnershipTransferred",
      "type": "event"
    },
    {
      "inputs": [
        {
          "internalType": "address[]",
          "name": "privateInvestors",
          "type": "address[]"
        }
      ],
      "name": "addToWhitelist",
      "outputs": [],
      "stateMutability": "nonpayable",
      "type": "function"
    },
    {
      "inputs": [
        {
          "internalType": "address",
          "name": "",
          "type": "address"
        }
      ],
      "name": "balances",
      "outputs": [
        {
          "internalType": "uint256",
          "name": "",
          "type": "uint256"
        }
      ],
      "stateMutability": "view",
      "type": "function"
    },
    {
      "inputs": [],
      "name": "changePhase",
      "outputs": [],
      "stateMutability": "nonpayable",
      "type": "function"
    },
    {
      "inputs": [],
      "name": "owner",
      "outputs": [
        {
          "internalType": "address",
          "name": "",
          "type": "address"
        }
      ],
      "stateMutability": "view",
      "type": "function"
    },
    {
      "inputs": [],
      "name": "paused",
      "outputs": [
        {
          "internalType": "bool",
          "name": "",
          "type": "bool"
        }
      ],
      "stateMutability": "view",
      "type": "function"
    },
    {
      "inputs": [],
      "name": "phase",
      "outputs": [
        {
          "internalType": "enum ICO.phases",
          "name": "",
          "type": "uint8"
        }
      ],
      "stateMutability": "view",
      "type": "function"
    },
    {
      "inputs": [],
      "name": "redeem",
      "outputs": [],
      "stateMutability": "nonpayable",
      "type": "function"
    },
    {
      "inputs": [],
      "name": "renounceOwnership",
      "outputs": [],
      "stateMutability": "nonpayable",
      "type": "function"
    },
    {
      "inputs": [
        {
          "internalType": "bool",
          "name": "state",
          "type": "bool"
        }
      ],
      "name": "togglePause",
      "outputs": [],
      "stateMutability": "nonpayable",
      "type": "function"
    },
    {
      "inputs": [],
      "name": "totalFunds",
      "outputs": [
        {
          "internalType": "uint256",
          "name": "",
          "type": "uint256"
        }
      ],
      "stateMutability": "view",
      "type": "function"
    },
    {
      "inputs": [
        {
          "internalType": "address",
          "name": "newOwner",
          "type": "address"
        }
      ],
      "name": "transferOwnership",
      "outputs": [],
      "stateMutability": "nonpayable",
      "type": "function"
    },
    {
      "inputs": [
        {
          "internalType": "address",
          "name": "",
          "type": "address"
        }
      ],
      "name": "whitelist",
      "outputs": [
        {
          "internalType": "bool",
          "name": "",
          "type": "bool"
        }
      ],
      "stateMutability": "view",
      "type": "function"
    },
    {
      "stateMutability": "payable",
      "type": "receive"
    }
  ],
  "bytecode": "0x60806040523480156200001157600080fd5b50604051620020ce380380620020ce8339818101604052810190620000379190620001d4565b620000576200004b620000f160201b60201c565b620000f960201b60201c565b6000600560016101000a81548160ff02191690836002811115620000a4577f4e487b7100000000000000000000000000000000000000000000000000000000600052602160045260246000fd5b021790555080600160006101000a81548173ffffffffffffffffffffffffffffffffffffffff021916908373ffffffffffffffffffffffffffffffffffffffff160217905550506200024e565b600033905090565b60008060009054906101000a900473ffffffffffffffffffffffffffffffffffffffff169050816000806101000a81548173ffffffffffffffffffffffffffffffffffffffff021916908373ffffffffffffffffffffffffffffffffffffffff1602179055508173ffffffffffffffffffffffffffffffffffffffff168173ffffffffffffffffffffffffffffffffffffffff167f8be0079c531659141344cd1fd0a4f28419497f9722a3daafe3b4186f6b6457e060405160405180910390a35050565b600081519050620001ce8162000234565b92915050565b600060208284031215620001e757600080fd5b6000620001f784828501620001bd565b91505092915050565b60006200020d8262000214565b9050919050565b600073ffffffffffffffffffffffffffffffffffffffff82169050919050565b6200023f8162000200565b81146200024b57600080fd5b50565b611e70806200025e6000396000f3fe6080604052600436106100ab5760003560e01c8063968ed60011610064578063968ed600146108065780639b19251a14610831578063b1c9fe6e1461086e578063be040fb014610899578063db6f5953146108b0578063f2fde38b146108c757610705565b806327e235e31461070a57806357d159c6146107475780635c975abb14610770578063715018a61461079b5780637f649783146107b25780638da5cb5b146107db57610705565b3661070557662386f26fc1000034116100f9576040517f08c379a00000000000000000000000000000000000000000000000000000000081526004016100f090611807565b60405180910390fd5b60001515600560009054906101000a900460ff1615151461014f576040517f08c379a0000000000000000000000000000000000000000000000000000000008152600401610146906116c7565b60405180910390fd5b60006002811115610189577f4e487b7100000000000000000000000000000000000000000000000000000000600052602160045260246000fd5b600560019054906101000a900460ff1660028111156101d1577f4e487b7100000000000000000000000000000000000000000000000000000000600052602160045260246000fd5b14156103ca5769032d26d12e980b600000346004546101f091906118a4565b1115610231576040517f08c379a000000000000000000000000000000000000000000000000000000000815260040161022890611747565b60405180910390fd5b60011515600360003373ffffffffffffffffffffffffffffffffffffffff1673ffffffffffffffffffffffffffffffffffffffff16815260200190815260200160002060009054906101000a900460ff161515146102c4576040517f08c379a00000000000000000000000000000000000000000000000000000000081526004016102bb90611687565b60405180910390fd5b685150ae84a8cdf0000034600260003373ffffffffffffffffffffffffffffffffffffffff1673ffffffffffffffffffffffffffffffffffffffff1681526020019081526020016000205461031991906118a4565b111561035a576040517f08c379a000000000000000000000000000000000000000000000000000000000815260040161035190611787565b60405180910390fd5b346004600082825461036c91906118a4565b9250508190555034600260003373ffffffffffffffffffffffffffffffffffffffff1673ffffffffffffffffffffffffffffffffffffffff16815260200190815260200160002060008282546103c291906118a4565b925050819055505b60016002811115610404577f4e487b7100000000000000000000000000000000000000000000000000000000600052602160045260246000fd5b600560019054906101000a900460ff16600281111561044c577f4e487b7100000000000000000000000000000000000000000000000000000000600052602160045260246000fd5b14156105b25769065a4da25d3016c000003460045461046b91906118a4565b11156104ac576040517f08c379a00000000000000000000000000000000000000000000000000000000081526004016104a3906117c7565b60405180910390fd5b683635c9adc5dea0000034600260003373ffffffffffffffffffffffffffffffffffffffff1673ffffffffffffffffffffffffffffffffffffffff1681526020019081526020016000205461050191906118a4565b1115610542576040517f08c379a000000000000000000000000000000000000000000000000000000000815260040161053990611767565b60405180910390fd5b346004600082825461055491906118a4565b9250508190555034600260003373ffffffffffffffffffffffffffffffffffffffff1673ffffffffffffffffffffffffffffffffffffffff16815260200190815260200160002060008282546105aa91906118a4565b925050819055505b6002808111156105eb577f4e487b7100000000000000000000000000000000000000000000000000000000600052602160045260246000fd5b600560019054906101000a900460ff166002811115610633577f4e487b7100000000000000000000000000000000000000000000000000000000600052602160045260246000fd5b14156107035769065a4da25d3016c000003460045461065291906118a4565b1115610693576040517f08c379a000000000000000000000000000000000000000000000000000000000815260040161068a906117c7565b60405180910390fd5b34600460008282546106a591906118a4565b9250508190555034600260003373ffffffffffffffffffffffffffffffffffffffff1673ffffffffffffffffffffffffffffffffffffffff16815260200190815260200160002060008282546106fb91906118a4565b925050819055505b005b600080fd5b34801561071657600080fd5b50610731600480360381019061072c9190611377565b6108f0565b60405161073e9190611827565b60405180910390f35b34801561075357600080fd5b5061076e600480360381019061076991906113e1565b610908565b005b34801561077c57600080fd5b506107856109a1565b6040516107929190611651565b60405180910390f35b3480156107a757600080fd5b506107b06109b4565b005b3480156107be57600080fd5b506107d960048036038101906107d491906113a0565b610a3c565b005b3480156107e757600080fd5b506107f0610c35565b6040516107fd919061160d565b60405180910390f35b34801561081257600080fd5b5061081b610c5e565b6040516108289190611827565b60405180910390f35b34801561083d57600080fd5b5061085860048036038101906108539190611377565b610c64565b6040516108659190611651565b60405180910390f35b34801561087a57600080fd5b50610883610c84565b604051610890919061166c565b60405180910390f35b3480156108a557600080fd5b506108ae610c97565b005b3480156108bc57600080fd5b506108c5610e7d565b005b3480156108d357600080fd5b506108ee60048036038101906108e99190611377565b6110f3565b005b60026020528060005260406000206000915090505481565b6109106111eb565b73ffffffffffffffffffffffffffffffffffffffff1661092e610c35565b73ffffffffffffffffffffffffffffffffffffffff1614610984576040517f08c379a000000000000000000000000000000000000000000000000000000000815260040161097b90611707565b60405180910390fd5b80600560006101000a81548160ff02191690831515021790555050565b600560009054906101000a900460ff1681565b6109bc6111eb565b73ffffffffffffffffffffffffffffffffffffffff166109da610c35565b73ffffffffffffffffffffffffffffffffffffffff1614610a30576040517f08c379a0000000000000000000000000000000000000000000000000000000008152600401610a2790611707565b60405180910390fd5b610a3a60006111f3565b565b610a446111eb565b73ffffffffffffffffffffffffffffffffffffffff16610a62610c35565b73ffffffffffffffffffffffffffffffffffffffff1614610ab8576040517f08c379a0000000000000000000000000000000000000000000000000000000008152600401610aaf90611707565b60405180910390fd5b60006002811115610af2577f4e487b7100000000000000000000000000000000000000000000000000000000600052602160045260246000fd5b600560019054906101000a900460ff166002811115610b3a577f4e487b7100000000000000000000000000000000000000000000000000000000600052602160045260246000fd5b14610b7a576040517f08c379a0000000000000000000000000000000000000000000000000000000008152600401610b71906117e7565b60405180910390fd5b60005b8151811015610c3157600160036000848481518110610bc5577f4e487b7100000000000000000000000000000000000000000000000000000000600052603260045260246000fd5b602002602001015173ffffffffffffffffffffffffffffffffffffffff1673ffffffffffffffffffffffffffffffffffffffff16815260200190815260200160002060006101000a81548160ff0219169083151502179055508080610c29906119f2565b915050610b7d565b5050565b60008060009054906101000a900473ffffffffffffffffffffffffffffffffffffffff16905090565b60045481565b60036020528060005260406000206000915054906101000a900460ff1681565b600560019054906101000a900460ff1681565b600280811115610cd0577f4e487b7100000000000000000000000000000000000000000000000000000000600052602160045260246000fd5b600560019054906101000a900460ff166002811115610d18577f4e487b7100000000000000000000000000000000000000000000000000000000600052602160045260246000fd5b14610d58576040517f08c379a0000000000000000000000000000000000000000000000000000000008152600401610d4f906116e7565b60405180910390fd5b6000600260003373ffffffffffffffffffffffffffffffffffffffff1673ffffffffffffffffffffffffffffffffffffffff16815260200190815260200160002054905060008111610ddf576040517f08c379a0000000000000000000000000000000000000000000000000000000008152600401610dd6906117a7565b60405180910390fd5b600160009054906101000a900473ffffffffffffffffffffffffffffffffffffffff1673ffffffffffffffffffffffffffffffffffffffff16639b6d40a433600584610e2b91906118fa565b6040518363ffffffff1660e01b8152600401610e48929190611628565b600060405180830381600087803b158015610e6257600080fd5b505af1158015610e76573d6000803e3d6000fd5b5050505050565b610e856111eb565b73ffffffffffffffffffffffffffffffffffffffff16610ea3610c35565b73ffffffffffffffffffffffffffffffffffffffff1614610ef9576040517f08c379a0000000000000000000000000000000000000000000000000000000008152600401610ef090611707565b60405180910390fd5b60006002811115610f33577f4e487b7100000000000000000000000000000000000000000000000000000000600052602160045260246000fd5b600560019054906101000a900460ff166002811115610f7b577f4e487b7100000000000000000000000000000000000000000000000000000000600052602160045260246000fd5b1415610fd7576001600560016101000a81548160ff02191690836002811115610fcd577f4e487b7100000000000000000000000000000000000000000000000000000000600052602160045260246000fd5b02179055506110f1565b60016002811115611011577f4e487b7100000000000000000000000000000000000000000000000000000000600052602160045260246000fd5b600560019054906101000a900460ff166002811115611059577f4e487b7100000000000000000000000000000000000000000000000000000000600052602160045260246000fd5b14156110b5576002600560016101000a81548160ff021916908360028111156110ab577f4e487b7100000000000000000000000000000000000000000000000000000000600052602160045260246000fd5b02179055506110f0565b6040517f08c379a00000000000000000000000000000000000000000000000000000000081526004016110e790611727565b60405180910390fd5b5b565b6110fb6111eb565b73ffffffffffffffffffffffffffffffffffffffff16611119610c35565b73ffffffffffffffffffffffffffffffffffffffff161461116f576040517f08c379a000000000000000000000000000000000000000000000000000000000815260040161116690611707565b60405180910390fd5b600073ffffffffffffffffffffffffffffffffffffffff168173ffffffffffffffffffffffffffffffffffffffff1614156111df576040517f08c379a00000000000000000000000000000000000000000000000000000000081526004016111d6906116a7565b60405180910390fd5b6111e8816111f3565b50565b600033905090565b60008060009054906101000a900473ffffffffffffffffffffffffffffffffffffffff169050816000806101000a81548173ffffffffffffffffffffffffffffffffffffffff021916908373ffffffffffffffffffffffffffffffffffffffff1602179055508173ffffffffffffffffffffffffffffffffffffffff168173ffffffffffffffffffffffffffffffffffffffff167f8be0079c531659141344cd1fd0a4f28419497f9722a3daafe3b4186f6b6457e060405160405180910390a35050565b60006112ca6112c584611867565b611842565b905080838252602082019050828560208602820111156112e957600080fd5b60005b8581101561131957816112ff8882611323565b8452602084019350602083019250506001810190506112ec565b5050509392505050565b60008135905061133281611e0c565b92915050565b600082601f83011261134957600080fd5b81356113598482602086016112b7565b91505092915050565b60008135905061137181611e23565b92915050565b60006020828403121561138957600080fd5b600061139784828501611323565b91505092915050565b6000602082840312156113b257600080fd5b600082013567ffffffffffffffff8111156113cc57600080fd5b6113d884828501611338565b91505092915050565b6000602082840312156113f357600080fd5b600061140184828501611362565b91505092915050565b61141381611954565b82525050565b61142281611966565b82525050565b611431816119af565b82525050565b6000611444602583611893565b915061144f82611ad9565b604082019050919050565b6000611467602683611893565b915061147282611b28565b604082019050919050565b600061148a600d83611893565b915061149582611b77565b602082019050919050565b60006114ad602083611893565b91506114b882611ba0565b602082019050919050565b60006114d0602083611893565b91506114db82611bc9565b602082019050919050565b60006114f3601483611893565b91506114fe82611bf2565b602082019050919050565b6000611516602383611893565b915061152182611c1b565b604082019050919050565b6000611539603083611893565b915061154482611c6a565b604082019050919050565b600061155c603083611893565b915061156782611cb9565b604082019050919050565b600061157f601a83611893565b915061158a82611d08565b602082019050919050565b60006115a2602b83611893565b91506115ad82611d31565b604082019050919050565b60006115c5602883611893565b91506115d082611d80565b604082019050919050565b60006115e8601083611893565b91506115f382611dcf565b602082019050919050565b611607816119a5565b82525050565b6000602082019050611622600083018461140a565b92915050565b600060408201905061163d600083018561140a565b61164a60208301846115fe565b9392505050565b60006020820190506116666000830184611419565b92915050565b60006020820190506116816000830184611428565b92915050565b600060208201905081810360008301526116a081611437565b9050919050565b600060208201905081810360008301526116c08161145a565b9050919050565b600060208201905081810360008301526116e08161147d565b9050919050565b60006020820190508181036000830152611700816114a0565b9050919050565b60006020820190508181036000830152611720816114c3565b9050919050565b60006020820190508181036000830152611740816114e6565b9050919050565b6000602082019050818103600083015261176081611509565b9050919050565b600060208201905081810360008301526117808161152c565b9050919050565b600060208201905081810360008301526117a08161154f565b9050919050565b600060208201905081810360008301526117c081611572565b9050919050565b600060208201905081810360008301526117e081611595565b9050919050565b60006020820190508181036000830152611800816115b8565b9050919050565b60006020820190508181036000830152611820816115db565b9050919050565b600060208201905061183c60008301846115fe565b92915050565b600061184c61185d565b905061185882826119c1565b919050565b6000604051905090565b600067ffffffffffffffff82111561188257611881611a99565b5b602082029050602081019050919050565b600082825260208201905092915050565b60006118af826119a5565b91506118ba836119a5565b9250827fffffffffffffffffffffffffffffffffffffffffffffffffffffffffffffffff038211156118ef576118ee611a3b565b5b828201905092915050565b6000611905826119a5565b9150611910836119a5565b9250817fffffffffffffffffffffffffffffffffffffffffffffffffffffffffffffffff048311821515161561194957611948611a3b565b5b828202905092915050565b600061195f82611985565b9050919050565b60008115159050919050565b600081905061198082611df8565b919050565b600073ffffffffffffffffffffffffffffffffffffffff82169050919050565b6000819050919050565b60006119ba82611972565b9050919050565b6119ca82611ac8565b810181811067ffffffffffffffff821117156119e9576119e8611a99565b5b80604052505050565b60006119fd826119a5565b91507fffffffffffffffffffffffffffffffffffffffffffffffffffffffffffffffff821415611a3057611a2f611a3b565b5b600182019050919050565b7f4e487b7100000000000000000000000000000000000000000000000000000000600052601160045260246000fd5b7f4e487b7100000000000000000000000000000000000000000000000000000000600052602160045260246000fd5b7f4e487b7100000000000000000000000000000000000000000000000000000000600052604160045260246000fd5b6000601f19601f8301169050919050565b7f61646472657373206e6f742077686974656c697374656420666f72207365656460008201527f2073616c65000000000000000000000000000000000000000000000000000000602082015250565b7f4f776e61626c653a206e6577206f776e657220697320746865207a65726f206160008201527f6464726573730000000000000000000000000000000000000000000000000000602082015250565b7f49434f2069732070617573656400000000000000000000000000000000000000600082015250565b7f63616e6e6f7420776974686472617720756e74696c207068617365206f70656e600082015250565b7f4f776e61626c653a2063616c6c6572206973206e6f7420746865206f776e6572600082015250565b7f49434f20697320696e207068617365206f70656e000000000000000000000000600082015250565b7f7365656420706861736520676f616c2063616e6e6f742062652073757270617360008201527f7365640000000000000000000000000000000000000000000000000000000000602082015250565b7f616d6f756e7420776f756c64206265206d6f7265207468616e2031303030206560008201527f7468657220636f6e747269627574656400000000000000000000000000000000602082015250565b7f616d6f756e7420776f756c64206265206d6f7265207468616e2031353030206560008201527f7468657220636f6e747269627574656400000000000000000000000000000000602082015250565b7f6e6f2062616c616e6365206f6e20746869732061646472657373000000000000600082015250565b7f333030303020657468657220636f6e74726962757465642063616e6e6f74206260008201527f6520737572706173736564000000000000000000000000000000000000000000602082015250565b7f77686974656c69737420697320697272656c6576616e7420616674657220736560008201527f6564207068617365000000000000000000000000000000000000000000000000602082015250565b7f6e6f7420656e6f75676820657468657200000000000000000000000000000000600082015250565b60038110611e0957611e08611a6a565b5b50565b611e1581611954565b8114611e2057600080fd5b50565b611e2c81611966565b8114611e3757600080fd5b5056fea264697066735822122013bb0eee112cc27ccd954b11dc151e8484d303f844dada188f80260254e2865e64736f6c63430008040033",
  "linkReferences": {},
  "deployedLinkReferences": {}
}