{
  "_format": "hh-sol-artifact-1",
  "contractName": "ICO",
  "sourceName": "contracts/ICO.sol",
  "abi": [
    {
      "inputs": [
        {
          "internalType": "address payable",
          "name": "treasuryContract",
          "type": "address"
        }
      ],
      "stateMutability": "nonpayable",
      "type": "constructor"
    },
    {
      "anonymous": false,
      "inputs": [
        {
          "indexed": true,
          "internalType": "address",
          "name": "previousOwner",
          "type": "address"
        },
        {
          "indexed": true,
          "internalType": "address",
          "name": "newOwner",
          "type": "address"
        }
      ],
      "name": "OwnershipTransferred",
      "type": "event"
    },
    {
      "inputs": [
        {
          "internalType": "address[]",
          "name": "privateInvestors",
          "type": "address[]"
        }
      ],
      "name": "addToWhitelist",
      "outputs": [],
      "stateMutability": "nonpayable",
      "type": "function"
    },
    {
      "inputs": [
        {
          "internalType": "address",
          "name": "",
          "type": "address"
        }
      ],
      "name": "balances",
      "outputs": [
        {
          "internalType": "uint256",
          "name": "",
          "type": "uint256"
        }
      ],
      "stateMutability": "view",
      "type": "function"
    },
    {
      "inputs": [],
      "name": "changePhase",
      "outputs": [],
      "stateMutability": "nonpayable",
      "type": "function"
    },
    {
      "inputs": [],
      "name": "owner",
      "outputs": [
        {
          "internalType": "address",
          "name": "",
          "type": "address"
        }
      ],
      "stateMutability": "view",
      "type": "function"
    },
    {
      "inputs": [],
      "name": "paused",
      "outputs": [
        {
          "internalType": "bool",
          "name": "",
          "type": "bool"
        }
      ],
      "stateMutability": "view",
      "type": "function"
    },
    {
      "inputs": [],
      "name": "phase",
      "outputs": [
        {
          "internalType": "enum ICO.phases",
          "name": "",
          "type": "uint8"
        }
      ],
      "stateMutability": "view",
      "type": "function"
    },
    {
      "inputs": [],
      "name": "redeem",
      "outputs": [],
      "stateMutability": "nonpayable",
      "type": "function"
    },
    {
      "inputs": [],
      "name": "renounceOwnership",
      "outputs": [],
      "stateMutability": "nonpayable",
      "type": "function"
    },
    {
      "inputs": [
        {
          "internalType": "address",
          "name": "to",
          "type": "address"
        },
        {
          "internalType": "uint256",
          "name": "amount",
          "type": "uint256"
        }
      ],
      "name": "sendEther",
      "outputs": [],
      "stateMutability": "nonpayable",
      "type": "function"
    },
    {
      "inputs": [
        {
          "internalType": "bool",
          "name": "state",
          "type": "bool"
        }
      ],
      "name": "togglePause",
      "outputs": [],
      "stateMutability": "nonpayable",
      "type": "function"
    },
    {
      "inputs": [],
      "name": "totalFunds",
      "outputs": [
        {
          "internalType": "uint256",
          "name": "",
          "type": "uint256"
        }
      ],
      "stateMutability": "view",
      "type": "function"
    },
    {
      "inputs": [
        {
          "internalType": "address",
          "name": "newOwner",
          "type": "address"
        }
      ],
      "name": "transferOwnership",
      "outputs": [],
      "stateMutability": "nonpayable",
      "type": "function"
    },
    {
      "inputs": [
        {
          "internalType": "address",
          "name": "",
          "type": "address"
        }
      ],
      "name": "whitelist",
      "outputs": [
        {
          "internalType": "bool",
          "name": "",
          "type": "bool"
        }
      ],
      "stateMutability": "view",
      "type": "function"
    },
    {
      "stateMutability": "payable",
      "type": "receive"
    }
  ],
  "bytecode": "0x60806040523480156200001157600080fd5b50604051620025ac380380620025ac8339818101604052810190620000379190620001d4565b620000576200004b620000f160201b60201c565b620000f960201b60201c565b6000600560016101000a81548160ff02191690836002811115620000a4577f4e487b7100000000000000000000000000000000000000000000000000000000600052602160045260246000fd5b021790555080600160006101000a81548173ffffffffffffffffffffffffffffffffffffffff021916908373ffffffffffffffffffffffffffffffffffffffff160217905550506200024e565b600033905090565b60008060009054906101000a900473ffffffffffffffffffffffffffffffffffffffff169050816000806101000a81548173ffffffffffffffffffffffffffffffffffffffff021916908373ffffffffffffffffffffffffffffffffffffffff1602179055508173ffffffffffffffffffffffffffffffffffffffff168173ffffffffffffffffffffffffffffffffffffffff167f8be0079c531659141344cd1fd0a4f28419497f9722a3daafe3b4186f6b6457e060405160405180910390a35050565b600081519050620001ce8162000234565b92915050565b600060208284031215620001e757600080fd5b6000620001f784828501620001bd565b91505092915050565b60006200020d8262000214565b9050919050565b600073ffffffffffffffffffffffffffffffffffffffff82169050919050565b6200023f8162000200565b81146200024b57600080fd5b50565b61234e806200025e6000396000f3fe6080604052600436106100c65760003560e01c8063968ed6001161007f578063be040fb011610059578063be040fb0146108b4578063c1756a2c146108cb578063db6f5953146108f4578063f2fde38b1461090b57610720565b8063968ed600146108215780639b19251a1461084c578063b1c9fe6e1461088957610720565b806327e235e31461072557806357d159c6146107625780635c975abb1461078b578063715018a6146107b65780637f649783146107cd5780638da5cb5b146107f657610720565b3661072057662386f26fc100003411610114576040517f08c379a000000000000000000000000000000000000000000000000000000000815260040161010b90611c45565b60405180910390fd5b60001515600560009054906101000a900460ff1615151461016a576040517f08c379a000000000000000000000000000000000000000000000000000000000815260040161016190611aa5565b60405180910390fd5b600060028111156101a4577f4e487b7100000000000000000000000000000000000000000000000000000000600052602160045260246000fd5b600560019054906101000a900460ff1660028111156101ec577f4e487b7100000000000000000000000000000000000000000000000000000000600052602160045260246000fd5b14156103e55769032d26d12e980b6000003460045461020b9190611ced565b111561024c576040517f08c379a000000000000000000000000000000000000000000000000000000000815260040161024390611b45565b60405180910390fd5b60011515600360003373ffffffffffffffffffffffffffffffffffffffff1673ffffffffffffffffffffffffffffffffffffffff16815260200190815260200160002060009054906101000a900460ff161515146102df576040517f08c379a00000000000000000000000000000000000000000000000000000000081526004016102d690611a65565b60405180910390fd5b685150ae84a8cdf0000034600260003373ffffffffffffffffffffffffffffffffffffffff1673ffffffffffffffffffffffffffffffffffffffff168152602001908152602001600020546103349190611ced565b1115610375576040517f08c379a000000000000000000000000000000000000000000000000000000000815260040161036c90611b85565b60405180910390fd5b34600460008282546103879190611ced565b9250508190555034600260003373ffffffffffffffffffffffffffffffffffffffff1673ffffffffffffffffffffffffffffffffffffffff16815260200190815260200160002060008282546103dd9190611ced565b925050819055505b6001600281111561041f577f4e487b7100000000000000000000000000000000000000000000000000000000600052602160045260246000fd5b600560019054906101000a900460ff166002811115610467577f4e487b7100000000000000000000000000000000000000000000000000000000600052602160045260246000fd5b14156105cd5769065a4da25d3016c00000346004546104869190611ced565b11156104c7576040517f08c379a00000000000000000000000000000000000000000000000000000000081526004016104be90611bc5565b60405180910390fd5b683635c9adc5dea0000034600260003373ffffffffffffffffffffffffffffffffffffffff1673ffffffffffffffffffffffffffffffffffffffff1681526020019081526020016000205461051c9190611ced565b111561055d576040517f08c379a000000000000000000000000000000000000000000000000000000000815260040161055490611b65565b60405180910390fd5b346004600082825461056f9190611ced565b9250508190555034600260003373ffffffffffffffffffffffffffffffffffffffff1673ffffffffffffffffffffffffffffffffffffffff16815260200190815260200160002060008282546105c59190611ced565b925050819055505b600280811115610606577f4e487b7100000000000000000000000000000000000000000000000000000000600052602160045260246000fd5b600560019054906101000a900460ff16600281111561064e577f4e487b7100000000000000000000000000000000000000000000000000000000600052602160045260246000fd5b141561071e5769065a4da25d3016c000003460045461066d9190611ced565b11156106ae576040517f08c379a00000000000000000000000000000000000000000000000000000000081526004016106a590611bc5565b60405180910390fd5b34600460008282546106c09190611ced565b9250508190555034600260003373ffffffffffffffffffffffffffffffffffffffff1673ffffffffffffffffffffffffffffffffffffffff16815260200190815260200160002060008282546107169190611ced565b925050819055505b005b600080fd5b34801561073157600080fd5b5061074c60048036038101906107479190611678565b610934565b6040516107599190611c65565b60405180910390f35b34801561076e57600080fd5b506107896004803603810190610784919061171e565b61094c565b005b34801561079757600080fd5b506107a06109e5565b6040516107ad9190611a2f565b60405180910390f35b3480156107c257600080fd5b506107cb6109f8565b005b3480156107d957600080fd5b506107f460048036038101906107ef91906116dd565b610a80565b005b34801561080257600080fd5b5061080b610c79565b60405161081891906119eb565b60405180910390f35b34801561082d57600080fd5b50610836610ca2565b6040516108439190611c65565b60405180910390f35b34801561085857600080fd5b50610873600480360381019061086e9190611678565b610ca8565b6040516108809190611a2f565b60405180910390f35b34801561089557600080fd5b5061089e610cc8565b6040516108ab9190611a4a565b60405180910390f35b3480156108c057600080fd5b506108c9610cdb565b005b3480156108d757600080fd5b506108f260048036038101906108ed91906116a1565b610ec1565b005b34801561090057600080fd5b50610909611169565b005b34801561091757600080fd5b50610932600480360381019061092d9190611678565b6113df565b005b60026020528060005260406000206000915090505481565b6109546114d7565b73ffffffffffffffffffffffffffffffffffffffff16610972610c79565b73ffffffffffffffffffffffffffffffffffffffff16146109c8576040517f08c379a00000000000000000000000000000000000000000000000000000000081526004016109bf90611b05565b60405180910390fd5b80600560006101000a81548160ff02191690831515021790555050565b600560009054906101000a900460ff1681565b610a006114d7565b73ffffffffffffffffffffffffffffffffffffffff16610a1e610c79565b73ffffffffffffffffffffffffffffffffffffffff1614610a74576040517f08c379a0000000000000000000000000000000000000000000000000000000008152600401610a6b90611b05565b60405180910390fd5b610a7e60006114df565b565b610a886114d7565b73ffffffffffffffffffffffffffffffffffffffff16610aa6610c79565b73ffffffffffffffffffffffffffffffffffffffff1614610afc576040517f08c379a0000000000000000000000000000000000000000000000000000000008152600401610af390611b05565b60405180910390fd5b60006002811115610b36577f4e487b7100000000000000000000000000000000000000000000000000000000600052602160045260246000fd5b600560019054906101000a900460ff166002811115610b7e577f4e487b7100000000000000000000000000000000000000000000000000000000600052602160045260246000fd5b14610bbe576040517f08c379a0000000000000000000000000000000000000000000000000000000008152600401610bb590611c25565b60405180910390fd5b60005b8151811015610c7557600160036000848481518110610c09577f4e487b7100000000000000000000000000000000000000000000000000000000600052603260045260246000fd5b602002602001015173ffffffffffffffffffffffffffffffffffffffff1673ffffffffffffffffffffffffffffffffffffffff16815260200190815260200160002060006101000a81548160ff0219169083151502179055508080610c6d90611e3b565b915050610bc1565b5050565b60008060009054906101000a900473ffffffffffffffffffffffffffffffffffffffff16905090565b60045481565b60036020528060005260406000206000915054906101000a900460ff1681565b600560019054906101000a900460ff1681565b600280811115610d14577f4e487b7100000000000000000000000000000000000000000000000000000000600052602160045260246000fd5b600560019054906101000a900460ff166002811115610d5c577f4e487b7100000000000000000000000000000000000000000000000000000000600052602160045260246000fd5b14610d9c576040517f08c379a0000000000000000000000000000000000000000000000000000000008152600401610d9390611ae5565b60405180910390fd5b6000600260003373ffffffffffffffffffffffffffffffffffffffff1673ffffffffffffffffffffffffffffffffffffffff16815260200190815260200160002054905060008111610e23576040517f08c379a0000000000000000000000000000000000000000000000000000000008152600401610e1a90611ba5565b60405180910390fd5b600160009054906101000a900473ffffffffffffffffffffffffffffffffffffffff1673ffffffffffffffffffffffffffffffffffffffff16639b6d40a433600584610e6f9190611d43565b6040518363ffffffff1660e01b8152600401610e8c929190611a06565b600060405180830381600087803b158015610ea657600080fd5b505af1158015610eba573d6000803e3d6000fd5b5050505050565b610ec96114d7565b73ffffffffffffffffffffffffffffffffffffffff16610ee7610c79565b73ffffffffffffffffffffffffffffffffffffffff1614610f3d576040517f08c379a0000000000000000000000000000000000000000000000000000000008152600401610f3490611b05565b60405180910390fd5b60008111610f80576040517f08c379a0000000000000000000000000000000000000000000000000000000008152600401610f7790611be5565b60405180910390fd5b600073ffffffffffffffffffffffffffffffffffffffff168273ffffffffffffffffffffffffffffffffffffffff161415610ff0576040517f08c379a0000000000000000000000000000000000000000000000000000000008152600401610fe790611ac5565b60405180910390fd5b600280811115611029577f4e487b7100000000000000000000000000000000000000000000000000000000600052602160045260246000fd5b600560019054906101000a900460ff166002811115611071577f4e487b7100000000000000000000000000000000000000000000000000000000600052602160045260246000fd5b146110b1576040517f08c379a00000000000000000000000000000000000000000000000000000000081526004016110a890611ae5565b60405180910390fd5b60008273ffffffffffffffffffffffffffffffffffffffff16826040516110d7906119d6565b60006040518083038185875af1925050503d8060008114611114576040519150601f19603f3d011682016040523d82523d6000602084013e611119565b606091505b505090506001151581151514611164576040517f08c379a000000000000000000000000000000000000000000000000000000000815260040161115b90611c05565b60405180910390fd5b505050565b6111716114d7565b73ffffffffffffffffffffffffffffffffffffffff1661118f610c79565b73ffffffffffffffffffffffffffffffffffffffff16146111e5576040517f08c379a00000000000000000000000000000000000000000000000000000000081526004016111dc90611b05565b60405180910390fd5b6000600281111561121f577f4e487b7100000000000000000000000000000000000000000000000000000000600052602160045260246000fd5b600560019054906101000a900460ff166002811115611267577f4e487b7100000000000000000000000000000000000000000000000000000000600052602160045260246000fd5b14156112c3576001600560016101000a81548160ff021916908360028111156112b9577f4e487b7100000000000000000000000000000000000000000000000000000000600052602160045260246000fd5b02179055506113dd565b600160028111156112fd577f4e487b7100000000000000000000000000000000000000000000000000000000600052602160045260246000fd5b600560019054906101000a900460ff166002811115611345577f4e487b7100000000000000000000000000000000000000000000000000000000600052602160045260246000fd5b14156113a1576002600560016101000a81548160ff02191690836002811115611397577f4e487b7100000000000000000000000000000000000000000000000000000000600052602160045260246000fd5b02179055506113dc565b6040517f08c379a00000000000000000000000000000000000000000000000000000000081526004016113d390611b25565b60405180910390fd5b5b565b6113e76114d7565b73ffffffffffffffffffffffffffffffffffffffff16611405610c79565b73ffffffffffffffffffffffffffffffffffffffff161461145b576040517f08c379a000000000000000000000000000000000000000000000000000000000815260040161145290611b05565b60405180910390fd5b600073ffffffffffffffffffffffffffffffffffffffff168173ffffffffffffffffffffffffffffffffffffffff1614156114cb576040517f08c379a00000000000000000000000000000000000000000000000000000000081526004016114c290611a85565b60405180910390fd5b6114d4816114df565b50565b600033905090565b60008060009054906101000a900473ffffffffffffffffffffffffffffffffffffffff169050816000806101000a81548173ffffffffffffffffffffffffffffffffffffffff021916908373ffffffffffffffffffffffffffffffffffffffff1602179055508173ffffffffffffffffffffffffffffffffffffffff168173ffffffffffffffffffffffffffffffffffffffff167f8be0079c531659141344cd1fd0a4f28419497f9722a3daafe3b4186f6b6457e060405160405180910390a35050565b60006115b66115b184611ca5565b611c80565b905080838252602082019050828560208602820111156115d557600080fd5b60005b8581101561160557816115eb888261160f565b8452602084019350602083019250506001810190506115d8565b5050509392505050565b60008135905061161e816122d3565b92915050565b600082601f83011261163557600080fd5b81356116458482602086016115a3565b91505092915050565b60008135905061165d816122ea565b92915050565b60008135905061167281612301565b92915050565b60006020828403121561168a57600080fd5b60006116988482850161160f565b91505092915050565b600080604083850312156116b457600080fd5b60006116c28582860161160f565b92505060206116d385828601611663565b9150509250929050565b6000602082840312156116ef57600080fd5b600082013567ffffffffffffffff81111561170957600080fd5b61171584828501611624565b91505092915050565b60006020828403121561173057600080fd5b600061173e8482850161164e565b91505092915050565b61175081611d9d565b82525050565b61175f81611daf565b82525050565b61176e81611df8565b82525050565b6000611781602583611cdc565b915061178c82611f22565b604082019050919050565b60006117a4602683611cdc565b91506117af82611f71565b604082019050919050565b60006117c7600d83611cdc565b91506117d282611fc0565b602082019050919050565b60006117ea601e83611cdc565b91506117f582611fe9565b602082019050919050565b600061180d602083611cdc565b915061181882612012565b602082019050919050565b6000611830602083611cdc565b915061183b8261203b565b602082019050919050565b6000611853601483611cdc565b915061185e82612064565b602082019050919050565b6000611876602383611cdc565b91506118818261208d565b604082019050919050565b6000611899603083611cdc565b91506118a4826120dc565b604082019050919050565b60006118bc603083611cdc565b91506118c78261212b565b604082019050919050565b60006118df601a83611cdc565b91506118ea8261217a565b602082019050919050565b6000611902600083611cd1565b915061190d826121a3565b600082019050919050565b6000611925602b83611cdc565b9150611930826121a6565b604082019050919050565b6000611948601283611cdc565b9150611953826121f5565b602082019050919050565b600061196b600f83611cdc565b91506119768261221e565b602082019050919050565b600061198e602883611cdc565b915061199982612247565b604082019050919050565b60006119b1601083611cdc565b91506119bc82612296565b602082019050919050565b6119d081611dee565b82525050565b60006119e1826118f5565b9150819050919050565b6000602082019050611a006000830184611747565b92915050565b6000604082019050611a1b6000830185611747565b611a2860208301846119c7565b9392505050565b6000602082019050611a446000830184611756565b92915050565b6000602082019050611a5f6000830184611765565b92915050565b60006020820190508181036000830152611a7e81611774565b9050919050565b60006020820190508181036000830152611a9e81611797565b9050919050565b60006020820190508181036000830152611abe816117ba565b9050919050565b60006020820190508181036000830152611ade816117dd565b9050919050565b60006020820190508181036000830152611afe81611800565b9050919050565b60006020820190508181036000830152611b1e81611823565b9050919050565b60006020820190508181036000830152611b3e81611846565b9050919050565b60006020820190508181036000830152611b5e81611869565b9050919050565b60006020820190508181036000830152611b7e8161188c565b9050919050565b60006020820190508181036000830152611b9e816118af565b9050919050565b60006020820190508181036000830152611bbe816118d2565b9050919050565b60006020820190508181036000830152611bde81611918565b9050919050565b60006020820190508181036000830152611bfe8161193b565b9050919050565b60006020820190508181036000830152611c1e8161195e565b9050919050565b60006020820190508181036000830152611c3e81611981565b9050919050565b60006020820190508181036000830152611c5e816119a4565b9050919050565b6000602082019050611c7a60008301846119c7565b92915050565b6000611c8a611c9b565b9050611c968282611e0a565b919050565b6000604051905090565b600067ffffffffffffffff821115611cc057611cbf611ee2565b5b602082029050602081019050919050565b600081905092915050565b600082825260208201905092915050565b6000611cf882611dee565b9150611d0383611dee565b9250827fffffffffffffffffffffffffffffffffffffffffffffffffffffffffffffffff03821115611d3857611d37611e84565b5b828201905092915050565b6000611d4e82611dee565b9150611d5983611dee565b9250817fffffffffffffffffffffffffffffffffffffffffffffffffffffffffffffffff0483118215151615611d9257611d91611e84565b5b828202905092915050565b6000611da882611dce565b9050919050565b60008115159050919050565b6000819050611dc9826122bf565b919050565b600073ffffffffffffffffffffffffffffffffffffffff82169050919050565b6000819050919050565b6000611e0382611dbb565b9050919050565b611e1382611f11565b810181811067ffffffffffffffff82111715611e3257611e31611ee2565b5b80604052505050565b6000611e4682611dee565b91507fffffffffffffffffffffffffffffffffffffffffffffffffffffffffffffffff821415611e7957611e78611e84565b5b600182019050919050565b7f4e487b7100000000000000000000000000000000000000000000000000000000600052601160045260246000fd5b7f4e487b7100000000000000000000000000000000000000000000000000000000600052602160045260246000fd5b7f4e487b7100000000000000000000000000000000000000000000000000000000600052604160045260246000fd5b6000601f19601f8301169050919050565b7f61646472657373206e6f742077686974656c697374656420666f72207365656460008201527f2073616c65000000000000000000000000000000000000000000000000000000602082015250565b7f4f776e61626c653a206e6577206f776e657220697320746865207a65726f206160008201527f6464726573730000000000000000000000000000000000000000000000000000602082015250565b7f49434f2069732070617573656400000000000000000000000000000000000000600082015250565b7f616464726573732830292063616e6e6f7420626520726563697069656e740000600082015250565b7f63616e6e6f7420776974686472617720756e74696c207068617365206f70656e600082015250565b7f4f776e61626c653a2063616c6c6572206973206e6f7420746865206f776e6572600082015250565b7f49434f20697320696e207068617365206f70656e000000000000000000000000600082015250565b7f7365656420706861736520676f616c2063616e6e6f742062652073757270617360008201527f7365640000000000000000000000000000000000000000000000000000000000602082015250565b7f616d6f756e7420776f756c64206265206d6f7265207468616e2031303030206560008201527f7468657220636f6e747269627574656400000000000000000000000000000000602082015250565b7f616d6f756e7420776f756c64206265206d6f7265207468616e2031353030206560008201527f7468657220636f6e747269627574656400000000000000000000000000000000602082015250565b7f6e6f2062616c616e6365206f6e20746869732061646472657373000000000000600082015250565b50565b7f333030303020657468657220636f6e74726962757465642063616e6e6f74206260008201527f6520737572706173736564000000000000000000000000000000000000000000602082015250565b7f616d6f756e742063616e6e6f7420626520300000000000000000000000000000600082015250565b7f7472616e73666572206661696c65640000000000000000000000000000000000600082015250565b7f77686974656c69737420697320697272656c6576616e7420616674657220736560008201527f6564207068617365000000000000000000000000000000000000000000000000602082015250565b7f6e6f7420656e6f75676820657468657200000000000000000000000000000000600082015250565b600381106122d0576122cf611eb3565b5b50565b6122dc81611d9d565b81146122e757600080fd5b50565b6122f381611daf565b81146122fe57600080fd5b50565b61230a81611dee565b811461231557600080fd5b5056fea264697066735822122076d4567ace136e32f6d7b5a68ae49fa85260176f23de6eabe3ae11eb1ddf6f8064736f6c63430008040033",
  "linkReferences": {},
  "deployedLinkReferences": {}
}