{
  "_format": "hh-sol-artifact-1",
  "contractName": "ICO",
  "sourceName": "contracts/ICO.sol",
  "abi": [
    {
      "inputs": [
        {
          "internalType": "address payable",
          "name": "treasuryContract",
          "type": "address"
        }
      ],
      "stateMutability": "nonpayable",
      "type": "constructor"
    },
    {
      "anonymous": false,
      "inputs": [
        {
          "indexed": true,
          "internalType": "address",
          "name": "previousOwner",
          "type": "address"
        },
        {
          "indexed": true,
          "internalType": "address",
          "name": "newOwner",
          "type": "address"
        }
      ],
      "name": "OwnershipTransferred",
      "type": "event"
    },
    {
      "inputs": [
        {
          "internalType": "address[]",
          "name": "privateInvestors",
          "type": "address[]"
        }
      ],
      "name": "addToWhitelist",
      "outputs": [],
      "stateMutability": "nonpayable",
      "type": "function"
    },
    {
      "inputs": [
        {
          "internalType": "address",
          "name": "",
          "type": "address"
        }
      ],
      "name": "balances",
      "outputs": [
        {
          "internalType": "uint256",
          "name": "",
          "type": "uint256"
        }
      ],
      "stateMutability": "view",
      "type": "function"
    },
    {
      "inputs": [],
      "name": "changePhase",
      "outputs": [],
      "stateMutability": "nonpayable",
      "type": "function"
    },
    {
      "inputs": [],
      "name": "owner",
      "outputs": [
        {
          "internalType": "address",
          "name": "",
          "type": "address"
        }
      ],
      "stateMutability": "view",
      "type": "function"
    },
    {
      "inputs": [],
      "name": "paused",
      "outputs": [
        {
          "internalType": "bool",
          "name": "",
          "type": "bool"
        }
      ],
      "stateMutability": "view",
      "type": "function"
    },
    {
      "inputs": [],
      "name": "phase",
      "outputs": [
        {
          "internalType": "enum ICO.phases",
          "name": "",
          "type": "uint8"
        }
      ],
      "stateMutability": "view",
      "type": "function"
    },
    {
      "inputs": [],
      "name": "redeem",
      "outputs": [],
      "stateMutability": "nonpayable",
      "type": "function"
    },
    {
      "inputs": [],
      "name": "renounceOwnership",
      "outputs": [],
      "stateMutability": "nonpayable",
      "type": "function"
    },
    {
      "inputs": [
        {
          "internalType": "bool",
          "name": "state",
          "type": "bool"
        }
      ],
      "name": "togglePause",
      "outputs": [],
      "stateMutability": "nonpayable",
      "type": "function"
    },
    {
      "inputs": [],
      "name": "totalFunds",
      "outputs": [
        {
          "internalType": "uint256",
          "name": "",
          "type": "uint256"
        }
      ],
      "stateMutability": "view",
      "type": "function"
    },
    {
      "inputs": [
        {
          "internalType": "address",
          "name": "newOwner",
          "type": "address"
        }
      ],
      "name": "transferOwnership",
      "outputs": [],
      "stateMutability": "nonpayable",
      "type": "function"
    },
    {
      "inputs": [
        {
          "internalType": "address",
          "name": "",
          "type": "address"
        }
      ],
      "name": "whitelist",
      "outputs": [
        {
          "internalType": "bool",
          "name": "",
          "type": "bool"
        }
      ],
      "stateMutability": "view",
      "type": "function"
    },
    {
      "stateMutability": "payable",
      "type": "receive"
    }
  ],
  "bytecode": "0x60806040523480156200001157600080fd5b5060405162002141380380620021418339818101604052810190620000379190620001d4565b620000576200004b620000f160201b60201c565b620000f960201b60201c565b6000600560016101000a81548160ff02191690836002811115620000a4577f4e487b7100000000000000000000000000000000000000000000000000000000600052602160045260246000fd5b021790555080600160006101000a81548173ffffffffffffffffffffffffffffffffffffffff021916908373ffffffffffffffffffffffffffffffffffffffff160217905550506200024e565b600033905090565b60008060009054906101000a900473ffffffffffffffffffffffffffffffffffffffff169050816000806101000a81548173ffffffffffffffffffffffffffffffffffffffff021916908373ffffffffffffffffffffffffffffffffffffffff1602179055508173ffffffffffffffffffffffffffffffffffffffff168173ffffffffffffffffffffffffffffffffffffffff167f8be0079c531659141344cd1fd0a4f28419497f9722a3daafe3b4186f6b6457e060405160405180910390a35050565b600081519050620001ce8162000234565b92915050565b600060208284031215620001e757600080fd5b6000620001f784828501620001bd565b91505092915050565b60006200020d8262000214565b9050919050565b600073ffffffffffffffffffffffffffffffffffffffff82169050919050565b6200023f8162000200565b81146200024b57600080fd5b50565b611ee3806200025e6000396000f3fe6080604052600436106100ab5760003560e01c8063968ed60011610064578063968ed600146108065780639b19251a14610831578063b1c9fe6e1461086e578063be040fb014610899578063db6f5953146108b0578063f2fde38b146108c757610705565b806327e235e31461070a57806357d159c6146107475780635c975abb14610770578063715018a61461079b5780637f649783146107b25780638da5cb5b146107db57610705565b3661070557662386f26fc1000034116100f9576040517f08c379a00000000000000000000000000000000000000000000000000000000081526004016100f09061181a565b60405180910390fd5b60001515600560009054906101000a900460ff1615151461014f576040517f08c379a0000000000000000000000000000000000000000000000000000000008152600401610146906116da565b60405180910390fd5b60006002811115610189577f4e487b7100000000000000000000000000000000000000000000000000000000600052602160045260246000fd5b600560019054906101000a900460ff1660028111156101d1577f4e487b7100000000000000000000000000000000000000000000000000000000600052602160045260246000fd5b14156103ca5769032d26d12e980b600000346004546101f091906118b7565b1115610231576040517f08c379a00000000000000000000000000000000000000000000000000000000081526004016102289061175a565b60405180910390fd5b60011515600360003373ffffffffffffffffffffffffffffffffffffffff1673ffffffffffffffffffffffffffffffffffffffff16815260200190815260200160002060009054906101000a900460ff161515146102c4576040517f08c379a00000000000000000000000000000000000000000000000000000000081526004016102bb9061169a565b60405180910390fd5b685150ae84a8cdf0000034600260003373ffffffffffffffffffffffffffffffffffffffff1673ffffffffffffffffffffffffffffffffffffffff1681526020019081526020016000205461031991906118b7565b111561035a576040517f08c379a00000000000000000000000000000000000000000000000000000000081526004016103519061179a565b60405180910390fd5b346004600082825461036c91906118b7565b9250508190555034600260003373ffffffffffffffffffffffffffffffffffffffff1673ffffffffffffffffffffffffffffffffffffffff16815260200190815260200160002060008282546103c291906118b7565b925050819055505b60016002811115610404577f4e487b7100000000000000000000000000000000000000000000000000000000600052602160045260246000fd5b600560019054906101000a900460ff16600281111561044c577f4e487b7100000000000000000000000000000000000000000000000000000000600052602160045260246000fd5b14156105b25769065a4da25d3016c000003460045461046b91906118b7565b11156104ac576040517f08c379a00000000000000000000000000000000000000000000000000000000081526004016104a3906117da565b60405180910390fd5b683635c9adc5dea0000034600260003373ffffffffffffffffffffffffffffffffffffffff1673ffffffffffffffffffffffffffffffffffffffff1681526020019081526020016000205461050191906118b7565b1115610542576040517f08c379a00000000000000000000000000000000000000000000000000000000081526004016105399061177a565b60405180910390fd5b346004600082825461055491906118b7565b9250508190555034600260003373ffffffffffffffffffffffffffffffffffffffff1673ffffffffffffffffffffffffffffffffffffffff16815260200190815260200160002060008282546105aa91906118b7565b925050819055505b6002808111156105eb577f4e487b7100000000000000000000000000000000000000000000000000000000600052602160045260246000fd5b600560019054906101000a900460ff166002811115610633577f4e487b7100000000000000000000000000000000000000000000000000000000600052602160045260246000fd5b14156107035769065a4da25d3016c000003460045461065291906118b7565b1115610693576040517f08c379a000000000000000000000000000000000000000000000000000000000815260040161068a906117da565b60405180910390fd5b34600460008282546106a591906118b7565b9250508190555034600260003373ffffffffffffffffffffffffffffffffffffffff1673ffffffffffffffffffffffffffffffffffffffff16815260200190815260200160002060008282546106fb91906118b7565b925050819055505b005b600080fd5b34801561071657600080fd5b50610731600480360381019061072c919061138a565b6108f0565b60405161073e919061183a565b60405180910390f35b34801561075357600080fd5b5061076e600480360381019061076991906113f4565b610908565b005b34801561077c57600080fd5b506107856109a1565b6040516107929190611664565b60405180910390f35b3480156107a757600080fd5b506107b06109b4565b005b3480156107be57600080fd5b506107d960048036038101906107d491906113b3565b610a3c565b005b3480156107e757600080fd5b506107f0610c35565b6040516107fd9190611620565b60405180910390f35b34801561081257600080fd5b5061081b610c5e565b604051610828919061183a565b60405180910390f35b34801561083d57600080fd5b506108586004803603810190610853919061138a565b610c64565b6040516108659190611664565b60405180910390f35b34801561087a57600080fd5b50610883610c84565b604051610890919061167f565b60405180910390f35b3480156108a557600080fd5b506108ae610c97565b005b3480156108bc57600080fd5b506108c5610e90565b005b3480156108d357600080fd5b506108ee60048036038101906108e9919061138a565b611106565b005b60026020528060005260406000206000915090505481565b6109106111fe565b73ffffffffffffffffffffffffffffffffffffffff1661092e610c35565b73ffffffffffffffffffffffffffffffffffffffff1614610984576040517f08c379a000000000000000000000000000000000000000000000000000000000815260040161097b9061171a565b60405180910390fd5b80600560006101000a81548160ff02191690831515021790555050565b600560009054906101000a900460ff1681565b6109bc6111fe565b73ffffffffffffffffffffffffffffffffffffffff166109da610c35565b73ffffffffffffffffffffffffffffffffffffffff1614610a30576040517f08c379a0000000000000000000000000000000000000000000000000000000008152600401610a279061171a565b60405180910390fd5b610a3a6000611206565b565b610a446111fe565b73ffffffffffffffffffffffffffffffffffffffff16610a62610c35565b73ffffffffffffffffffffffffffffffffffffffff1614610ab8576040517f08c379a0000000000000000000000000000000000000000000000000000000008152600401610aaf9061171a565b60405180910390fd5b60006002811115610af2577f4e487b7100000000000000000000000000000000000000000000000000000000600052602160045260246000fd5b600560019054906101000a900460ff166002811115610b3a577f4e487b7100000000000000000000000000000000000000000000000000000000600052602160045260246000fd5b14610b7a576040517f08c379a0000000000000000000000000000000000000000000000000000000008152600401610b71906117fa565b60405180910390fd5b60005b8151811015610c3157600160036000848481518110610bc5577f4e487b7100000000000000000000000000000000000000000000000000000000600052603260045260246000fd5b602002602001015173ffffffffffffffffffffffffffffffffffffffff1673ffffffffffffffffffffffffffffffffffffffff16815260200190815260200160002060006101000a81548160ff0219169083151502179055508080610c2990611a36565b915050610b7d565b5050565b60008060009054906101000a900473ffffffffffffffffffffffffffffffffffffffff16905090565b60045481565b60036020528060005260406000206000915054906101000a900460ff1681565b600560019054906101000a900460ff1681565b600280811115610cd0577f4e487b7100000000000000000000000000000000000000000000000000000000600052602160045260246000fd5b600560019054906101000a900460ff166002811115610d18577f4e487b7100000000000000000000000000000000000000000000000000000000600052602160045260246000fd5b14610d58576040517f08c379a0000000000000000000000000000000000000000000000000000000008152600401610d4f906116fa565b60405180910390fd5b6000600260003373ffffffffffffffffffffffffffffffffffffffff1673ffffffffffffffffffffffffffffffffffffffff16815260200190815260200160002054905060008111610ddf576040517f08c379a0000000000000000000000000000000000000000000000000000000008152600401610dd6906117ba565b60405180910390fd5b600160009054906101000a900473ffffffffffffffffffffffffffffffffffffffff1673ffffffffffffffffffffffffffffffffffffffff16639b6d40a4336005670de0b6b3a764000085610e34919061190d565b610e3e919061193e565b6040518363ffffffff1660e01b8152600401610e5b92919061163b565b600060405180830381600087803b158015610e7557600080fd5b505af1158015610e89573d6000803e3d6000fd5b5050505050565b610e986111fe565b73ffffffffffffffffffffffffffffffffffffffff16610eb6610c35565b73ffffffffffffffffffffffffffffffffffffffff1614610f0c576040517f08c379a0000000000000000000000000000000000000000000000000000000008152600401610f039061171a565b60405180910390fd5b60006002811115610f46577f4e487b7100000000000000000000000000000000000000000000000000000000600052602160045260246000fd5b600560019054906101000a900460ff166002811115610f8e577f4e487b7100000000000000000000000000000000000000000000000000000000600052602160045260246000fd5b1415610fea576001600560016101000a81548160ff02191690836002811115610fe0577f4e487b7100000000000000000000000000000000000000000000000000000000600052602160045260246000fd5b0217905550611104565b60016002811115611024577f4e487b7100000000000000000000000000000000000000000000000000000000600052602160045260246000fd5b600560019054906101000a900460ff16600281111561106c577f4e487b7100000000000000000000000000000000000000000000000000000000600052602160045260246000fd5b14156110c8576002600560016101000a81548160ff021916908360028111156110be577f4e487b7100000000000000000000000000000000000000000000000000000000600052602160045260246000fd5b0217905550611103565b6040517f08c379a00000000000000000000000000000000000000000000000000000000081526004016110fa9061173a565b60405180910390fd5b5b565b61110e6111fe565b73ffffffffffffffffffffffffffffffffffffffff1661112c610c35565b73ffffffffffffffffffffffffffffffffffffffff1614611182576040517f08c379a00000000000000000000000000000000000000000000000000000000081526004016111799061171a565b60405180910390fd5b600073ffffffffffffffffffffffffffffffffffffffff168173ffffffffffffffffffffffffffffffffffffffff1614156111f2576040517f08c379a00000000000000000000000000000000000000000000000000000000081526004016111e9906116ba565b60405180910390fd5b6111fb81611206565b50565b600033905090565b60008060009054906101000a900473ffffffffffffffffffffffffffffffffffffffff169050816000806101000a81548173ffffffffffffffffffffffffffffffffffffffff021916908373ffffffffffffffffffffffffffffffffffffffff1602179055508173ffffffffffffffffffffffffffffffffffffffff168173ffffffffffffffffffffffffffffffffffffffff167f8be0079c531659141344cd1fd0a4f28419497f9722a3daafe3b4186f6b6457e060405160405180910390a35050565b60006112dd6112d88461187a565b611855565b905080838252602082019050828560208602820111156112fc57600080fd5b60005b8581101561132c57816113128882611336565b8452602084019350602083019250506001810190506112ff565b5050509392505050565b60008135905061134581611e7f565b92915050565b600082601f83011261135c57600080fd5b813561136c8482602086016112ca565b91505092915050565b60008135905061138481611e96565b92915050565b60006020828403121561139c57600080fd5b60006113aa84828501611336565b91505092915050565b6000602082840312156113c557600080fd5b600082013567ffffffffffffffff8111156113df57600080fd5b6113eb8482850161134b565b91505092915050565b60006020828403121561140657600080fd5b600061141484828501611375565b91505092915050565b61142681611998565b82525050565b611435816119aa565b82525050565b611444816119f3565b82525050565b60006114576025836118a6565b915061146282611b4c565b604082019050919050565b600061147a6026836118a6565b915061148582611b9b565b604082019050919050565b600061149d600d836118a6565b91506114a882611bea565b602082019050919050565b60006114c06020836118a6565b91506114cb82611c13565b602082019050919050565b60006114e36020836118a6565b91506114ee82611c3c565b602082019050919050565b60006115066014836118a6565b915061151182611c65565b602082019050919050565b60006115296023836118a6565b915061153482611c8e565b604082019050919050565b600061154c6030836118a6565b915061155782611cdd565b604082019050919050565b600061156f6030836118a6565b915061157a82611d2c565b604082019050919050565b6000611592601a836118a6565b915061159d82611d7b565b602082019050919050565b60006115b5602b836118a6565b91506115c082611da4565b604082019050919050565b60006115d86028836118a6565b91506115e382611df3565b604082019050919050565b60006115fb6010836118a6565b915061160682611e42565b602082019050919050565b61161a816119e9565b82525050565b6000602082019050611635600083018461141d565b92915050565b6000604082019050611650600083018561141d565b61165d6020830184611611565b9392505050565b6000602082019050611679600083018461142c565b92915050565b6000602082019050611694600083018461143b565b92915050565b600060208201905081810360008301526116b38161144a565b9050919050565b600060208201905081810360008301526116d38161146d565b9050919050565b600060208201905081810360008301526116f381611490565b9050919050565b60006020820190508181036000830152611713816114b3565b9050919050565b60006020820190508181036000830152611733816114d6565b9050919050565b60006020820190508181036000830152611753816114f9565b9050919050565b600060208201905081810360008301526117738161151c565b9050919050565b600060208201905081810360008301526117938161153f565b9050919050565b600060208201905081810360008301526117b381611562565b9050919050565b600060208201905081810360008301526117d381611585565b9050919050565b600060208201905081810360008301526117f3816115a8565b9050919050565b60006020820190508181036000830152611813816115cb565b9050919050565b60006020820190508181036000830152611833816115ee565b9050919050565b600060208201905061184f6000830184611611565b92915050565b600061185f611870565b905061186b8282611a05565b919050565b6000604051905090565b600067ffffffffffffffff82111561189557611894611b0c565b5b602082029050602081019050919050565b600082825260208201905092915050565b60006118c2826119e9565b91506118cd836119e9565b9250827fffffffffffffffffffffffffffffffffffffffffffffffffffffffffffffffff0382111561190257611901611a7f565b5b828201905092915050565b6000611918826119e9565b9150611923836119e9565b92508261193357611932611aae565b5b828204905092915050565b6000611949826119e9565b9150611954836119e9565b9250817fffffffffffffffffffffffffffffffffffffffffffffffffffffffffffffffff048311821515161561198d5761198c611a7f565b5b828202905092915050565b60006119a3826119c9565b9050919050565b60008115159050919050565b60008190506119c482611e6b565b919050565b600073ffffffffffffffffffffffffffffffffffffffff82169050919050565b6000819050919050565b60006119fe826119b6565b9050919050565b611a0e82611b3b565b810181811067ffffffffffffffff82111715611a2d57611a2c611b0c565b5b80604052505050565b6000611a41826119e9565b91507fffffffffffffffffffffffffffffffffffffffffffffffffffffffffffffffff821415611a7457611a73611a7f565b5b600182019050919050565b7f4e487b7100000000000000000000000000000000000000000000000000000000600052601160045260246000fd5b7f4e487b7100000000000000000000000000000000000000000000000000000000600052601260045260246000fd5b7f4e487b7100000000000000000000000000000000000000000000000000000000600052602160045260246000fd5b7f4e487b7100000000000000000000000000000000000000000000000000000000600052604160045260246000fd5b6000601f19601f8301169050919050565b7f61646472657373206e6f742077686974656c697374656420666f72207365656460008201527f2073616c65000000000000000000000000000000000000000000000000000000602082015250565b7f4f776e61626c653a206e6577206f776e657220697320746865207a65726f206160008201527f6464726573730000000000000000000000000000000000000000000000000000602082015250565b7f49434f2069732070617573656400000000000000000000000000000000000000600082015250565b7f63616e6e6f7420776974686472617720756e74696c207068617365206f70656e600082015250565b7f4f776e61626c653a2063616c6c6572206973206e6f7420746865206f776e6572600082015250565b7f49434f20697320696e207068617365206f70656e000000000000000000000000600082015250565b7f7365656420706861736520676f616c2063616e6e6f742062652073757270617360008201527f7365640000000000000000000000000000000000000000000000000000000000602082015250565b7f616d6f756e7420776f756c64206265206d6f7265207468616e2031303030206560008201527f7468657220636f6e747269627574656400000000000000000000000000000000602082015250565b7f616d6f756e7420776f756c64206265206d6f7265207468616e2031353030206560008201527f7468657220636f6e747269627574656400000000000000000000000000000000602082015250565b7f6e6f2062616c616e6365206f6e20746869732061646472657373000000000000600082015250565b7f333030303020657468657220636f6e74726962757465642063616e6e6f74206260008201527f6520737572706173736564000000000000000000000000000000000000000000602082015250565b7f77686974656c69737420697320697272656c6576616e7420616674657220736560008201527f6564207068617365000000000000000000000000000000000000000000000000602082015250565b7f6e6f7420656e6f75676820657468657200000000000000000000000000000000600082015250565b60038110611e7c57611e7b611add565b5b50565b611e8881611998565b8114611e9357600080fd5b50565b611e9f816119aa565b8114611eaa57600080fd5b5056fea26469706673582212202eca2ac21d9bbacc07fb0be29f38c89e88adf737a0c9bb07cb981b7c8fc2b4c064736f6c63430008040033",
  "linkReferences": {},
  "deployedLinkReferences": {}
}