{
  "_format": "hh-sol-artifact-1",
  "contractName": "TomatoToken",
  "sourceName": "contracts/TomatoToken.sol",
  "abi": [
    {
      "inputs": [
        {
          "internalType": "address payable",
          "name": "treasuryAddress",
          "type": "address"
        }
      ],
      "stateMutability": "nonpayable",
      "type": "constructor"
    },
    {
      "anonymous": false,
      "inputs": [
        {
          "indexed": true,
          "internalType": "address",
          "name": "owner",
          "type": "address"
        },
        {
          "indexed": true,
          "internalType": "address",
          "name": "spender",
          "type": "address"
        },
        {
          "indexed": false,
          "internalType": "uint256",
          "name": "value",
          "type": "uint256"
        }
      ],
      "name": "Approval",
      "type": "event"
    },
    {
      "anonymous": false,
      "inputs": [
        {
          "indexed": true,
          "internalType": "address",
          "name": "previousOwner",
          "type": "address"
        },
        {
          "indexed": true,
          "internalType": "address",
          "name": "newOwner",
          "type": "address"
        }
      ],
      "name": "OwnershipTransferred",
      "type": "event"
    },
    {
      "anonymous": false,
      "inputs": [
        {
          "indexed": true,
          "internalType": "address",
          "name": "from",
          "type": "address"
        },
        {
          "indexed": true,
          "internalType": "address",
          "name": "to",
          "type": "address"
        },
        {
          "indexed": false,
          "internalType": "uint256",
          "name": "value",
          "type": "uint256"
        }
      ],
      "name": "Transfer",
      "type": "event"
    },
    {
      "inputs": [
        {
          "internalType": "address",
          "name": "owner",
          "type": "address"
        },
        {
          "internalType": "address",
          "name": "spender",
          "type": "address"
        }
      ],
      "name": "allowance",
      "outputs": [
        {
          "internalType": "uint256",
          "name": "",
          "type": "uint256"
        }
      ],
      "stateMutability": "view",
      "type": "function"
    },
    {
      "inputs": [
        {
          "internalType": "address",
          "name": "spender",
          "type": "address"
        },
        {
          "internalType": "uint256",
          "name": "amount",
          "type": "uint256"
        }
      ],
      "name": "approve",
      "outputs": [
        {
          "internalType": "bool",
          "name": "",
          "type": "bool"
        }
      ],
      "stateMutability": "nonpayable",
      "type": "function"
    },
    {
      "inputs": [
        {
          "internalType": "address",
          "name": "account",
          "type": "address"
        }
      ],
      "name": "balanceOf",
      "outputs": [
        {
          "internalType": "uint256",
          "name": "",
          "type": "uint256"
        }
      ],
      "stateMutability": "view",
      "type": "function"
    },
    {
      "inputs": [],
      "name": "decimals",
      "outputs": [
        {
          "internalType": "uint8",
          "name": "",
          "type": "uint8"
        }
      ],
      "stateMutability": "view",
      "type": "function"
    },
    {
      "inputs": [
        {
          "internalType": "address",
          "name": "spender",
          "type": "address"
        },
        {
          "internalType": "uint256",
          "name": "subtractedValue",
          "type": "uint256"
        }
      ],
      "name": "decreaseAllowance",
      "outputs": [
        {
          "internalType": "bool",
          "name": "",
          "type": "bool"
        }
      ],
      "stateMutability": "nonpayable",
      "type": "function"
    },
    {
      "inputs": [],
      "name": "ico",
      "outputs": [
        {
          "internalType": "address payable",
          "name": "",
          "type": "address"
        }
      ],
      "stateMutability": "view",
      "type": "function"
    },
    {
      "inputs": [
        {
          "internalType": "address",
          "name": "spender",
          "type": "address"
        },
        {
          "internalType": "uint256",
          "name": "addedValue",
          "type": "uint256"
        }
      ],
      "name": "increaseAllowance",
      "outputs": [
        {
          "internalType": "bool",
          "name": "",
          "type": "bool"
        }
      ],
      "stateMutability": "nonpayable",
      "type": "function"
    },
    {
      "inputs": [
        {
          "internalType": "address",
          "name": "to",
          "type": "address"
        },
        {
          "internalType": "uint256",
          "name": "amount",
          "type": "uint256"
        }
      ],
      "name": "mint",
      "outputs": [],
      "stateMutability": "nonpayable",
      "type": "function"
    },
    {
      "inputs": [],
      "name": "name",
      "outputs": [
        {
          "internalType": "string",
          "name": "",
          "type": "string"
        }
      ],
      "stateMutability": "view",
      "type": "function"
    },
    {
      "inputs": [],
      "name": "owner",
      "outputs": [
        {
          "internalType": "address",
          "name": "",
          "type": "address"
        }
      ],
      "stateMutability": "view",
      "type": "function"
    },
    {
      "inputs": [],
      "name": "renounceOwnership",
      "outputs": [],
      "stateMutability": "nonpayable",
      "type": "function"
    },
    {
      "inputs": [
        {
          "internalType": "address payable",
          "name": "treasuryAddress",
          "type": "address"
        }
      ],
      "name": "setTreasury",
      "outputs": [],
      "stateMutability": "nonpayable",
      "type": "function"
    },
    {
      "inputs": [],
      "name": "symbol",
      "outputs": [
        {
          "internalType": "string",
          "name": "",
          "type": "string"
        }
      ],
      "stateMutability": "view",
      "type": "function"
    },
    {
      "inputs": [],
      "name": "tax",
      "outputs": [
        {
          "internalType": "bool",
          "name": "",
          "type": "bool"
        }
      ],
      "stateMutability": "view",
      "type": "function"
    },
    {
      "inputs": [
        {
          "internalType": "bool",
          "name": "state",
          "type": "bool"
        }
      ],
      "name": "toggleTax",
      "outputs": [],
      "stateMutability": "nonpayable",
      "type": "function"
    },
    {
      "inputs": [],
      "name": "totalSupply",
      "outputs": [
        {
          "internalType": "uint256",
          "name": "",
          "type": "uint256"
        }
      ],
      "stateMutability": "view",
      "type": "function"
    },
    {
      "inputs": [
        {
          "internalType": "address",
          "name": "recipient",
          "type": "address"
        },
        {
          "internalType": "uint256",
          "name": "amount",
          "type": "uint256"
        }
      ],
      "name": "transfer",
      "outputs": [
        {
          "internalType": "bool",
          "name": "",
          "type": "bool"
        }
      ],
      "stateMutability": "nonpayable",
      "type": "function"
    },
    {
      "inputs": [
        {
          "internalType": "address",
          "name": "sender",
          "type": "address"
        },
        {
          "internalType": "address",
          "name": "recipient",
          "type": "address"
        },
        {
          "internalType": "uint256",
          "name": "amount",
          "type": "uint256"
        }
      ],
      "name": "transferFrom",
      "outputs": [
        {
          "internalType": "bool",
          "name": "",
          "type": "bool"
        }
      ],
      "stateMutability": "nonpayable",
      "type": "function"
    },
    {
      "inputs": [
        {
          "internalType": "address",
          "name": "newOwner",
          "type": "address"
        }
      ],
      "name": "transferOwnership",
      "outputs": [],
      "stateMutability": "nonpayable",
      "type": "function"
    },
    {
      "inputs": [],
      "name": "treasury",
      "outputs": [
        {
          "internalType": "address payable",
          "name": "",
          "type": "address"
        }
      ],
      "stateMutability": "view",
      "type": "function"
    },
    {
      "inputs": [],
      "name": "treasuryTaxBalance",
      "outputs": [
        {
          "internalType": "uint256",
          "name": "",
          "type": "uint256"
        }
      ],
      "stateMutability": "view",
      "type": "function"
    },
    {
      "inputs": [],
      "name": "withdrawTreasury",
      "outputs": [],
      "stateMutability": "nonpayable",
      "type": "function"
    }
  ],
  "bytecode": "0x60806040523480156200001157600080fd5b506040516200303e3803806200303e833981810160405281019062000037919062000737565b6040518060400160405280600681526020017f546f6d61746f00000000000000000000000000000000000000000000000000008152506040518060400160405280600381526020017f544d5400000000000000000000000000000000000000000000000000000000008152508160039080519060200190620000bb92919062000670565b508060049080519060200190620000d492919062000670565b505050620000f7620000eb6200018b60201b60201c565b6200019360201b60201c565b62000108816200025960201b60201c565b62000169600660009054906101000a900473ffffffffffffffffffffffffffffffffffffffff166200013f6200039f60201b60201c565b600a6200014d91906200097e565b6207a1206200015d919062000abb565b620003a860201b60201c565b6001600960006101000a81548160ff0219169083151502179055505062000cc6565b600033905090565b6000600560009054906101000a900473ffffffffffffffffffffffffffffffffffffffff16905081600560006101000a81548173ffffffffffffffffffffffffffffffffffffffff021916908373ffffffffffffffffffffffffffffffffffffffff1602179055508173ffffffffffffffffffffffffffffffffffffffff168173ffffffffffffffffffffffffffffffffffffffff167f8be0079c531659141344cd1fd0a4f28419497f9722a3daafe3b4186f6b6457e060405160405180910390a35050565b620002696200018b60201b60201c565b73ffffffffffffffffffffffffffffffffffffffff166200028f620004b960201b60201c565b73ffffffffffffffffffffffffffffffffffffffff1614620002e8576040517f08c379a0000000000000000000000000000000000000000000000000000000008152600401620002df9062000832565b60405180910390fd5b600073ffffffffffffffffffffffffffffffffffffffff168173ffffffffffffffffffffffffffffffffffffffff1614156200035b576040517f08c379a0000000000000000000000000000000000000000000000000000000008152600401620003529062000876565b60405180910390fd5b80600660006101000a81548173ffffffffffffffffffffffffffffffffffffffff021916908373ffffffffffffffffffffffffffffffffffffffff16021790555050565b60006012905090565b620003b86200018b60201b60201c565b73ffffffffffffffffffffffffffffffffffffffff16620003de620004b960201b60201c565b73ffffffffffffffffffffffffffffffffffffffff161462000437576040517f08c379a00000000000000000000000000000000000000000000000000000000081526004016200042e9062000832565b60405180910390fd5b6969e10de76676d08000008162000453620004e360201b60201c565b6200045f9190620008c6565b1115620004a3576040517f08c379a00000000000000000000000000000000000000000000000000000000081526004016200049a9062000810565b60405180910390fd5b620004b58282620004ed60201b60201c565b5050565b6000600560009054906101000a900473ffffffffffffffffffffffffffffffffffffffff16905090565b6000600254905090565b600073ffffffffffffffffffffffffffffffffffffffff168273ffffffffffffffffffffffffffffffffffffffff16141562000560576040517f08c379a0000000000000000000000000000000000000000000000000000000008152600401620005579062000854565b60405180910390fd5b62000574600083836200066660201b60201c565b8060026000828254620005889190620008c6565b92505081905550806000808473ffffffffffffffffffffffffffffffffffffffff1673ffffffffffffffffffffffffffffffffffffffff1681526020019081526020016000206000828254620005df9190620008c6565b925050819055508173ffffffffffffffffffffffffffffffffffffffff16600073ffffffffffffffffffffffffffffffffffffffff167fddf252ad1be2c89b69c2b068fc378daa952ba7f163c4a11628f55a4df523b3ef8360405162000646919062000898565b60405180910390a362000662600083836200066b60201b60201c565b5050565b505050565b505050565b8280546200067e9062000b67565b90600052602060002090601f016020900481019282620006a25760008555620006ee565b82601f10620006bd57805160ff1916838001178555620006ee565b82800160010185558215620006ee579182015b82811115620006ed578251825591602001919060010190620006d0565b5b509050620006fd919062000701565b5090565b5b808211156200071c57600081600090555060010162000702565b5090565b600081519050620007318162000cac565b92915050565b6000602082840312156200074a57600080fd5b60006200075a8482850162000720565b91505092915050565b600062000772602083620008b5565b91506200077f8262000c08565b602082019050919050565b600062000799602083620008b5565b9150620007a68262000c31565b602082019050919050565b6000620007c0601f83620008b5565b9150620007cd8262000c5a565b602082019050919050565b6000620007e7601d83620008b5565b9150620007f48262000c83565b602082019050919050565b6200080a8162000b50565b82525050565b600060208201905081810360008301526200082b8162000763565b9050919050565b600060208201905081810360008301526200084d816200078a565b9050919050565b600060208201905081810360008301526200086f81620007b1565b9050919050565b600060208201905081810360008301526200089181620007d8565b9050919050565b6000602082019050620008af6000830184620007ff565b92915050565b600082825260208201905092915050565b6000620008d38262000b50565b9150620008e08362000b50565b9250827fffffffffffffffffffffffffffffffffffffffffffffffffffffffffffffffff0382111562000918576200091762000b9d565b5b828201905092915050565b6000808291508390505b600185111562000975578086048111156200094d576200094c62000b9d565b5b60018516156200095d5780820291505b80810290506200096d8562000bfb565b94506200092d565b94509492505050565b60006200098b8262000b50565b9150620009988362000b5a565b9250620009c77fffffffffffffffffffffffffffffffffffffffffffffffffffffffffffffffff8484620009cf565b905092915050565b600082620009e1576001905062000ab4565b81620009f1576000905062000ab4565b816001811462000a0a576002811462000a155762000a4b565b600191505062000ab4565b60ff84111562000a2a5762000a2962000b9d565b5b8360020a91508482111562000a445762000a4362000b9d565b5b5062000ab4565b5060208310610133831016604e8410600b841016171562000a855782820a90508381111562000a7f5762000a7e62000b9d565b5b62000ab4565b62000a94848484600162000923565b9250905081840481111562000aae5762000aad62000b9d565b5b81810290505b9392505050565b600062000ac88262000b50565b915062000ad58362000b50565b9250817fffffffffffffffffffffffffffffffffffffffffffffffffffffffffffffffff048311821515161562000b115762000b1062000b9d565b5b828202905092915050565b600062000b298262000b30565b9050919050565b600073ffffffffffffffffffffffffffffffffffffffff82169050919050565b6000819050919050565b600060ff82169050919050565b6000600282049050600182168062000b8057607f821691505b6020821081141562000b975762000b9662000bcc565b5b50919050565b7f4e487b7100000000000000000000000000000000000000000000000000000000600052601160045260246000fd5b7f4e487b7100000000000000000000000000000000000000000000000000000000600052602260045260246000fd5b60008160011c9050919050565b7f6d696e74696e6720776f756c642073757270617373206d617820737570706c79600082015250565b7f4f776e61626c653a2063616c6c6572206973206e6f7420746865206f776e6572600082015250565b7f45524332303a206d696e7420746f20746865207a65726f206164647265737300600082015250565b7f74726561737572792063616e6e6f742062652061646472657373283029000000600082015250565b62000cb78162000b1c565b811462000cc357600080fd5b50565b6123688062000cd66000396000f3fe608060405234801561001057600080fd5b50600436106101425760003560e01c806370a08231116100b857806399c8d5561161007c57806399c8d55614610343578063a457c2d714610361578063a9059cbb14610391578063dd62ed3e146103c1578063f0f44260146103f1578063f2fde38b1461040d57610142565b806370a08231146102af578063715018a6146102df5780638da5cb5b146102e95780638e4a371a1461030757806395d89b411461032557610142565b8063313ce5671161010a578063313ce567146101ed578063395093511461020b5780633cfd52111461023b57806340c10f19146102575780635d4522011461027357806361d027b31461029157610142565b806306fdde0314610147578063095ea7b314610165578063166bab951461019557806318160ddd1461019f57806323b872dd146101bd575b600080fd5b61014f610429565b60405161015c9190611a6c565b60405180910390f35b61017f600480360381019061017a9190611725565b6104bb565b60405161018c9190611a51565b60405180910390f35b61019d6104d9565b005b6101a76105e5565b6040516101b49190611c6e565b60405180910390f35b6101d760048036038101906101d291906116d6565b6105ef565b6040516101e49190611a51565b60405180910390f35b6101f56106e7565b6040516102029190611c89565b60405180910390f35b61022560048036038101906102209190611725565b6106f0565b6040516102329190611a51565b60405180910390f35b61025560048036038101906102509190611761565b61079c565b005b610271600480360381019061026c9190611725565b610835565b005b61027b61091e565b6040516102889190611a36565b60405180910390f35b610299610944565b6040516102a69190611a36565b60405180910390f35b6102c960048036038101906102c49190611648565b61096a565b6040516102d69190611c6e565b60405180910390f35b6102e76109b2565b005b6102f1610a3a565b6040516102fe9190611a1b565b60405180910390f35b61030f610a64565b60405161031c9190611c6e565b60405180910390f35b61032d610a6a565b60405161033a9190611a6c565b60405180910390f35b61034b610afc565b6040516103589190611a51565b60405180910390f35b61037b60048036038101906103769190611725565b610b0f565b6040516103889190611a51565b60405180910390f35b6103ab60048036038101906103a69190611725565b610bfa565b6040516103b89190611a51565b60405180910390f35b6103db60048036038101906103d6919061169a565b610cc1565b6040516103e89190611c6e565b60405180910390f35b61040b60048036038101906104069190611671565b610d48565b005b61042760048036038101906104229190611648565b610e78565b005b60606003805461043890611e6f565b80601f016020809104026020016040519081016040528092919081815260200182805461046490611e6f565b80156104b15780601f10610486576101008083540402835291602001916104b1565b820191906000526020600020905b81548152906001019060200180831161049457829003601f168201915b5050505050905090565b60006104cf6104c8610f70565b8484610f78565b6001905092915050565b600660009054906101000a900473ffffffffffffffffffffffffffffffffffffffff1673ffffffffffffffffffffffffffffffffffffffff163373ffffffffffffffffffffffffffffffffffffffff1614610569576040517f08c379a000000000000000000000000000000000000000000000000000000000815260040161056090611b4e565b60405180910390fd5b6000610599600660009054906101000a900473ffffffffffffffffffffffffffffffffffffffff16600854610bfa565b905060011515811515146105e2576040517f08c379a00000000000000000000000000000000000000000000000000000000081526004016105d990611bee565b60405180910390fd5b50565b6000600254905090565b60006105fc848484611143565b6000600160008673ffffffffffffffffffffffffffffffffffffffff1673ffffffffffffffffffffffffffffffffffffffff1681526020019081526020016000206000610647610f70565b73ffffffffffffffffffffffffffffffffffffffff1673ffffffffffffffffffffffffffffffffffffffff168152602001908152602001600020549050828110156106c7576040517f08c379a00000000000000000000000000000000000000000000000000000000081526004016106be90611b6e565b60405180910390fd5b6106db856106d3610f70565b858403610f78565b60019150509392505050565b60006012905090565b60006107926106fd610f70565b84846001600061070b610f70565b73ffffffffffffffffffffffffffffffffffffffff1673ffffffffffffffffffffffffffffffffffffffff16815260200190815260200160002060008873ffffffffffffffffffffffffffffffffffffffff1673ffffffffffffffffffffffffffffffffffffffff1681526020019081526020016000205461078d9190611cc0565b610f78565b6001905092915050565b6107a4610f70565b73ffffffffffffffffffffffffffffffffffffffff166107c2610a3a565b73ffffffffffffffffffffffffffffffffffffffff1614610818576040517f08c379a000000000000000000000000000000000000000000000000000000000815260040161080f90611b8e565b60405180910390fd5b80600960006101000a81548160ff02191690831515021790555050565b61083d610f70565b73ffffffffffffffffffffffffffffffffffffffff1661085b610a3a565b73ffffffffffffffffffffffffffffffffffffffff16146108b1576040517f08c379a00000000000000000000000000000000000000000000000000000000081526004016108a890611b8e565b60405180910390fd5b6969e10de76676d0800000816108c56105e5565b6108cf9190611cc0565b1115610910576040517f08c379a000000000000000000000000000000000000000000000000000000000815260040161090790611aee565b60405180910390fd5b61091a82826113c4565b5050565b600760009054906101000a900473ffffffffffffffffffffffffffffffffffffffff1681565b600660009054906101000a900473ffffffffffffffffffffffffffffffffffffffff1681565b60008060008373ffffffffffffffffffffffffffffffffffffffff1673ffffffffffffffffffffffffffffffffffffffff168152602001908152602001600020549050919050565b6109ba610f70565b73ffffffffffffffffffffffffffffffffffffffff166109d8610a3a565b73ffffffffffffffffffffffffffffffffffffffff1614610a2e576040517f08c379a0000000000000000000000000000000000000000000000000000000008152600401610a2590611b8e565b60405180910390fd5b610a386000611524565b565b6000600560009054906101000a900473ffffffffffffffffffffffffffffffffffffffff16905090565b60085481565b606060048054610a7990611e6f565b80601f0160208091040260200160405190810160405280929190818152602001828054610aa590611e6f565b8015610af25780601f10610ac757610100808354040283529160200191610af2565b820191906000526020600020905b815481529060010190602001808311610ad557829003601f168201915b5050505050905090565b600960009054906101000a900460ff1681565b60008060016000610b1e610f70565b73ffffffffffffffffffffffffffffffffffffffff1673ffffffffffffffffffffffffffffffffffffffff16815260200190815260200160002060008573ffffffffffffffffffffffffffffffffffffffff1673ffffffffffffffffffffffffffffffffffffffff16815260200190815260200160002054905082811015610bdb576040517f08c379a0000000000000000000000000000000000000000000000000000000008152600401610bd290611c0e565b60405180910390fd5b610bef610be6610f70565b85858403610f78565b600191505092915050565b6000808211610c3e576040517f08c379a0000000000000000000000000000000000000000000000000000000008152600401610c3590611b2e565b60405180910390fd5b600960009054906101000a900460ff1615610cab5760006064600284610c649190611d47565b610c6e9190611d16565b905060008184610c7e9190611da1565b90508160086000828254610c929190611cc0565b92505081905550610ca4338683611143565b5050610cb7565b610cb6338484611143565b5b6001905092915050565b6000600160008473ffffffffffffffffffffffffffffffffffffffff1673ffffffffffffffffffffffffffffffffffffffff16815260200190815260200160002060008373ffffffffffffffffffffffffffffffffffffffff1673ffffffffffffffffffffffffffffffffffffffff16815260200190815260200160002054905092915050565b610d50610f70565b73ffffffffffffffffffffffffffffffffffffffff16610d6e610a3a565b73ffffffffffffffffffffffffffffffffffffffff1614610dc4576040517f08c379a0000000000000000000000000000000000000000000000000000000008152600401610dbb90611b8e565b60405180910390fd5b600073ffffffffffffffffffffffffffffffffffffffff168173ffffffffffffffffffffffffffffffffffffffff161415610e34576040517f08c379a0000000000000000000000000000000000000000000000000000000008152600401610e2b90611c4e565b60405180910390fd5b80600660006101000a81548173ffffffffffffffffffffffffffffffffffffffff021916908373ffffffffffffffffffffffffffffffffffffffff16021790555050565b610e80610f70565b73ffffffffffffffffffffffffffffffffffffffff16610e9e610a3a565b73ffffffffffffffffffffffffffffffffffffffff1614610ef4576040517f08c379a0000000000000000000000000000000000000000000000000000000008152600401610eeb90611b8e565b60405180910390fd5b600073ffffffffffffffffffffffffffffffffffffffff168173ffffffffffffffffffffffffffffffffffffffff161415610f64576040517f08c379a0000000000000000000000000000000000000000000000000000000008152600401610f5b90611aae565b60405180910390fd5b610f6d81611524565b50565b600033905090565b600073ffffffffffffffffffffffffffffffffffffffff168373ffffffffffffffffffffffffffffffffffffffff161415610fe8576040517f08c379a0000000000000000000000000000000000000000000000000000000008152600401610fdf90611bce565b60405180910390fd5b600073ffffffffffffffffffffffffffffffffffffffff168273ffffffffffffffffffffffffffffffffffffffff161415611058576040517f08c379a000000000000000000000000000000000000000000000000000000000815260040161104f90611ace565b60405180910390fd5b80600160008573ffffffffffffffffffffffffffffffffffffffff1673ffffffffffffffffffffffffffffffffffffffff16815260200190815260200160002060008473ffffffffffffffffffffffffffffffffffffffff1673ffffffffffffffffffffffffffffffffffffffff168152602001908152602001600020819055508173ffffffffffffffffffffffffffffffffffffffff168373ffffffffffffffffffffffffffffffffffffffff167f8c5be1e5ebec7d5bd14f71427d1e84f3dd0314c0f7b2291e5b200ac8c7c3b925836040516111369190611c6e565b60405180910390a3505050565b600073ffffffffffffffffffffffffffffffffffffffff168373ffffffffffffffffffffffffffffffffffffffff1614156111b3576040517f08c379a00000000000000000000000000000000000000000000000000000000081526004016111aa90611bae565b60405180910390fd5b600073ffffffffffffffffffffffffffffffffffffffff168273ffffffffffffffffffffffffffffffffffffffff161415611223576040517f08c379a000000000000000000000000000000000000000000000000000000000815260040161121a90611a8e565b60405180910390fd5b61122e8383836115ea565b60008060008573ffffffffffffffffffffffffffffffffffffffff1673ffffffffffffffffffffffffffffffffffffffff168152602001908152602001600020549050818110156112b4576040517f08c379a00000000000000000000000000000000000000000000000000000000081526004016112ab90611b0e565b60405180910390fd5b8181036000808673ffffffffffffffffffffffffffffffffffffffff1673ffffffffffffffffffffffffffffffffffffffff16815260200190815260200160002081905550816000808573ffffffffffffffffffffffffffffffffffffffff1673ffffffffffffffffffffffffffffffffffffffff16815260200190815260200160002060008282546113479190611cc0565b925050819055508273ffffffffffffffffffffffffffffffffffffffff168473ffffffffffffffffffffffffffffffffffffffff167fddf252ad1be2c89b69c2b068fc378daa952ba7f163c4a11628f55a4df523b3ef846040516113ab9190611c6e565b60405180910390a36113be8484846115ef565b50505050565b600073ffffffffffffffffffffffffffffffffffffffff168273ffffffffffffffffffffffffffffffffffffffff161415611434576040517f08c379a000000000000000000000000000000000000000000000000000000000815260040161142b90611c2e565b60405180910390fd5b611440600083836115ea565b80600260008282546114529190611cc0565b92505081905550806000808473ffffffffffffffffffffffffffffffffffffffff1673ffffffffffffffffffffffffffffffffffffffff16815260200190815260200160002060008282546114a79190611cc0565b925050819055508173ffffffffffffffffffffffffffffffffffffffff16600073ffffffffffffffffffffffffffffffffffffffff167fddf252ad1be2c89b69c2b068fc378daa952ba7f163c4a11628f55a4df523b3ef8360405161150c9190611c6e565b60405180910390a3611520600083836115ef565b5050565b6000600560009054906101000a900473ffffffffffffffffffffffffffffffffffffffff16905081600560006101000a81548173ffffffffffffffffffffffffffffffffffffffff021916908373ffffffffffffffffffffffffffffffffffffffff1602179055508173ffffffffffffffffffffffffffffffffffffffff168173ffffffffffffffffffffffffffffffffffffffff167f8be0079c531659141344cd1fd0a4f28419497f9722a3daafe3b4186f6b6457e060405160405180910390a35050565b505050565b505050565b600081359050611603816122d6565b92915050565b600081359050611618816122ed565b92915050565b60008135905061162d81612304565b92915050565b6000813590506116428161231b565b92915050565b60006020828403121561165a57600080fd5b6000611668848285016115f4565b91505092915050565b60006020828403121561168357600080fd5b600061169184828501611609565b91505092915050565b600080604083850312156116ad57600080fd5b60006116bb858286016115f4565b92505060206116cc858286016115f4565b9150509250929050565b6000806000606084860312156116eb57600080fd5b60006116f9868287016115f4565b935050602061170a868287016115f4565b925050604061171b86828701611633565b9150509250925092565b6000806040838503121561173857600080fd5b6000611746858286016115f4565b925050602061175785828601611633565b9150509250929050565b60006020828403121561177357600080fd5b60006117818482850161161e565b91505092915050565b61179381611de7565b82525050565b6117a281611dd5565b82525050565b6117b181611df9565b82525050565b60006117c282611ca4565b6117cc8185611caf565b93506117dc818560208601611e3c565b6117e581611f2e565b840191505092915050565b60006117fd602383611caf565b915061180882611f3f565b604082019050919050565b6000611820602683611caf565b915061182b82611f8e565b604082019050919050565b6000611843602283611caf565b915061184e82611fdd565b604082019050919050565b6000611866602083611caf565b91506118718261202c565b602082019050919050565b6000611889602683611caf565b915061189482612055565b604082019050919050565b60006118ac601d83611caf565b91506118b7826120a4565b602082019050919050565b60006118cf601a83611caf565b91506118da826120cd565b602082019050919050565b60006118f2602883611caf565b91506118fd826120f6565b604082019050919050565b6000611915602083611caf565b915061192082612145565b602082019050919050565b6000611938602583611caf565b91506119438261216e565b604082019050919050565b600061195b602483611caf565b9150611966826121bd565b604082019050919050565b600061197e600f83611caf565b91506119898261220c565b602082019050919050565b60006119a1602583611caf565b91506119ac82612235565b604082019050919050565b60006119c4601f83611caf565b91506119cf82612284565b602082019050919050565b60006119e7601d83611caf565b91506119f2826122ad565b602082019050919050565b611a0681611e25565b82525050565b611a1581611e2f565b82525050565b6000602082019050611a306000830184611799565b92915050565b6000602082019050611a4b600083018461178a565b92915050565b6000602082019050611a6660008301846117a8565b92915050565b60006020820190508181036000830152611a8681846117b7565b905092915050565b60006020820190508181036000830152611aa7816117f0565b9050919050565b60006020820190508181036000830152611ac781611813565b9050919050565b60006020820190508181036000830152611ae781611836565b9050919050565b60006020820190508181036000830152611b0781611859565b9050919050565b60006020820190508181036000830152611b278161187c565b9050919050565b60006020820190508181036000830152611b478161189f565b9050919050565b60006020820190508181036000830152611b67816118c2565b9050919050565b60006020820190508181036000830152611b87816118e5565b9050919050565b60006020820190508181036000830152611ba781611908565b9050919050565b60006020820190508181036000830152611bc78161192b565b9050919050565b60006020820190508181036000830152611be78161194e565b9050919050565b60006020820190508181036000830152611c0781611971565b9050919050565b60006020820190508181036000830152611c2781611994565b9050919050565b60006020820190508181036000830152611c47816119b7565b9050919050565b60006020820190508181036000830152611c67816119da565b9050919050565b6000602082019050611c8360008301846119fd565b92915050565b6000602082019050611c9e6000830184611a0c565b92915050565b600081519050919050565b600082825260208201905092915050565b6000611ccb82611e25565b9150611cd683611e25565b9250827fffffffffffffffffffffffffffffffffffffffffffffffffffffffffffffffff03821115611d0b57611d0a611ea1565b5b828201905092915050565b6000611d2182611e25565b9150611d2c83611e25565b925082611d3c57611d3b611ed0565b5b828204905092915050565b6000611d5282611e25565b9150611d5d83611e25565b9250817fffffffffffffffffffffffffffffffffffffffffffffffffffffffffffffffff0483118215151615611d9657611d95611ea1565b5b828202905092915050565b6000611dac82611e25565b9150611db783611e25565b925082821015611dca57611dc9611ea1565b5b828203905092915050565b6000611de082611e05565b9050919050565b6000611df282611e05565b9050919050565b60008115159050919050565b600073ffffffffffffffffffffffffffffffffffffffff82169050919050565b6000819050919050565b600060ff82169050919050565b60005b83811015611e5a578082015181840152602081019050611e3f565b83811115611e69576000848401525b50505050565b60006002820490506001821680611e8757607f821691505b60208210811415611e9b57611e9a611eff565b5b50919050565b7f4e487b7100000000000000000000000000000000000000000000000000000000600052601160045260246000fd5b7f4e487b7100000000000000000000000000000000000000000000000000000000600052601260045260246000fd5b7f4e487b7100000000000000000000000000000000000000000000000000000000600052602260045260246000fd5b6000601f19601f8301169050919050565b7f45524332303a207472616e7366657220746f20746865207a65726f206164647260008201527f6573730000000000000000000000000000000000000000000000000000000000602082015250565b7f4f776e61626c653a206e6577206f776e657220697320746865207a65726f206160008201527f6464726573730000000000000000000000000000000000000000000000000000602082015250565b7f45524332303a20617070726f766520746f20746865207a65726f20616464726560008201527f7373000000000000000000000000000000000000000000000000000000000000602082015250565b7f6d696e74696e6720776f756c642073757270617373206d617820737570706c79600082015250565b7f45524332303a207472616e7366657220616d6f756e742065786365656473206260008201527f616c616e63650000000000000000000000000000000000000000000000000000602082015250565b7f616d6f756e74206d7573742062652067726561746572207468616e2030000000600082015250565b7f6d73672e73656e646572206973206e6f74207472656173757279000000000000600082015250565b7f45524332303a207472616e7366657220616d6f756e742065786365656473206160008201527f6c6c6f77616e6365000000000000000000000000000000000000000000000000602082015250565b7f4f776e61626c653a2063616c6c6572206973206e6f7420746865206f776e6572600082015250565b7f45524332303a207472616e736665722066726f6d20746865207a65726f20616460008201527f6472657373000000000000000000000000000000000000000000000000000000602082015250565b7f45524332303a20617070726f76652066726f6d20746865207a65726f2061646460008201527f7265737300000000000000000000000000000000000000000000000000000000602082015250565b7f7472616e73666572206661696c65640000000000000000000000000000000000600082015250565b7f45524332303a2064656372656173656420616c6c6f77616e63652062656c6f7760008201527f207a65726f000000000000000000000000000000000000000000000000000000602082015250565b7f45524332303a206d696e7420746f20746865207a65726f206164647265737300600082015250565b7f74726561737572792063616e6e6f742062652061646472657373283029000000600082015250565b6122df81611dd5565b81146122ea57600080fd5b50565b6122f681611de7565b811461230157600080fd5b50565b61230d81611df9565b811461231857600080fd5b50565b61232481611e25565b811461232f57600080fd5b5056fea264697066735822122081e43ce712b42d969314158e2b4f0207ece4333bfdfc3cdae512b9defea8b4bf64736f6c63430008040033",
  "linkReferences": {},
  "deployedLinkReferences": {}
}