{
  "_format": "hh-sol-artifact-1",
  "contractName": "TomatoToken",
  "sourceName": "contracts/TomatoToken.sol",
  "abi": [
    {
      "inputs": [
        {
          "internalType": "address payable",
          "name": "treasuryAddress",
          "type": "address"
        }
      ],
      "stateMutability": "nonpayable",
      "type": "constructor"
    },
    {
      "anonymous": false,
      "inputs": [
        {
          "indexed": true,
          "internalType": "address",
          "name": "owner",
          "type": "address"
        },
        {
          "indexed": true,
          "internalType": "address",
          "name": "spender",
          "type": "address"
        },
        {
          "indexed": false,
          "internalType": "uint256",
          "name": "value",
          "type": "uint256"
        }
      ],
      "name": "Approval",
      "type": "event"
    },
    {
      "anonymous": false,
      "inputs": [
        {
          "indexed": true,
          "internalType": "address",
          "name": "previousOwner",
          "type": "address"
        },
        {
          "indexed": true,
          "internalType": "address",
          "name": "newOwner",
          "type": "address"
        }
      ],
      "name": "OwnershipTransferred",
      "type": "event"
    },
    {
      "anonymous": false,
      "inputs": [
        {
          "indexed": true,
          "internalType": "address",
          "name": "from",
          "type": "address"
        },
        {
          "indexed": true,
          "internalType": "address",
          "name": "to",
          "type": "address"
        },
        {
          "indexed": false,
          "internalType": "uint256",
          "name": "value",
          "type": "uint256"
        }
      ],
      "name": "Transfer",
      "type": "event"
    },
    {
      "inputs": [
        {
          "internalType": "address",
          "name": "owner",
          "type": "address"
        },
        {
          "internalType": "address",
          "name": "spender",
          "type": "address"
        }
      ],
      "name": "allowance",
      "outputs": [
        {
          "internalType": "uint256",
          "name": "",
          "type": "uint256"
        }
      ],
      "stateMutability": "view",
      "type": "function"
    },
    {
      "inputs": [
        {
          "internalType": "address",
          "name": "spender",
          "type": "address"
        },
        {
          "internalType": "uint256",
          "name": "amount",
          "type": "uint256"
        }
      ],
      "name": "approve",
      "outputs": [
        {
          "internalType": "bool",
          "name": "",
          "type": "bool"
        }
      ],
      "stateMutability": "nonpayable",
      "type": "function"
    },
    {
      "inputs": [
        {
          "internalType": "address",
          "name": "account",
          "type": "address"
        }
      ],
      "name": "balanceOf",
      "outputs": [
        {
          "internalType": "uint256",
          "name": "",
          "type": "uint256"
        }
      ],
      "stateMutability": "view",
      "type": "function"
    },
    {
      "inputs": [],
      "name": "decimals",
      "outputs": [
        {
          "internalType": "uint8",
          "name": "",
          "type": "uint8"
        }
      ],
      "stateMutability": "view",
      "type": "function"
    },
    {
      "inputs": [
        {
          "internalType": "address",
          "name": "spender",
          "type": "address"
        },
        {
          "internalType": "uint256",
          "name": "subtractedValue",
          "type": "uint256"
        }
      ],
      "name": "decreaseAllowance",
      "outputs": [
        {
          "internalType": "bool",
          "name": "",
          "type": "bool"
        }
      ],
      "stateMutability": "nonpayable",
      "type": "function"
    },
    {
      "inputs": [
        {
          "internalType": "address",
          "name": "spender",
          "type": "address"
        },
        {
          "internalType": "uint256",
          "name": "addedValue",
          "type": "uint256"
        }
      ],
      "name": "increaseAllowance",
      "outputs": [
        {
          "internalType": "bool",
          "name": "",
          "type": "bool"
        }
      ],
      "stateMutability": "nonpayable",
      "type": "function"
    },
    {
      "inputs": [
        {
          "internalType": "address",
          "name": "to",
          "type": "address"
        },
        {
          "internalType": "uint256",
          "name": "amount",
          "type": "uint256"
        }
      ],
      "name": "mint",
      "outputs": [],
      "stateMutability": "nonpayable",
      "type": "function"
    },
    {
      "inputs": [],
      "name": "name",
      "outputs": [
        {
          "internalType": "string",
          "name": "",
          "type": "string"
        }
      ],
      "stateMutability": "view",
      "type": "function"
    },
    {
      "inputs": [],
      "name": "owner",
      "outputs": [
        {
          "internalType": "address",
          "name": "",
          "type": "address"
        }
      ],
      "stateMutability": "view",
      "type": "function"
    },
    {
      "inputs": [],
      "name": "renounceOwnership",
      "outputs": [],
      "stateMutability": "nonpayable",
      "type": "function"
    },
    {
      "inputs": [
        {
          "internalType": "address payable",
          "name": "treasuryAddress",
          "type": "address"
        }
      ],
      "name": "setTreasury",
      "outputs": [],
      "stateMutability": "nonpayable",
      "type": "function"
    },
    {
      "inputs": [],
      "name": "symbol",
      "outputs": [
        {
          "internalType": "string",
          "name": "",
          "type": "string"
        }
      ],
      "stateMutability": "view",
      "type": "function"
    },
    {
      "inputs": [],
      "name": "tax",
      "outputs": [
        {
          "internalType": "bool",
          "name": "",
          "type": "bool"
        }
      ],
      "stateMutability": "view",
      "type": "function"
    },
    {
      "inputs": [
        {
          "internalType": "bool",
          "name": "state",
          "type": "bool"
        }
      ],
      "name": "toggleTax",
      "outputs": [],
      "stateMutability": "nonpayable",
      "type": "function"
    },
    {
      "inputs": [],
      "name": "totalSupply",
      "outputs": [
        {
          "internalType": "uint256",
          "name": "",
          "type": "uint256"
        }
      ],
      "stateMutability": "view",
      "type": "function"
    },
    {
      "inputs": [
        {
          "internalType": "address",
          "name": "recipient",
          "type": "address"
        },
        {
          "internalType": "uint256",
          "name": "amount",
          "type": "uint256"
        }
      ],
      "name": "transfer",
      "outputs": [
        {
          "internalType": "bool",
          "name": "",
          "type": "bool"
        }
      ],
      "stateMutability": "nonpayable",
      "type": "function"
    },
    {
      "inputs": [
        {
          "internalType": "address",
          "name": "sender",
          "type": "address"
        },
        {
          "internalType": "address",
          "name": "recipient",
          "type": "address"
        },
        {
          "internalType": "uint256",
          "name": "amount",
          "type": "uint256"
        }
      ],
      "name": "transferFrom",
      "outputs": [
        {
          "internalType": "bool",
          "name": "",
          "type": "bool"
        }
      ],
      "stateMutability": "nonpayable",
      "type": "function"
    },
    {
      "inputs": [
        {
          "internalType": "address",
          "name": "newOwner",
          "type": "address"
        }
      ],
      "name": "transferOwnership",
      "outputs": [],
      "stateMutability": "nonpayable",
      "type": "function"
    },
    {
      "inputs": [],
      "name": "treasury",
      "outputs": [
        {
          "internalType": "address payable",
          "name": "",
          "type": "address"
        }
      ],
      "stateMutability": "view",
      "type": "function"
    }
  ],
  "bytecode": "0x60806040523480156200001157600080fd5b5060405162002dae38038062002dae833981810160405281019062000037919062000737565b6040518060400160405280600681526020017f546f6d61746f00000000000000000000000000000000000000000000000000008152506040518060400160405280600381526020017f544d5400000000000000000000000000000000000000000000000000000000008152508160039080519060200190620000bb92919062000670565b508060049080519060200190620000d492919062000670565b505050620000f7620000eb6200018b60201b60201c565b6200019360201b60201c565b62000108816200025960201b60201c565b62000169600660009054906101000a900473ffffffffffffffffffffffffffffffffffffffff166200013f6200039f60201b60201c565b600a6200014d91906200097e565b6207a1206200015d919062000abb565b620003a860201b60201c565b6001600660146101000a81548160ff0219169083151502179055505062000cc6565b600033905090565b6000600560009054906101000a900473ffffffffffffffffffffffffffffffffffffffff16905081600560006101000a81548173ffffffffffffffffffffffffffffffffffffffff021916908373ffffffffffffffffffffffffffffffffffffffff1602179055508173ffffffffffffffffffffffffffffffffffffffff168173ffffffffffffffffffffffffffffffffffffffff167f8be0079c531659141344cd1fd0a4f28419497f9722a3daafe3b4186f6b6457e060405160405180910390a35050565b620002696200018b60201b60201c565b73ffffffffffffffffffffffffffffffffffffffff166200028f620004b960201b60201c565b73ffffffffffffffffffffffffffffffffffffffff1614620002e8576040517f08c379a0000000000000000000000000000000000000000000000000000000008152600401620002df9062000832565b60405180910390fd5b600073ffffffffffffffffffffffffffffffffffffffff168173ffffffffffffffffffffffffffffffffffffffff1614156200035b576040517f08c379a0000000000000000000000000000000000000000000000000000000008152600401620003529062000876565b60405180910390fd5b80600660006101000a81548173ffffffffffffffffffffffffffffffffffffffff021916908373ffffffffffffffffffffffffffffffffffffffff16021790555050565b60006012905090565b620003b86200018b60201b60201c565b73ffffffffffffffffffffffffffffffffffffffff16620003de620004b960201b60201c565b73ffffffffffffffffffffffffffffffffffffffff161462000437576040517f08c379a00000000000000000000000000000000000000000000000000000000081526004016200042e9062000832565b60405180910390fd5b6969e10de76676d08000008162000453620004e360201b60201c565b6200045f9190620008c6565b1115620004a3576040517f08c379a00000000000000000000000000000000000000000000000000000000081526004016200049a9062000810565b60405180910390fd5b620004b58282620004ed60201b60201c565b5050565b6000600560009054906101000a900473ffffffffffffffffffffffffffffffffffffffff16905090565b6000600254905090565b600073ffffffffffffffffffffffffffffffffffffffff168273ffffffffffffffffffffffffffffffffffffffff16141562000560576040517f08c379a0000000000000000000000000000000000000000000000000000000008152600401620005579062000854565b60405180910390fd5b62000574600083836200066660201b60201c565b8060026000828254620005889190620008c6565b92505081905550806000808473ffffffffffffffffffffffffffffffffffffffff1673ffffffffffffffffffffffffffffffffffffffff1681526020019081526020016000206000828254620005df9190620008c6565b925050819055508173ffffffffffffffffffffffffffffffffffffffff16600073ffffffffffffffffffffffffffffffffffffffff167fddf252ad1be2c89b69c2b068fc378daa952ba7f163c4a11628f55a4df523b3ef8360405162000646919062000898565b60405180910390a362000662600083836200066b60201b60201c565b5050565b505050565b505050565b8280546200067e9062000b67565b90600052602060002090601f016020900481019282620006a25760008555620006ee565b82601f10620006bd57805160ff1916838001178555620006ee565b82800160010185558215620006ee579182015b82811115620006ed578251825591602001919060010190620006d0565b5b509050620006fd919062000701565b5090565b5b808211156200071c57600081600090555060010162000702565b5090565b600081519050620007318162000cac565b92915050565b6000602082840312156200074a57600080fd5b60006200075a8482850162000720565b91505092915050565b600062000772602083620008b5565b91506200077f8262000c08565b602082019050919050565b600062000799602083620008b5565b9150620007a68262000c31565b602082019050919050565b6000620007c0601f83620008b5565b9150620007cd8262000c5a565b602082019050919050565b6000620007e7601d83620008b5565b9150620007f48262000c83565b602082019050919050565b6200080a8162000b50565b82525050565b600060208201905081810360008301526200082b8162000763565b9050919050565b600060208201905081810360008301526200084d816200078a565b9050919050565b600060208201905081810360008301526200086f81620007b1565b9050919050565b600060208201905081810360008301526200089181620007d8565b9050919050565b6000602082019050620008af6000830184620007ff565b92915050565b600082825260208201905092915050565b6000620008d38262000b50565b9150620008e08362000b50565b9250827fffffffffffffffffffffffffffffffffffffffffffffffffffffffffffffffff0382111562000918576200091762000b9d565b5b828201905092915050565b6000808291508390505b600185111562000975578086048111156200094d576200094c62000b9d565b5b60018516156200095d5780820291505b80810290506200096d8562000bfb565b94506200092d565b94509492505050565b60006200098b8262000b50565b9150620009988362000b5a565b9250620009c77fffffffffffffffffffffffffffffffffffffffffffffffffffffffffffffffff8484620009cf565b905092915050565b600082620009e1576001905062000ab4565b81620009f1576000905062000ab4565b816001811462000a0a576002811462000a155762000a4b565b600191505062000ab4565b60ff84111562000a2a5762000a2962000b9d565b5b8360020a91508482111562000a445762000a4362000b9d565b5b5062000ab4565b5060208310610133831016604e8410600b841016171562000a855782820a90508381111562000a7f5762000a7e62000b9d565b5b62000ab4565b62000a94848484600162000923565b9250905081840481111562000aae5762000aad62000b9d565b5b81810290505b9392505050565b600062000ac88262000b50565b915062000ad58362000b50565b9250817fffffffffffffffffffffffffffffffffffffffffffffffffffffffffffffffff048311821515161562000b115762000b1062000b9d565b5b828202905092915050565b600062000b298262000b30565b9050919050565b600073ffffffffffffffffffffffffffffffffffffffff82169050919050565b6000819050919050565b600060ff82169050919050565b6000600282049050600182168062000b8057607f821691505b6020821081141562000b975762000b9662000bcc565b5b50919050565b7f4e487b7100000000000000000000000000000000000000000000000000000000600052601160045260246000fd5b7f4e487b7100000000000000000000000000000000000000000000000000000000600052602260045260246000fd5b60008160011c9050919050565b7f6d696e74696e6720776f756c642073757270617373206d617820737570706c79600082015250565b7f4f776e61626c653a2063616c6c6572206973206e6f7420746865206f776e6572600082015250565b7f45524332303a206d696e7420746f20746865207a65726f206164647265737300600082015250565b7f74726561737572792063616e6e6f742062652061646472657373283029000000600082015250565b62000cb78162000b1c565b811462000cc357600080fd5b50565b6120d88062000cd66000396000f3fe608060405234801561001057600080fd5b50600436106101215760003560e01c806370a08231116100ad578063a457c2d711610071578063a457c2d7146102fa578063a9059cbb1461032a578063dd62ed3e1461035a578063f0f442601461038a578063f2fde38b146103a657610121565b806370a0823114610266578063715018a6146102965780638da5cb5b146102a057806395d89b41146102be57806399c8d556146102dc57610121565b8063313ce567116100f4578063313ce567146101c257806339509351146101e05780633cfd52111461021057806340c10f191461022c57806361d027b31461024857610121565b806306fdde0314610126578063095ea7b31461014457806318160ddd1461017457806323b872dd14610192575b600080fd5b61012e6103c2565b60405161013b919061186e565b60405180910390f35b61015e6004803603810190610159919061156d565b610454565b60405161016b9190611853565b60405180910390f35b61017c610472565b6040516101899190611a30565b60405180910390f35b6101ac60048036038101906101a7919061151e565b61047c565b6040516101b99190611853565b60405180910390f35b6101ca610574565b6040516101d79190611a4b565b60405180910390f35b6101fa60048036038101906101f5919061156d565b61057d565b6040516102079190611853565b60405180910390f35b61022a600480360381019061022591906115a9565b610629565b005b6102466004803603810190610241919061156d565b6106c2565b005b6102506107ab565b60405161025d9190611838565b60405180910390f35b610280600480360381019061027b9190611490565b6107d1565b60405161028d9190611a30565b60405180910390f35b61029e610819565b005b6102a86108a1565b6040516102b5919061181d565b60405180910390f35b6102c66108cb565b6040516102d3919061186e565b60405180910390f35b6102e461095d565b6040516102f19190611853565b60405180910390f35b610314600480360381019061030f919061156d565b610970565b6040516103219190611853565b60405180910390f35b610344600480360381019061033f919061156d565b610a5b565b6040516103519190611853565b60405180910390f35b610374600480360381019061036f91906114e2565b610b09565b6040516103819190611a30565b60405180910390f35b6103a4600480360381019061039f91906114b9565b610b90565b005b6103c060048036038101906103bb9190611490565b610cc0565b005b6060600380546103d190611c31565b80601f01602080910402602001604051908101604052809291908181526020018280546103fd90611c31565b801561044a5780601f1061041f5761010080835404028352916020019161044a565b820191906000526020600020905b81548152906001019060200180831161042d57829003601f168201915b5050505050905090565b6000610468610461610db8565b8484610dc0565b6001905092915050565b6000600254905090565b6000610489848484610f8b565b6000600160008673ffffffffffffffffffffffffffffffffffffffff1673ffffffffffffffffffffffffffffffffffffffff16815260200190815260200160002060006104d4610db8565b73ffffffffffffffffffffffffffffffffffffffff1673ffffffffffffffffffffffffffffffffffffffff16815260200190815260200160002054905082811015610554576040517f08c379a000000000000000000000000000000000000000000000000000000000815260040161054b90611950565b60405180910390fd5b61056885610560610db8565b858403610dc0565b60019150509392505050565b60006012905090565b600061061f61058a610db8565b848460016000610598610db8565b73ffffffffffffffffffffffffffffffffffffffff1673ffffffffffffffffffffffffffffffffffffffff16815260200190815260200160002060008873ffffffffffffffffffffffffffffffffffffffff1673ffffffffffffffffffffffffffffffffffffffff1681526020019081526020016000205461061a9190611a82565b610dc0565b6001905092915050565b610631610db8565b73ffffffffffffffffffffffffffffffffffffffff1661064f6108a1565b73ffffffffffffffffffffffffffffffffffffffff16146106a5576040517f08c379a000000000000000000000000000000000000000000000000000000000815260040161069c90611970565b60405180910390fd5b80600660146101000a81548160ff02191690831515021790555050565b6106ca610db8565b73ffffffffffffffffffffffffffffffffffffffff166106e86108a1565b73ffffffffffffffffffffffffffffffffffffffff161461073e576040517f08c379a000000000000000000000000000000000000000000000000000000000815260040161073590611970565b60405180910390fd5b6969e10de76676d080000081610752610472565b61075c9190611a82565b111561079d576040517f08c379a0000000000000000000000000000000000000000000000000000000008152600401610794906118f0565b60405180910390fd5b6107a7828261120c565b5050565b600660009054906101000a900473ffffffffffffffffffffffffffffffffffffffff1681565b60008060008373ffffffffffffffffffffffffffffffffffffffff1673ffffffffffffffffffffffffffffffffffffffff168152602001908152602001600020549050919050565b610821610db8565b73ffffffffffffffffffffffffffffffffffffffff1661083f6108a1565b73ffffffffffffffffffffffffffffffffffffffff1614610895576040517f08c379a000000000000000000000000000000000000000000000000000000000815260040161088c90611970565b60405180910390fd5b61089f600061136c565b565b6000600560009054906101000a900473ffffffffffffffffffffffffffffffffffffffff16905090565b6060600480546108da90611c31565b80601f016020809104026020016040519081016040528092919081815260200182805461090690611c31565b80156109535780601f1061092857610100808354040283529160200191610953565b820191906000526020600020905b81548152906001019060200180831161093657829003601f168201915b5050505050905090565b600660149054906101000a900460ff1681565b6000806001600061097f610db8565b73ffffffffffffffffffffffffffffffffffffffff1673ffffffffffffffffffffffffffffffffffffffff16815260200190815260200160002060008573ffffffffffffffffffffffffffffffffffffffff1673ffffffffffffffffffffffffffffffffffffffff16815260200190815260200160002054905082811015610a3c576040517f08c379a0000000000000000000000000000000000000000000000000000000008152600401610a33906119d0565b60405180910390fd5b610a50610a47610db8565b85858403610dc0565b600191505092915050565b6000808211610a9f576040517f08c379a0000000000000000000000000000000000000000000000000000000008152600401610a9690611930565b60405180910390fd5b600660149054906101000a900460ff1615610af35760006064600284610ac59190611b09565b610acf9190611ad8565b905060008184610adf9190611b63565b9050610aec338683610f8b565b5050610aff565b610afe338484610f8b565b5b6001905092915050565b6000600160008473ffffffffffffffffffffffffffffffffffffffff1673ffffffffffffffffffffffffffffffffffffffff16815260200190815260200160002060008373ffffffffffffffffffffffffffffffffffffffff1673ffffffffffffffffffffffffffffffffffffffff16815260200190815260200160002054905092915050565b610b98610db8565b73ffffffffffffffffffffffffffffffffffffffff16610bb66108a1565b73ffffffffffffffffffffffffffffffffffffffff1614610c0c576040517f08c379a0000000000000000000000000000000000000000000000000000000008152600401610c0390611970565b60405180910390fd5b600073ffffffffffffffffffffffffffffffffffffffff168173ffffffffffffffffffffffffffffffffffffffff161415610c7c576040517f08c379a0000000000000000000000000000000000000000000000000000000008152600401610c7390611a10565b60405180910390fd5b80600660006101000a81548173ffffffffffffffffffffffffffffffffffffffff021916908373ffffffffffffffffffffffffffffffffffffffff16021790555050565b610cc8610db8565b73ffffffffffffffffffffffffffffffffffffffff16610ce66108a1565b73ffffffffffffffffffffffffffffffffffffffff1614610d3c576040517f08c379a0000000000000000000000000000000000000000000000000000000008152600401610d3390611970565b60405180910390fd5b600073ffffffffffffffffffffffffffffffffffffffff168173ffffffffffffffffffffffffffffffffffffffff161415610dac576040517f08c379a0000000000000000000000000000000000000000000000000000000008152600401610da3906118b0565b60405180910390fd5b610db58161136c565b50565b600033905090565b600073ffffffffffffffffffffffffffffffffffffffff168373ffffffffffffffffffffffffffffffffffffffff161415610e30576040517f08c379a0000000000000000000000000000000000000000000000000000000008152600401610e27906119b0565b60405180910390fd5b600073ffffffffffffffffffffffffffffffffffffffff168273ffffffffffffffffffffffffffffffffffffffff161415610ea0576040517f08c379a0000000000000000000000000000000000000000000000000000000008152600401610e97906118d0565b60405180910390fd5b80600160008573ffffffffffffffffffffffffffffffffffffffff1673ffffffffffffffffffffffffffffffffffffffff16815260200190815260200160002060008473ffffffffffffffffffffffffffffffffffffffff1673ffffffffffffffffffffffffffffffffffffffff168152602001908152602001600020819055508173ffffffffffffffffffffffffffffffffffffffff168373ffffffffffffffffffffffffffffffffffffffff167f8c5be1e5ebec7d5bd14f71427d1e84f3dd0314c0f7b2291e5b200ac8c7c3b92583604051610f7e9190611a30565b60405180910390a3505050565b600073ffffffffffffffffffffffffffffffffffffffff168373ffffffffffffffffffffffffffffffffffffffff161415610ffb576040517f08c379a0000000000000000000000000000000000000000000000000000000008152600401610ff290611990565b60405180910390fd5b600073ffffffffffffffffffffffffffffffffffffffff168273ffffffffffffffffffffffffffffffffffffffff16141561106b576040517f08c379a000000000000000000000000000000000000000000000000000000000815260040161106290611890565b60405180910390fd5b611076838383611432565b60008060008573ffffffffffffffffffffffffffffffffffffffff1673ffffffffffffffffffffffffffffffffffffffff168152602001908152602001600020549050818110156110fc576040517f08c379a00000000000000000000000000000000000000000000000000000000081526004016110f390611910565b60405180910390fd5b8181036000808673ffffffffffffffffffffffffffffffffffffffff1673ffffffffffffffffffffffffffffffffffffffff16815260200190815260200160002081905550816000808573ffffffffffffffffffffffffffffffffffffffff1673ffffffffffffffffffffffffffffffffffffffff168152602001908152602001600020600082825461118f9190611a82565b925050819055508273ffffffffffffffffffffffffffffffffffffffff168473ffffffffffffffffffffffffffffffffffffffff167fddf252ad1be2c89b69c2b068fc378daa952ba7f163c4a11628f55a4df523b3ef846040516111f39190611a30565b60405180910390a3611206848484611437565b50505050565b600073ffffffffffffffffffffffffffffffffffffffff168273ffffffffffffffffffffffffffffffffffffffff16141561127c576040517f08c379a0000000000000000000000000000000000000000000000000000000008152600401611273906119f0565b60405180910390fd5b61128860008383611432565b806002600082825461129a9190611a82565b92505081905550806000808473ffffffffffffffffffffffffffffffffffffffff1673ffffffffffffffffffffffffffffffffffffffff16815260200190815260200160002060008282546112ef9190611a82565b925050819055508173ffffffffffffffffffffffffffffffffffffffff16600073ffffffffffffffffffffffffffffffffffffffff167fddf252ad1be2c89b69c2b068fc378daa952ba7f163c4a11628f55a4df523b3ef836040516113549190611a30565b60405180910390a361136860008383611437565b5050565b6000600560009054906101000a900473ffffffffffffffffffffffffffffffffffffffff16905081600560006101000a81548173ffffffffffffffffffffffffffffffffffffffff021916908373ffffffffffffffffffffffffffffffffffffffff1602179055508173ffffffffffffffffffffffffffffffffffffffff168173ffffffffffffffffffffffffffffffffffffffff167f8be0079c531659141344cd1fd0a4f28419497f9722a3daafe3b4186f6b6457e060405160405180910390a35050565b505050565b505050565b60008135905061144b81612046565b92915050565b6000813590506114608161205d565b92915050565b60008135905061147581612074565b92915050565b60008135905061148a8161208b565b92915050565b6000602082840312156114a257600080fd5b60006114b08482850161143c565b91505092915050565b6000602082840312156114cb57600080fd5b60006114d984828501611451565b91505092915050565b600080604083850312156114f557600080fd5b60006115038582860161143c565b92505060206115148582860161143c565b9150509250929050565b60008060006060848603121561153357600080fd5b60006115418682870161143c565b93505060206115528682870161143c565b92505060406115638682870161147b565b9150509250925092565b6000806040838503121561158057600080fd5b600061158e8582860161143c565b925050602061159f8582860161147b565b9150509250929050565b6000602082840312156115bb57600080fd5b60006115c984828501611466565b91505092915050565b6115db81611ba9565b82525050565b6115ea81611b97565b82525050565b6115f981611bbb565b82525050565b600061160a82611a66565b6116148185611a71565b9350611624818560208601611bfe565b61162d81611cf0565b840191505092915050565b6000611645602383611a71565b915061165082611d01565b604082019050919050565b6000611668602683611a71565b915061167382611d50565b604082019050919050565b600061168b602283611a71565b915061169682611d9f565b604082019050919050565b60006116ae602083611a71565b91506116b982611dee565b602082019050919050565b60006116d1602683611a71565b91506116dc82611e17565b604082019050919050565b60006116f4601d83611a71565b91506116ff82611e66565b602082019050919050565b6000611717602883611a71565b915061172282611e8f565b604082019050919050565b600061173a602083611a71565b915061174582611ede565b602082019050919050565b600061175d602583611a71565b915061176882611f07565b604082019050919050565b6000611780602483611a71565b915061178b82611f56565b604082019050919050565b60006117a3602583611a71565b91506117ae82611fa5565b604082019050919050565b60006117c6601f83611a71565b91506117d182611ff4565b602082019050919050565b60006117e9601d83611a71565b91506117f48261201d565b602082019050919050565b61180881611be7565b82525050565b61181781611bf1565b82525050565b600060208201905061183260008301846115e1565b92915050565b600060208201905061184d60008301846115d2565b92915050565b600060208201905061186860008301846115f0565b92915050565b6000602082019050818103600083015261188881846115ff565b905092915050565b600060208201905081810360008301526118a981611638565b9050919050565b600060208201905081810360008301526118c98161165b565b9050919050565b600060208201905081810360008301526118e98161167e565b9050919050565b60006020820190508181036000830152611909816116a1565b9050919050565b60006020820190508181036000830152611929816116c4565b9050919050565b60006020820190508181036000830152611949816116e7565b9050919050565b600060208201905081810360008301526119698161170a565b9050919050565b600060208201905081810360008301526119898161172d565b9050919050565b600060208201905081810360008301526119a981611750565b9050919050565b600060208201905081810360008301526119c981611773565b9050919050565b600060208201905081810360008301526119e981611796565b9050919050565b60006020820190508181036000830152611a09816117b9565b9050919050565b60006020820190508181036000830152611a29816117dc565b9050919050565b6000602082019050611a4560008301846117ff565b92915050565b6000602082019050611a60600083018461180e565b92915050565b600081519050919050565b600082825260208201905092915050565b6000611a8d82611be7565b9150611a9883611be7565b9250827fffffffffffffffffffffffffffffffffffffffffffffffffffffffffffffffff03821115611acd57611acc611c63565b5b828201905092915050565b6000611ae382611be7565b9150611aee83611be7565b925082611afe57611afd611c92565b5b828204905092915050565b6000611b1482611be7565b9150611b1f83611be7565b9250817fffffffffffffffffffffffffffffffffffffffffffffffffffffffffffffffff0483118215151615611b5857611b57611c63565b5b828202905092915050565b6000611b6e82611be7565b9150611b7983611be7565b925082821015611b8c57611b8b611c63565b5b828203905092915050565b6000611ba282611bc7565b9050919050565b6000611bb482611bc7565b9050919050565b60008115159050919050565b600073ffffffffffffffffffffffffffffffffffffffff82169050919050565b6000819050919050565b600060ff82169050919050565b60005b83811015611c1c578082015181840152602081019050611c01565b83811115611c2b576000848401525b50505050565b60006002820490506001821680611c4957607f821691505b60208210811415611c5d57611c5c611cc1565b5b50919050565b7f4e487b7100000000000000000000000000000000000000000000000000000000600052601160045260246000fd5b7f4e487b7100000000000000000000000000000000000000000000000000000000600052601260045260246000fd5b7f4e487b7100000000000000000000000000000000000000000000000000000000600052602260045260246000fd5b6000601f19601f8301169050919050565b7f45524332303a207472616e7366657220746f20746865207a65726f206164647260008201527f6573730000000000000000000000000000000000000000000000000000000000602082015250565b7f4f776e61626c653a206e6577206f776e657220697320746865207a65726f206160008201527f6464726573730000000000000000000000000000000000000000000000000000602082015250565b7f45524332303a20617070726f766520746f20746865207a65726f20616464726560008201527f7373000000000000000000000000000000000000000000000000000000000000602082015250565b7f6d696e74696e6720776f756c642073757270617373206d617820737570706c79600082015250565b7f45524332303a207472616e7366657220616d6f756e742065786365656473206260008201527f616c616e63650000000000000000000000000000000000000000000000000000602082015250565b7f616d6f756e74206d7573742062652067726561746572207468616e2030000000600082015250565b7f45524332303a207472616e7366657220616d6f756e742065786365656473206160008201527f6c6c6f77616e6365000000000000000000000000000000000000000000000000602082015250565b7f4f776e61626c653a2063616c6c6572206973206e6f7420746865206f776e6572600082015250565b7f45524332303a207472616e736665722066726f6d20746865207a65726f20616460008201527f6472657373000000000000000000000000000000000000000000000000000000602082015250565b7f45524332303a20617070726f76652066726f6d20746865207a65726f2061646460008201527f7265737300000000000000000000000000000000000000000000000000000000602082015250565b7f45524332303a2064656372656173656420616c6c6f77616e63652062656c6f7760008201527f207a65726f000000000000000000000000000000000000000000000000000000602082015250565b7f45524332303a206d696e7420746f20746865207a65726f206164647265737300600082015250565b7f74726561737572792063616e6e6f742062652061646472657373283029000000600082015250565b61204f81611b97565b811461205a57600080fd5b50565b61206681611ba9565b811461207157600080fd5b50565b61207d81611bbb565b811461208857600080fd5b50565b61209481611be7565b811461209f57600080fd5b5056fea2646970667358221220dde616d4b5394bc61673295b2bf666a1930e4202d1b4b0181e8496d1b845e70a64736f6c63430008040033",
  "linkReferences": {},
  "deployedLinkReferences": {}
}