{
  "_format": "hh-sol-artifact-1",
  "contractName": "TomatoToken",
  "sourceName": "contracts/TomatoToken.sol",
  "abi": [
    {
      "inputs": [
        {
          "internalType": "address payable",
          "name": "treasuryAddress",
          "type": "address"
        },
        {
          "internalType": "address payable",
          "name": "tomatoLPAddress",
          "type": "address"
        }
      ],
      "stateMutability": "nonpayable",
      "type": "constructor"
    },
    {
      "anonymous": false,
      "inputs": [
        {
          "indexed": true,
          "internalType": "address",
          "name": "owner",
          "type": "address"
        },
        {
          "indexed": true,
          "internalType": "address",
          "name": "spender",
          "type": "address"
        },
        {
          "indexed": false,
          "internalType": "uint256",
          "name": "value",
          "type": "uint256"
        }
      ],
      "name": "Approval",
      "type": "event"
    },
    {
      "anonymous": false,
      "inputs": [
        {
          "indexed": true,
          "internalType": "address",
          "name": "previousOwner",
          "type": "address"
        },
        {
          "indexed": true,
          "internalType": "address",
          "name": "newOwner",
          "type": "address"
        }
      ],
      "name": "OwnershipTransferred",
      "type": "event"
    },
    {
      "anonymous": false,
      "inputs": [
        {
          "indexed": true,
          "internalType": "address",
          "name": "from",
          "type": "address"
        },
        {
          "indexed": true,
          "internalType": "address",
          "name": "to",
          "type": "address"
        },
        {
          "indexed": false,
          "internalType": "uint256",
          "name": "value",
          "type": "uint256"
        }
      ],
      "name": "Transfer",
      "type": "event"
    },
    {
      "inputs": [
        {
          "internalType": "address",
          "name": "owner",
          "type": "address"
        },
        {
          "internalType": "address",
          "name": "spender",
          "type": "address"
        }
      ],
      "name": "allowance",
      "outputs": [
        {
          "internalType": "uint256",
          "name": "",
          "type": "uint256"
        }
      ],
      "stateMutability": "view",
      "type": "function"
    },
    {
      "inputs": [
        {
          "internalType": "address",
          "name": "spender",
          "type": "address"
        },
        {
          "internalType": "uint256",
          "name": "amount",
          "type": "uint256"
        }
      ],
      "name": "approve",
      "outputs": [
        {
          "internalType": "bool",
          "name": "",
          "type": "bool"
        }
      ],
      "stateMutability": "nonpayable",
      "type": "function"
    },
    {
      "inputs": [
        {
          "internalType": "address",
          "name": "account",
          "type": "address"
        }
      ],
      "name": "balanceOf",
      "outputs": [
        {
          "internalType": "uint256",
          "name": "",
          "type": "uint256"
        }
      ],
      "stateMutability": "view",
      "type": "function"
    },
    {
      "inputs": [],
      "name": "decimals",
      "outputs": [
        {
          "internalType": "uint8",
          "name": "",
          "type": "uint8"
        }
      ],
      "stateMutability": "view",
      "type": "function"
    },
    {
      "inputs": [
        {
          "internalType": "address",
          "name": "spender",
          "type": "address"
        },
        {
          "internalType": "uint256",
          "name": "subtractedValue",
          "type": "uint256"
        }
      ],
      "name": "decreaseAllowance",
      "outputs": [
        {
          "internalType": "bool",
          "name": "",
          "type": "bool"
        }
      ],
      "stateMutability": "nonpayable",
      "type": "function"
    },
    {
      "inputs": [
        {
          "internalType": "address",
          "name": "spender",
          "type": "address"
        },
        {
          "internalType": "uint256",
          "name": "addedValue",
          "type": "uint256"
        }
      ],
      "name": "increaseAllowance",
      "outputs": [
        {
          "internalType": "bool",
          "name": "",
          "type": "bool"
        }
      ],
      "stateMutability": "nonpayable",
      "type": "function"
    },
    {
      "inputs": [
        {
          "internalType": "address",
          "name": "to",
          "type": "address"
        },
        {
          "internalType": "uint256",
          "name": "amount",
          "type": "uint256"
        }
      ],
      "name": "mint",
      "outputs": [],
      "stateMutability": "nonpayable",
      "type": "function"
    },
    {
      "inputs": [],
      "name": "name",
      "outputs": [
        {
          "internalType": "string",
          "name": "",
          "type": "string"
        }
      ],
      "stateMutability": "view",
      "type": "function"
    },
    {
      "inputs": [],
      "name": "owner",
      "outputs": [
        {
          "internalType": "address",
          "name": "",
          "type": "address"
        }
      ],
      "stateMutability": "view",
      "type": "function"
    },
    {
      "inputs": [],
      "name": "renounceOwnership",
      "outputs": [],
      "stateMutability": "nonpayable",
      "type": "function"
    },
    {
      "inputs": [
        {
          "internalType": "address payable",
          "name": "lpAddress",
          "type": "address"
        }
      ],
      "name": "setTomatoLP",
      "outputs": [],
      "stateMutability": "nonpayable",
      "type": "function"
    },
    {
      "inputs": [
        {
          "internalType": "address payable",
          "name": "treasuryAddress",
          "type": "address"
        }
      ],
      "name": "setTreasury",
      "outputs": [],
      "stateMutability": "nonpayable",
      "type": "function"
    },
    {
      "inputs": [],
      "name": "symbol",
      "outputs": [
        {
          "internalType": "string",
          "name": "",
          "type": "string"
        }
      ],
      "stateMutability": "view",
      "type": "function"
    },
    {
      "inputs": [],
      "name": "tax",
      "outputs": [
        {
          "internalType": "bool",
          "name": "",
          "type": "bool"
        }
      ],
      "stateMutability": "view",
      "type": "function"
    },
    {
      "inputs": [
        {
          "internalType": "bool",
          "name": "state",
          "type": "bool"
        }
      ],
      "name": "toggleTax",
      "outputs": [],
      "stateMutability": "nonpayable",
      "type": "function"
    },
    {
      "inputs": [],
      "name": "tomatoLP",
      "outputs": [
        {
          "internalType": "address payable",
          "name": "",
          "type": "address"
        }
      ],
      "stateMutability": "view",
      "type": "function"
    },
    {
      "inputs": [],
      "name": "totalSupply",
      "outputs": [
        {
          "internalType": "uint256",
          "name": "",
          "type": "uint256"
        }
      ],
      "stateMutability": "view",
      "type": "function"
    },
    {
      "inputs": [
        {
          "internalType": "address",
          "name": "recipient",
          "type": "address"
        },
        {
          "internalType": "uint256",
          "name": "amount",
          "type": "uint256"
        }
      ],
      "name": "transfer",
      "outputs": [
        {
          "internalType": "bool",
          "name": "",
          "type": "bool"
        }
      ],
      "stateMutability": "nonpayable",
      "type": "function"
    },
    {
      "inputs": [
        {
          "internalType": "address",
          "name": "sender",
          "type": "address"
        },
        {
          "internalType": "address",
          "name": "recipient",
          "type": "address"
        },
        {
          "internalType": "uint256",
          "name": "amount",
          "type": "uint256"
        }
      ],
      "name": "transferFrom",
      "outputs": [
        {
          "internalType": "bool",
          "name": "",
          "type": "bool"
        }
      ],
      "stateMutability": "nonpayable",
      "type": "function"
    },
    {
      "inputs": [
        {
          "internalType": "address",
          "name": "newOwner",
          "type": "address"
        }
      ],
      "name": "transferOwnership",
      "outputs": [],
      "stateMutability": "nonpayable",
      "type": "function"
    },
    {
      "inputs": [],
      "name": "treasury",
      "outputs": [
        {
          "internalType": "address payable",
          "name": "",
          "type": "address"
        }
      ],
      "stateMutability": "view",
      "type": "function"
    }
  ],
  "bytecode": "0x60806040523480156200001157600080fd5b506040516200314f3803806200314f8339818101604052810190620000379190620008f0565b6040518060400160405280600681526020017f546f6d61746f00000000000000000000000000000000000000000000000000008152506040518060400160405280600481526020017f544d544f000000000000000000000000000000000000000000000000000000008152508160039080519060200190620000bb92919062000829565b508060049080519060200190620000d492919062000829565b505050620000f7620000eb620001fe60201b60201c565b6200020660201b60201c565b6200010882620002cc60201b60201c565b62000119816200041260201b60201c565b6200017a600660009054906101000a900473ffffffffffffffffffffffffffffffffffffffff16620001506200055860201b60201c565b600a6200015e919062000b4c565b620557306200016e919062000c89565b6200056160201b60201c565b620001db600760009054906101000a900473ffffffffffffffffffffffffffffffffffffffff16620001b16200055860201b60201c565b600a620001bf919062000b4c565b620249f0620001cf919062000c89565b6200056160201b60201c565b6001600760146101000a81548160ff021916908315150217905550505062000e94565b600033905090565b6000600560009054906101000a900473ffffffffffffffffffffffffffffffffffffffff16905081600560006101000a81548173ffffffffffffffffffffffffffffffffffffffff021916908373ffffffffffffffffffffffffffffffffffffffff1602179055508173ffffffffffffffffffffffffffffffffffffffff168173ffffffffffffffffffffffffffffffffffffffff167f8be0079c531659141344cd1fd0a4f28419497f9722a3daafe3b4186f6b6457e060405160405180910390a35050565b620002dc620001fe60201b60201c565b73ffffffffffffffffffffffffffffffffffffffff16620003026200067260201b60201c565b73ffffffffffffffffffffffffffffffffffffffff16146200035b576040517f08c379a0000000000000000000000000000000000000000000000000000000008152600401620003529062000a00565b60405180910390fd5b600073ffffffffffffffffffffffffffffffffffffffff168173ffffffffffffffffffffffffffffffffffffffff161415620003ce576040517f08c379a0000000000000000000000000000000000000000000000000000000008152600401620003c59062000a44565b60405180910390fd5b80600660006101000a81548173ffffffffffffffffffffffffffffffffffffffff021916908373ffffffffffffffffffffffffffffffffffffffff16021790555050565b62000422620001fe60201b60201c565b73ffffffffffffffffffffffffffffffffffffffff16620004486200067260201b60201c565b73ffffffffffffffffffffffffffffffffffffffff1614620004a1576040517f08c379a0000000000000000000000000000000000000000000000000000000008152600401620004989062000a00565b60405180910390fd5b600073ffffffffffffffffffffffffffffffffffffffff168173ffffffffffffffffffffffffffffffffffffffff16141562000514576040517f08c379a00000000000000000000000000000000000000000000000000000000081526004016200050b9062000a44565b60405180910390fd5b80600760006101000a81548173ffffffffffffffffffffffffffffffffffffffff021916908373ffffffffffffffffffffffffffffffffffffffff16021790555050565b60006012905090565b62000571620001fe60201b60201c565b73ffffffffffffffffffffffffffffffffffffffff16620005976200067260201b60201c565b73ffffffffffffffffffffffffffffffffffffffff1614620005f0576040517f08c379a0000000000000000000000000000000000000000000000000000000008152600401620005e79062000a00565b60405180910390fd5b6969e10de76676d0800000816200060c6200069c60201b60201c565b62000618919062000a94565b11156200065c576040517f08c379a00000000000000000000000000000000000000000000000000000000081526004016200065390620009de565b60405180910390fd5b6200066e8282620006a660201b60201c565b5050565b6000600560009054906101000a900473ffffffffffffffffffffffffffffffffffffffff16905090565b6000600254905090565b600073ffffffffffffffffffffffffffffffffffffffff168273ffffffffffffffffffffffffffffffffffffffff16141562000719576040517f08c379a0000000000000000000000000000000000000000000000000000000008152600401620007109062000a22565b60405180910390fd5b6200072d600083836200081f60201b60201c565b806002600082825462000741919062000a94565b92505081905550806000808473ffffffffffffffffffffffffffffffffffffffff1673ffffffffffffffffffffffffffffffffffffffff168152602001908152602001600020600082825462000798919062000a94565b925050819055508173ffffffffffffffffffffffffffffffffffffffff16600073ffffffffffffffffffffffffffffffffffffffff167fddf252ad1be2c89b69c2b068fc378daa952ba7f163c4a11628f55a4df523b3ef83604051620007ff919062000a66565b60405180910390a36200081b600083836200082460201b60201c565b5050565b505050565b505050565b828054620008379062000d35565b90600052602060002090601f0160209004810192826200085b5760008555620008a7565b82601f106200087657805160ff1916838001178555620008a7565b82800160010185558215620008a7579182015b82811115620008a657825182559160200191906001019062000889565b5b509050620008b69190620008ba565b5090565b5b80821115620008d5576000816000905550600101620008bb565b5090565b600081519050620008ea8162000e7a565b92915050565b600080604083850312156200090457600080fd5b60006200091485828601620008d9565b92505060206200092785828601620008d9565b9150509250929050565b60006200094060208362000a83565b91506200094d8262000dd6565b602082019050919050565b60006200096760208362000a83565b9150620009748262000dff565b602082019050919050565b60006200098e601f8362000a83565b91506200099b8262000e28565b602082019050919050565b6000620009b5601d8362000a83565b9150620009c28262000e51565b602082019050919050565b620009d88162000d1e565b82525050565b60006020820190508181036000830152620009f98162000931565b9050919050565b6000602082019050818103600083015262000a1b8162000958565b9050919050565b6000602082019050818103600083015262000a3d816200097f565b9050919050565b6000602082019050818103600083015262000a5f81620009a6565b9050919050565b600060208201905062000a7d6000830184620009cd565b92915050565b600082825260208201905092915050565b600062000aa18262000d1e565b915062000aae8362000d1e565b9250827fffffffffffffffffffffffffffffffffffffffffffffffffffffffffffffffff0382111562000ae65762000ae562000d6b565b5b828201905092915050565b6000808291508390505b600185111562000b435780860481111562000b1b5762000b1a62000d6b565b5b600185161562000b2b5780820291505b808102905062000b3b8562000dc9565b945062000afb565b94509492505050565b600062000b598262000d1e565b915062000b668362000d28565b925062000b957fffffffffffffffffffffffffffffffffffffffffffffffffffffffffffffffff848462000b9d565b905092915050565b60008262000baf576001905062000c82565b8162000bbf576000905062000c82565b816001811462000bd8576002811462000be35762000c19565b600191505062000c82565b60ff84111562000bf85762000bf762000d6b565b5b8360020a91508482111562000c125762000c1162000d6b565b5b5062000c82565b5060208310610133831016604e8410600b841016171562000c535782820a90508381111562000c4d5762000c4c62000d6b565b5b62000c82565b62000c62848484600162000af1565b9250905081840481111562000c7c5762000c7b62000d6b565b5b81810290505b9392505050565b600062000c968262000d1e565b915062000ca38362000d1e565b9250817fffffffffffffffffffffffffffffffffffffffffffffffffffffffffffffffff048311821515161562000cdf5762000cde62000d6b565b5b828202905092915050565b600062000cf78262000cfe565b9050919050565b600073ffffffffffffffffffffffffffffffffffffffff82169050919050565b6000819050919050565b600060ff82169050919050565b6000600282049050600182168062000d4e57607f821691505b6020821081141562000d655762000d6462000d9a565b5b50919050565b7f4e487b7100000000000000000000000000000000000000000000000000000000600052601160045260246000fd5b7f4e487b7100000000000000000000000000000000000000000000000000000000600052602260045260246000fd5b60008160011c9050919050565b7f6d696e74696e6720776f756c642073757270617373206d617820737570706c79600082015250565b7f4f776e61626c653a2063616c6c6572206973206e6f7420746865206f776e6572600082015250565b7f45524332303a206d696e7420746f20746865207a65726f206164647265737300600082015250565b7f74726561737572792063616e6e6f742062652061646472657373283029000000600082015250565b62000e858162000cea565b811462000e9157600080fd5b50565b6122ab8062000ea46000396000f3fe608060405234801561001057600080fd5b50600436106101375760003560e01c806370a08231116100b8578063a457c2d71161007c578063a457c2d71461032c578063a9059cbb1461035c578063dd62ed3e1461038c578063ea01dc49146103bc578063f0f44260146103da578063f2fde38b146103f657610137565b806370a0823114610298578063715018a6146102c85780638da5cb5b146102d257806395d89b41146102f057806399c8d5561461030e57610137565b8063348372ec116100ff578063348372ec146101f657806339509351146102125780633cfd52111461024257806340c10f191461025e57806361d027b31461027a57610137565b806306fdde031461013c578063095ea7b31461015a57806318160ddd1461018a57806323b872dd146101a8578063313ce567146101d8575b600080fd5b610144610412565b6040516101519190611a41565b60405180910390f35b610174600480360381019061016f9190611740565b6104a4565b6040516101819190611a26565b60405180910390f35b6101926104c2565b60405161019f9190611c03565b60405180910390f35b6101c260048036038101906101bd91906116f1565b6104cc565b6040516101cf9190611a26565b60405180910390f35b6101e06105c4565b6040516101ed9190611c1e565b60405180910390f35b610210600480360381019061020b919061168c565b6105cd565b005b61022c60048036038101906102279190611740565b6106fd565b6040516102399190611a26565b60405180910390f35b61025c6004803603810190610257919061177c565b6107a9565b005b61027860048036038101906102739190611740565b610842565b005b61028261092b565b60405161028f9190611a0b565b60405180910390f35b6102b260048036038101906102ad9190611663565b610951565b6040516102bf9190611c03565b60405180910390f35b6102d0610999565b005b6102da610a21565b6040516102e791906119f0565b60405180910390f35b6102f8610a4b565b6040516103059190611a41565b60405180910390f35b610316610add565b6040516103239190611a26565b60405180910390f35b61034660048036038101906103419190611740565b610af0565b6040516103539190611a26565b60405180910390f35b61037660048036038101906103719190611740565b610bdb565b6040516103839190611a26565b60405180910390f35b6103a660048036038101906103a191906116b5565b610cb6565b6040516103b39190611c03565b60405180910390f35b6103c4610d3d565b6040516103d19190611a0b565b60405180910390f35b6103f460048036038101906103ef919061168c565b610d63565b005b610410600480360381019061040b9190611663565b610e93565b005b60606003805461042190611e04565b80601f016020809104026020016040519081016040528092919081815260200182805461044d90611e04565b801561049a5780601f1061046f5761010080835404028352916020019161049a565b820191906000526020600020905b81548152906001019060200180831161047d57829003601f168201915b5050505050905090565b60006104b86104b1610f8b565b8484610f93565b6001905092915050565b6000600254905090565b60006104d984848461115e565b6000600160008673ffffffffffffffffffffffffffffffffffffffff1673ffffffffffffffffffffffffffffffffffffffff1681526020019081526020016000206000610524610f8b565b73ffffffffffffffffffffffffffffffffffffffff1673ffffffffffffffffffffffffffffffffffffffff168152602001908152602001600020549050828110156105a4576040517f08c379a000000000000000000000000000000000000000000000000000000000815260040161059b90611b23565b60405180910390fd5b6105b8856105b0610f8b565b858403610f93565b60019150509392505050565b60006012905090565b6105d5610f8b565b73ffffffffffffffffffffffffffffffffffffffff166105f3610a21565b73ffffffffffffffffffffffffffffffffffffffff1614610649576040517f08c379a000000000000000000000000000000000000000000000000000000000815260040161064090611b43565b60405180910390fd5b600073ffffffffffffffffffffffffffffffffffffffff168173ffffffffffffffffffffffffffffffffffffffff1614156106b9576040517f08c379a00000000000000000000000000000000000000000000000000000000081526004016106b090611be3565b60405180910390fd5b80600760006101000a81548173ffffffffffffffffffffffffffffffffffffffff021916908373ffffffffffffffffffffffffffffffffffffffff16021790555050565b600061079f61070a610f8b565b848460016000610718610f8b565b73ffffffffffffffffffffffffffffffffffffffff1673ffffffffffffffffffffffffffffffffffffffff16815260200190815260200160002060008873ffffffffffffffffffffffffffffffffffffffff1673ffffffffffffffffffffffffffffffffffffffff1681526020019081526020016000205461079a9190611c55565b610f93565b6001905092915050565b6107b1610f8b565b73ffffffffffffffffffffffffffffffffffffffff166107cf610a21565b73ffffffffffffffffffffffffffffffffffffffff1614610825576040517f08c379a000000000000000000000000000000000000000000000000000000000815260040161081c90611b43565b60405180910390fd5b80600760146101000a81548160ff02191690831515021790555050565b61084a610f8b565b73ffffffffffffffffffffffffffffffffffffffff16610868610a21565b73ffffffffffffffffffffffffffffffffffffffff16146108be576040517f08c379a00000000000000000000000000000000000000000000000000000000081526004016108b590611b43565b60405180910390fd5b6969e10de76676d0800000816108d26104c2565b6108dc9190611c55565b111561091d576040517f08c379a000000000000000000000000000000000000000000000000000000000815260040161091490611ac3565b60405180910390fd5b61092782826113df565b5050565b600660009054906101000a900473ffffffffffffffffffffffffffffffffffffffff1681565b60008060008373ffffffffffffffffffffffffffffffffffffffff1673ffffffffffffffffffffffffffffffffffffffff168152602001908152602001600020549050919050565b6109a1610f8b565b73ffffffffffffffffffffffffffffffffffffffff166109bf610a21565b73ffffffffffffffffffffffffffffffffffffffff1614610a15576040517f08c379a0000000000000000000000000000000000000000000000000000000008152600401610a0c90611b43565b60405180910390fd5b610a1f600061153f565b565b6000600560009054906101000a900473ffffffffffffffffffffffffffffffffffffffff16905090565b606060048054610a5a90611e04565b80601f0160208091040260200160405190810160405280929190818152602001828054610a8690611e04565b8015610ad35780601f10610aa857610100808354040283529160200191610ad3565b820191906000526020600020905b815481529060010190602001808311610ab657829003601f168201915b5050505050905090565b600760149054906101000a900460ff1681565b60008060016000610aff610f8b565b73ffffffffffffffffffffffffffffffffffffffff1673ffffffffffffffffffffffffffffffffffffffff16815260200190815260200160002060008573ffffffffffffffffffffffffffffffffffffffff1673ffffffffffffffffffffffffffffffffffffffff16815260200190815260200160002054905082811015610bbc576040517f08c379a0000000000000000000000000000000000000000000000000000000008152600401610bb390611ba3565b60405180910390fd5b610bd0610bc7610f8b565b85858403610f93565b600191505092915050565b6000808211610c1f576040517f08c379a0000000000000000000000000000000000000000000000000000000008152600401610c1690611b03565b60405180910390fd5b600760149054906101000a900460ff1615610ca05760006064600284610c459190611cdc565b610c4f9190611cab565b905060008184610c5f9190611d36565b9050610c6c33868361115e565b610c9933600660009054906101000a900473ffffffffffffffffffffffffffffffffffffffff168461115e565b5050610cac565b610cab33848461115e565b5b6001905092915050565b6000600160008473ffffffffffffffffffffffffffffffffffffffff1673ffffffffffffffffffffffffffffffffffffffff16815260200190815260200160002060008373ffffffffffffffffffffffffffffffffffffffff1673ffffffffffffffffffffffffffffffffffffffff16815260200190815260200160002054905092915050565b600760009054906101000a900473ffffffffffffffffffffffffffffffffffffffff1681565b610d6b610f8b565b73ffffffffffffffffffffffffffffffffffffffff16610d89610a21565b73ffffffffffffffffffffffffffffffffffffffff1614610ddf576040517f08c379a0000000000000000000000000000000000000000000000000000000008152600401610dd690611b43565b60405180910390fd5b600073ffffffffffffffffffffffffffffffffffffffff168173ffffffffffffffffffffffffffffffffffffffff161415610e4f576040517f08c379a0000000000000000000000000000000000000000000000000000000008152600401610e4690611be3565b60405180910390fd5b80600660006101000a81548173ffffffffffffffffffffffffffffffffffffffff021916908373ffffffffffffffffffffffffffffffffffffffff16021790555050565b610e9b610f8b565b73ffffffffffffffffffffffffffffffffffffffff16610eb9610a21565b73ffffffffffffffffffffffffffffffffffffffff1614610f0f576040517f08c379a0000000000000000000000000000000000000000000000000000000008152600401610f0690611b43565b60405180910390fd5b600073ffffffffffffffffffffffffffffffffffffffff168173ffffffffffffffffffffffffffffffffffffffff161415610f7f576040517f08c379a0000000000000000000000000000000000000000000000000000000008152600401610f7690611a83565b60405180910390fd5b610f888161153f565b50565b600033905090565b600073ffffffffffffffffffffffffffffffffffffffff168373ffffffffffffffffffffffffffffffffffffffff161415611003576040517f08c379a0000000000000000000000000000000000000000000000000000000008152600401610ffa90611b83565b60405180910390fd5b600073ffffffffffffffffffffffffffffffffffffffff168273ffffffffffffffffffffffffffffffffffffffff161415611073576040517f08c379a000000000000000000000000000000000000000000000000000000000815260040161106a90611aa3565b60405180910390fd5b80600160008573ffffffffffffffffffffffffffffffffffffffff1673ffffffffffffffffffffffffffffffffffffffff16815260200190815260200160002060008473ffffffffffffffffffffffffffffffffffffffff1673ffffffffffffffffffffffffffffffffffffffff168152602001908152602001600020819055508173ffffffffffffffffffffffffffffffffffffffff168373ffffffffffffffffffffffffffffffffffffffff167f8c5be1e5ebec7d5bd14f71427d1e84f3dd0314c0f7b2291e5b200ac8c7c3b925836040516111519190611c03565b60405180910390a3505050565b600073ffffffffffffffffffffffffffffffffffffffff168373ffffffffffffffffffffffffffffffffffffffff1614156111ce576040517f08c379a00000000000000000000000000000000000000000000000000000000081526004016111c590611b63565b60405180910390fd5b600073ffffffffffffffffffffffffffffffffffffffff168273ffffffffffffffffffffffffffffffffffffffff16141561123e576040517f08c379a000000000000000000000000000000000000000000000000000000000815260040161123590611a63565b60405180910390fd5b611249838383611605565b60008060008573ffffffffffffffffffffffffffffffffffffffff1673ffffffffffffffffffffffffffffffffffffffff168152602001908152602001600020549050818110156112cf576040517f08c379a00000000000000000000000000000000000000000000000000000000081526004016112c690611ae3565b60405180910390fd5b8181036000808673ffffffffffffffffffffffffffffffffffffffff1673ffffffffffffffffffffffffffffffffffffffff16815260200190815260200160002081905550816000808573ffffffffffffffffffffffffffffffffffffffff1673ffffffffffffffffffffffffffffffffffffffff16815260200190815260200160002060008282546113629190611c55565b925050819055508273ffffffffffffffffffffffffffffffffffffffff168473ffffffffffffffffffffffffffffffffffffffff167fddf252ad1be2c89b69c2b068fc378daa952ba7f163c4a11628f55a4df523b3ef846040516113c69190611c03565b60405180910390a36113d984848461160a565b50505050565b600073ffffffffffffffffffffffffffffffffffffffff168273ffffffffffffffffffffffffffffffffffffffff16141561144f576040517f08c379a000000000000000000000000000000000000000000000000000000000815260040161144690611bc3565b60405180910390fd5b61145b60008383611605565b806002600082825461146d9190611c55565b92505081905550806000808473ffffffffffffffffffffffffffffffffffffffff1673ffffffffffffffffffffffffffffffffffffffff16815260200190815260200160002060008282546114c29190611c55565b925050819055508173ffffffffffffffffffffffffffffffffffffffff16600073ffffffffffffffffffffffffffffffffffffffff167fddf252ad1be2c89b69c2b068fc378daa952ba7f163c4a11628f55a4df523b3ef836040516115279190611c03565b60405180910390a361153b6000838361160a565b5050565b6000600560009054906101000a900473ffffffffffffffffffffffffffffffffffffffff16905081600560006101000a81548173ffffffffffffffffffffffffffffffffffffffff021916908373ffffffffffffffffffffffffffffffffffffffff1602179055508173ffffffffffffffffffffffffffffffffffffffff168173ffffffffffffffffffffffffffffffffffffffff167f8be0079c531659141344cd1fd0a4f28419497f9722a3daafe3b4186f6b6457e060405160405180910390a35050565b505050565b505050565b60008135905061161e81612219565b92915050565b60008135905061163381612230565b92915050565b60008135905061164881612247565b92915050565b60008135905061165d8161225e565b92915050565b60006020828403121561167557600080fd5b60006116838482850161160f565b91505092915050565b60006020828403121561169e57600080fd5b60006116ac84828501611624565b91505092915050565b600080604083850312156116c857600080fd5b60006116d68582860161160f565b92505060206116e78582860161160f565b9150509250929050565b60008060006060848603121561170657600080fd5b60006117148682870161160f565b93505060206117258682870161160f565b92505060406117368682870161164e565b9150509250925092565b6000806040838503121561175357600080fd5b60006117618582860161160f565b92505060206117728582860161164e565b9150509250929050565b60006020828403121561178e57600080fd5b600061179c84828501611639565b91505092915050565b6117ae81611d7c565b82525050565b6117bd81611d6a565b82525050565b6117cc81611d8e565b82525050565b60006117dd82611c39565b6117e78185611c44565b93506117f7818560208601611dd1565b61180081611ec3565b840191505092915050565b6000611818602383611c44565b915061182382611ed4565b604082019050919050565b600061183b602683611c44565b915061184682611f23565b604082019050919050565b600061185e602283611c44565b915061186982611f72565b604082019050919050565b6000611881602083611c44565b915061188c82611fc1565b602082019050919050565b60006118a4602683611c44565b91506118af82611fea565b604082019050919050565b60006118c7601d83611c44565b91506118d282612039565b602082019050919050565b60006118ea602883611c44565b91506118f582612062565b604082019050919050565b600061190d602083611c44565b9150611918826120b1565b602082019050919050565b6000611930602583611c44565b915061193b826120da565b604082019050919050565b6000611953602483611c44565b915061195e82612129565b604082019050919050565b6000611976602583611c44565b915061198182612178565b604082019050919050565b6000611999601f83611c44565b91506119a4826121c7565b602082019050919050565b60006119bc601d83611c44565b91506119c7826121f0565b602082019050919050565b6119db81611dba565b82525050565b6119ea81611dc4565b82525050565b6000602082019050611a0560008301846117b4565b92915050565b6000602082019050611a2060008301846117a5565b92915050565b6000602082019050611a3b60008301846117c3565b92915050565b60006020820190508181036000830152611a5b81846117d2565b905092915050565b60006020820190508181036000830152611a7c8161180b565b9050919050565b60006020820190508181036000830152611a9c8161182e565b9050919050565b60006020820190508181036000830152611abc81611851565b9050919050565b60006020820190508181036000830152611adc81611874565b9050919050565b60006020820190508181036000830152611afc81611897565b9050919050565b60006020820190508181036000830152611b1c816118ba565b9050919050565b60006020820190508181036000830152611b3c816118dd565b9050919050565b60006020820190508181036000830152611b5c81611900565b9050919050565b60006020820190508181036000830152611b7c81611923565b9050919050565b60006020820190508181036000830152611b9c81611946565b9050919050565b60006020820190508181036000830152611bbc81611969565b9050919050565b60006020820190508181036000830152611bdc8161198c565b9050919050565b60006020820190508181036000830152611bfc816119af565b9050919050565b6000602082019050611c1860008301846119d2565b92915050565b6000602082019050611c3360008301846119e1565b92915050565b600081519050919050565b600082825260208201905092915050565b6000611c6082611dba565b9150611c6b83611dba565b9250827fffffffffffffffffffffffffffffffffffffffffffffffffffffffffffffffff03821115611ca057611c9f611e36565b5b828201905092915050565b6000611cb682611dba565b9150611cc183611dba565b925082611cd157611cd0611e65565b5b828204905092915050565b6000611ce782611dba565b9150611cf283611dba565b9250817fffffffffffffffffffffffffffffffffffffffffffffffffffffffffffffffff0483118215151615611d2b57611d2a611e36565b5b828202905092915050565b6000611d4182611dba565b9150611d4c83611dba565b925082821015611d5f57611d5e611e36565b5b828203905092915050565b6000611d7582611d9a565b9050919050565b6000611d8782611d9a565b9050919050565b60008115159050919050565b600073ffffffffffffffffffffffffffffffffffffffff82169050919050565b6000819050919050565b600060ff82169050919050565b60005b83811015611def578082015181840152602081019050611dd4565b83811115611dfe576000848401525b50505050565b60006002820490506001821680611e1c57607f821691505b60208210811415611e3057611e2f611e94565b5b50919050565b7f4e487b7100000000000000000000000000000000000000000000000000000000600052601160045260246000fd5b7f4e487b7100000000000000000000000000000000000000000000000000000000600052601260045260246000fd5b7f4e487b7100000000000000000000000000000000000000000000000000000000600052602260045260246000fd5b6000601f19601f8301169050919050565b7f45524332303a207472616e7366657220746f20746865207a65726f206164647260008201527f6573730000000000000000000000000000000000000000000000000000000000602082015250565b7f4f776e61626c653a206e6577206f776e657220697320746865207a65726f206160008201527f6464726573730000000000000000000000000000000000000000000000000000602082015250565b7f45524332303a20617070726f766520746f20746865207a65726f20616464726560008201527f7373000000000000000000000000000000000000000000000000000000000000602082015250565b7f6d696e74696e6720776f756c642073757270617373206d617820737570706c79600082015250565b7f45524332303a207472616e7366657220616d6f756e742065786365656473206260008201527f616c616e63650000000000000000000000000000000000000000000000000000602082015250565b7f616d6f756e74206d7573742062652067726561746572207468616e2030000000600082015250565b7f45524332303a207472616e7366657220616d6f756e742065786365656473206160008201527f6c6c6f77616e6365000000000000000000000000000000000000000000000000602082015250565b7f4f776e61626c653a2063616c6c6572206973206e6f7420746865206f776e6572600082015250565b7f45524332303a207472616e736665722066726f6d20746865207a65726f20616460008201527f6472657373000000000000000000000000000000000000000000000000000000602082015250565b7f45524332303a20617070726f76652066726f6d20746865207a65726f2061646460008201527f7265737300000000000000000000000000000000000000000000000000000000602082015250565b7f45524332303a2064656372656173656420616c6c6f77616e63652062656c6f7760008201527f207a65726f000000000000000000000000000000000000000000000000000000602082015250565b7f45524332303a206d696e7420746f20746865207a65726f206164647265737300600082015250565b7f74726561737572792063616e6e6f742062652061646472657373283029000000600082015250565b61222281611d6a565b811461222d57600080fd5b50565b61223981611d7c565b811461224457600080fd5b50565b61225081611d8e565b811461225b57600080fd5b50565b61226781611dba565b811461227257600080fd5b5056fea2646970667358221220df10ec5cff531ffbe5710688fdb46ae85fa042a113bee8e167d0095fd9d67a5664736f6c63430008040033",
  "linkReferences": {},
  "deployedLinkReferences": {}
}