{
  "_format": "hh-sol-artifact-1",
  "contractName": "TomatoToken",
  "sourceName": "contracts/TomatoToken.sol",
  "abi": [
    {
      "inputs": [
        {
          "internalType": "address payable",
          "name": "treasuryAddress",
          "type": "address"
        }
      ],
      "stateMutability": "nonpayable",
      "type": "constructor"
    },
    {
      "anonymous": false,
      "inputs": [
        {
          "indexed": true,
          "internalType": "address",
          "name": "owner",
          "type": "address"
        },
        {
          "indexed": true,
          "internalType": "address",
          "name": "spender",
          "type": "address"
        },
        {
          "indexed": false,
          "internalType": "uint256",
          "name": "value",
          "type": "uint256"
        }
      ],
      "name": "Approval",
      "type": "event"
    },
    {
      "anonymous": false,
      "inputs": [
        {
          "indexed": true,
          "internalType": "address",
          "name": "previousOwner",
          "type": "address"
        },
        {
          "indexed": true,
          "internalType": "address",
          "name": "newOwner",
          "type": "address"
        }
      ],
      "name": "OwnershipTransferred",
      "type": "event"
    },
    {
      "anonymous": false,
      "inputs": [
        {
          "indexed": true,
          "internalType": "address",
          "name": "from",
          "type": "address"
        },
        {
          "indexed": true,
          "internalType": "address",
          "name": "to",
          "type": "address"
        },
        {
          "indexed": false,
          "internalType": "uint256",
          "name": "value",
          "type": "uint256"
        }
      ],
      "name": "Transfer",
      "type": "event"
    },
    {
      "inputs": [
        {
          "internalType": "address",
          "name": "owner",
          "type": "address"
        },
        {
          "internalType": "address",
          "name": "spender",
          "type": "address"
        }
      ],
      "name": "allowance",
      "outputs": [
        {
          "internalType": "uint256",
          "name": "",
          "type": "uint256"
        }
      ],
      "stateMutability": "view",
      "type": "function"
    },
    {
      "inputs": [
        {
          "internalType": "address",
          "name": "spender",
          "type": "address"
        },
        {
          "internalType": "uint256",
          "name": "amount",
          "type": "uint256"
        }
      ],
      "name": "approve",
      "outputs": [
        {
          "internalType": "bool",
          "name": "",
          "type": "bool"
        }
      ],
      "stateMutability": "nonpayable",
      "type": "function"
    },
    {
      "inputs": [
        {
          "internalType": "address",
          "name": "account",
          "type": "address"
        }
      ],
      "name": "balanceOf",
      "outputs": [
        {
          "internalType": "uint256",
          "name": "",
          "type": "uint256"
        }
      ],
      "stateMutability": "view",
      "type": "function"
    },
    {
      "inputs": [],
      "name": "decimals",
      "outputs": [
        {
          "internalType": "uint8",
          "name": "",
          "type": "uint8"
        }
      ],
      "stateMutability": "view",
      "type": "function"
    },
    {
      "inputs": [
        {
          "internalType": "address",
          "name": "spender",
          "type": "address"
        },
        {
          "internalType": "uint256",
          "name": "subtractedValue",
          "type": "uint256"
        }
      ],
      "name": "decreaseAllowance",
      "outputs": [
        {
          "internalType": "bool",
          "name": "",
          "type": "bool"
        }
      ],
      "stateMutability": "nonpayable",
      "type": "function"
    },
    {
      "inputs": [
        {
          "internalType": "address",
          "name": "spender",
          "type": "address"
        },
        {
          "internalType": "uint256",
          "name": "addedValue",
          "type": "uint256"
        }
      ],
      "name": "increaseAllowance",
      "outputs": [
        {
          "internalType": "bool",
          "name": "",
          "type": "bool"
        }
      ],
      "stateMutability": "nonpayable",
      "type": "function"
    },
    {
      "inputs": [
        {
          "internalType": "address",
          "name": "to",
          "type": "address"
        },
        {
          "internalType": "uint256",
          "name": "amount",
          "type": "uint256"
        }
      ],
      "name": "mint",
      "outputs": [],
      "stateMutability": "nonpayable",
      "type": "function"
    },
    {
      "inputs": [],
      "name": "name",
      "outputs": [
        {
          "internalType": "string",
          "name": "",
          "type": "string"
        }
      ],
      "stateMutability": "view",
      "type": "function"
    },
    {
      "inputs": [],
      "name": "owner",
      "outputs": [
        {
          "internalType": "address",
          "name": "",
          "type": "address"
        }
      ],
      "stateMutability": "view",
      "type": "function"
    },
    {
      "inputs": [],
      "name": "renounceOwnership",
      "outputs": [],
      "stateMutability": "nonpayable",
      "type": "function"
    },
    {
      "inputs": [
        {
          "internalType": "address payable",
          "name": "treasuryAddress",
          "type": "address"
        }
      ],
      "name": "setTreasury",
      "outputs": [],
      "stateMutability": "nonpayable",
      "type": "function"
    },
    {
      "inputs": [],
      "name": "symbol",
      "outputs": [
        {
          "internalType": "string",
          "name": "",
          "type": "string"
        }
      ],
      "stateMutability": "view",
      "type": "function"
    },
    {
      "inputs": [],
      "name": "tax",
      "outputs": [
        {
          "internalType": "bool",
          "name": "",
          "type": "bool"
        }
      ],
      "stateMutability": "view",
      "type": "function"
    },
    {
      "inputs": [
        {
          "internalType": "bool",
          "name": "state",
          "type": "bool"
        }
      ],
      "name": "toggleTax",
      "outputs": [],
      "stateMutability": "nonpayable",
      "type": "function"
    },
    {
      "inputs": [],
      "name": "tomatoLP",
      "outputs": [
        {
          "internalType": "address payable",
          "name": "",
          "type": "address"
        }
      ],
      "stateMutability": "view",
      "type": "function"
    },
    {
      "inputs": [],
      "name": "totalSupply",
      "outputs": [
        {
          "internalType": "uint256",
          "name": "",
          "type": "uint256"
        }
      ],
      "stateMutability": "view",
      "type": "function"
    },
    {
      "inputs": [
        {
          "internalType": "address",
          "name": "recipient",
          "type": "address"
        },
        {
          "internalType": "uint256",
          "name": "amount",
          "type": "uint256"
        }
      ],
      "name": "transfer",
      "outputs": [
        {
          "internalType": "bool",
          "name": "",
          "type": "bool"
        }
      ],
      "stateMutability": "nonpayable",
      "type": "function"
    },
    {
      "inputs": [
        {
          "internalType": "address",
          "name": "sender",
          "type": "address"
        },
        {
          "internalType": "address",
          "name": "recipient",
          "type": "address"
        },
        {
          "internalType": "uint256",
          "name": "amount",
          "type": "uint256"
        }
      ],
      "name": "transferFrom",
      "outputs": [
        {
          "internalType": "bool",
          "name": "",
          "type": "bool"
        }
      ],
      "stateMutability": "nonpayable",
      "type": "function"
    },
    {
      "inputs": [
        {
          "internalType": "address",
          "name": "newOwner",
          "type": "address"
        }
      ],
      "name": "transferOwnership",
      "outputs": [],
      "stateMutability": "nonpayable",
      "type": "function"
    },
    {
      "inputs": [],
      "name": "treasury",
      "outputs": [
        {
          "internalType": "address payable",
          "name": "",
          "type": "address"
        }
      ],
      "stateMutability": "view",
      "type": "function"
    }
  ],
  "bytecode": "0x60806040523480156200001157600080fd5b5060405162002e8b38038062002e8b833981810160405281019062000037919062000798565b6040518060400160405280600681526020017f546f6d61746f00000000000000000000000000000000000000000000000000008152506040518060400160405280600481526020017f544d544f000000000000000000000000000000000000000000000000000000008152508160039080519060200190620000bb929190620006d1565b508060049080519060200190620000d4929190620006d1565b505050620000f7620000eb620001ec60201b60201c565b620001f460201b60201c565b6200010881620002ba60201b60201c565b62000169600660009054906101000a900473ffffffffffffffffffffffffffffffffffffffff166200013f6200040060201b60201c565b600a6200014d9190620009df565b620557306200015d919062000b1c565b6200040960201b60201c565b620001ca600760009054906101000a900473ffffffffffffffffffffffffffffffffffffffff16620001a06200040060201b60201c565b600a620001ae9190620009df565b620249f0620001be919062000b1c565b6200040960201b60201c565b6001600760146101000a81548160ff0219169083151502179055505062000d27565b600033905090565b6000600560009054906101000a900473ffffffffffffffffffffffffffffffffffffffff16905081600560006101000a81548173ffffffffffffffffffffffffffffffffffffffff021916908373ffffffffffffffffffffffffffffffffffffffff1602179055508173ffffffffffffffffffffffffffffffffffffffff168173ffffffffffffffffffffffffffffffffffffffff167f8be0079c531659141344cd1fd0a4f28419497f9722a3daafe3b4186f6b6457e060405160405180910390a35050565b620002ca620001ec60201b60201c565b73ffffffffffffffffffffffffffffffffffffffff16620002f06200051a60201b60201c565b73ffffffffffffffffffffffffffffffffffffffff161462000349576040517f08c379a0000000000000000000000000000000000000000000000000000000008152600401620003409062000893565b60405180910390fd5b600073ffffffffffffffffffffffffffffffffffffffff168173ffffffffffffffffffffffffffffffffffffffff161415620003bc576040517f08c379a0000000000000000000000000000000000000000000000000000000008152600401620003b390620008d7565b60405180910390fd5b80600660006101000a81548173ffffffffffffffffffffffffffffffffffffffff021916908373ffffffffffffffffffffffffffffffffffffffff16021790555050565b60006012905090565b62000419620001ec60201b60201c565b73ffffffffffffffffffffffffffffffffffffffff166200043f6200051a60201b60201c565b73ffffffffffffffffffffffffffffffffffffffff161462000498576040517f08c379a00000000000000000000000000000000000000000000000000000000081526004016200048f9062000893565b60405180910390fd5b6969e10de76676d080000081620004b46200054460201b60201c565b620004c0919062000927565b111562000504576040517f08c379a0000000000000000000000000000000000000000000000000000000008152600401620004fb9062000871565b60405180910390fd5b6200051682826200054e60201b60201c565b5050565b6000600560009054906101000a900473ffffffffffffffffffffffffffffffffffffffff16905090565b6000600254905090565b600073ffffffffffffffffffffffffffffffffffffffff168273ffffffffffffffffffffffffffffffffffffffff161415620005c1576040517f08c379a0000000000000000000000000000000000000000000000000000000008152600401620005b890620008b5565b60405180910390fd5b620005d560008383620006c760201b60201c565b8060026000828254620005e9919062000927565b92505081905550806000808473ffffffffffffffffffffffffffffffffffffffff1673ffffffffffffffffffffffffffffffffffffffff168152602001908152602001600020600082825462000640919062000927565b925050819055508173ffffffffffffffffffffffffffffffffffffffff16600073ffffffffffffffffffffffffffffffffffffffff167fddf252ad1be2c89b69c2b068fc378daa952ba7f163c4a11628f55a4df523b3ef83604051620006a79190620008f9565b60405180910390a3620006c360008383620006cc60201b60201c565b5050565b505050565b505050565b828054620006df9062000bc8565b90600052602060002090601f0160209004810192826200070357600085556200074f565b82601f106200071e57805160ff19168380011785556200074f565b828001600101855582156200074f579182015b828111156200074e57825182559160200191906001019062000731565b5b5090506200075e919062000762565b5090565b5b808211156200077d57600081600090555060010162000763565b5090565b600081519050620007928162000d0d565b92915050565b600060208284031215620007ab57600080fd5b6000620007bb8482850162000781565b91505092915050565b6000620007d360208362000916565b9150620007e08262000c69565b602082019050919050565b6000620007fa60208362000916565b9150620008078262000c92565b602082019050919050565b600062000821601f8362000916565b91506200082e8262000cbb565b602082019050919050565b600062000848601d8362000916565b9150620008558262000ce4565b602082019050919050565b6200086b8162000bb1565b82525050565b600060208201905081810360008301526200088c81620007c4565b9050919050565b60006020820190508181036000830152620008ae81620007eb565b9050919050565b60006020820190508181036000830152620008d08162000812565b9050919050565b60006020820190508181036000830152620008f28162000839565b9050919050565b600060208201905062000910600083018462000860565b92915050565b600082825260208201905092915050565b6000620009348262000bb1565b9150620009418362000bb1565b9250827fffffffffffffffffffffffffffffffffffffffffffffffffffffffffffffffff0382111562000979576200097862000bfe565b5b828201905092915050565b6000808291508390505b6001851115620009d657808604811115620009ae57620009ad62000bfe565b5b6001851615620009be5780820291505b8081029050620009ce8562000c5c565b94506200098e565b94509492505050565b6000620009ec8262000bb1565b9150620009f98362000bbb565b925062000a287fffffffffffffffffffffffffffffffffffffffffffffffffffffffffffffffff848462000a30565b905092915050565b60008262000a42576001905062000b15565b8162000a52576000905062000b15565b816001811462000a6b576002811462000a765762000aac565b600191505062000b15565b60ff84111562000a8b5762000a8a62000bfe565b5b8360020a91508482111562000aa55762000aa462000bfe565b5b5062000b15565b5060208310610133831016604e8410600b841016171562000ae65782820a90508381111562000ae05762000adf62000bfe565b5b62000b15565b62000af5848484600162000984565b9250905081840481111562000b0f5762000b0e62000bfe565b5b81810290505b9392505050565b600062000b298262000bb1565b915062000b368362000bb1565b9250817fffffffffffffffffffffffffffffffffffffffffffffffffffffffffffffffff048311821515161562000b725762000b7162000bfe565b5b828202905092915050565b600062000b8a8262000b91565b9050919050565b600073ffffffffffffffffffffffffffffffffffffffff82169050919050565b6000819050919050565b600060ff82169050919050565b6000600282049050600182168062000be157607f821691505b6020821081141562000bf85762000bf762000c2d565b5b50919050565b7f4e487b7100000000000000000000000000000000000000000000000000000000600052601160045260246000fd5b7f4e487b7100000000000000000000000000000000000000000000000000000000600052602260045260246000fd5b60008160011c9050919050565b7f6d696e74696e6720776f756c642073757270617373206d617820737570706c79600082015250565b7f4f776e61626c653a2063616c6c6572206973206e6f7420746865206f776e6572600082015250565b7f45524332303a206d696e7420746f20746865207a65726f206164647265737300600082015250565b7f74726561737572792063616e6e6f742062652061646472657373283029000000600082015250565b62000d188162000b7d565b811462000d2457600080fd5b50565b6121548062000d376000396000f3fe608060405234801561001057600080fd5b506004361061012c5760003560e01c8063715018a6116100ad578063a9059cbb11610071578063a9059cbb14610335578063dd62ed3e14610365578063ea01dc4914610395578063f0f44260146103b3578063f2fde38b146103cf5761012c565b8063715018a6146102a15780638da5cb5b146102ab57806395d89b41146102c957806399c8d556146102e7578063a457c2d7146103055761012c565b806339509351116100f457806339509351146101eb5780633cfd52111461021b57806340c10f191461023757806361d027b31461025357806370a08231146102715761012c565b806306fdde0314610131578063095ea7b31461014f57806318160ddd1461017f57806323b872dd1461019d578063313ce567146101cd575b600080fd5b6101396103eb565b60405161014691906118ea565b60405180910390f35b610169600480360381019061016491906115e9565b61047d565b60405161017691906118cf565b60405180910390f35b61018761049b565b6040516101949190611aac565b60405180910390f35b6101b760048036038101906101b2919061159a565b6104a5565b6040516101c491906118cf565b60405180910390f35b6101d561059d565b6040516101e29190611ac7565b60405180910390f35b610205600480360381019061020091906115e9565b6105a6565b60405161021291906118cf565b60405180910390f35b61023560048036038101906102309190611625565b610652565b005b610251600480360381019061024c91906115e9565b6106eb565b005b61025b6107d4565b60405161026891906118b4565b60405180910390f35b61028b6004803603810190610286919061150c565b6107fa565b6040516102989190611aac565b60405180910390f35b6102a9610842565b005b6102b36108ca565b6040516102c09190611899565b60405180910390f35b6102d16108f4565b6040516102de91906118ea565b60405180910390f35b6102ef610986565b6040516102fc91906118cf565b60405180910390f35b61031f600480360381019061031a91906115e9565b610999565b60405161032c91906118cf565b60405180910390f35b61034f600480360381019061034a91906115e9565b610a84565b60405161035c91906118cf565b60405180910390f35b61037f600480360381019061037a919061155e565b610b5f565b60405161038c9190611aac565b60405180910390f35b61039d610be6565b6040516103aa91906118b4565b60405180910390f35b6103cd60048036038101906103c89190611535565b610c0c565b005b6103e960048036038101906103e4919061150c565b610d3c565b005b6060600380546103fa90611cad565b80601f016020809104026020016040519081016040528092919081815260200182805461042690611cad565b80156104735780601f1061044857610100808354040283529160200191610473565b820191906000526020600020905b81548152906001019060200180831161045657829003601f168201915b5050505050905090565b600061049161048a610e34565b8484610e3c565b6001905092915050565b6000600254905090565b60006104b2848484611007565b6000600160008673ffffffffffffffffffffffffffffffffffffffff1673ffffffffffffffffffffffffffffffffffffffff16815260200190815260200160002060006104fd610e34565b73ffffffffffffffffffffffffffffffffffffffff1673ffffffffffffffffffffffffffffffffffffffff1681526020019081526020016000205490508281101561057d576040517f08c379a0000000000000000000000000000000000000000000000000000000008152600401610574906119cc565b60405180910390fd5b61059185610589610e34565b858403610e3c565b60019150509392505050565b60006012905090565b60006106486105b3610e34565b8484600160006105c1610e34565b73ffffffffffffffffffffffffffffffffffffffff1673ffffffffffffffffffffffffffffffffffffffff16815260200190815260200160002060008873ffffffffffffffffffffffffffffffffffffffff1673ffffffffffffffffffffffffffffffffffffffff168152602001908152602001600020546106439190611afe565b610e3c565b6001905092915050565b61065a610e34565b73ffffffffffffffffffffffffffffffffffffffff166106786108ca565b73ffffffffffffffffffffffffffffffffffffffff16146106ce576040517f08c379a00000000000000000000000000000000000000000000000000000000081526004016106c5906119ec565b60405180910390fd5b80600760146101000a81548160ff02191690831515021790555050565b6106f3610e34565b73ffffffffffffffffffffffffffffffffffffffff166107116108ca565b73ffffffffffffffffffffffffffffffffffffffff1614610767576040517f08c379a000000000000000000000000000000000000000000000000000000000815260040161075e906119ec565b60405180910390fd5b6969e10de76676d08000008161077b61049b565b6107859190611afe565b11156107c6576040517f08c379a00000000000000000000000000000000000000000000000000000000081526004016107bd9061196c565b60405180910390fd5b6107d08282611288565b5050565b600660009054906101000a900473ffffffffffffffffffffffffffffffffffffffff1681565b60008060008373ffffffffffffffffffffffffffffffffffffffff1673ffffffffffffffffffffffffffffffffffffffff168152602001908152602001600020549050919050565b61084a610e34565b73ffffffffffffffffffffffffffffffffffffffff166108686108ca565b73ffffffffffffffffffffffffffffffffffffffff16146108be576040517f08c379a00000000000000000000000000000000000000000000000000000000081526004016108b5906119ec565b60405180910390fd5b6108c860006113e8565b565b6000600560009054906101000a900473ffffffffffffffffffffffffffffffffffffffff16905090565b60606004805461090390611cad565b80601f016020809104026020016040519081016040528092919081815260200182805461092f90611cad565b801561097c5780601f106109515761010080835404028352916020019161097c565b820191906000526020600020905b81548152906001019060200180831161095f57829003601f168201915b5050505050905090565b600760149054906101000a900460ff1681565b600080600160006109a8610e34565b73ffffffffffffffffffffffffffffffffffffffff1673ffffffffffffffffffffffffffffffffffffffff16815260200190815260200160002060008573ffffffffffffffffffffffffffffffffffffffff1673ffffffffffffffffffffffffffffffffffffffff16815260200190815260200160002054905082811015610a65576040517f08c379a0000000000000000000000000000000000000000000000000000000008152600401610a5c90611a4c565b60405180910390fd5b610a79610a70610e34565b85858403610e3c565b600191505092915050565b6000808211610ac8576040517f08c379a0000000000000000000000000000000000000000000000000000000008152600401610abf906119ac565b60405180910390fd5b600760149054906101000a900460ff1615610b495760006064600284610aee9190611b85565b610af89190611b54565b905060008184610b089190611bdf565b9050610b15338683611007565b610b4233600660009054906101000a900473ffffffffffffffffffffffffffffffffffffffff1684611007565b5050610b55565b610b54338484611007565b5b6001905092915050565b6000600160008473ffffffffffffffffffffffffffffffffffffffff1673ffffffffffffffffffffffffffffffffffffffff16815260200190815260200160002060008373ffffffffffffffffffffffffffffffffffffffff1673ffffffffffffffffffffffffffffffffffffffff16815260200190815260200160002054905092915050565b600760009054906101000a900473ffffffffffffffffffffffffffffffffffffffff1681565b610c14610e34565b73ffffffffffffffffffffffffffffffffffffffff16610c326108ca565b73ffffffffffffffffffffffffffffffffffffffff1614610c88576040517f08c379a0000000000000000000000000000000000000000000000000000000008152600401610c7f906119ec565b60405180910390fd5b600073ffffffffffffffffffffffffffffffffffffffff168173ffffffffffffffffffffffffffffffffffffffff161415610cf8576040517f08c379a0000000000000000000000000000000000000000000000000000000008152600401610cef90611a8c565b60405180910390fd5b80600660006101000a81548173ffffffffffffffffffffffffffffffffffffffff021916908373ffffffffffffffffffffffffffffffffffffffff16021790555050565b610d44610e34565b73ffffffffffffffffffffffffffffffffffffffff16610d626108ca565b73ffffffffffffffffffffffffffffffffffffffff1614610db8576040517f08c379a0000000000000000000000000000000000000000000000000000000008152600401610daf906119ec565b60405180910390fd5b600073ffffffffffffffffffffffffffffffffffffffff168173ffffffffffffffffffffffffffffffffffffffff161415610e28576040517f08c379a0000000000000000000000000000000000000000000000000000000008152600401610e1f9061192c565b60405180910390fd5b610e31816113e8565b50565b600033905090565b600073ffffffffffffffffffffffffffffffffffffffff168373ffffffffffffffffffffffffffffffffffffffff161415610eac576040517f08c379a0000000000000000000000000000000000000000000000000000000008152600401610ea390611a2c565b60405180910390fd5b600073ffffffffffffffffffffffffffffffffffffffff168273ffffffffffffffffffffffffffffffffffffffff161415610f1c576040517f08c379a0000000000000000000000000000000000000000000000000000000008152600401610f139061194c565b60405180910390fd5b80600160008573ffffffffffffffffffffffffffffffffffffffff1673ffffffffffffffffffffffffffffffffffffffff16815260200190815260200160002060008473ffffffffffffffffffffffffffffffffffffffff1673ffffffffffffffffffffffffffffffffffffffff168152602001908152602001600020819055508173ffffffffffffffffffffffffffffffffffffffff168373ffffffffffffffffffffffffffffffffffffffff167f8c5be1e5ebec7d5bd14f71427d1e84f3dd0314c0f7b2291e5b200ac8c7c3b92583604051610ffa9190611aac565b60405180910390a3505050565b600073ffffffffffffffffffffffffffffffffffffffff168373ffffffffffffffffffffffffffffffffffffffff161415611077576040517f08c379a000000000000000000000000000000000000000000000000000000000815260040161106e90611a0c565b60405180910390fd5b600073ffffffffffffffffffffffffffffffffffffffff168273ffffffffffffffffffffffffffffffffffffffff1614156110e7576040517f08c379a00000000000000000000000000000000000000000000000000000000081526004016110de9061190c565b60405180910390fd5b6110f28383836114ae565b60008060008573ffffffffffffffffffffffffffffffffffffffff1673ffffffffffffffffffffffffffffffffffffffff16815260200190815260200160002054905081811015611178576040517f08c379a000000000000000000000000000000000000000000000000000000000815260040161116f9061198c565b60405180910390fd5b8181036000808673ffffffffffffffffffffffffffffffffffffffff1673ffffffffffffffffffffffffffffffffffffffff16815260200190815260200160002081905550816000808573ffffffffffffffffffffffffffffffffffffffff1673ffffffffffffffffffffffffffffffffffffffff168152602001908152602001600020600082825461120b9190611afe565b925050819055508273ffffffffffffffffffffffffffffffffffffffff168473ffffffffffffffffffffffffffffffffffffffff167fddf252ad1be2c89b69c2b068fc378daa952ba7f163c4a11628f55a4df523b3ef8460405161126f9190611aac565b60405180910390a36112828484846114b3565b50505050565b600073ffffffffffffffffffffffffffffffffffffffff168273ffffffffffffffffffffffffffffffffffffffff1614156112f8576040517f08c379a00000000000000000000000000000000000000000000000000000000081526004016112ef90611a6c565b60405180910390fd5b611304600083836114ae565b80600260008282546113169190611afe565b92505081905550806000808473ffffffffffffffffffffffffffffffffffffffff1673ffffffffffffffffffffffffffffffffffffffff168152602001908152602001600020600082825461136b9190611afe565b925050819055508173ffffffffffffffffffffffffffffffffffffffff16600073ffffffffffffffffffffffffffffffffffffffff167fddf252ad1be2c89b69c2b068fc378daa952ba7f163c4a11628f55a4df523b3ef836040516113d09190611aac565b60405180910390a36113e4600083836114b3565b5050565b6000600560009054906101000a900473ffffffffffffffffffffffffffffffffffffffff16905081600560006101000a81548173ffffffffffffffffffffffffffffffffffffffff021916908373ffffffffffffffffffffffffffffffffffffffff1602179055508173ffffffffffffffffffffffffffffffffffffffff168173ffffffffffffffffffffffffffffffffffffffff167f8be0079c531659141344cd1fd0a4f28419497f9722a3daafe3b4186f6b6457e060405160405180910390a35050565b505050565b505050565b6000813590506114c7816120c2565b92915050565b6000813590506114dc816120d9565b92915050565b6000813590506114f1816120f0565b92915050565b60008135905061150681612107565b92915050565b60006020828403121561151e57600080fd5b600061152c848285016114b8565b91505092915050565b60006020828403121561154757600080fd5b6000611555848285016114cd565b91505092915050565b6000806040838503121561157157600080fd5b600061157f858286016114b8565b9250506020611590858286016114b8565b9150509250929050565b6000806000606084860312156115af57600080fd5b60006115bd868287016114b8565b93505060206115ce868287016114b8565b92505060406115df868287016114f7565b9150509250925092565b600080604083850312156115fc57600080fd5b600061160a858286016114b8565b925050602061161b858286016114f7565b9150509250929050565b60006020828403121561163757600080fd5b6000611645848285016114e2565b91505092915050565b61165781611c25565b82525050565b61166681611c13565b82525050565b61167581611c37565b82525050565b600061168682611ae2565b6116908185611aed565b93506116a0818560208601611c7a565b6116a981611d6c565b840191505092915050565b60006116c1602383611aed565b91506116cc82611d7d565b604082019050919050565b60006116e4602683611aed565b91506116ef82611dcc565b604082019050919050565b6000611707602283611aed565b915061171282611e1b565b604082019050919050565b600061172a602083611aed565b915061173582611e6a565b602082019050919050565b600061174d602683611aed565b915061175882611e93565b604082019050919050565b6000611770601d83611aed565b915061177b82611ee2565b602082019050919050565b6000611793602883611aed565b915061179e82611f0b565b604082019050919050565b60006117b6602083611aed565b91506117c182611f5a565b602082019050919050565b60006117d9602583611aed565b91506117e482611f83565b604082019050919050565b60006117fc602483611aed565b915061180782611fd2565b604082019050919050565b600061181f602583611aed565b915061182a82612021565b604082019050919050565b6000611842601f83611aed565b915061184d82612070565b602082019050919050565b6000611865601d83611aed565b915061187082612099565b602082019050919050565b61188481611c63565b82525050565b61189381611c6d565b82525050565b60006020820190506118ae600083018461165d565b92915050565b60006020820190506118c9600083018461164e565b92915050565b60006020820190506118e4600083018461166c565b92915050565b60006020820190508181036000830152611904818461167b565b905092915050565b60006020820190508181036000830152611925816116b4565b9050919050565b60006020820190508181036000830152611945816116d7565b9050919050565b60006020820190508181036000830152611965816116fa565b9050919050565b600060208201905081810360008301526119858161171d565b9050919050565b600060208201905081810360008301526119a581611740565b9050919050565b600060208201905081810360008301526119c581611763565b9050919050565b600060208201905081810360008301526119e581611786565b9050919050565b60006020820190508181036000830152611a05816117a9565b9050919050565b60006020820190508181036000830152611a25816117cc565b9050919050565b60006020820190508181036000830152611a45816117ef565b9050919050565b60006020820190508181036000830152611a6581611812565b9050919050565b60006020820190508181036000830152611a8581611835565b9050919050565b60006020820190508181036000830152611aa581611858565b9050919050565b6000602082019050611ac1600083018461187b565b92915050565b6000602082019050611adc600083018461188a565b92915050565b600081519050919050565b600082825260208201905092915050565b6000611b0982611c63565b9150611b1483611c63565b9250827fffffffffffffffffffffffffffffffffffffffffffffffffffffffffffffffff03821115611b4957611b48611cdf565b5b828201905092915050565b6000611b5f82611c63565b9150611b6a83611c63565b925082611b7a57611b79611d0e565b5b828204905092915050565b6000611b9082611c63565b9150611b9b83611c63565b9250817fffffffffffffffffffffffffffffffffffffffffffffffffffffffffffffffff0483118215151615611bd457611bd3611cdf565b5b828202905092915050565b6000611bea82611c63565b9150611bf583611c63565b925082821015611c0857611c07611cdf565b5b828203905092915050565b6000611c1e82611c43565b9050919050565b6000611c3082611c43565b9050919050565b60008115159050919050565b600073ffffffffffffffffffffffffffffffffffffffff82169050919050565b6000819050919050565b600060ff82169050919050565b60005b83811015611c98578082015181840152602081019050611c7d565b83811115611ca7576000848401525b50505050565b60006002820490506001821680611cc557607f821691505b60208210811415611cd957611cd8611d3d565b5b50919050565b7f4e487b7100000000000000000000000000000000000000000000000000000000600052601160045260246000fd5b7f4e487b7100000000000000000000000000000000000000000000000000000000600052601260045260246000fd5b7f4e487b7100000000000000000000000000000000000000000000000000000000600052602260045260246000fd5b6000601f19601f8301169050919050565b7f45524332303a207472616e7366657220746f20746865207a65726f206164647260008201527f6573730000000000000000000000000000000000000000000000000000000000602082015250565b7f4f776e61626c653a206e6577206f776e657220697320746865207a65726f206160008201527f6464726573730000000000000000000000000000000000000000000000000000602082015250565b7f45524332303a20617070726f766520746f20746865207a65726f20616464726560008201527f7373000000000000000000000000000000000000000000000000000000000000602082015250565b7f6d696e74696e6720776f756c642073757270617373206d617820737570706c79600082015250565b7f45524332303a207472616e7366657220616d6f756e742065786365656473206260008201527f616c616e63650000000000000000000000000000000000000000000000000000602082015250565b7f616d6f756e74206d7573742062652067726561746572207468616e2030000000600082015250565b7f45524332303a207472616e7366657220616d6f756e742065786365656473206160008201527f6c6c6f77616e6365000000000000000000000000000000000000000000000000602082015250565b7f4f776e61626c653a2063616c6c6572206973206e6f7420746865206f776e6572600082015250565b7f45524332303a207472616e736665722066726f6d20746865207a65726f20616460008201527f6472657373000000000000000000000000000000000000000000000000000000602082015250565b7f45524332303a20617070726f76652066726f6d20746865207a65726f2061646460008201527f7265737300000000000000000000000000000000000000000000000000000000602082015250565b7f45524332303a2064656372656173656420616c6c6f77616e63652062656c6f7760008201527f207a65726f000000000000000000000000000000000000000000000000000000602082015250565b7f45524332303a206d696e7420746f20746865207a65726f206164647265737300600082015250565b7f74726561737572792063616e6e6f742062652061646472657373283029000000600082015250565b6120cb81611c13565b81146120d657600080fd5b50565b6120e281611c25565b81146120ed57600080fd5b50565b6120f981611c37565b811461210457600080fd5b50565b61211081611c63565b811461211b57600080fd5b5056fea2646970667358221220f9b030c4f89c020a2df0467e9eb302418302af42eb77cce683cde7d370005c7e64736f6c63430008040033",
  "linkReferences": {},
  "deployedLinkReferences": {}
}