{
  "_format": "hh-sol-artifact-1",
  "contractName": "TomatoToken",
  "sourceName": "contracts/TomatoToken.sol",
  "abi": [
    {
      "inputs": [
        {
          "internalType": "address payable",
          "name": "treasuryAddress",
          "type": "address"
        },
        {
          "internalType": "address payable",
          "name": "tomatoLPAddress",
          "type": "address"
        }
      ],
      "stateMutability": "nonpayable",
      "type": "constructor"
    },
    {
      "anonymous": false,
      "inputs": [
        {
          "indexed": true,
          "internalType": "address",
          "name": "owner",
          "type": "address"
        },
        {
          "indexed": true,
          "internalType": "address",
          "name": "spender",
          "type": "address"
        },
        {
          "indexed": false,
          "internalType": "uint256",
          "name": "value",
          "type": "uint256"
        }
      ],
      "name": "Approval",
      "type": "event"
    },
    {
      "anonymous": false,
      "inputs": [
        {
          "indexed": true,
          "internalType": "address",
          "name": "previousOwner",
          "type": "address"
        },
        {
          "indexed": true,
          "internalType": "address",
          "name": "newOwner",
          "type": "address"
        }
      ],
      "name": "OwnershipTransferred",
      "type": "event"
    },
    {
      "anonymous": false,
      "inputs": [
        {
          "indexed": true,
          "internalType": "address",
          "name": "from",
          "type": "address"
        },
        {
          "indexed": true,
          "internalType": "address",
          "name": "to",
          "type": "address"
        },
        {
          "indexed": false,
          "internalType": "uint256",
          "name": "value",
          "type": "uint256"
        }
      ],
      "name": "Transfer",
      "type": "event"
    },
    {
      "inputs": [
        {
          "internalType": "address",
          "name": "owner",
          "type": "address"
        },
        {
          "internalType": "address",
          "name": "spender",
          "type": "address"
        }
      ],
      "name": "allowance",
      "outputs": [
        {
          "internalType": "uint256",
          "name": "",
          "type": "uint256"
        }
      ],
      "stateMutability": "view",
      "type": "function"
    },
    {
      "inputs": [
        {
          "internalType": "address",
          "name": "spender",
          "type": "address"
        },
        {
          "internalType": "uint256",
          "name": "amount",
          "type": "uint256"
        }
      ],
      "name": "approve",
      "outputs": [
        {
          "internalType": "bool",
          "name": "",
          "type": "bool"
        }
      ],
      "stateMutability": "nonpayable",
      "type": "function"
    },
    {
      "inputs": [],
      "name": "approveSpending",
      "outputs": [],
      "stateMutability": "nonpayable",
      "type": "function"
    },
    {
      "inputs": [
        {
          "internalType": "address",
          "name": "account",
          "type": "address"
        }
      ],
      "name": "balanceOf",
      "outputs": [
        {
          "internalType": "uint256",
          "name": "",
          "type": "uint256"
        }
      ],
      "stateMutability": "view",
      "type": "function"
    },
    {
      "inputs": [],
      "name": "decimals",
      "outputs": [
        {
          "internalType": "uint8",
          "name": "",
          "type": "uint8"
        }
      ],
      "stateMutability": "view",
      "type": "function"
    },
    {
      "inputs": [
        {
          "internalType": "address",
          "name": "spender",
          "type": "address"
        },
        {
          "internalType": "uint256",
          "name": "subtractedValue",
          "type": "uint256"
        }
      ],
      "name": "decreaseAllowance",
      "outputs": [
        {
          "internalType": "bool",
          "name": "",
          "type": "bool"
        }
      ],
      "stateMutability": "nonpayable",
      "type": "function"
    },
    {
      "inputs": [
        {
          "internalType": "address",
          "name": "spender",
          "type": "address"
        },
        {
          "internalType": "uint256",
          "name": "addedValue",
          "type": "uint256"
        }
      ],
      "name": "increaseAllowance",
      "outputs": [
        {
          "internalType": "bool",
          "name": "",
          "type": "bool"
        }
      ],
      "stateMutability": "nonpayable",
      "type": "function"
    },
    {
      "inputs": [
        {
          "internalType": "address",
          "name": "to",
          "type": "address"
        },
        {
          "internalType": "uint256",
          "name": "amount",
          "type": "uint256"
        }
      ],
      "name": "mint",
      "outputs": [],
      "stateMutability": "nonpayable",
      "type": "function"
    },
    {
      "inputs": [],
      "name": "name",
      "outputs": [
        {
          "internalType": "string",
          "name": "",
          "type": "string"
        }
      ],
      "stateMutability": "view",
      "type": "function"
    },
    {
      "inputs": [],
      "name": "owner",
      "outputs": [
        {
          "internalType": "address",
          "name": "",
          "type": "address"
        }
      ],
      "stateMutability": "view",
      "type": "function"
    },
    {
      "inputs": [],
      "name": "renounceOwnership",
      "outputs": [],
      "stateMutability": "nonpayable",
      "type": "function"
    },
    {
      "inputs": [
        {
          "internalType": "address payable",
          "name": "lpAddress",
          "type": "address"
        }
      ],
      "name": "setTomatoLP",
      "outputs": [],
      "stateMutability": "nonpayable",
      "type": "function"
    },
    {
      "inputs": [
        {
          "internalType": "address payable",
          "name": "treasuryAddress",
          "type": "address"
        }
      ],
      "name": "setTreasury",
      "outputs": [],
      "stateMutability": "nonpayable",
      "type": "function"
    },
    {
      "inputs": [],
      "name": "symbol",
      "outputs": [
        {
          "internalType": "string",
          "name": "",
          "type": "string"
        }
      ],
      "stateMutability": "view",
      "type": "function"
    },
    {
      "inputs": [],
      "name": "tax",
      "outputs": [
        {
          "internalType": "bool",
          "name": "",
          "type": "bool"
        }
      ],
      "stateMutability": "view",
      "type": "function"
    },
    {
      "inputs": [
        {
          "internalType": "bool",
          "name": "state",
          "type": "bool"
        }
      ],
      "name": "toggleTax",
      "outputs": [],
      "stateMutability": "nonpayable",
      "type": "function"
    },
    {
      "inputs": [],
      "name": "tomatoLP",
      "outputs": [
        {
          "internalType": "address payable",
          "name": "",
          "type": "address"
        }
      ],
      "stateMutability": "view",
      "type": "function"
    },
    {
      "inputs": [],
      "name": "totalSupply",
      "outputs": [
        {
          "internalType": "uint256",
          "name": "",
          "type": "uint256"
        }
      ],
      "stateMutability": "view",
      "type": "function"
    },
    {
      "inputs": [
        {
          "internalType": "address",
          "name": "recipient",
          "type": "address"
        },
        {
          "internalType": "uint256",
          "name": "amount",
          "type": "uint256"
        }
      ],
      "name": "transfer",
      "outputs": [
        {
          "internalType": "bool",
          "name": "",
          "type": "bool"
        }
      ],
      "stateMutability": "nonpayable",
      "type": "function"
    },
    {
      "inputs": [
        {
          "internalType": "address",
          "name": "sender",
          "type": "address"
        },
        {
          "internalType": "address",
          "name": "recipient",
          "type": "address"
        },
        {
          "internalType": "uint256",
          "name": "amount",
          "type": "uint256"
        }
      ],
      "name": "transferFrom",
      "outputs": [
        {
          "internalType": "bool",
          "name": "",
          "type": "bool"
        }
      ],
      "stateMutability": "nonpayable",
      "type": "function"
    },
    {
      "inputs": [
        {
          "internalType": "address",
          "name": "newOwner",
          "type": "address"
        }
      ],
      "name": "transferOwnership",
      "outputs": [],
      "stateMutability": "nonpayable",
      "type": "function"
    },
    {
      "inputs": [],
      "name": "treasury",
      "outputs": [
        {
          "internalType": "address payable",
          "name": "",
          "type": "address"
        }
      ],
      "stateMutability": "view",
      "type": "function"
    }
  ],
  "bytecode": "0x60806040523480156200001157600080fd5b506040516200319d3803806200319d8339818101604052810190620000379190620008f0565b6040518060400160405280600681526020017f546f6d61746f00000000000000000000000000000000000000000000000000008152506040518060400160405280600481526020017f544d544f000000000000000000000000000000000000000000000000000000008152508160039080519060200190620000bb92919062000829565b508060049080519060200190620000d492919062000829565b505050620000f7620000eb620001fe60201b60201c565b6200020660201b60201c565b6200010882620002cc60201b60201c565b62000119816200041260201b60201c565b6200017a600660009054906101000a900473ffffffffffffffffffffffffffffffffffffffff16620001506200055860201b60201c565b600a6200015e919062000b4c565b620557306200016e919062000c89565b6200056160201b60201c565b620001db600760009054906101000a900473ffffffffffffffffffffffffffffffffffffffff16620001b16200055860201b60201c565b600a620001bf919062000b4c565b620249f0620001cf919062000c89565b6200056160201b60201c565b6001600760146101000a81548160ff021916908315150217905550505062000e94565b600033905090565b6000600560009054906101000a900473ffffffffffffffffffffffffffffffffffffffff16905081600560006101000a81548173ffffffffffffffffffffffffffffffffffffffff021916908373ffffffffffffffffffffffffffffffffffffffff1602179055508173ffffffffffffffffffffffffffffffffffffffff168173ffffffffffffffffffffffffffffffffffffffff167f8be0079c531659141344cd1fd0a4f28419497f9722a3daafe3b4186f6b6457e060405160405180910390a35050565b620002dc620001fe60201b60201c565b73ffffffffffffffffffffffffffffffffffffffff16620003026200067260201b60201c565b73ffffffffffffffffffffffffffffffffffffffff16146200035b576040517f08c379a0000000000000000000000000000000000000000000000000000000008152600401620003529062000a00565b60405180910390fd5b600073ffffffffffffffffffffffffffffffffffffffff168173ffffffffffffffffffffffffffffffffffffffff161415620003ce576040517f08c379a0000000000000000000000000000000000000000000000000000000008152600401620003c59062000a44565b60405180910390fd5b80600660006101000a81548173ffffffffffffffffffffffffffffffffffffffff021916908373ffffffffffffffffffffffffffffffffffffffff16021790555050565b62000422620001fe60201b60201c565b73ffffffffffffffffffffffffffffffffffffffff16620004486200067260201b60201c565b73ffffffffffffffffffffffffffffffffffffffff1614620004a1576040517f08c379a0000000000000000000000000000000000000000000000000000000008152600401620004989062000a00565b60405180910390fd5b600073ffffffffffffffffffffffffffffffffffffffff168173ffffffffffffffffffffffffffffffffffffffff16141562000514576040517f08c379a00000000000000000000000000000000000000000000000000000000081526004016200050b9062000a44565b60405180910390fd5b80600760006101000a81548173ffffffffffffffffffffffffffffffffffffffff021916908373ffffffffffffffffffffffffffffffffffffffff16021790555050565b60006012905090565b62000571620001fe60201b60201c565b73ffffffffffffffffffffffffffffffffffffffff16620005976200067260201b60201c565b73ffffffffffffffffffffffffffffffffffffffff1614620005f0576040517f08c379a0000000000000000000000000000000000000000000000000000000008152600401620005e79062000a00565b60405180910390fd5b6969e10de76676d0800000816200060c6200069c60201b60201c565b62000618919062000a94565b11156200065c576040517f08c379a00000000000000000000000000000000000000000000000000000000081526004016200065390620009de565b60405180910390fd5b6200066e8282620006a660201b60201c565b5050565b6000600560009054906101000a900473ffffffffffffffffffffffffffffffffffffffff16905090565b6000600254905090565b600073ffffffffffffffffffffffffffffffffffffffff168273ffffffffffffffffffffffffffffffffffffffff16141562000719576040517f08c379a0000000000000000000000000000000000000000000000000000000008152600401620007109062000a22565b60405180910390fd5b6200072d600083836200081f60201b60201c565b806002600082825462000741919062000a94565b92505081905550806000808473ffffffffffffffffffffffffffffffffffffffff1673ffffffffffffffffffffffffffffffffffffffff168152602001908152602001600020600082825462000798919062000a94565b925050819055508173ffffffffffffffffffffffffffffffffffffffff16600073ffffffffffffffffffffffffffffffffffffffff167fddf252ad1be2c89b69c2b068fc378daa952ba7f163c4a11628f55a4df523b3ef83604051620007ff919062000a66565b60405180910390a36200081b600083836200082460201b60201c565b5050565b505050565b505050565b828054620008379062000d35565b90600052602060002090601f0160209004810192826200085b5760008555620008a7565b82601f106200087657805160ff1916838001178555620008a7565b82800160010185558215620008a7579182015b82811115620008a657825182559160200191906001019062000889565b5b509050620008b69190620008ba565b5090565b5b80821115620008d5576000816000905550600101620008bb565b5090565b600081519050620008ea8162000e7a565b92915050565b600080604083850312156200090457600080fd5b60006200091485828601620008d9565b92505060206200092785828601620008d9565b9150509250929050565b60006200094060208362000a83565b91506200094d8262000dd6565b602082019050919050565b60006200096760208362000a83565b9150620009748262000dff565b602082019050919050565b60006200098e601f8362000a83565b91506200099b8262000e28565b602082019050919050565b6000620009b5601d8362000a83565b9150620009c28262000e51565b602082019050919050565b620009d88162000d1e565b82525050565b60006020820190508181036000830152620009f98162000931565b9050919050565b6000602082019050818103600083015262000a1b8162000958565b9050919050565b6000602082019050818103600083015262000a3d816200097f565b9050919050565b6000602082019050818103600083015262000a5f81620009a6565b9050919050565b600060208201905062000a7d6000830184620009cd565b92915050565b600082825260208201905092915050565b600062000aa18262000d1e565b915062000aae8362000d1e565b9250827fffffffffffffffffffffffffffffffffffffffffffffffffffffffffffffffff0382111562000ae65762000ae562000d6b565b5b828201905092915050565b6000808291508390505b600185111562000b435780860481111562000b1b5762000b1a62000d6b565b5b600185161562000b2b5780820291505b808102905062000b3b8562000dc9565b945062000afb565b94509492505050565b600062000b598262000d1e565b915062000b668362000d28565b925062000b957fffffffffffffffffffffffffffffffffffffffffffffffffffffffffffffffff848462000b9d565b905092915050565b60008262000baf576001905062000c82565b8162000bbf576000905062000c82565b816001811462000bd8576002811462000be35762000c19565b600191505062000c82565b60ff84111562000bf85762000bf762000d6b565b5b8360020a91508482111562000c125762000c1162000d6b565b5b5062000c82565b5060208310610133831016604e8410600b841016171562000c535782820a90508381111562000c4d5762000c4c62000d6b565b5b62000c82565b62000c62848484600162000af1565b9250905081840481111562000c7c5762000c7b62000d6b565b5b81810290505b9392505050565b600062000c968262000d1e565b915062000ca38362000d1e565b9250817fffffffffffffffffffffffffffffffffffffffffffffffffffffffffffffffff048311821515161562000cdf5762000cde62000d6b565b5b828202905092915050565b600062000cf78262000cfe565b9050919050565b600073ffffffffffffffffffffffffffffffffffffffff82169050919050565b6000819050919050565b600060ff82169050919050565b6000600282049050600182168062000d4e57607f821691505b6020821081141562000d655762000d6462000d9a565b5b50919050565b7f4e487b7100000000000000000000000000000000000000000000000000000000600052601160045260246000fd5b7f4e487b7100000000000000000000000000000000000000000000000000000000600052602260045260246000fd5b60008160011c9050919050565b7f6d696e74696e6720776f756c642073757270617373206d617820737570706c79600082015250565b7f4f776e61626c653a2063616c6c6572206973206e6f7420746865206f776e6572600082015250565b7f45524332303a206d696e7420746f20746865207a65726f206164647265737300600082015250565b7f74726561737572792063616e6e6f742062652061646472657373283029000000600082015250565b62000e858162000cea565b811462000e9157600080fd5b50565b6122f98062000ea46000396000f3fe608060405234801561001057600080fd5b50600436106101425760003560e01c8063715018a6116100b8578063a457c2d71161007c578063a457c2d714610341578063a9059cbb14610371578063dd62ed3e146103a1578063ea01dc49146103d1578063f0f44260146103ef578063f2fde38b1461040b57610142565b8063715018a6146102d35780638da5cb5b146102dd57806395d89b41146102fb57806399c8d55614610319578063a26bd9181461033757610142565b8063348372ec1161010a578063348372ec14610201578063395093511461021d5780633cfd52111461024d57806340c10f191461026957806361d027b31461028557806370a08231146102a357610142565b806306fdde0314610147578063095ea7b31461016557806318160ddd1461019557806323b872dd146101b3578063313ce567146101e3575b600080fd5b61014f610427565b60405161015c9190611a8f565b60405180910390f35b61017f600480360381019061017a919061178e565b6104b9565b60405161018c9190611a74565b60405180910390f35b61019d6104d7565b6040516101aa9190611c51565b60405180910390f35b6101cd60048036038101906101c8919061173f565b6104e1565b6040516101da9190611a74565b60405180910390f35b6101eb6105d9565b6040516101f89190611c6c565b60405180910390f35b61021b600480360381019061021691906116da565b6105e2565b005b6102376004803603810190610232919061178e565b610712565b6040516102449190611a74565b60405180910390f35b610267600480360381019061026291906117ca565b6107be565b005b610283600480360381019061027e919061178e565b610857565b005b61028d610940565b60405161029a9190611a59565b60405180910390f35b6102bd60048036038101906102b891906116b1565b610966565b6040516102ca9190611c51565b60405180910390f35b6102db6109ae565b005b6102e5610a36565b6040516102f29190611a3e565b60405180910390f35b610303610a60565b6040516103109190611a8f565b60405180910390f35b610321610af2565b60405161032e9190611a74565b60405180910390f35b61033f610b05565b005b61035b6004803603810190610356919061178e565b610b3e565b6040516103689190611a74565b60405180910390f35b61038b6004803603810190610386919061178e565b610c29565b6040516103989190611a74565b60405180910390f35b6103bb60048036038101906103b69190611703565b610d04565b6040516103c89190611c51565b60405180910390f35b6103d9610d8b565b6040516103e69190611a59565b60405180910390f35b610409600480360381019061040491906116da565b610db1565b005b610425600480360381019061042091906116b1565b610ee1565b005b60606003805461043690611e52565b80601f016020809104026020016040519081016040528092919081815260200182805461046290611e52565b80156104af5780601f10610484576101008083540402835291602001916104af565b820191906000526020600020905b81548152906001019060200180831161049257829003601f168201915b5050505050905090565b60006104cd6104c6610fd9565b8484610fe1565b6001905092915050565b6000600254905090565b60006104ee8484846111ac565b6000600160008673ffffffffffffffffffffffffffffffffffffffff1673ffffffffffffffffffffffffffffffffffffffff1681526020019081526020016000206000610539610fd9565b73ffffffffffffffffffffffffffffffffffffffff1673ffffffffffffffffffffffffffffffffffffffff168152602001908152602001600020549050828110156105b9576040517f08c379a00000000000000000000000000000000000000000000000000000000081526004016105b090611b71565b60405180910390fd5b6105cd856105c5610fd9565b858403610fe1565b60019150509392505050565b60006012905090565b6105ea610fd9565b73ffffffffffffffffffffffffffffffffffffffff16610608610a36565b73ffffffffffffffffffffffffffffffffffffffff161461065e576040517f08c379a000000000000000000000000000000000000000000000000000000000815260040161065590611b91565b60405180910390fd5b600073ffffffffffffffffffffffffffffffffffffffff168173ffffffffffffffffffffffffffffffffffffffff1614156106ce576040517f08c379a00000000000000000000000000000000000000000000000000000000081526004016106c590611c31565b60405180910390fd5b80600760006101000a81548173ffffffffffffffffffffffffffffffffffffffff021916908373ffffffffffffffffffffffffffffffffffffffff16021790555050565b60006107b461071f610fd9565b84846001600061072d610fd9565b73ffffffffffffffffffffffffffffffffffffffff1673ffffffffffffffffffffffffffffffffffffffff16815260200190815260200160002060008873ffffffffffffffffffffffffffffffffffffffff1673ffffffffffffffffffffffffffffffffffffffff168152602001908152602001600020546107af9190611ca3565b610fe1565b6001905092915050565b6107c6610fd9565b73ffffffffffffffffffffffffffffffffffffffff166107e4610a36565b73ffffffffffffffffffffffffffffffffffffffff161461083a576040517f08c379a000000000000000000000000000000000000000000000000000000000815260040161083190611b91565b60405180910390fd5b80600760146101000a81548160ff02191690831515021790555050565b61085f610fd9565b73ffffffffffffffffffffffffffffffffffffffff1661087d610a36565b73ffffffffffffffffffffffffffffffffffffffff16146108d3576040517f08c379a00000000000000000000000000000000000000000000000000000000081526004016108ca90611b91565b60405180910390fd5b6969e10de76676d0800000816108e76104d7565b6108f19190611ca3565b1115610932576040517f08c379a000000000000000000000000000000000000000000000000000000000815260040161092990611b11565b60405180910390fd5b61093c828261142d565b5050565b600660009054906101000a900473ffffffffffffffffffffffffffffffffffffffff1681565b60008060008373ffffffffffffffffffffffffffffffffffffffff1673ffffffffffffffffffffffffffffffffffffffff168152602001908152602001600020549050919050565b6109b6610fd9565b73ffffffffffffffffffffffffffffffffffffffff166109d4610a36565b73ffffffffffffffffffffffffffffffffffffffff1614610a2a576040517f08c379a0000000000000000000000000000000000000000000000000000000008152600401610a2190611b91565b60405180910390fd5b610a34600061158d565b565b6000600560009054906101000a900473ffffffffffffffffffffffffffffffffffffffff16905090565b606060048054610a6f90611e52565b80601f0160208091040260200160405190810160405280929190818152602001828054610a9b90611e52565b8015610ae85780601f10610abd57610100808354040283529160200191610ae8565b820191906000526020600020905b815481529060010190602001808311610acb57829003601f168201915b5050505050905090565b600760149054906101000a900460ff1681565b610b3c600760009054906101000a900473ffffffffffffffffffffffffffffffffffffffff16336969e10de76676d0800000610fe1565b565b60008060016000610b4d610fd9565b73ffffffffffffffffffffffffffffffffffffffff1673ffffffffffffffffffffffffffffffffffffffff16815260200190815260200160002060008573ffffffffffffffffffffffffffffffffffffffff1673ffffffffffffffffffffffffffffffffffffffff16815260200190815260200160002054905082811015610c0a576040517f08c379a0000000000000000000000000000000000000000000000000000000008152600401610c0190611bf1565b60405180910390fd5b610c1e610c15610fd9565b85858403610fe1565b600191505092915050565b6000808211610c6d576040517f08c379a0000000000000000000000000000000000000000000000000000000008152600401610c6490611b51565b60405180910390fd5b600760149054906101000a900460ff1615610cee5760006064600284610c939190611d2a565b610c9d9190611cf9565b905060008184610cad9190611d84565b9050610cba3386836111ac565b610ce733600660009054906101000a900473ffffffffffffffffffffffffffffffffffffffff16846111ac565b5050610cfa565b610cf93384846111ac565b5b6001905092915050565b6000600160008473ffffffffffffffffffffffffffffffffffffffff1673ffffffffffffffffffffffffffffffffffffffff16815260200190815260200160002060008373ffffffffffffffffffffffffffffffffffffffff1673ffffffffffffffffffffffffffffffffffffffff16815260200190815260200160002054905092915050565b600760009054906101000a900473ffffffffffffffffffffffffffffffffffffffff1681565b610db9610fd9565b73ffffffffffffffffffffffffffffffffffffffff16610dd7610a36565b73ffffffffffffffffffffffffffffffffffffffff1614610e2d576040517f08c379a0000000000000000000000000000000000000000000000000000000008152600401610e2490611b91565b60405180910390fd5b600073ffffffffffffffffffffffffffffffffffffffff168173ffffffffffffffffffffffffffffffffffffffff161415610e9d576040517f08c379a0000000000000000000000000000000000000000000000000000000008152600401610e9490611c31565b60405180910390fd5b80600660006101000a81548173ffffffffffffffffffffffffffffffffffffffff021916908373ffffffffffffffffffffffffffffffffffffffff16021790555050565b610ee9610fd9565b73ffffffffffffffffffffffffffffffffffffffff16610f07610a36565b73ffffffffffffffffffffffffffffffffffffffff1614610f5d576040517f08c379a0000000000000000000000000000000000000000000000000000000008152600401610f5490611b91565b60405180910390fd5b600073ffffffffffffffffffffffffffffffffffffffff168173ffffffffffffffffffffffffffffffffffffffff161415610fcd576040517f08c379a0000000000000000000000000000000000000000000000000000000008152600401610fc490611ad1565b60405180910390fd5b610fd68161158d565b50565b600033905090565b600073ffffffffffffffffffffffffffffffffffffffff168373ffffffffffffffffffffffffffffffffffffffff161415611051576040517f08c379a000000000000000000000000000000000000000000000000000000000815260040161104890611bd1565b60405180910390fd5b600073ffffffffffffffffffffffffffffffffffffffff168273ffffffffffffffffffffffffffffffffffffffff1614156110c1576040517f08c379a00000000000000000000000000000000000000000000000000000000081526004016110b890611af1565b60405180910390fd5b80600160008573ffffffffffffffffffffffffffffffffffffffff1673ffffffffffffffffffffffffffffffffffffffff16815260200190815260200160002060008473ffffffffffffffffffffffffffffffffffffffff1673ffffffffffffffffffffffffffffffffffffffff168152602001908152602001600020819055508173ffffffffffffffffffffffffffffffffffffffff168373ffffffffffffffffffffffffffffffffffffffff167f8c5be1e5ebec7d5bd14f71427d1e84f3dd0314c0f7b2291e5b200ac8c7c3b9258360405161119f9190611c51565b60405180910390a3505050565b600073ffffffffffffffffffffffffffffffffffffffff168373ffffffffffffffffffffffffffffffffffffffff16141561121c576040517f08c379a000000000000000000000000000000000000000000000000000000000815260040161121390611bb1565b60405180910390fd5b600073ffffffffffffffffffffffffffffffffffffffff168273ffffffffffffffffffffffffffffffffffffffff16141561128c576040517f08c379a000000000000000000000000000000000000000000000000000000000815260040161128390611ab1565b60405180910390fd5b611297838383611653565b60008060008573ffffffffffffffffffffffffffffffffffffffff1673ffffffffffffffffffffffffffffffffffffffff1681526020019081526020016000205490508181101561131d576040517f08c379a000000000000000000000000000000000000000000000000000000000815260040161131490611b31565b60405180910390fd5b8181036000808673ffffffffffffffffffffffffffffffffffffffff1673ffffffffffffffffffffffffffffffffffffffff16815260200190815260200160002081905550816000808573ffffffffffffffffffffffffffffffffffffffff1673ffffffffffffffffffffffffffffffffffffffff16815260200190815260200160002060008282546113b09190611ca3565b925050819055508273ffffffffffffffffffffffffffffffffffffffff168473ffffffffffffffffffffffffffffffffffffffff167fddf252ad1be2c89b69c2b068fc378daa952ba7f163c4a11628f55a4df523b3ef846040516114149190611c51565b60405180910390a3611427848484611658565b50505050565b600073ffffffffffffffffffffffffffffffffffffffff168273ffffffffffffffffffffffffffffffffffffffff16141561149d576040517f08c379a000000000000000000000000000000000000000000000000000000000815260040161149490611c11565b60405180910390fd5b6114a960008383611653565b80600260008282546114bb9190611ca3565b92505081905550806000808473ffffffffffffffffffffffffffffffffffffffff1673ffffffffffffffffffffffffffffffffffffffff16815260200190815260200160002060008282546115109190611ca3565b925050819055508173ffffffffffffffffffffffffffffffffffffffff16600073ffffffffffffffffffffffffffffffffffffffff167fddf252ad1be2c89b69c2b068fc378daa952ba7f163c4a11628f55a4df523b3ef836040516115759190611c51565b60405180910390a361158960008383611658565b5050565b6000600560009054906101000a900473ffffffffffffffffffffffffffffffffffffffff16905081600560006101000a81548173ffffffffffffffffffffffffffffffffffffffff021916908373ffffffffffffffffffffffffffffffffffffffff1602179055508173ffffffffffffffffffffffffffffffffffffffff168173ffffffffffffffffffffffffffffffffffffffff167f8be0079c531659141344cd1fd0a4f28419497f9722a3daafe3b4186f6b6457e060405160405180910390a35050565b505050565b505050565b60008135905061166c81612267565b92915050565b6000813590506116818161227e565b92915050565b60008135905061169681612295565b92915050565b6000813590506116ab816122ac565b92915050565b6000602082840312156116c357600080fd5b60006116d18482850161165d565b91505092915050565b6000602082840312156116ec57600080fd5b60006116fa84828501611672565b91505092915050565b6000806040838503121561171657600080fd5b60006117248582860161165d565b92505060206117358582860161165d565b9150509250929050565b60008060006060848603121561175457600080fd5b60006117628682870161165d565b93505060206117738682870161165d565b92505060406117848682870161169c565b9150509250925092565b600080604083850312156117a157600080fd5b60006117af8582860161165d565b92505060206117c08582860161169c565b9150509250929050565b6000602082840312156117dc57600080fd5b60006117ea84828501611687565b91505092915050565b6117fc81611dca565b82525050565b61180b81611db8565b82525050565b61181a81611ddc565b82525050565b600061182b82611c87565b6118358185611c92565b9350611845818560208601611e1f565b61184e81611f11565b840191505092915050565b6000611866602383611c92565b915061187182611f22565b604082019050919050565b6000611889602683611c92565b915061189482611f71565b604082019050919050565b60006118ac602283611c92565b91506118b782611fc0565b604082019050919050565b60006118cf602083611c92565b91506118da8261200f565b602082019050919050565b60006118f2602683611c92565b91506118fd82612038565b604082019050919050565b6000611915601d83611c92565b915061192082612087565b602082019050919050565b6000611938602883611c92565b9150611943826120b0565b604082019050919050565b600061195b602083611c92565b9150611966826120ff565b602082019050919050565b600061197e602583611c92565b915061198982612128565b604082019050919050565b60006119a1602483611c92565b91506119ac82612177565b604082019050919050565b60006119c4602583611c92565b91506119cf826121c6565b604082019050919050565b60006119e7601f83611c92565b91506119f282612215565b602082019050919050565b6000611a0a601d83611c92565b9150611a158261223e565b602082019050919050565b611a2981611e08565b82525050565b611a3881611e12565b82525050565b6000602082019050611a536000830184611802565b92915050565b6000602082019050611a6e60008301846117f3565b92915050565b6000602082019050611a896000830184611811565b92915050565b60006020820190508181036000830152611aa98184611820565b905092915050565b60006020820190508181036000830152611aca81611859565b9050919050565b60006020820190508181036000830152611aea8161187c565b9050919050565b60006020820190508181036000830152611b0a8161189f565b9050919050565b60006020820190508181036000830152611b2a816118c2565b9050919050565b60006020820190508181036000830152611b4a816118e5565b9050919050565b60006020820190508181036000830152611b6a81611908565b9050919050565b60006020820190508181036000830152611b8a8161192b565b9050919050565b60006020820190508181036000830152611baa8161194e565b9050919050565b60006020820190508181036000830152611bca81611971565b9050919050565b60006020820190508181036000830152611bea81611994565b9050919050565b60006020820190508181036000830152611c0a816119b7565b9050919050565b60006020820190508181036000830152611c2a816119da565b9050919050565b60006020820190508181036000830152611c4a816119fd565b9050919050565b6000602082019050611c666000830184611a20565b92915050565b6000602082019050611c816000830184611a2f565b92915050565b600081519050919050565b600082825260208201905092915050565b6000611cae82611e08565b9150611cb983611e08565b9250827fffffffffffffffffffffffffffffffffffffffffffffffffffffffffffffffff03821115611cee57611ced611e84565b5b828201905092915050565b6000611d0482611e08565b9150611d0f83611e08565b925082611d1f57611d1e611eb3565b5b828204905092915050565b6000611d3582611e08565b9150611d4083611e08565b9250817fffffffffffffffffffffffffffffffffffffffffffffffffffffffffffffffff0483118215151615611d7957611d78611e84565b5b828202905092915050565b6000611d8f82611e08565b9150611d9a83611e08565b925082821015611dad57611dac611e84565b5b828203905092915050565b6000611dc382611de8565b9050919050565b6000611dd582611de8565b9050919050565b60008115159050919050565b600073ffffffffffffffffffffffffffffffffffffffff82169050919050565b6000819050919050565b600060ff82169050919050565b60005b83811015611e3d578082015181840152602081019050611e22565b83811115611e4c576000848401525b50505050565b60006002820490506001821680611e6a57607f821691505b60208210811415611e7e57611e7d611ee2565b5b50919050565b7f4e487b7100000000000000000000000000000000000000000000000000000000600052601160045260246000fd5b7f4e487b7100000000000000000000000000000000000000000000000000000000600052601260045260246000fd5b7f4e487b7100000000000000000000000000000000000000000000000000000000600052602260045260246000fd5b6000601f19601f8301169050919050565b7f45524332303a207472616e7366657220746f20746865207a65726f206164647260008201527f6573730000000000000000000000000000000000000000000000000000000000602082015250565b7f4f776e61626c653a206e6577206f776e657220697320746865207a65726f206160008201527f6464726573730000000000000000000000000000000000000000000000000000602082015250565b7f45524332303a20617070726f766520746f20746865207a65726f20616464726560008201527f7373000000000000000000000000000000000000000000000000000000000000602082015250565b7f6d696e74696e6720776f756c642073757270617373206d617820737570706c79600082015250565b7f45524332303a207472616e7366657220616d6f756e742065786365656473206260008201527f616c616e63650000000000000000000000000000000000000000000000000000602082015250565b7f616d6f756e74206d7573742062652067726561746572207468616e2030000000600082015250565b7f45524332303a207472616e7366657220616d6f756e742065786365656473206160008201527f6c6c6f77616e6365000000000000000000000000000000000000000000000000602082015250565b7f4f776e61626c653a2063616c6c6572206973206e6f7420746865206f776e6572600082015250565b7f45524332303a207472616e736665722066726f6d20746865207a65726f20616460008201527f6472657373000000000000000000000000000000000000000000000000000000602082015250565b7f45524332303a20617070726f76652066726f6d20746865207a65726f2061646460008201527f7265737300000000000000000000000000000000000000000000000000000000602082015250565b7f45524332303a2064656372656173656420616c6c6f77616e63652062656c6f7760008201527f207a65726f000000000000000000000000000000000000000000000000000000602082015250565b7f45524332303a206d696e7420746f20746865207a65726f206164647265737300600082015250565b7f74726561737572792063616e6e6f742062652061646472657373283029000000600082015250565b61227081611db8565b811461227b57600080fd5b50565b61228781611dca565b811461229257600080fd5b50565b61229e81611ddc565b81146122a957600080fd5b50565b6122b581611e08565b81146122c057600080fd5b5056fea264697066735822122067648006cca13d491dfb0d4a92c033275634d0cd5fe4a8647a246a7c8a3610e164736f6c63430008040033",
  "linkReferences": {},
  "deployedLinkReferences": {}
}