{
  "_format": "hh-sol-artifact-1",
  "contractName": "TomatoToken",
  "sourceName": "contracts/TomatoToken.sol",
  "abi": [
    {
      "inputs": [
        {
          "internalType": "address payable",
          "name": "treasuryAddress",
          "type": "address"
        }
      ],
      "stateMutability": "nonpayable",
      "type": "constructor"
    },
    {
      "anonymous": false,
      "inputs": [
        {
          "indexed": true,
          "internalType": "address",
          "name": "owner",
          "type": "address"
        },
        {
          "indexed": true,
          "internalType": "address",
          "name": "spender",
          "type": "address"
        },
        {
          "indexed": false,
          "internalType": "uint256",
          "name": "value",
          "type": "uint256"
        }
      ],
      "name": "Approval",
      "type": "event"
    },
    {
      "anonymous": false,
      "inputs": [
        {
          "indexed": true,
          "internalType": "address",
          "name": "previousOwner",
          "type": "address"
        },
        {
          "indexed": true,
          "internalType": "address",
          "name": "newOwner",
          "type": "address"
        }
      ],
      "name": "OwnershipTransferred",
      "type": "event"
    },
    {
      "anonymous": false,
      "inputs": [
        {
          "indexed": true,
          "internalType": "address",
          "name": "from",
          "type": "address"
        },
        {
          "indexed": true,
          "internalType": "address",
          "name": "to",
          "type": "address"
        },
        {
          "indexed": false,
          "internalType": "uint256",
          "name": "value",
          "type": "uint256"
        }
      ],
      "name": "Transfer",
      "type": "event"
    },
    {
      "inputs": [
        {
          "internalType": "address",
          "name": "owner",
          "type": "address"
        },
        {
          "internalType": "address",
          "name": "spender",
          "type": "address"
        }
      ],
      "name": "allowance",
      "outputs": [
        {
          "internalType": "uint256",
          "name": "",
          "type": "uint256"
        }
      ],
      "stateMutability": "view",
      "type": "function"
    },
    {
      "inputs": [
        {
          "internalType": "address",
          "name": "spender",
          "type": "address"
        },
        {
          "internalType": "uint256",
          "name": "amount",
          "type": "uint256"
        }
      ],
      "name": "approve",
      "outputs": [
        {
          "internalType": "bool",
          "name": "",
          "type": "bool"
        }
      ],
      "stateMutability": "nonpayable",
      "type": "function"
    },
    {
      "inputs": [
        {
          "internalType": "address",
          "name": "account",
          "type": "address"
        }
      ],
      "name": "balanceOf",
      "outputs": [
        {
          "internalType": "uint256",
          "name": "",
          "type": "uint256"
        }
      ],
      "stateMutability": "view",
      "type": "function"
    },
    {
      "inputs": [],
      "name": "decimals",
      "outputs": [
        {
          "internalType": "uint8",
          "name": "",
          "type": "uint8"
        }
      ],
      "stateMutability": "view",
      "type": "function"
    },
    {
      "inputs": [
        {
          "internalType": "address",
          "name": "spender",
          "type": "address"
        },
        {
          "internalType": "uint256",
          "name": "subtractedValue",
          "type": "uint256"
        }
      ],
      "name": "decreaseAllowance",
      "outputs": [
        {
          "internalType": "bool",
          "name": "",
          "type": "bool"
        }
      ],
      "stateMutability": "nonpayable",
      "type": "function"
    },
    {
      "inputs": [],
      "name": "ico",
      "outputs": [
        {
          "internalType": "address payable",
          "name": "",
          "type": "address"
        }
      ],
      "stateMutability": "view",
      "type": "function"
    },
    {
      "inputs": [
        {
          "internalType": "address",
          "name": "spender",
          "type": "address"
        },
        {
          "internalType": "uint256",
          "name": "addedValue",
          "type": "uint256"
        }
      ],
      "name": "increaseAllowance",
      "outputs": [
        {
          "internalType": "bool",
          "name": "",
          "type": "bool"
        }
      ],
      "stateMutability": "nonpayable",
      "type": "function"
    },
    {
      "inputs": [],
      "name": "name",
      "outputs": [
        {
          "internalType": "string",
          "name": "",
          "type": "string"
        }
      ],
      "stateMutability": "view",
      "type": "function"
    },
    {
      "inputs": [],
      "name": "owner",
      "outputs": [
        {
          "internalType": "address",
          "name": "",
          "type": "address"
        }
      ],
      "stateMutability": "view",
      "type": "function"
    },
    {
      "inputs": [],
      "name": "renounceOwnership",
      "outputs": [],
      "stateMutability": "nonpayable",
      "type": "function"
    },
    {
      "inputs": [
        {
          "internalType": "address payable",
          "name": "treasuryAddress",
          "type": "address"
        }
      ],
      "name": "setTreasury",
      "outputs": [],
      "stateMutability": "nonpayable",
      "type": "function"
    },
    {
      "inputs": [],
      "name": "symbol",
      "outputs": [
        {
          "internalType": "string",
          "name": "",
          "type": "string"
        }
      ],
      "stateMutability": "view",
      "type": "function"
    },
    {
      "inputs": [],
      "name": "tax",
      "outputs": [
        {
          "internalType": "bool",
          "name": "",
          "type": "bool"
        }
      ],
      "stateMutability": "view",
      "type": "function"
    },
    {
      "inputs": [
        {
          "internalType": "bool",
          "name": "state",
          "type": "bool"
        }
      ],
      "name": "toggleTax",
      "outputs": [],
      "stateMutability": "nonpayable",
      "type": "function"
    },
    {
      "inputs": [],
      "name": "totalSupply",
      "outputs": [
        {
          "internalType": "uint256",
          "name": "",
          "type": "uint256"
        }
      ],
      "stateMutability": "view",
      "type": "function"
    },
    {
      "inputs": [
        {
          "internalType": "address",
          "name": "recipient",
          "type": "address"
        },
        {
          "internalType": "uint256",
          "name": "amount",
          "type": "uint256"
        }
      ],
      "name": "transfer",
      "outputs": [
        {
          "internalType": "bool",
          "name": "",
          "type": "bool"
        }
      ],
      "stateMutability": "nonpayable",
      "type": "function"
    },
    {
      "inputs": [
        {
          "internalType": "address",
          "name": "sender",
          "type": "address"
        },
        {
          "internalType": "address",
          "name": "recipient",
          "type": "address"
        },
        {
          "internalType": "uint256",
          "name": "amount",
          "type": "uint256"
        }
      ],
      "name": "transferFrom",
      "outputs": [
        {
          "internalType": "bool",
          "name": "",
          "type": "bool"
        }
      ],
      "stateMutability": "nonpayable",
      "type": "function"
    },
    {
      "inputs": [
        {
          "internalType": "address",
          "name": "newOwner",
          "type": "address"
        }
      ],
      "name": "transferOwnership",
      "outputs": [],
      "stateMutability": "nonpayable",
      "type": "function"
    },
    {
      "inputs": [],
      "name": "treasury",
      "outputs": [
        {
          "internalType": "address payable",
          "name": "",
          "type": "address"
        }
      ],
      "stateMutability": "view",
      "type": "function"
    },
    {
      "inputs": [],
      "name": "treasuryTaxBalance",
      "outputs": [
        {
          "internalType": "uint256",
          "name": "",
          "type": "uint256"
        }
      ],
      "stateMutability": "view",
      "type": "function"
    },
    {
      "inputs": [],
      "name": "withdrawTreasury",
      "outputs": [],
      "stateMutability": "nonpayable",
      "type": "function"
    }
  ],
  "bytecode": "0x60806040523480156200001157600080fd5b5060405162002923380380620029238339818101604052810190620000379190620005e9565b6040518060400160405280600681526020017f546f6d61746f00000000000000000000000000000000000000000000000000008152506040518060400160405280600381526020017f544d5400000000000000000000000000000000000000000000000000000000008152508160039080519060200190620000bb92919062000522565b508060049080519060200190620000d492919062000522565b505050620000f7620000eb6200016160201b60201c565b6200016960201b60201c565b62000108816200022f60201b60201c565b6200013f600660009054906101000a900473ffffffffffffffffffffffffffffffffffffffff166207a1206200037560201b60201c565b6001600960006101000a81548160ff02191690831515021790555050620008f3565b600033905090565b6000600560009054906101000a900473ffffffffffffffffffffffffffffffffffffffff16905081600560006101000a81548173ffffffffffffffffffffffffffffffffffffffff021916908373ffffffffffffffffffffffffffffffffffffffff1602179055508173ffffffffffffffffffffffffffffffffffffffff168173ffffffffffffffffffffffffffffffffffffffff167f8be0079c531659141344cd1fd0a4f28419497f9722a3daafe3b4186f6b6457e060405160405180910390a35050565b6200023f6200016160201b60201c565b73ffffffffffffffffffffffffffffffffffffffff1662000265620004ee60201b60201c565b73ffffffffffffffffffffffffffffffffffffffff1614620002be576040517f08c379a0000000000000000000000000000000000000000000000000000000008152600401620002b5906200069b565b60405180910390fd5b600073ffffffffffffffffffffffffffffffffffffffff168173ffffffffffffffffffffffffffffffffffffffff16141562000331576040517f08c379a00000000000000000000000000000000000000000000000000000000081526004016200032890620006df565b60405180910390fd5b80600660006101000a81548173ffffffffffffffffffffffffffffffffffffffff021916908373ffffffffffffffffffffffffffffffffffffffff16021790555050565b600073ffffffffffffffffffffffffffffffffffffffff168273ffffffffffffffffffffffffffffffffffffffff161415620003e8576040517f08c379a0000000000000000000000000000000000000000000000000000000008152600401620003df90620006bd565b60405180910390fd5b620003fc600083836200051860201b60201c565b80600260008282546200041091906200072f565b92505081905550806000808473ffffffffffffffffffffffffffffffffffffffff1673ffffffffffffffffffffffffffffffffffffffff16815260200190815260200160002060008282546200046791906200072f565b925050819055508173ffffffffffffffffffffffffffffffffffffffff16600073ffffffffffffffffffffffffffffffffffffffff167fddf252ad1be2c89b69c2b068fc378daa952ba7f163c4a11628f55a4df523b3ef83604051620004ce919062000701565b60405180910390a3620004ea600083836200051d60201b60201c565b5050565b6000600560009054906101000a900473ffffffffffffffffffffffffffffffffffffffff16905090565b505050565b505050565b8280546200053090620007ca565b90600052602060002090601f016020900481019282620005545760008555620005a0565b82601f106200056f57805160ff1916838001178555620005a0565b82800160010185558215620005a0579182015b828111156200059f57825182559160200191906001019062000582565b5b509050620005af9190620005b3565b5090565b5b80821115620005ce576000816000905550600101620005b4565b5090565b600081519050620005e381620008d9565b92915050565b600060208284031215620005fc57600080fd5b60006200060c84828501620005d2565b91505092915050565b6000620006246020836200071e565b915062000631826200085e565b602082019050919050565b60006200064b601f836200071e565b9150620006588262000887565b602082019050919050565b600062000672601d836200071e565b91506200067f82620008b0565b602082019050919050565b6200069581620007c0565b82525050565b60006020820190508181036000830152620006b68162000615565b9050919050565b60006020820190508181036000830152620006d8816200063c565b9050919050565b60006020820190508181036000830152620006fa8162000663565b9050919050565b60006020820190506200071860008301846200068a565b92915050565b600082825260208201905092915050565b60006200073c82620007c0565b91506200074983620007c0565b9250827fffffffffffffffffffffffffffffffffffffffffffffffffffffffffffffffff0382111562000781576200078062000800565b5b828201905092915050565b60006200079982620007a0565b9050919050565b600073ffffffffffffffffffffffffffffffffffffffff82169050919050565b6000819050919050565b60006002820490506001821680620007e357607f821691505b60208210811415620007fa57620007f96200082f565b5b50919050565b7f4e487b7100000000000000000000000000000000000000000000000000000000600052601160045260246000fd5b7f4e487b7100000000000000000000000000000000000000000000000000000000600052602260045260246000fd5b7f4f776e61626c653a2063616c6c6572206973206e6f7420746865206f776e6572600082015250565b7f45524332303a206d696e7420746f20746865207a65726f206164647265737300600082015250565b7f74726561737572792063616e6e6f742062652061646472657373283029000000600082015250565b620008e4816200078c565b8114620008f057600080fd5b50565b61202080620009036000396000f3fe608060405234801561001057600080fd5b50600436106101375760003560e01c806370a08231116100b857806399c8d5561161007c57806399c8d5561461031c578063a457c2d71461033a578063a9059cbb1461036a578063dd62ed3e1461039a578063f0f44260146103ca578063f2fde38b146103e657610137565b806370a0823114610288578063715018a6146102b85780638da5cb5b146102c25780638e4a371a146102e057806395d89b41146102fe57610137565b8063313ce567116100ff578063313ce567146101e257806339509351146102005780633cfd5211146102305780635d4522011461024c57806361d027b31461026a57610137565b806306fdde031461013c578063095ea7b31461015a578063166bab951461018a57806318160ddd1461019457806323b872dd146101b2575b600080fd5b610144610402565b60405161015191906117b6565b60405180910390f35b610174600480360381019061016f91906114b5565b610494565b604051610181919061179b565b60405180910390f35b6101926104b2565b005b61019c6105be565b6040516101a99190611978565b60405180910390f35b6101cc60048036038101906101c79190611466565b6105c8565b6040516101d9919061179b565b60405180910390f35b6101ea6106c0565b6040516101f79190611993565b60405180910390f35b61021a600480360381019061021591906114b5565b6106c9565b604051610227919061179b565b60405180910390f35b61024a600480360381019061024591906114f1565b610775565b005b61025461080e565b6040516102619190611780565b60405180910390f35b610272610834565b60405161027f9190611780565b60405180910390f35b6102a2600480360381019061029d91906113d8565b61085a565b6040516102af9190611978565b60405180910390f35b6102c06108a2565b005b6102ca61092a565b6040516102d79190611765565b60405180910390f35b6102e8610954565b6040516102f59190611978565b60405180910390f35b61030661095a565b60405161031391906117b6565b60405180910390f35b6103246109ec565b604051610331919061179b565b60405180910390f35b610354600480360381019061034f91906114b5565b6109ff565b604051610361919061179b565b60405180910390f35b610384600480360381019061037f91906114b5565b610aea565b604051610391919061179b565b60405180910390f35b6103b460048036038101906103af919061142a565b610bb1565b6040516103c19190611978565b60405180910390f35b6103e460048036038101906103df9190611401565b610c38565b005b61040060048036038101906103fb91906113d8565b610d68565b005b60606003805461041190611b79565b80601f016020809104026020016040519081016040528092919081815260200182805461043d90611b79565b801561048a5780601f1061045f5761010080835404028352916020019161048a565b820191906000526020600020905b81548152906001019060200180831161046d57829003601f168201915b5050505050905090565b60006104a86104a1610e60565b8484610e68565b6001905092915050565b600660009054906101000a900473ffffffffffffffffffffffffffffffffffffffff1673ffffffffffffffffffffffffffffffffffffffff163373ffffffffffffffffffffffffffffffffffffffff1614610542576040517f08c379a000000000000000000000000000000000000000000000000000000000815260040161053990611878565b60405180910390fd5b6000610572600660009054906101000a900473ffffffffffffffffffffffffffffffffffffffff16600854610aea565b905060011515811515146105bb576040517f08c379a00000000000000000000000000000000000000000000000000000000081526004016105b290611918565b60405180910390fd5b50565b6000600254905090565b60006105d5848484611033565b6000600160008673ffffffffffffffffffffffffffffffffffffffff1673ffffffffffffffffffffffffffffffffffffffff1681526020019081526020016000206000610620610e60565b73ffffffffffffffffffffffffffffffffffffffff1673ffffffffffffffffffffffffffffffffffffffff168152602001908152602001600020549050828110156106a0576040517f08c379a000000000000000000000000000000000000000000000000000000000815260040161069790611898565b60405180910390fd5b6106b4856106ac610e60565b858403610e68565b60019150509392505050565b60006012905090565b600061076b6106d6610e60565b8484600160006106e4610e60565b73ffffffffffffffffffffffffffffffffffffffff1673ffffffffffffffffffffffffffffffffffffffff16815260200190815260200160002060008873ffffffffffffffffffffffffffffffffffffffff1673ffffffffffffffffffffffffffffffffffffffff1681526020019081526020016000205461076691906119ca565b610e68565b6001905092915050565b61077d610e60565b73ffffffffffffffffffffffffffffffffffffffff1661079b61092a565b73ffffffffffffffffffffffffffffffffffffffff16146107f1576040517f08c379a00000000000000000000000000000000000000000000000000000000081526004016107e8906118b8565b60405180910390fd5b80600960006101000a81548160ff02191690831515021790555050565b600760009054906101000a900473ffffffffffffffffffffffffffffffffffffffff1681565b600660009054906101000a900473ffffffffffffffffffffffffffffffffffffffff1681565b60008060008373ffffffffffffffffffffffffffffffffffffffff1673ffffffffffffffffffffffffffffffffffffffff168152602001908152602001600020549050919050565b6108aa610e60565b73ffffffffffffffffffffffffffffffffffffffff166108c861092a565b73ffffffffffffffffffffffffffffffffffffffff161461091e576040517f08c379a0000000000000000000000000000000000000000000000000000000008152600401610915906118b8565b60405180910390fd5b61092860006112b4565b565b6000600560009054906101000a900473ffffffffffffffffffffffffffffffffffffffff16905090565b60085481565b60606004805461096990611b79565b80601f016020809104026020016040519081016040528092919081815260200182805461099590611b79565b80156109e25780601f106109b7576101008083540402835291602001916109e2565b820191906000526020600020905b8154815290600101906020018083116109c557829003601f168201915b5050505050905090565b600960009054906101000a900460ff1681565b60008060016000610a0e610e60565b73ffffffffffffffffffffffffffffffffffffffff1673ffffffffffffffffffffffffffffffffffffffff16815260200190815260200160002060008573ffffffffffffffffffffffffffffffffffffffff1673ffffffffffffffffffffffffffffffffffffffff16815260200190815260200160002054905082811015610acb576040517f08c379a0000000000000000000000000000000000000000000000000000000008152600401610ac290611938565b60405180910390fd5b610adf610ad6610e60565b85858403610e68565b600191505092915050565b6000808211610b2e576040517f08c379a0000000000000000000000000000000000000000000000000000000008152600401610b2590611858565b60405180910390fd5b600960009054906101000a900460ff1615610b9b5760006002606484610b549190611a20565b610b5e9190611a51565b905060008184610b6e9190611aab565b90508160086000828254610b8291906119ca565b92505081905550610b94338683611033565b5050610ba7565b610ba6338484611033565b5b6001905092915050565b6000600160008473ffffffffffffffffffffffffffffffffffffffff1673ffffffffffffffffffffffffffffffffffffffff16815260200190815260200160002060008373ffffffffffffffffffffffffffffffffffffffff1673ffffffffffffffffffffffffffffffffffffffff16815260200190815260200160002054905092915050565b610c40610e60565b73ffffffffffffffffffffffffffffffffffffffff16610c5e61092a565b73ffffffffffffffffffffffffffffffffffffffff1614610cb4576040517f08c379a0000000000000000000000000000000000000000000000000000000008152600401610cab906118b8565b60405180910390fd5b600073ffffffffffffffffffffffffffffffffffffffff168173ffffffffffffffffffffffffffffffffffffffff161415610d24576040517f08c379a0000000000000000000000000000000000000000000000000000000008152600401610d1b90611958565b60405180910390fd5b80600660006101000a81548173ffffffffffffffffffffffffffffffffffffffff021916908373ffffffffffffffffffffffffffffffffffffffff16021790555050565b610d70610e60565b73ffffffffffffffffffffffffffffffffffffffff16610d8e61092a565b73ffffffffffffffffffffffffffffffffffffffff1614610de4576040517f08c379a0000000000000000000000000000000000000000000000000000000008152600401610ddb906118b8565b60405180910390fd5b600073ffffffffffffffffffffffffffffffffffffffff168173ffffffffffffffffffffffffffffffffffffffff161415610e54576040517f08c379a0000000000000000000000000000000000000000000000000000000008152600401610e4b906117f8565b60405180910390fd5b610e5d816112b4565b50565b600033905090565b600073ffffffffffffffffffffffffffffffffffffffff168373ffffffffffffffffffffffffffffffffffffffff161415610ed8576040517f08c379a0000000000000000000000000000000000000000000000000000000008152600401610ecf906118f8565b60405180910390fd5b600073ffffffffffffffffffffffffffffffffffffffff168273ffffffffffffffffffffffffffffffffffffffff161415610f48576040517f08c379a0000000000000000000000000000000000000000000000000000000008152600401610f3f90611818565b60405180910390fd5b80600160008573ffffffffffffffffffffffffffffffffffffffff1673ffffffffffffffffffffffffffffffffffffffff16815260200190815260200160002060008473ffffffffffffffffffffffffffffffffffffffff1673ffffffffffffffffffffffffffffffffffffffff168152602001908152602001600020819055508173ffffffffffffffffffffffffffffffffffffffff168373ffffffffffffffffffffffffffffffffffffffff167f8c5be1e5ebec7d5bd14f71427d1e84f3dd0314c0f7b2291e5b200ac8c7c3b925836040516110269190611978565b60405180910390a3505050565b600073ffffffffffffffffffffffffffffffffffffffff168373ffffffffffffffffffffffffffffffffffffffff1614156110a3576040517f08c379a000000000000000000000000000000000000000000000000000000000815260040161109a906118d8565b60405180910390fd5b600073ffffffffffffffffffffffffffffffffffffffff168273ffffffffffffffffffffffffffffffffffffffff161415611113576040517f08c379a000000000000000000000000000000000000000000000000000000000815260040161110a906117d8565b60405180910390fd5b61111e83838361137a565b60008060008573ffffffffffffffffffffffffffffffffffffffff1673ffffffffffffffffffffffffffffffffffffffff168152602001908152602001600020549050818110156111a4576040517f08c379a000000000000000000000000000000000000000000000000000000000815260040161119b90611838565b60405180910390fd5b8181036000808673ffffffffffffffffffffffffffffffffffffffff1673ffffffffffffffffffffffffffffffffffffffff16815260200190815260200160002081905550816000808573ffffffffffffffffffffffffffffffffffffffff1673ffffffffffffffffffffffffffffffffffffffff168152602001908152602001600020600082825461123791906119ca565b925050819055508273ffffffffffffffffffffffffffffffffffffffff168473ffffffffffffffffffffffffffffffffffffffff167fddf252ad1be2c89b69c2b068fc378daa952ba7f163c4a11628f55a4df523b3ef8460405161129b9190611978565b60405180910390a36112ae84848461137f565b50505050565b6000600560009054906101000a900473ffffffffffffffffffffffffffffffffffffffff16905081600560006101000a81548173ffffffffffffffffffffffffffffffffffffffff021916908373ffffffffffffffffffffffffffffffffffffffff1602179055508173ffffffffffffffffffffffffffffffffffffffff168173ffffffffffffffffffffffffffffffffffffffff167f8be0079c531659141344cd1fd0a4f28419497f9722a3daafe3b4186f6b6457e060405160405180910390a35050565b505050565b505050565b60008135905061139381611f8e565b92915050565b6000813590506113a881611fa5565b92915050565b6000813590506113bd81611fbc565b92915050565b6000813590506113d281611fd3565b92915050565b6000602082840312156113ea57600080fd5b60006113f884828501611384565b91505092915050565b60006020828403121561141357600080fd5b600061142184828501611399565b91505092915050565b6000806040838503121561143d57600080fd5b600061144b85828601611384565b925050602061145c85828601611384565b9150509250929050565b60008060006060848603121561147b57600080fd5b600061148986828701611384565b935050602061149a86828701611384565b92505060406114ab868287016113c3565b9150509250925092565b600080604083850312156114c857600080fd5b60006114d685828601611384565b92505060206114e7858286016113c3565b9150509250929050565b60006020828403121561150357600080fd5b6000611511848285016113ae565b91505092915050565b61152381611af1565b82525050565b61153281611adf565b82525050565b61154181611b03565b82525050565b6000611552826119ae565b61155c81856119b9565b935061156c818560208601611b46565b61157581611c38565b840191505092915050565b600061158d6023836119b9565b915061159882611c49565b604082019050919050565b60006115b06026836119b9565b91506115bb82611c98565b604082019050919050565b60006115d36022836119b9565b91506115de82611ce7565b604082019050919050565b60006115f66026836119b9565b915061160182611d36565b604082019050919050565b6000611619601d836119b9565b915061162482611d85565b602082019050919050565b600061163c601a836119b9565b915061164782611dae565b602082019050919050565b600061165f6028836119b9565b915061166a82611dd7565b604082019050919050565b60006116826020836119b9565b915061168d82611e26565b602082019050919050565b60006116a56025836119b9565b91506116b082611e4f565b604082019050919050565b60006116c86024836119b9565b91506116d382611e9e565b604082019050919050565b60006116eb600f836119b9565b91506116f682611eed565b602082019050919050565b600061170e6025836119b9565b915061171982611f16565b604082019050919050565b6000611731601d836119b9565b915061173c82611f65565b602082019050919050565b61175081611b2f565b82525050565b61175f81611b39565b82525050565b600060208201905061177a6000830184611529565b92915050565b6000602082019050611795600083018461151a565b92915050565b60006020820190506117b06000830184611538565b92915050565b600060208201905081810360008301526117d08184611547565b905092915050565b600060208201905081810360008301526117f181611580565b9050919050565b60006020820190508181036000830152611811816115a3565b9050919050565b60006020820190508181036000830152611831816115c6565b9050919050565b60006020820190508181036000830152611851816115e9565b9050919050565b600060208201905081810360008301526118718161160c565b9050919050565b600060208201905081810360008301526118918161162f565b9050919050565b600060208201905081810360008301526118b181611652565b9050919050565b600060208201905081810360008301526118d181611675565b9050919050565b600060208201905081810360008301526118f181611698565b9050919050565b60006020820190508181036000830152611911816116bb565b9050919050565b60006020820190508181036000830152611931816116de565b9050919050565b6000602082019050818103600083015261195181611701565b9050919050565b6000602082019050818103600083015261197181611724565b9050919050565b600060208201905061198d6000830184611747565b92915050565b60006020820190506119a86000830184611756565b92915050565b600081519050919050565b600082825260208201905092915050565b60006119d582611b2f565b91506119e083611b2f565b9250827fffffffffffffffffffffffffffffffffffffffffffffffffffffffffffffffff03821115611a1557611a14611bab565b5b828201905092915050565b6000611a2b82611b2f565b9150611a3683611b2f565b925082611a4657611a45611bda565b5b828204905092915050565b6000611a5c82611b2f565b9150611a6783611b2f565b9250817fffffffffffffffffffffffffffffffffffffffffffffffffffffffffffffffff0483118215151615611aa057611a9f611bab565b5b828202905092915050565b6000611ab682611b2f565b9150611ac183611b2f565b925082821015611ad457611ad3611bab565b5b828203905092915050565b6000611aea82611b0f565b9050919050565b6000611afc82611b0f565b9050919050565b60008115159050919050565b600073ffffffffffffffffffffffffffffffffffffffff82169050919050565b6000819050919050565b600060ff82169050919050565b60005b83811015611b64578082015181840152602081019050611b49565b83811115611b73576000848401525b50505050565b60006002820490506001821680611b9157607f821691505b60208210811415611ba557611ba4611c09565b5b50919050565b7f4e487b7100000000000000000000000000000000000000000000000000000000600052601160045260246000fd5b7f4e487b7100000000000000000000000000000000000000000000000000000000600052601260045260246000fd5b7f4e487b7100000000000000000000000000000000000000000000000000000000600052602260045260246000fd5b6000601f19601f8301169050919050565b7f45524332303a207472616e7366657220746f20746865207a65726f206164647260008201527f6573730000000000000000000000000000000000000000000000000000000000602082015250565b7f4f776e61626c653a206e6577206f776e657220697320746865207a65726f206160008201527f6464726573730000000000000000000000000000000000000000000000000000602082015250565b7f45524332303a20617070726f766520746f20746865207a65726f20616464726560008201527f7373000000000000000000000000000000000000000000000000000000000000602082015250565b7f45524332303a207472616e7366657220616d6f756e742065786365656473206260008201527f616c616e63650000000000000000000000000000000000000000000000000000602082015250565b7f616d6f756e74206d7573742062652067726561746572207468616e2030000000600082015250565b7f6d73672e73656e646572206973206e6f74207472656173757279000000000000600082015250565b7f45524332303a207472616e7366657220616d6f756e742065786365656473206160008201527f6c6c6f77616e6365000000000000000000000000000000000000000000000000602082015250565b7f4f776e61626c653a2063616c6c6572206973206e6f7420746865206f776e6572600082015250565b7f45524332303a207472616e736665722066726f6d20746865207a65726f20616460008201527f6472657373000000000000000000000000000000000000000000000000000000602082015250565b7f45524332303a20617070726f76652066726f6d20746865207a65726f2061646460008201527f7265737300000000000000000000000000000000000000000000000000000000602082015250565b7f7472616e73666572206661696c65640000000000000000000000000000000000600082015250565b7f45524332303a2064656372656173656420616c6c6f77616e63652062656c6f7760008201527f207a65726f000000000000000000000000000000000000000000000000000000602082015250565b7f74726561737572792063616e6e6f742062652061646472657373283029000000600082015250565b611f9781611adf565b8114611fa257600080fd5b50565b611fae81611af1565b8114611fb957600080fd5b50565b611fc581611b03565b8114611fd057600080fd5b50565b611fdc81611b2f565b8114611fe757600080fd5b5056fea2646970667358221220175a84d7274964c48e1d89c3daf4053f919ce6f5c84cdd4a0e771ebe4cf1037264736f6c63430008040033",
  "linkReferences": {},
  "deployedLinkReferences": {}
}