{
  "_format": "hh-sol-artifact-1",
  "contractName": "TomatoToken",
  "sourceName": "contracts/TomatoToken.sol",
  "abi": [
    {
      "inputs": [
        {
          "internalType": "address payable",
          "name": "treasuryAddress",
          "type": "address"
        }
      ],
      "stateMutability": "nonpayable",
      "type": "constructor"
    },
    {
      "anonymous": false,
      "inputs": [
        {
          "indexed": true,
          "internalType": "address",
          "name": "owner",
          "type": "address"
        },
        {
          "indexed": true,
          "internalType": "address",
          "name": "spender",
          "type": "address"
        },
        {
          "indexed": false,
          "internalType": "uint256",
          "name": "value",
          "type": "uint256"
        }
      ],
      "name": "Approval",
      "type": "event"
    },
    {
      "anonymous": false,
      "inputs": [
        {
          "indexed": true,
          "internalType": "address",
          "name": "previousOwner",
          "type": "address"
        },
        {
          "indexed": true,
          "internalType": "address",
          "name": "newOwner",
          "type": "address"
        }
      ],
      "name": "OwnershipTransferred",
      "type": "event"
    },
    {
      "anonymous": false,
      "inputs": [
        {
          "indexed": true,
          "internalType": "address",
          "name": "from",
          "type": "address"
        },
        {
          "indexed": true,
          "internalType": "address",
          "name": "to",
          "type": "address"
        },
        {
          "indexed": false,
          "internalType": "uint256",
          "name": "value",
          "type": "uint256"
        }
      ],
      "name": "Transfer",
      "type": "event"
    },
    {
      "inputs": [
        {
          "internalType": "address",
          "name": "owner",
          "type": "address"
        },
        {
          "internalType": "address",
          "name": "spender",
          "type": "address"
        }
      ],
      "name": "allowance",
      "outputs": [
        {
          "internalType": "uint256",
          "name": "",
          "type": "uint256"
        }
      ],
      "stateMutability": "view",
      "type": "function"
    },
    {
      "inputs": [
        {
          "internalType": "address",
          "name": "spender",
          "type": "address"
        },
        {
          "internalType": "uint256",
          "name": "amount",
          "type": "uint256"
        }
      ],
      "name": "approve",
      "outputs": [
        {
          "internalType": "bool",
          "name": "",
          "type": "bool"
        }
      ],
      "stateMutability": "nonpayable",
      "type": "function"
    },
    {
      "inputs": [
        {
          "internalType": "address",
          "name": "account",
          "type": "address"
        }
      ],
      "name": "balanceOf",
      "outputs": [
        {
          "internalType": "uint256",
          "name": "",
          "type": "uint256"
        }
      ],
      "stateMutability": "view",
      "type": "function"
    },
    {
      "inputs": [],
      "name": "decimals",
      "outputs": [
        {
          "internalType": "uint8",
          "name": "",
          "type": "uint8"
        }
      ],
      "stateMutability": "view",
      "type": "function"
    },
    {
      "inputs": [
        {
          "internalType": "address",
          "name": "spender",
          "type": "address"
        },
        {
          "internalType": "uint256",
          "name": "subtractedValue",
          "type": "uint256"
        }
      ],
      "name": "decreaseAllowance",
      "outputs": [
        {
          "internalType": "bool",
          "name": "",
          "type": "bool"
        }
      ],
      "stateMutability": "nonpayable",
      "type": "function"
    },
    {
      "inputs": [
        {
          "internalType": "address",
          "name": "spender",
          "type": "address"
        },
        {
          "internalType": "uint256",
          "name": "addedValue",
          "type": "uint256"
        }
      ],
      "name": "increaseAllowance",
      "outputs": [
        {
          "internalType": "bool",
          "name": "",
          "type": "bool"
        }
      ],
      "stateMutability": "nonpayable",
      "type": "function"
    },
    {
      "inputs": [],
      "name": "name",
      "outputs": [
        {
          "internalType": "string",
          "name": "",
          "type": "string"
        }
      ],
      "stateMutability": "view",
      "type": "function"
    },
    {
      "inputs": [],
      "name": "owner",
      "outputs": [
        {
          "internalType": "address",
          "name": "",
          "type": "address"
        }
      ],
      "stateMutability": "view",
      "type": "function"
    },
    {
      "inputs": [],
      "name": "renounceOwnership",
      "outputs": [],
      "stateMutability": "nonpayable",
      "type": "function"
    },
    {
      "inputs": [
        {
          "internalType": "bool",
          "name": "state",
          "type": "bool"
        }
      ],
      "name": "setTax",
      "outputs": [],
      "stateMutability": "nonpayable",
      "type": "function"
    },
    {
      "inputs": [
        {
          "internalType": "address payable",
          "name": "treasuryAddress",
          "type": "address"
        }
      ],
      "name": "setTreasury",
      "outputs": [],
      "stateMutability": "nonpayable",
      "type": "function"
    },
    {
      "inputs": [],
      "name": "symbol",
      "outputs": [
        {
          "internalType": "string",
          "name": "",
          "type": "string"
        }
      ],
      "stateMutability": "view",
      "type": "function"
    },
    {
      "inputs": [],
      "name": "tax",
      "outputs": [
        {
          "internalType": "bool",
          "name": "",
          "type": "bool"
        }
      ],
      "stateMutability": "view",
      "type": "function"
    },
    {
      "inputs": [],
      "name": "totalSupply",
      "outputs": [
        {
          "internalType": "uint256",
          "name": "",
          "type": "uint256"
        }
      ],
      "stateMutability": "view",
      "type": "function"
    },
    {
      "inputs": [
        {
          "internalType": "address",
          "name": "recipient",
          "type": "address"
        },
        {
          "internalType": "uint256",
          "name": "amount",
          "type": "uint256"
        }
      ],
      "name": "transfer",
      "outputs": [
        {
          "internalType": "bool",
          "name": "",
          "type": "bool"
        }
      ],
      "stateMutability": "nonpayable",
      "type": "function"
    },
    {
      "inputs": [
        {
          "internalType": "address",
          "name": "sender",
          "type": "address"
        },
        {
          "internalType": "address",
          "name": "recipient",
          "type": "address"
        },
        {
          "internalType": "uint256",
          "name": "amount",
          "type": "uint256"
        }
      ],
      "name": "transferFrom",
      "outputs": [
        {
          "internalType": "bool",
          "name": "",
          "type": "bool"
        }
      ],
      "stateMutability": "nonpayable",
      "type": "function"
    },
    {
      "inputs": [
        {
          "internalType": "address",
          "name": "newOwner",
          "type": "address"
        }
      ],
      "name": "transferOwnership",
      "outputs": [],
      "stateMutability": "nonpayable",
      "type": "function"
    },
    {
      "inputs": [],
      "name": "treasury",
      "outputs": [
        {
          "internalType": "address payable",
          "name": "",
          "type": "address"
        }
      ],
      "stateMutability": "view",
      "type": "function"
    },
    {
      "inputs": [],
      "name": "treasuryTaxBalance",
      "outputs": [
        {
          "internalType": "uint256",
          "name": "",
          "type": "uint256"
        }
      ],
      "stateMutability": "view",
      "type": "function"
    },
    {
      "inputs": [],
      "name": "withdrawTreasury",
      "outputs": [],
      "stateMutability": "nonpayable",
      "type": "function"
    }
  ],
  "bytecode": "0x60806040523480156200001157600080fd5b50604051620028e1380380620028e18339818101604052810190620000379190620005e8565b6040518060400160405280600681526020017f546f6d61746f00000000000000000000000000000000000000000000000000008152506040518060400160405280600381526020017f544d5400000000000000000000000000000000000000000000000000000000008152508160039080519060200190620000bb92919062000521565b508060049080519060200190620000d492919062000521565b505050620000f7620000eb6200016060201b60201c565b6200016860201b60201c565b62000108816200022e60201b60201c565b6200013e600660009054906101000a900473ffffffffffffffffffffffffffffffffffffffff1661c3506200037460201b60201c565b6001600860006101000a81548160ff02191690831515021790555050620008f2565b600033905090565b6000600560009054906101000a900473ffffffffffffffffffffffffffffffffffffffff16905081600560006101000a81548173ffffffffffffffffffffffffffffffffffffffff021916908373ffffffffffffffffffffffffffffffffffffffff1602179055508173ffffffffffffffffffffffffffffffffffffffff168173ffffffffffffffffffffffffffffffffffffffff167f8be0079c531659141344cd1fd0a4f28419497f9722a3daafe3b4186f6b6457e060405160405180910390a35050565b6200023e6200016060201b60201c565b73ffffffffffffffffffffffffffffffffffffffff1662000264620004ed60201b60201c565b73ffffffffffffffffffffffffffffffffffffffff1614620002bd576040517f08c379a0000000000000000000000000000000000000000000000000000000008152600401620002b4906200069a565b60405180910390fd5b600073ffffffffffffffffffffffffffffffffffffffff168173ffffffffffffffffffffffffffffffffffffffff16141562000330576040517f08c379a00000000000000000000000000000000000000000000000000000000081526004016200032790620006de565b60405180910390fd5b80600660006101000a81548173ffffffffffffffffffffffffffffffffffffffff021916908373ffffffffffffffffffffffffffffffffffffffff16021790555050565b600073ffffffffffffffffffffffffffffffffffffffff168273ffffffffffffffffffffffffffffffffffffffff161415620003e7576040517f08c379a0000000000000000000000000000000000000000000000000000000008152600401620003de90620006bc565b60405180910390fd5b620003fb600083836200051760201b60201c565b80600260008282546200040f91906200072e565b92505081905550806000808473ffffffffffffffffffffffffffffffffffffffff1673ffffffffffffffffffffffffffffffffffffffff16815260200190815260200160002060008282546200046691906200072e565b925050819055508173ffffffffffffffffffffffffffffffffffffffff16600073ffffffffffffffffffffffffffffffffffffffff167fddf252ad1be2c89b69c2b068fc378daa952ba7f163c4a11628f55a4df523b3ef83604051620004cd919062000700565b60405180910390a3620004e9600083836200051c60201b60201c565b5050565b6000600560009054906101000a900473ffffffffffffffffffffffffffffffffffffffff16905090565b505050565b505050565b8280546200052f90620007c9565b90600052602060002090601f0160209004810192826200055357600085556200059f565b82601f106200056e57805160ff19168380011785556200059f565b828001600101855582156200059f579182015b828111156200059e57825182559160200191906001019062000581565b5b509050620005ae9190620005b2565b5090565b5b80821115620005cd576000816000905550600101620005b3565b5090565b600081519050620005e281620008d8565b92915050565b600060208284031215620005fb57600080fd5b60006200060b84828501620005d1565b91505092915050565b6000620006236020836200071d565b915062000630826200085d565b602082019050919050565b60006200064a601f836200071d565b9150620006578262000886565b602082019050919050565b600062000671601d836200071d565b91506200067e82620008af565b602082019050919050565b6200069481620007bf565b82525050565b60006020820190508181036000830152620006b58162000614565b9050919050565b60006020820190508181036000830152620006d7816200063b565b9050919050565b60006020820190508181036000830152620006f98162000662565b9050919050565b600060208201905062000717600083018462000689565b92915050565b600082825260208201905092915050565b60006200073b82620007bf565b91506200074883620007bf565b9250827fffffffffffffffffffffffffffffffffffffffffffffffffffffffffffffffff0382111562000780576200077f620007ff565b5b828201905092915050565b600062000798826200079f565b9050919050565b600073ffffffffffffffffffffffffffffffffffffffff82169050919050565b6000819050919050565b60006002820490506001821680620007e257607f821691505b60208210811415620007f957620007f86200082e565b5b50919050565b7f4e487b7100000000000000000000000000000000000000000000000000000000600052601160045260246000fd5b7f4e487b7100000000000000000000000000000000000000000000000000000000600052602260045260246000fd5b7f4f776e61626c653a2063616c6c6572206973206e6f7420746865206f776e6572600082015250565b7f45524332303a206d696e7420746f20746865207a65726f206164647265737300600082015250565b7f74726561737572792063616e6e6f742062652061646472657373283029000000600082015250565b620008e3816200078b565b8114620008ef57600080fd5b50565b611fdf80620009026000396000f3fe608060405234801561001057600080fd5b506004361061012c5760003560e01c80638da5cb5b116100ad578063a9059cbb11610071578063a9059cbb14610325578063dd62ed3e14610355578063e234472f14610385578063f0f44260146103a1578063f2fde38b146103bd5761012c565b80638da5cb5b1461027d5780638e4a371a1461029b57806395d89b41146102b957806399c8d556146102d7578063a457c2d7146102f55761012c565b8063313ce567116100f4578063313ce567146101d757806339509351146101f557806361d027b31461022557806370a0823114610243578063715018a6146102735761012c565b806306fdde0314610131578063095ea7b31461014f578063166bab951461017f57806318160ddd1461018957806323b872dd146101a7575b600080fd5b6101396103d9565b6040516101469190611775565b60405180910390f35b61016960048036038101906101649190611474565b61046b565b604051610176919061175a565b60405180910390f35b610187610489565b005b610191610595565b60405161019e9190611937565b60405180910390f35b6101c160048036038101906101bc9190611425565b61059f565b6040516101ce919061175a565b60405180910390f35b6101df610697565b6040516101ec9190611952565b60405180910390f35b61020f600480360381019061020a9190611474565b6106a0565b60405161021c919061175a565b60405180910390f35b61022d61074c565b60405161023a919061173f565b60405180910390f35b61025d60048036038101906102589190611397565b610772565b60405161026a9190611937565b60405180910390f35b61027b6107ba565b005b610285610842565b6040516102929190611724565b60405180910390f35b6102a361086c565b6040516102b09190611937565b60405180910390f35b6102c1610872565b6040516102ce9190611775565b60405180910390f35b6102df610904565b6040516102ec919061175a565b60405180910390f35b61030f600480360381019061030a9190611474565b610917565b60405161031c919061175a565b60405180910390f35b61033f600480360381019061033a9190611474565b610a02565b60405161034c919061175a565b60405180910390f35b61036f600480360381019061036a91906113e9565b610ad7565b60405161037c9190611937565b60405180910390f35b61039f600480360381019061039a91906114b0565b610b5e565b005b6103bb60048036038101906103b691906113c0565b610bf7565b005b6103d760048036038101906103d29190611397565b610d27565b005b6060600380546103e890611b38565b80601f016020809104026020016040519081016040528092919081815260200182805461041490611b38565b80156104615780601f1061043657610100808354040283529160200191610461565b820191906000526020600020905b81548152906001019060200180831161044457829003601f168201915b5050505050905090565b600061047f610478610e1f565b8484610e27565b6001905092915050565b600660009054906101000a900473ffffffffffffffffffffffffffffffffffffffff1673ffffffffffffffffffffffffffffffffffffffff163373ffffffffffffffffffffffffffffffffffffffff1614610519576040517f08c379a0000000000000000000000000000000000000000000000000000000008152600401610510906117f7565b60405180910390fd5b6000610549600660009054906101000a900473ffffffffffffffffffffffffffffffffffffffff16600754610a02565b90506001151581151514610592576040517f08c379a0000000000000000000000000000000000000000000000000000000008152600401610589906118d7565b60405180910390fd5b50565b6000600254905090565b60006105ac848484610ff2565b6000600160008673ffffffffffffffffffffffffffffffffffffffff1673ffffffffffffffffffffffffffffffffffffffff16815260200190815260200160002060006105f7610e1f565b73ffffffffffffffffffffffffffffffffffffffff1673ffffffffffffffffffffffffffffffffffffffff16815260200190815260200160002054905082811015610677576040517f08c379a000000000000000000000000000000000000000000000000000000000815260040161066e90611857565b60405180910390fd5b61068b85610683610e1f565b858403610e27565b60019150509392505050565b60006012905090565b60006107426106ad610e1f565b8484600160006106bb610e1f565b73ffffffffffffffffffffffffffffffffffffffff1673ffffffffffffffffffffffffffffffffffffffff16815260200190815260200160002060008873ffffffffffffffffffffffffffffffffffffffff1673ffffffffffffffffffffffffffffffffffffffff1681526020019081526020016000205461073d9190611989565b610e27565b6001905092915050565b600660009054906101000a900473ffffffffffffffffffffffffffffffffffffffff1681565b60008060008373ffffffffffffffffffffffffffffffffffffffff1673ffffffffffffffffffffffffffffffffffffffff168152602001908152602001600020549050919050565b6107c2610e1f565b73ffffffffffffffffffffffffffffffffffffffff166107e0610842565b73ffffffffffffffffffffffffffffffffffffffff1614610836576040517f08c379a000000000000000000000000000000000000000000000000000000000815260040161082d90611877565b60405180910390fd5b6108406000611273565b565b6000600560009054906101000a900473ffffffffffffffffffffffffffffffffffffffff16905090565b60075481565b60606004805461088190611b38565b80601f01602080910402602001604051908101604052809291908181526020018280546108ad90611b38565b80156108fa5780601f106108cf576101008083540402835291602001916108fa565b820191906000526020600020905b8154815290600101906020018083116108dd57829003601f168201915b5050505050905090565b600860009054906101000a900460ff1681565b60008060016000610926610e1f565b73ffffffffffffffffffffffffffffffffffffffff1673ffffffffffffffffffffffffffffffffffffffff16815260200190815260200160002060008573ffffffffffffffffffffffffffffffffffffffff1673ffffffffffffffffffffffffffffffffffffffff168152602001908152602001600020549050828110156109e3576040517f08c379a00000000000000000000000000000000000000000000000000000000081526004016109da906118f7565b60405180910390fd5b6109f76109ee610e1f565b85858403610e27565b600191505092915050565b6000808211610a46576040517f08c379a0000000000000000000000000000000000000000000000000000000008152600401610a3d90611837565b60405180910390fd5b600860009054906101000a900460ff1615610aba5760006002606484610a6c91906119df565b610a769190611a10565b905060008184610a869190611a6a565b90508160076000828254610a9a9190611989565b92505081905550610ab3610aac610e1f565b8683610ff2565b5050610acd565b610acc610ac5610e1f565b8484610ff2565b5b6001905092915050565b6000600160008473ffffffffffffffffffffffffffffffffffffffff1673ffffffffffffffffffffffffffffffffffffffff16815260200190815260200160002060008373ffffffffffffffffffffffffffffffffffffffff1673ffffffffffffffffffffffffffffffffffffffff16815260200190815260200160002054905092915050565b610b66610e1f565b73ffffffffffffffffffffffffffffffffffffffff16610b84610842565b73ffffffffffffffffffffffffffffffffffffffff1614610bda576040517f08c379a0000000000000000000000000000000000000000000000000000000008152600401610bd190611877565b60405180910390fd5b80600860006101000a81548160ff02191690831515021790555050565b610bff610e1f565b73ffffffffffffffffffffffffffffffffffffffff16610c1d610842565b73ffffffffffffffffffffffffffffffffffffffff1614610c73576040517f08c379a0000000000000000000000000000000000000000000000000000000008152600401610c6a90611877565b60405180910390fd5b600073ffffffffffffffffffffffffffffffffffffffff168173ffffffffffffffffffffffffffffffffffffffff161415610ce3576040517f08c379a0000000000000000000000000000000000000000000000000000000008152600401610cda90611917565b60405180910390fd5b80600660006101000a81548173ffffffffffffffffffffffffffffffffffffffff021916908373ffffffffffffffffffffffffffffffffffffffff16021790555050565b610d2f610e1f565b73ffffffffffffffffffffffffffffffffffffffff16610d4d610842565b73ffffffffffffffffffffffffffffffffffffffff1614610da3576040517f08c379a0000000000000000000000000000000000000000000000000000000008152600401610d9a90611877565b60405180910390fd5b600073ffffffffffffffffffffffffffffffffffffffff168173ffffffffffffffffffffffffffffffffffffffff161415610e13576040517f08c379a0000000000000000000000000000000000000000000000000000000008152600401610e0a906117b7565b60405180910390fd5b610e1c81611273565b50565b600033905090565b600073ffffffffffffffffffffffffffffffffffffffff168373ffffffffffffffffffffffffffffffffffffffff161415610e97576040517f08c379a0000000000000000000000000000000000000000000000000000000008152600401610e8e906118b7565b60405180910390fd5b600073ffffffffffffffffffffffffffffffffffffffff168273ffffffffffffffffffffffffffffffffffffffff161415610f07576040517f08c379a0000000000000000000000000000000000000000000000000000000008152600401610efe906117d7565b60405180910390fd5b80600160008573ffffffffffffffffffffffffffffffffffffffff1673ffffffffffffffffffffffffffffffffffffffff16815260200190815260200160002060008473ffffffffffffffffffffffffffffffffffffffff1673ffffffffffffffffffffffffffffffffffffffff168152602001908152602001600020819055508173ffffffffffffffffffffffffffffffffffffffff168373ffffffffffffffffffffffffffffffffffffffff167f8c5be1e5ebec7d5bd14f71427d1e84f3dd0314c0f7b2291e5b200ac8c7c3b92583604051610fe59190611937565b60405180910390a3505050565b600073ffffffffffffffffffffffffffffffffffffffff168373ffffffffffffffffffffffffffffffffffffffff161415611062576040517f08c379a000000000000000000000000000000000000000000000000000000000815260040161105990611897565b60405180910390fd5b600073ffffffffffffffffffffffffffffffffffffffff168273ffffffffffffffffffffffffffffffffffffffff1614156110d2576040517f08c379a00000000000000000000000000000000000000000000000000000000081526004016110c990611797565b60405180910390fd5b6110dd838383611339565b60008060008573ffffffffffffffffffffffffffffffffffffffff1673ffffffffffffffffffffffffffffffffffffffff16815260200190815260200160002054905081811015611163576040517f08c379a000000000000000000000000000000000000000000000000000000000815260040161115a90611817565b60405180910390fd5b8181036000808673ffffffffffffffffffffffffffffffffffffffff1673ffffffffffffffffffffffffffffffffffffffff16815260200190815260200160002081905550816000808573ffffffffffffffffffffffffffffffffffffffff1673ffffffffffffffffffffffffffffffffffffffff16815260200190815260200160002060008282546111f69190611989565b925050819055508273ffffffffffffffffffffffffffffffffffffffff168473ffffffffffffffffffffffffffffffffffffffff167fddf252ad1be2c89b69c2b068fc378daa952ba7f163c4a11628f55a4df523b3ef8460405161125a9190611937565b60405180910390a361126d84848461133e565b50505050565b6000600560009054906101000a900473ffffffffffffffffffffffffffffffffffffffff16905081600560006101000a81548173ffffffffffffffffffffffffffffffffffffffff021916908373ffffffffffffffffffffffffffffffffffffffff1602179055508173ffffffffffffffffffffffffffffffffffffffff168173ffffffffffffffffffffffffffffffffffffffff167f8be0079c531659141344cd1fd0a4f28419497f9722a3daafe3b4186f6b6457e060405160405180910390a35050565b505050565b505050565b60008135905061135281611f4d565b92915050565b60008135905061136781611f64565b92915050565b60008135905061137c81611f7b565b92915050565b60008135905061139181611f92565b92915050565b6000602082840312156113a957600080fd5b60006113b784828501611343565b91505092915050565b6000602082840312156113d257600080fd5b60006113e084828501611358565b91505092915050565b600080604083850312156113fc57600080fd5b600061140a85828601611343565b925050602061141b85828601611343565b9150509250929050565b60008060006060848603121561143a57600080fd5b600061144886828701611343565b935050602061145986828701611343565b925050604061146a86828701611382565b9150509250925092565b6000806040838503121561148757600080fd5b600061149585828601611343565b92505060206114a685828601611382565b9150509250929050565b6000602082840312156114c257600080fd5b60006114d08482850161136d565b91505092915050565b6114e281611ab0565b82525050565b6114f181611a9e565b82525050565b61150081611ac2565b82525050565b60006115118261196d565b61151b8185611978565b935061152b818560208601611b05565b61153481611bf7565b840191505092915050565b600061154c602383611978565b915061155782611c08565b604082019050919050565b600061156f602683611978565b915061157a82611c57565b604082019050919050565b6000611592602283611978565b915061159d82611ca6565b604082019050919050565b60006115b5601783611978565b91506115c082611cf5565b602082019050919050565b60006115d8602683611978565b91506115e382611d1e565b604082019050919050565b60006115fb601d83611978565b915061160682611d6d565b602082019050919050565b600061161e602883611978565b915061162982611d96565b604082019050919050565b6000611641602083611978565b915061164c82611de5565b602082019050919050565b6000611664602583611978565b915061166f82611e0e565b604082019050919050565b6000611687602483611978565b915061169282611e5d565b604082019050919050565b60006116aa600f83611978565b91506116b582611eac565b602082019050919050565b60006116cd602583611978565b91506116d882611ed5565b604082019050919050565b60006116f0601d83611978565b91506116fb82611f24565b602082019050919050565b61170f81611aee565b82525050565b61171e81611af8565b82525050565b600060208201905061173960008301846114e8565b92915050565b600060208201905061175460008301846114d9565b92915050565b600060208201905061176f60008301846114f7565b92915050565b6000602082019050818103600083015261178f8184611506565b905092915050565b600060208201905081810360008301526117b08161153f565b9050919050565b600060208201905081810360008301526117d081611562565b9050919050565b600060208201905081810360008301526117f081611585565b9050919050565b60006020820190508181036000830152611810816115a8565b9050919050565b60006020820190508181036000830152611830816115cb565b9050919050565b60006020820190508181036000830152611850816115ee565b9050919050565b6000602082019050818103600083015261187081611611565b9050919050565b6000602082019050818103600083015261189081611634565b9050919050565b600060208201905081810360008301526118b081611657565b9050919050565b600060208201905081810360008301526118d08161167a565b9050919050565b600060208201905081810360008301526118f08161169d565b9050919050565b60006020820190508181036000830152611910816116c0565b9050919050565b60006020820190508181036000830152611930816116e3565b9050919050565b600060208201905061194c6000830184611706565b92915050565b60006020820190506119676000830184611715565b92915050565b600081519050919050565b600082825260208201905092915050565b600061199482611aee565b915061199f83611aee565b9250827fffffffffffffffffffffffffffffffffffffffffffffffffffffffffffffffff038211156119d4576119d3611b6a565b5b828201905092915050565b60006119ea82611aee565b91506119f583611aee565b925082611a0557611a04611b99565b5b828204905092915050565b6000611a1b82611aee565b9150611a2683611aee565b9250817fffffffffffffffffffffffffffffffffffffffffffffffffffffffffffffffff0483118215151615611a5f57611a5e611b6a565b5b828202905092915050565b6000611a7582611aee565b9150611a8083611aee565b925082821015611a9357611a92611b6a565b5b828203905092915050565b6000611aa982611ace565b9050919050565b6000611abb82611ace565b9050919050565b60008115159050919050565b600073ffffffffffffffffffffffffffffffffffffffff82169050919050565b6000819050919050565b600060ff82169050919050565b60005b83811015611b23578082015181840152602081019050611b08565b83811115611b32576000848401525b50505050565b60006002820490506001821680611b5057607f821691505b60208210811415611b6457611b63611bc8565b5b50919050565b7f4e487b7100000000000000000000000000000000000000000000000000000000600052601160045260246000fd5b7f4e487b7100000000000000000000000000000000000000000000000000000000600052601260045260246000fd5b7f4e487b7100000000000000000000000000000000000000000000000000000000600052602260045260246000fd5b6000601f19601f8301169050919050565b7f45524332303a207472616e7366657220746f20746865207a65726f206164647260008201527f6573730000000000000000000000000000000000000000000000000000000000602082015250565b7f4f776e61626c653a206e6577206f776e657220697320746865207a65726f206160008201527f6464726573730000000000000000000000000000000000000000000000000000602082015250565b7f45524332303a20617070726f766520746f20746865207a65726f20616464726560008201527f7373000000000000000000000000000000000000000000000000000000000000602082015250565b7f61646472657373206973206e6f74207472656173757279000000000000000000600082015250565b7f45524332303a207472616e7366657220616d6f756e742065786365656473206260008201527f616c616e63650000000000000000000000000000000000000000000000000000602082015250565b7f616d6f756e74206d7573742062652067726561746572207468616e2030000000600082015250565b7f45524332303a207472616e7366657220616d6f756e742065786365656473206160008201527f6c6c6f77616e6365000000000000000000000000000000000000000000000000602082015250565b7f4f776e61626c653a2063616c6c6572206973206e6f7420746865206f776e6572600082015250565b7f45524332303a207472616e736665722066726f6d20746865207a65726f20616460008201527f6472657373000000000000000000000000000000000000000000000000000000602082015250565b7f45524332303a20617070726f76652066726f6d20746865207a65726f2061646460008201527f7265737300000000000000000000000000000000000000000000000000000000602082015250565b7f7472616e73666572206661696c65640000000000000000000000000000000000600082015250565b7f45524332303a2064656372656173656420616c6c6f77616e63652062656c6f7760008201527f207a65726f000000000000000000000000000000000000000000000000000000602082015250565b7f74726561737572792063616e6e6f742062652061646472657373283029000000600082015250565b611f5681611a9e565b8114611f6157600080fd5b50565b611f6d81611ab0565b8114611f7857600080fd5b50565b611f8481611ac2565b8114611f8f57600080fd5b50565b611f9b81611aee565b8114611fa657600080fd5b5056fea2646970667358221220f49ec8da1ef97dc08b6883ad2af95dd5be6e3a833b30018f3c6fba20b633a68f64736f6c63430008040033",
  "linkReferences": {},
  "deployedLinkReferences": {}
}