{
  "_format": "hh-sol-artifact-1",
  "contractName": "TomatoToken",
  "sourceName": "contracts/TomatoToken.sol",
  "abi": [
    {
      "inputs": [
        {
          "internalType": "address payable",
          "name": "treasuryAddress",
          "type": "address"
        }
      ],
      "stateMutability": "nonpayable",
      "type": "constructor"
    },
    {
      "anonymous": false,
      "inputs": [
        {
          "indexed": true,
          "internalType": "address",
          "name": "owner",
          "type": "address"
        },
        {
          "indexed": true,
          "internalType": "address",
          "name": "spender",
          "type": "address"
        },
        {
          "indexed": false,
          "internalType": "uint256",
          "name": "value",
          "type": "uint256"
        }
      ],
      "name": "Approval",
      "type": "event"
    },
    {
      "anonymous": false,
      "inputs": [
        {
          "indexed": true,
          "internalType": "address",
          "name": "previousOwner",
          "type": "address"
        },
        {
          "indexed": true,
          "internalType": "address",
          "name": "newOwner",
          "type": "address"
        }
      ],
      "name": "OwnershipTransferred",
      "type": "event"
    },
    {
      "anonymous": false,
      "inputs": [
        {
          "indexed": true,
          "internalType": "address",
          "name": "from",
          "type": "address"
        },
        {
          "indexed": true,
          "internalType": "address",
          "name": "to",
          "type": "address"
        },
        {
          "indexed": false,
          "internalType": "uint256",
          "name": "value",
          "type": "uint256"
        }
      ],
      "name": "Transfer",
      "type": "event"
    },
    {
      "inputs": [
        {
          "internalType": "address",
          "name": "owner",
          "type": "address"
        },
        {
          "internalType": "address",
          "name": "spender",
          "type": "address"
        }
      ],
      "name": "allowance",
      "outputs": [
        {
          "internalType": "uint256",
          "name": "",
          "type": "uint256"
        }
      ],
      "stateMutability": "view",
      "type": "function"
    },
    {
      "inputs": [
        {
          "internalType": "address",
          "name": "spender",
          "type": "address"
        },
        {
          "internalType": "uint256",
          "name": "amount",
          "type": "uint256"
        }
      ],
      "name": "approve",
      "outputs": [
        {
          "internalType": "bool",
          "name": "",
          "type": "bool"
        }
      ],
      "stateMutability": "nonpayable",
      "type": "function"
    },
    {
      "inputs": [
        {
          "internalType": "address",
          "name": "account",
          "type": "address"
        }
      ],
      "name": "balanceOf",
      "outputs": [
        {
          "internalType": "uint256",
          "name": "",
          "type": "uint256"
        }
      ],
      "stateMutability": "view",
      "type": "function"
    },
    {
      "inputs": [],
      "name": "decimals",
      "outputs": [
        {
          "internalType": "uint8",
          "name": "",
          "type": "uint8"
        }
      ],
      "stateMutability": "view",
      "type": "function"
    },
    {
      "inputs": [
        {
          "internalType": "address",
          "name": "spender",
          "type": "address"
        },
        {
          "internalType": "uint256",
          "name": "subtractedValue",
          "type": "uint256"
        }
      ],
      "name": "decreaseAllowance",
      "outputs": [
        {
          "internalType": "bool",
          "name": "",
          "type": "bool"
        }
      ],
      "stateMutability": "nonpayable",
      "type": "function"
    },
    {
      "inputs": [],
      "name": "ico",
      "outputs": [
        {
          "internalType": "address payable",
          "name": "",
          "type": "address"
        }
      ],
      "stateMutability": "view",
      "type": "function"
    },
    {
      "inputs": [
        {
          "internalType": "address",
          "name": "spender",
          "type": "address"
        },
        {
          "internalType": "uint256",
          "name": "addedValue",
          "type": "uint256"
        }
      ],
      "name": "increaseAllowance",
      "outputs": [
        {
          "internalType": "bool",
          "name": "",
          "type": "bool"
        }
      ],
      "stateMutability": "nonpayable",
      "type": "function"
    },
    {
      "inputs": [],
      "name": "name",
      "outputs": [
        {
          "internalType": "string",
          "name": "",
          "type": "string"
        }
      ],
      "stateMutability": "view",
      "type": "function"
    },
    {
      "inputs": [],
      "name": "owner",
      "outputs": [
        {
          "internalType": "address",
          "name": "",
          "type": "address"
        }
      ],
      "stateMutability": "view",
      "type": "function"
    },
    {
      "inputs": [],
      "name": "renounceOwnership",
      "outputs": [],
      "stateMutability": "nonpayable",
      "type": "function"
    },
    {
      "inputs": [
        {
          "internalType": "address payable",
          "name": "treasuryAddress",
          "type": "address"
        }
      ],
      "name": "setTreasury",
      "outputs": [],
      "stateMutability": "nonpayable",
      "type": "function"
    },
    {
      "inputs": [],
      "name": "symbol",
      "outputs": [
        {
          "internalType": "string",
          "name": "",
          "type": "string"
        }
      ],
      "stateMutability": "view",
      "type": "function"
    },
    {
      "inputs": [],
      "name": "tax",
      "outputs": [
        {
          "internalType": "bool",
          "name": "",
          "type": "bool"
        }
      ],
      "stateMutability": "view",
      "type": "function"
    },
    {
      "inputs": [
        {
          "internalType": "bool",
          "name": "state",
          "type": "bool"
        }
      ],
      "name": "toggleTax",
      "outputs": [],
      "stateMutability": "nonpayable",
      "type": "function"
    },
    {
      "inputs": [],
      "name": "totalSupply",
      "outputs": [
        {
          "internalType": "uint256",
          "name": "",
          "type": "uint256"
        }
      ],
      "stateMutability": "view",
      "type": "function"
    },
    {
      "inputs": [
        {
          "internalType": "address",
          "name": "recipient",
          "type": "address"
        },
        {
          "internalType": "uint256",
          "name": "amount",
          "type": "uint256"
        }
      ],
      "name": "transfer",
      "outputs": [
        {
          "internalType": "bool",
          "name": "",
          "type": "bool"
        }
      ],
      "stateMutability": "nonpayable",
      "type": "function"
    },
    {
      "inputs": [
        {
          "internalType": "address",
          "name": "sender",
          "type": "address"
        },
        {
          "internalType": "address",
          "name": "recipient",
          "type": "address"
        },
        {
          "internalType": "uint256",
          "name": "amount",
          "type": "uint256"
        }
      ],
      "name": "transferFrom",
      "outputs": [
        {
          "internalType": "bool",
          "name": "",
          "type": "bool"
        }
      ],
      "stateMutability": "nonpayable",
      "type": "function"
    },
    {
      "inputs": [
        {
          "internalType": "address",
          "name": "newOwner",
          "type": "address"
        }
      ],
      "name": "transferOwnership",
      "outputs": [],
      "stateMutability": "nonpayable",
      "type": "function"
    },
    {
      "inputs": [],
      "name": "treasury",
      "outputs": [
        {
          "internalType": "address payable",
          "name": "",
          "type": "address"
        }
      ],
      "stateMutability": "view",
      "type": "function"
    },
    {
      "inputs": [],
      "name": "treasuryTaxBalance",
      "outputs": [
        {
          "internalType": "uint256",
          "name": "",
          "type": "uint256"
        }
      ],
      "stateMutability": "view",
      "type": "function"
    },
    {
      "inputs": [],
      "name": "withdrawTreasury",
      "outputs": [],
      "stateMutability": "nonpayable",
      "type": "function"
    }
  ],
  "bytecode": "0x60806040523480156200001157600080fd5b5060405162002931380380620029318339818101604052810190620000379190620005e9565b6040518060400160405280600681526020017f546f6d61746f00000000000000000000000000000000000000000000000000008152506040518060400160405280600381526020017f544d5400000000000000000000000000000000000000000000000000000000008152508160039080519060200190620000bb92919062000522565b508060049080519060200190620000d492919062000522565b505050620000f7620000eb6200016160201b60201c565b6200016960201b60201c565b62000108816200022f60201b60201c565b6200013f600660009054906101000a900473ffffffffffffffffffffffffffffffffffffffff166207a1206200037560201b60201c565b6001600960006101000a81548160ff02191690831515021790555050620008f3565b600033905090565b6000600560009054906101000a900473ffffffffffffffffffffffffffffffffffffffff16905081600560006101000a81548173ffffffffffffffffffffffffffffffffffffffff021916908373ffffffffffffffffffffffffffffffffffffffff1602179055508173ffffffffffffffffffffffffffffffffffffffff168173ffffffffffffffffffffffffffffffffffffffff167f8be0079c531659141344cd1fd0a4f28419497f9722a3daafe3b4186f6b6457e060405160405180910390a35050565b6200023f6200016160201b60201c565b73ffffffffffffffffffffffffffffffffffffffff1662000265620004ee60201b60201c565b73ffffffffffffffffffffffffffffffffffffffff1614620002be576040517f08c379a0000000000000000000000000000000000000000000000000000000008152600401620002b5906200069b565b60405180910390fd5b600073ffffffffffffffffffffffffffffffffffffffff168173ffffffffffffffffffffffffffffffffffffffff16141562000331576040517f08c379a00000000000000000000000000000000000000000000000000000000081526004016200032890620006df565b60405180910390fd5b80600660006101000a81548173ffffffffffffffffffffffffffffffffffffffff021916908373ffffffffffffffffffffffffffffffffffffffff16021790555050565b600073ffffffffffffffffffffffffffffffffffffffff168273ffffffffffffffffffffffffffffffffffffffff161415620003e8576040517f08c379a0000000000000000000000000000000000000000000000000000000008152600401620003df90620006bd565b60405180910390fd5b620003fc600083836200051860201b60201c565b80600260008282546200041091906200072f565b92505081905550806000808473ffffffffffffffffffffffffffffffffffffffff1673ffffffffffffffffffffffffffffffffffffffff16815260200190815260200160002060008282546200046791906200072f565b925050819055508173ffffffffffffffffffffffffffffffffffffffff16600073ffffffffffffffffffffffffffffffffffffffff167fddf252ad1be2c89b69c2b068fc378daa952ba7f163c4a11628f55a4df523b3ef83604051620004ce919062000701565b60405180910390a3620004ea600083836200051d60201b60201c565b5050565b6000600560009054906101000a900473ffffffffffffffffffffffffffffffffffffffff16905090565b505050565b505050565b8280546200053090620007ca565b90600052602060002090601f016020900481019282620005545760008555620005a0565b82601f106200056f57805160ff1916838001178555620005a0565b82800160010185558215620005a0579182015b828111156200059f57825182559160200191906001019062000582565b5b509050620005af9190620005b3565b5090565b5b80821115620005ce576000816000905550600101620005b4565b5090565b600081519050620005e381620008d9565b92915050565b600060208284031215620005fc57600080fd5b60006200060c84828501620005d2565b91505092915050565b6000620006246020836200071e565b915062000631826200085e565b602082019050919050565b60006200064b601f836200071e565b9150620006588262000887565b602082019050919050565b600062000672601d836200071e565b91506200067f82620008b0565b602082019050919050565b6200069581620007c0565b82525050565b60006020820190508181036000830152620006b68162000615565b9050919050565b60006020820190508181036000830152620006d8816200063c565b9050919050565b60006020820190508181036000830152620006fa8162000663565b9050919050565b60006020820190506200071860008301846200068a565b92915050565b600082825260208201905092915050565b60006200073c82620007c0565b91506200074983620007c0565b9250827fffffffffffffffffffffffffffffffffffffffffffffffffffffffffffffffff0382111562000781576200078062000800565b5b828201905092915050565b60006200079982620007a0565b9050919050565b600073ffffffffffffffffffffffffffffffffffffffff82169050919050565b6000819050919050565b60006002820490506001821680620007e357607f821691505b60208210811415620007fa57620007f96200082f565b5b50919050565b7f4e487b7100000000000000000000000000000000000000000000000000000000600052601160045260246000fd5b7f4e487b7100000000000000000000000000000000000000000000000000000000600052602260045260246000fd5b7f4f776e61626c653a2063616c6c6572206973206e6f7420746865206f776e6572600082015250565b7f45524332303a206d696e7420746f20746865207a65726f206164647265737300600082015250565b7f74726561737572792063616e6e6f742062652061646472657373283029000000600082015250565b620008e4816200078c565b8114620008f057600080fd5b50565b61202e80620009036000396000f3fe608060405234801561001057600080fd5b50600436106101375760003560e01c806370a08231116100b857806399c8d5561161007c57806399c8d5561461031c578063a457c2d71461033a578063a9059cbb1461036a578063dd62ed3e1461039a578063f0f44260146103ca578063f2fde38b146103e657610137565b806370a0823114610288578063715018a6146102b85780638da5cb5b146102c25780638e4a371a146102e057806395d89b41146102fe57610137565b8063313ce567116100ff578063313ce567146101e257806339509351146102005780633cfd5211146102305780635d4522011461024c57806361d027b31461026a57610137565b806306fdde031461013c578063095ea7b31461015a578063166bab951461018a57806318160ddd1461019457806323b872dd146101b2575b600080fd5b610144610402565b60405161015191906117c4565b60405180910390f35b610174600480360381019061016f91906114c3565b610494565b60405161018191906117a9565b60405180910390f35b6101926104b2565b005b61019c6105be565b6040516101a99190611986565b60405180910390f35b6101cc60048036038101906101c79190611474565b6105c8565b6040516101d991906117a9565b60405180910390f35b6101ea6106c0565b6040516101f791906119a1565b60405180910390f35b61021a600480360381019061021591906114c3565b6106c9565b60405161022791906117a9565b60405180910390f35b61024a600480360381019061024591906114ff565b610775565b005b61025461080e565b604051610261919061178e565b60405180910390f35b610272610834565b60405161027f919061178e565b60405180910390f35b6102a2600480360381019061029d91906113e6565b61085a565b6040516102af9190611986565b60405180910390f35b6102c06108a2565b005b6102ca61092a565b6040516102d79190611773565b60405180910390f35b6102e8610954565b6040516102f59190611986565b60405180910390f35b61030661095a565b60405161031391906117c4565b60405180910390f35b6103246109ec565b60405161033191906117a9565b60405180910390f35b610354600480360381019061034f91906114c3565b6109ff565b60405161036191906117a9565b60405180910390f35b610384600480360381019061037f91906114c3565b610aea565b60405161039191906117a9565b60405180910390f35b6103b460048036038101906103af9190611438565b610bbf565b6040516103c19190611986565b60405180910390f35b6103e460048036038101906103df919061140f565b610c46565b005b61040060048036038101906103fb91906113e6565b610d76565b005b60606003805461041190611b87565b80601f016020809104026020016040519081016040528092919081815260200182805461043d90611b87565b801561048a5780601f1061045f5761010080835404028352916020019161048a565b820191906000526020600020905b81548152906001019060200180831161046d57829003601f168201915b5050505050905090565b60006104a86104a1610e6e565b8484610e76565b6001905092915050565b600660009054906101000a900473ffffffffffffffffffffffffffffffffffffffff1673ffffffffffffffffffffffffffffffffffffffff163373ffffffffffffffffffffffffffffffffffffffff1614610542576040517f08c379a000000000000000000000000000000000000000000000000000000000815260040161053990611886565b60405180910390fd5b6000610572600660009054906101000a900473ffffffffffffffffffffffffffffffffffffffff16600854610aea565b905060011515811515146105bb576040517f08c379a00000000000000000000000000000000000000000000000000000000081526004016105b290611926565b60405180910390fd5b50565b6000600254905090565b60006105d5848484611041565b6000600160008673ffffffffffffffffffffffffffffffffffffffff1673ffffffffffffffffffffffffffffffffffffffff1681526020019081526020016000206000610620610e6e565b73ffffffffffffffffffffffffffffffffffffffff1673ffffffffffffffffffffffffffffffffffffffff168152602001908152602001600020549050828110156106a0576040517f08c379a0000000000000000000000000000000000000000000000000000000008152600401610697906118a6565b60405180910390fd5b6106b4856106ac610e6e565b858403610e76565b60019150509392505050565b60006012905090565b600061076b6106d6610e6e565b8484600160006106e4610e6e565b73ffffffffffffffffffffffffffffffffffffffff1673ffffffffffffffffffffffffffffffffffffffff16815260200190815260200160002060008873ffffffffffffffffffffffffffffffffffffffff1673ffffffffffffffffffffffffffffffffffffffff1681526020019081526020016000205461076691906119d8565b610e76565b6001905092915050565b61077d610e6e565b73ffffffffffffffffffffffffffffffffffffffff1661079b61092a565b73ffffffffffffffffffffffffffffffffffffffff16146107f1576040517f08c379a00000000000000000000000000000000000000000000000000000000081526004016107e8906118c6565b60405180910390fd5b80600960006101000a81548160ff02191690831515021790555050565b600760009054906101000a900473ffffffffffffffffffffffffffffffffffffffff1681565b600660009054906101000a900473ffffffffffffffffffffffffffffffffffffffff1681565b60008060008373ffffffffffffffffffffffffffffffffffffffff1673ffffffffffffffffffffffffffffffffffffffff168152602001908152602001600020549050919050565b6108aa610e6e565b73ffffffffffffffffffffffffffffffffffffffff166108c861092a565b73ffffffffffffffffffffffffffffffffffffffff161461091e576040517f08c379a0000000000000000000000000000000000000000000000000000000008152600401610915906118c6565b60405180910390fd5b61092860006112c2565b565b6000600560009054906101000a900473ffffffffffffffffffffffffffffffffffffffff16905090565b60085481565b60606004805461096990611b87565b80601f016020809104026020016040519081016040528092919081815260200182805461099590611b87565b80156109e25780601f106109b7576101008083540402835291602001916109e2565b820191906000526020600020905b8154815290600101906020018083116109c557829003601f168201915b5050505050905090565b600960009054906101000a900460ff1681565b60008060016000610a0e610e6e565b73ffffffffffffffffffffffffffffffffffffffff1673ffffffffffffffffffffffffffffffffffffffff16815260200190815260200160002060008573ffffffffffffffffffffffffffffffffffffffff1673ffffffffffffffffffffffffffffffffffffffff16815260200190815260200160002054905082811015610acb576040517f08c379a0000000000000000000000000000000000000000000000000000000008152600401610ac290611946565b60405180910390fd5b610adf610ad6610e6e565b85858403610e76565b600191505092915050565b6000808211610b2e576040517f08c379a0000000000000000000000000000000000000000000000000000000008152600401610b2590611866565b60405180910390fd5b600960009054906101000a900460ff1615610ba25760006002606484610b549190611a2e565b610b5e9190611a5f565b905060008184610b6e9190611ab9565b90508160086000828254610b8291906119d8565b92505081905550610b9b610b94610e6e565b8683611041565b5050610bb5565b610bb4610bad610e6e565b8484611041565b5b6001905092915050565b6000600160008473ffffffffffffffffffffffffffffffffffffffff1673ffffffffffffffffffffffffffffffffffffffff16815260200190815260200160002060008373ffffffffffffffffffffffffffffffffffffffff1673ffffffffffffffffffffffffffffffffffffffff16815260200190815260200160002054905092915050565b610c4e610e6e565b73ffffffffffffffffffffffffffffffffffffffff16610c6c61092a565b73ffffffffffffffffffffffffffffffffffffffff1614610cc2576040517f08c379a0000000000000000000000000000000000000000000000000000000008152600401610cb9906118c6565b60405180910390fd5b600073ffffffffffffffffffffffffffffffffffffffff168173ffffffffffffffffffffffffffffffffffffffff161415610d32576040517f08c379a0000000000000000000000000000000000000000000000000000000008152600401610d2990611966565b60405180910390fd5b80600660006101000a81548173ffffffffffffffffffffffffffffffffffffffff021916908373ffffffffffffffffffffffffffffffffffffffff16021790555050565b610d7e610e6e565b73ffffffffffffffffffffffffffffffffffffffff16610d9c61092a565b73ffffffffffffffffffffffffffffffffffffffff1614610df2576040517f08c379a0000000000000000000000000000000000000000000000000000000008152600401610de9906118c6565b60405180910390fd5b600073ffffffffffffffffffffffffffffffffffffffff168173ffffffffffffffffffffffffffffffffffffffff161415610e62576040517f08c379a0000000000000000000000000000000000000000000000000000000008152600401610e5990611806565b60405180910390fd5b610e6b816112c2565b50565b600033905090565b600073ffffffffffffffffffffffffffffffffffffffff168373ffffffffffffffffffffffffffffffffffffffff161415610ee6576040517f08c379a0000000000000000000000000000000000000000000000000000000008152600401610edd90611906565b60405180910390fd5b600073ffffffffffffffffffffffffffffffffffffffff168273ffffffffffffffffffffffffffffffffffffffff161415610f56576040517f08c379a0000000000000000000000000000000000000000000000000000000008152600401610f4d90611826565b60405180910390fd5b80600160008573ffffffffffffffffffffffffffffffffffffffff1673ffffffffffffffffffffffffffffffffffffffff16815260200190815260200160002060008473ffffffffffffffffffffffffffffffffffffffff1673ffffffffffffffffffffffffffffffffffffffff168152602001908152602001600020819055508173ffffffffffffffffffffffffffffffffffffffff168373ffffffffffffffffffffffffffffffffffffffff167f8c5be1e5ebec7d5bd14f71427d1e84f3dd0314c0f7b2291e5b200ac8c7c3b925836040516110349190611986565b60405180910390a3505050565b600073ffffffffffffffffffffffffffffffffffffffff168373ffffffffffffffffffffffffffffffffffffffff1614156110b1576040517f08c379a00000000000000000000000000000000000000000000000000000000081526004016110a8906118e6565b60405180910390fd5b600073ffffffffffffffffffffffffffffffffffffffff168273ffffffffffffffffffffffffffffffffffffffff161415611121576040517f08c379a0000000000000000000000000000000000000000000000000000000008152600401611118906117e6565b60405180910390fd5b61112c838383611388565b60008060008573ffffffffffffffffffffffffffffffffffffffff1673ffffffffffffffffffffffffffffffffffffffff168152602001908152602001600020549050818110156111b2576040517f08c379a00000000000000000000000000000000000000000000000000000000081526004016111a990611846565b60405180910390fd5b8181036000808673ffffffffffffffffffffffffffffffffffffffff1673ffffffffffffffffffffffffffffffffffffffff16815260200190815260200160002081905550816000808573ffffffffffffffffffffffffffffffffffffffff1673ffffffffffffffffffffffffffffffffffffffff168152602001908152602001600020600082825461124591906119d8565b925050819055508273ffffffffffffffffffffffffffffffffffffffff168473ffffffffffffffffffffffffffffffffffffffff167fddf252ad1be2c89b69c2b068fc378daa952ba7f163c4a11628f55a4df523b3ef846040516112a99190611986565b60405180910390a36112bc84848461138d565b50505050565b6000600560009054906101000a900473ffffffffffffffffffffffffffffffffffffffff16905081600560006101000a81548173ffffffffffffffffffffffffffffffffffffffff021916908373ffffffffffffffffffffffffffffffffffffffff1602179055508173ffffffffffffffffffffffffffffffffffffffff168173ffffffffffffffffffffffffffffffffffffffff167f8be0079c531659141344cd1fd0a4f28419497f9722a3daafe3b4186f6b6457e060405160405180910390a35050565b505050565b505050565b6000813590506113a181611f9c565b92915050565b6000813590506113b681611fb3565b92915050565b6000813590506113cb81611fca565b92915050565b6000813590506113e081611fe1565b92915050565b6000602082840312156113f857600080fd5b600061140684828501611392565b91505092915050565b60006020828403121561142157600080fd5b600061142f848285016113a7565b91505092915050565b6000806040838503121561144b57600080fd5b600061145985828601611392565b925050602061146a85828601611392565b9150509250929050565b60008060006060848603121561148957600080fd5b600061149786828701611392565b93505060206114a886828701611392565b92505060406114b9868287016113d1565b9150509250925092565b600080604083850312156114d657600080fd5b60006114e485828601611392565b92505060206114f5858286016113d1565b9150509250929050565b60006020828403121561151157600080fd5b600061151f848285016113bc565b91505092915050565b61153181611aff565b82525050565b61154081611aed565b82525050565b61154f81611b11565b82525050565b6000611560826119bc565b61156a81856119c7565b935061157a818560208601611b54565b61158381611c46565b840191505092915050565b600061159b6023836119c7565b91506115a682611c57565b604082019050919050565b60006115be6026836119c7565b91506115c982611ca6565b604082019050919050565b60006115e16022836119c7565b91506115ec82611cf5565b604082019050919050565b60006116046026836119c7565b915061160f82611d44565b604082019050919050565b6000611627601d836119c7565b915061163282611d93565b602082019050919050565b600061164a601a836119c7565b915061165582611dbc565b602082019050919050565b600061166d6028836119c7565b915061167882611de5565b604082019050919050565b60006116906020836119c7565b915061169b82611e34565b602082019050919050565b60006116b36025836119c7565b91506116be82611e5d565b604082019050919050565b60006116d66024836119c7565b91506116e182611eac565b604082019050919050565b60006116f9600f836119c7565b915061170482611efb565b602082019050919050565b600061171c6025836119c7565b915061172782611f24565b604082019050919050565b600061173f601d836119c7565b915061174a82611f73565b602082019050919050565b61175e81611b3d565b82525050565b61176d81611b47565b82525050565b60006020820190506117886000830184611537565b92915050565b60006020820190506117a36000830184611528565b92915050565b60006020820190506117be6000830184611546565b92915050565b600060208201905081810360008301526117de8184611555565b905092915050565b600060208201905081810360008301526117ff8161158e565b9050919050565b6000602082019050818103600083015261181f816115b1565b9050919050565b6000602082019050818103600083015261183f816115d4565b9050919050565b6000602082019050818103600083015261185f816115f7565b9050919050565b6000602082019050818103600083015261187f8161161a565b9050919050565b6000602082019050818103600083015261189f8161163d565b9050919050565b600060208201905081810360008301526118bf81611660565b9050919050565b600060208201905081810360008301526118df81611683565b9050919050565b600060208201905081810360008301526118ff816116a6565b9050919050565b6000602082019050818103600083015261191f816116c9565b9050919050565b6000602082019050818103600083015261193f816116ec565b9050919050565b6000602082019050818103600083015261195f8161170f565b9050919050565b6000602082019050818103600083015261197f81611732565b9050919050565b600060208201905061199b6000830184611755565b92915050565b60006020820190506119b66000830184611764565b92915050565b600081519050919050565b600082825260208201905092915050565b60006119e382611b3d565b91506119ee83611b3d565b9250827fffffffffffffffffffffffffffffffffffffffffffffffffffffffffffffffff03821115611a2357611a22611bb9565b5b828201905092915050565b6000611a3982611b3d565b9150611a4483611b3d565b925082611a5457611a53611be8565b5b828204905092915050565b6000611a6a82611b3d565b9150611a7583611b3d565b9250817fffffffffffffffffffffffffffffffffffffffffffffffffffffffffffffffff0483118215151615611aae57611aad611bb9565b5b828202905092915050565b6000611ac482611b3d565b9150611acf83611b3d565b925082821015611ae257611ae1611bb9565b5b828203905092915050565b6000611af882611b1d565b9050919050565b6000611b0a82611b1d565b9050919050565b60008115159050919050565b600073ffffffffffffffffffffffffffffffffffffffff82169050919050565b6000819050919050565b600060ff82169050919050565b60005b83811015611b72578082015181840152602081019050611b57565b83811115611b81576000848401525b50505050565b60006002820490506001821680611b9f57607f821691505b60208210811415611bb357611bb2611c17565b5b50919050565b7f4e487b7100000000000000000000000000000000000000000000000000000000600052601160045260246000fd5b7f4e487b7100000000000000000000000000000000000000000000000000000000600052601260045260246000fd5b7f4e487b7100000000000000000000000000000000000000000000000000000000600052602260045260246000fd5b6000601f19601f8301169050919050565b7f45524332303a207472616e7366657220746f20746865207a65726f206164647260008201527f6573730000000000000000000000000000000000000000000000000000000000602082015250565b7f4f776e61626c653a206e6577206f776e657220697320746865207a65726f206160008201527f6464726573730000000000000000000000000000000000000000000000000000602082015250565b7f45524332303a20617070726f766520746f20746865207a65726f20616464726560008201527f7373000000000000000000000000000000000000000000000000000000000000602082015250565b7f45524332303a207472616e7366657220616d6f756e742065786365656473206260008201527f616c616e63650000000000000000000000000000000000000000000000000000602082015250565b7f616d6f756e74206d7573742062652067726561746572207468616e2030000000600082015250565b7f6d73672e73656e646572206973206e6f74207472656173757279000000000000600082015250565b7f45524332303a207472616e7366657220616d6f756e742065786365656473206160008201527f6c6c6f77616e6365000000000000000000000000000000000000000000000000602082015250565b7f4f776e61626c653a2063616c6c6572206973206e6f7420746865206f776e6572600082015250565b7f45524332303a207472616e736665722066726f6d20746865207a65726f20616460008201527f6472657373000000000000000000000000000000000000000000000000000000602082015250565b7f45524332303a20617070726f76652066726f6d20746865207a65726f2061646460008201527f7265737300000000000000000000000000000000000000000000000000000000602082015250565b7f7472616e73666572206661696c65640000000000000000000000000000000000600082015250565b7f45524332303a2064656372656173656420616c6c6f77616e63652062656c6f7760008201527f207a65726f000000000000000000000000000000000000000000000000000000602082015250565b7f74726561737572792063616e6e6f742062652061646472657373283029000000600082015250565b611fa581611aed565b8114611fb057600080fd5b50565b611fbc81611aff565b8114611fc757600080fd5b50565b611fd381611b11565b8114611fde57600080fd5b50565b611fea81611b3d565b8114611ff557600080fd5b5056fea2646970667358221220910a1c377b155d6b8a67060509123d76a70c40cc6d72082e9a8bee0d763c044264736f6c63430008040033",
  "linkReferences": {},
  "deployedLinkReferences": {}
}