{
  "_format": "hh-sol-artifact-1",
  "contractName": "TomatoToken",
  "sourceName": "contracts/TomatoToken.sol",
  "abi": [
    {
      "inputs": [
        {
          "internalType": "address payable",
          "name": "treasuryAddress",
          "type": "address"
        }
      ],
      "stateMutability": "nonpayable",
      "type": "constructor"
    },
    {
      "anonymous": false,
      "inputs": [
        {
          "indexed": true,
          "internalType": "address",
          "name": "owner",
          "type": "address"
        },
        {
          "indexed": true,
          "internalType": "address",
          "name": "spender",
          "type": "address"
        },
        {
          "indexed": false,
          "internalType": "uint256",
          "name": "value",
          "type": "uint256"
        }
      ],
      "name": "Approval",
      "type": "event"
    },
    {
      "anonymous": false,
      "inputs": [
        {
          "indexed": true,
          "internalType": "address",
          "name": "previousOwner",
          "type": "address"
        },
        {
          "indexed": true,
          "internalType": "address",
          "name": "newOwner",
          "type": "address"
        }
      ],
      "name": "OwnershipTransferred",
      "type": "event"
    },
    {
      "anonymous": false,
      "inputs": [
        {
          "indexed": true,
          "internalType": "address",
          "name": "from",
          "type": "address"
        },
        {
          "indexed": true,
          "internalType": "address",
          "name": "to",
          "type": "address"
        },
        {
          "indexed": false,
          "internalType": "uint256",
          "name": "value",
          "type": "uint256"
        }
      ],
      "name": "Transfer",
      "type": "event"
    },
    {
      "inputs": [
        {
          "internalType": "address",
          "name": "owner",
          "type": "address"
        },
        {
          "internalType": "address",
          "name": "spender",
          "type": "address"
        }
      ],
      "name": "allowance",
      "outputs": [
        {
          "internalType": "uint256",
          "name": "",
          "type": "uint256"
        }
      ],
      "stateMutability": "view",
      "type": "function"
    },
    {
      "inputs": [
        {
          "internalType": "address",
          "name": "spender",
          "type": "address"
        },
        {
          "internalType": "uint256",
          "name": "amount",
          "type": "uint256"
        }
      ],
      "name": "approve",
      "outputs": [
        {
          "internalType": "bool",
          "name": "",
          "type": "bool"
        }
      ],
      "stateMutability": "nonpayable",
      "type": "function"
    },
    {
      "inputs": [
        {
          "internalType": "address",
          "name": "account",
          "type": "address"
        }
      ],
      "name": "balanceOf",
      "outputs": [
        {
          "internalType": "uint256",
          "name": "",
          "type": "uint256"
        }
      ],
      "stateMutability": "view",
      "type": "function"
    },
    {
      "inputs": [],
      "name": "decimals",
      "outputs": [
        {
          "internalType": "uint8",
          "name": "",
          "type": "uint8"
        }
      ],
      "stateMutability": "view",
      "type": "function"
    },
    {
      "inputs": [
        {
          "internalType": "address",
          "name": "spender",
          "type": "address"
        },
        {
          "internalType": "uint256",
          "name": "subtractedValue",
          "type": "uint256"
        }
      ],
      "name": "decreaseAllowance",
      "outputs": [
        {
          "internalType": "bool",
          "name": "",
          "type": "bool"
        }
      ],
      "stateMutability": "nonpayable",
      "type": "function"
    },
    {
      "inputs": [
        {
          "internalType": "address",
          "name": "spender",
          "type": "address"
        },
        {
          "internalType": "uint256",
          "name": "addedValue",
          "type": "uint256"
        }
      ],
      "name": "increaseAllowance",
      "outputs": [
        {
          "internalType": "bool",
          "name": "",
          "type": "bool"
        }
      ],
      "stateMutability": "nonpayable",
      "type": "function"
    },
    {
      "inputs": [
        {
          "internalType": "address",
          "name": "to",
          "type": "address"
        },
        {
          "internalType": "uint256",
          "name": "amount",
          "type": "uint256"
        }
      ],
      "name": "mint",
      "outputs": [],
      "stateMutability": "nonpayable",
      "type": "function"
    },
    {
      "inputs": [],
      "name": "name",
      "outputs": [
        {
          "internalType": "string",
          "name": "",
          "type": "string"
        }
      ],
      "stateMutability": "view",
      "type": "function"
    },
    {
      "inputs": [],
      "name": "owner",
      "outputs": [
        {
          "internalType": "address",
          "name": "",
          "type": "address"
        }
      ],
      "stateMutability": "view",
      "type": "function"
    },
    {
      "inputs": [],
      "name": "renounceOwnership",
      "outputs": [],
      "stateMutability": "nonpayable",
      "type": "function"
    },
    {
      "inputs": [
        {
          "internalType": "address payable",
          "name": "treasuryAddress",
          "type": "address"
        }
      ],
      "name": "setTreasury",
      "outputs": [],
      "stateMutability": "nonpayable",
      "type": "function"
    },
    {
      "inputs": [],
      "name": "symbol",
      "outputs": [
        {
          "internalType": "string",
          "name": "",
          "type": "string"
        }
      ],
      "stateMutability": "view",
      "type": "function"
    },
    {
      "inputs": [],
      "name": "tax",
      "outputs": [
        {
          "internalType": "bool",
          "name": "",
          "type": "bool"
        }
      ],
      "stateMutability": "view",
      "type": "function"
    },
    {
      "inputs": [
        {
          "internalType": "bool",
          "name": "state",
          "type": "bool"
        }
      ],
      "name": "toggleTax",
      "outputs": [],
      "stateMutability": "nonpayable",
      "type": "function"
    },
    {
      "inputs": [],
      "name": "totalSupply",
      "outputs": [
        {
          "internalType": "uint256",
          "name": "",
          "type": "uint256"
        }
      ],
      "stateMutability": "view",
      "type": "function"
    },
    {
      "inputs": [
        {
          "internalType": "address",
          "name": "recipient",
          "type": "address"
        },
        {
          "internalType": "uint256",
          "name": "amount",
          "type": "uint256"
        }
      ],
      "name": "transfer",
      "outputs": [
        {
          "internalType": "bool",
          "name": "",
          "type": "bool"
        }
      ],
      "stateMutability": "nonpayable",
      "type": "function"
    },
    {
      "inputs": [
        {
          "internalType": "address",
          "name": "sender",
          "type": "address"
        },
        {
          "internalType": "address",
          "name": "recipient",
          "type": "address"
        },
        {
          "internalType": "uint256",
          "name": "amount",
          "type": "uint256"
        }
      ],
      "name": "transferFrom",
      "outputs": [
        {
          "internalType": "bool",
          "name": "",
          "type": "bool"
        }
      ],
      "stateMutability": "nonpayable",
      "type": "function"
    },
    {
      "inputs": [
        {
          "internalType": "address",
          "name": "newOwner",
          "type": "address"
        }
      ],
      "name": "transferOwnership",
      "outputs": [],
      "stateMutability": "nonpayable",
      "type": "function"
    },
    {
      "inputs": [],
      "name": "treasury",
      "outputs": [
        {
          "internalType": "address payable",
          "name": "",
          "type": "address"
        }
      ],
      "stateMutability": "view",
      "type": "function"
    },
    {
      "inputs": [],
      "name": "treasuryTaxBalance",
      "outputs": [
        {
          "internalType": "uint256",
          "name": "",
          "type": "uint256"
        }
      ],
      "stateMutability": "view",
      "type": "function"
    },
    {
      "inputs": [],
      "name": "withdrawTreasury",
      "outputs": [
        {
          "internalType": "uint256",
          "name": "",
          "type": "uint256"
        }
      ],
      "stateMutability": "nonpayable",
      "type": "function"
    }
  ],
  "bytecode": "0x60806040523480156200001157600080fd5b506040516200301738038062003017833981810160405281019062000037919062000737565b6040518060400160405280600681526020017f546f6d61746f00000000000000000000000000000000000000000000000000008152506040518060400160405280600381526020017f544d5400000000000000000000000000000000000000000000000000000000008152508160039080519060200190620000bb92919062000670565b508060049080519060200190620000d492919062000670565b505050620000f7620000eb6200018b60201b60201c565b6200019360201b60201c565b62000108816200025960201b60201c565b62000169600660009054906101000a900473ffffffffffffffffffffffffffffffffffffffff166200013f6200039f60201b60201c565b600a6200014d91906200097e565b6207a1206200015d919062000abb565b620003a860201b60201c565b6001600860006101000a81548160ff0219169083151502179055505062000cc6565b600033905090565b6000600560009054906101000a900473ffffffffffffffffffffffffffffffffffffffff16905081600560006101000a81548173ffffffffffffffffffffffffffffffffffffffff021916908373ffffffffffffffffffffffffffffffffffffffff1602179055508173ffffffffffffffffffffffffffffffffffffffff168173ffffffffffffffffffffffffffffffffffffffff167f8be0079c531659141344cd1fd0a4f28419497f9722a3daafe3b4186f6b6457e060405160405180910390a35050565b620002696200018b60201b60201c565b73ffffffffffffffffffffffffffffffffffffffff166200028f620004b960201b60201c565b73ffffffffffffffffffffffffffffffffffffffff1614620002e8576040517f08c379a0000000000000000000000000000000000000000000000000000000008152600401620002df9062000832565b60405180910390fd5b600073ffffffffffffffffffffffffffffffffffffffff168173ffffffffffffffffffffffffffffffffffffffff1614156200035b576040517f08c379a0000000000000000000000000000000000000000000000000000000008152600401620003529062000876565b60405180910390fd5b80600660006101000a81548173ffffffffffffffffffffffffffffffffffffffff021916908373ffffffffffffffffffffffffffffffffffffffff16021790555050565b60006012905090565b620003b86200018b60201b60201c565b73ffffffffffffffffffffffffffffffffffffffff16620003de620004b960201b60201c565b73ffffffffffffffffffffffffffffffffffffffff161462000437576040517f08c379a00000000000000000000000000000000000000000000000000000000081526004016200042e9062000832565b60405180910390fd5b6969e10de76676d08000008162000453620004e360201b60201c565b6200045f9190620008c6565b1115620004a3576040517f08c379a00000000000000000000000000000000000000000000000000000000081526004016200049a9062000810565b60405180910390fd5b620004b58282620004ed60201b60201c565b5050565b6000600560009054906101000a900473ffffffffffffffffffffffffffffffffffffffff16905090565b6000600254905090565b600073ffffffffffffffffffffffffffffffffffffffff168273ffffffffffffffffffffffffffffffffffffffff16141562000560576040517f08c379a0000000000000000000000000000000000000000000000000000000008152600401620005579062000854565b60405180910390fd5b62000574600083836200066660201b60201c565b8060026000828254620005889190620008c6565b92505081905550806000808473ffffffffffffffffffffffffffffffffffffffff1673ffffffffffffffffffffffffffffffffffffffff1681526020019081526020016000206000828254620005df9190620008c6565b925050819055508173ffffffffffffffffffffffffffffffffffffffff16600073ffffffffffffffffffffffffffffffffffffffff167fddf252ad1be2c89b69c2b068fc378daa952ba7f163c4a11628f55a4df523b3ef8360405162000646919062000898565b60405180910390a362000662600083836200066b60201b60201c565b5050565b505050565b505050565b8280546200067e9062000b67565b90600052602060002090601f016020900481019282620006a25760008555620006ee565b82601f10620006bd57805160ff1916838001178555620006ee565b82800160010185558215620006ee579182015b82811115620006ed578251825591602001919060010190620006d0565b5b509050620006fd919062000701565b5090565b5b808211156200071c57600081600090555060010162000702565b5090565b600081519050620007318162000cac565b92915050565b6000602082840312156200074a57600080fd5b60006200075a8482850162000720565b91505092915050565b600062000772602083620008b5565b91506200077f8262000c08565b602082019050919050565b600062000799602083620008b5565b9150620007a68262000c31565b602082019050919050565b6000620007c0601f83620008b5565b9150620007cd8262000c5a565b602082019050919050565b6000620007e7601d83620008b5565b9150620007f48262000c83565b602082019050919050565b6200080a8162000b50565b82525050565b600060208201905081810360008301526200082b8162000763565b9050919050565b600060208201905081810360008301526200084d816200078a565b9050919050565b600060208201905081810360008301526200086f81620007b1565b9050919050565b600060208201905081810360008301526200089181620007d8565b9050919050565b6000602082019050620008af6000830184620007ff565b92915050565b600082825260208201905092915050565b6000620008d38262000b50565b9150620008e08362000b50565b9250827fffffffffffffffffffffffffffffffffffffffffffffffffffffffffffffffff0382111562000918576200091762000b9d565b5b828201905092915050565b6000808291508390505b600185111562000975578086048111156200094d576200094c62000b9d565b5b60018516156200095d5780820291505b80810290506200096d8562000bfb565b94506200092d565b94509492505050565b60006200098b8262000b50565b9150620009988362000b5a565b9250620009c77fffffffffffffffffffffffffffffffffffffffffffffffffffffffffffffffff8484620009cf565b905092915050565b600082620009e1576001905062000ab4565b81620009f1576000905062000ab4565b816001811462000a0a576002811462000a155762000a4b565b600191505062000ab4565b60ff84111562000a2a5762000a2962000b9d565b5b8360020a91508482111562000a445762000a4362000b9d565b5b5062000ab4565b5060208310610133831016604e8410600b841016171562000a855782820a90508381111562000a7f5762000a7e62000b9d565b5b62000ab4565b62000a94848484600162000923565b9250905081840481111562000aae5762000aad62000b9d565b5b81810290505b9392505050565b600062000ac88262000b50565b915062000ad58362000b50565b9250817fffffffffffffffffffffffffffffffffffffffffffffffffffffffffffffffff048311821515161562000b115762000b1062000b9d565b5b828202905092915050565b600062000b298262000b30565b9050919050565b600073ffffffffffffffffffffffffffffffffffffffff82169050919050565b6000819050919050565b600060ff82169050919050565b6000600282049050600182168062000b8057607f821691505b6020821081141562000b975762000b9662000bcc565b5b50919050565b7f4e487b7100000000000000000000000000000000000000000000000000000000600052601160045260246000fd5b7f4e487b7100000000000000000000000000000000000000000000000000000000600052602260045260246000fd5b60008160011c9050919050565b7f6d696e74696e6720776f756c642073757270617373206d617820737570706c79600082015250565b7f4f776e61626c653a2063616c6c6572206973206e6f7420746865206f776e6572600082015250565b7f45524332303a206d696e7420746f20746865207a65726f206164647265737300600082015250565b7f74726561737572792063616e6e6f742062652061646472657373283029000000600082015250565b62000cb78162000b1c565b811462000cc357600080fd5b50565b6123418062000cd66000396000f3fe608060405234801561001057600080fd5b50600436106101375760003560e01c806370a08231116100b857806399c8d5561161007c57806399c8d5561461032e578063a457c2d71461034c578063a9059cbb1461037c578063dd62ed3e146103ac578063f0f44260146103dc578063f2fde38b146103f857610137565b806370a082311461029a578063715018a6146102ca5780638da5cb5b146102d45780638e4a371a146102f257806395d89b411461031057610137565b8063313ce567116100ff578063313ce567146101f657806339509351146102145780633cfd52111461024457806340c10f191461026057806361d027b31461027c57610137565b806306fdde031461013c578063095ea7b31461015a578063166bab951461018a57806318160ddd146101a857806323b872dd146101c6575b600080fd5b610144610414565b6040516101519190611a45565b60405180910390f35b610174600480360381019061016f91906116fe565b6104a6565b6040516101819190611a2a565b60405180910390f35b6101926104c4565b60405161019f9190611c47565b60405180910390f35b6101b06105e4565b6040516101bd9190611c47565b60405180910390f35b6101e060048036038101906101db91906116af565b6105ee565b6040516101ed9190611a2a565b60405180910390f35b6101fe6106e6565b60405161020b9190611c62565b60405180910390f35b61022e600480360381019061022991906116fe565b6106ef565b60405161023b9190611a2a565b60405180910390f35b61025e6004803603810190610259919061173a565b61079b565b005b61027a600480360381019061027591906116fe565b610834565b005b61028461091d565b6040516102919190611a0f565b60405180910390f35b6102b460048036038101906102af9190611621565b610943565b6040516102c19190611c47565b60405180910390f35b6102d261098b565b005b6102dc610a13565b6040516102e991906119f4565b60405180910390f35b6102fa610a3d565b6040516103079190611c47565b60405180910390f35b610318610a43565b6040516103259190611a45565b60405180910390f35b610336610ad5565b6040516103439190611a2a565b60405180910390f35b610366600480360381019061036191906116fe565b610ae8565b6040516103739190611a2a565b60405180910390f35b610396600480360381019061039191906116fe565b610bd3565b6040516103a39190611a2a565b60405180910390f35b6103c660048036038101906103c19190611673565b610c9a565b6040516103d39190611c47565b60405180910390f35b6103f660048036038101906103f1919061164a565b610d21565b005b610412600480360381019061040d9190611621565b610e51565b005b60606003805461042390611e48565b80601f016020809104026020016040519081016040528092919081815260200182805461044f90611e48565b801561049c5780601f106104715761010080835404028352916020019161049c565b820191906000526020600020905b81548152906001019060200180831161047f57829003601f168201915b5050505050905090565b60006104ba6104b3610f49565b8484610f51565b6001905092915050565b6000600660009054906101000a900473ffffffffffffffffffffffffffffffffffffffff1673ffffffffffffffffffffffffffffffffffffffff163373ffffffffffffffffffffffffffffffffffffffff1614610556576040517f08c379a000000000000000000000000000000000000000000000000000000000815260040161054d90611b27565b60405180910390fd5b60006007549050600061058b600660009054906101000a900473ffffffffffffffffffffffffffffffffffffffff1683610bd3565b905060011515811515146105d4576040517f08c379a00000000000000000000000000000000000000000000000000000000081526004016105cb90611bc7565b60405180910390fd5b6000600781905550819250505090565b6000600254905090565b60006105fb84848461111c565b6000600160008673ffffffffffffffffffffffffffffffffffffffff1673ffffffffffffffffffffffffffffffffffffffff1681526020019081526020016000206000610646610f49565b73ffffffffffffffffffffffffffffffffffffffff1673ffffffffffffffffffffffffffffffffffffffff168152602001908152602001600020549050828110156106c6576040517f08c379a00000000000000000000000000000000000000000000000000000000081526004016106bd90611b47565b60405180910390fd5b6106da856106d2610f49565b858403610f51565b60019150509392505050565b60006012905090565b60006107916106fc610f49565b84846001600061070a610f49565b73ffffffffffffffffffffffffffffffffffffffff1673ffffffffffffffffffffffffffffffffffffffff16815260200190815260200160002060008873ffffffffffffffffffffffffffffffffffffffff1673ffffffffffffffffffffffffffffffffffffffff1681526020019081526020016000205461078c9190611c99565b610f51565b6001905092915050565b6107a3610f49565b73ffffffffffffffffffffffffffffffffffffffff166107c1610a13565b73ffffffffffffffffffffffffffffffffffffffff1614610817576040517f08c379a000000000000000000000000000000000000000000000000000000000815260040161080e90611b67565b60405180910390fd5b80600860006101000a81548160ff02191690831515021790555050565b61083c610f49565b73ffffffffffffffffffffffffffffffffffffffff1661085a610a13565b73ffffffffffffffffffffffffffffffffffffffff16146108b0576040517f08c379a00000000000000000000000000000000000000000000000000000000081526004016108a790611b67565b60405180910390fd5b6969e10de76676d0800000816108c46105e4565b6108ce9190611c99565b111561090f576040517f08c379a000000000000000000000000000000000000000000000000000000000815260040161090690611ac7565b60405180910390fd5b610919828261139d565b5050565b600660009054906101000a900473ffffffffffffffffffffffffffffffffffffffff1681565b60008060008373ffffffffffffffffffffffffffffffffffffffff1673ffffffffffffffffffffffffffffffffffffffff168152602001908152602001600020549050919050565b610993610f49565b73ffffffffffffffffffffffffffffffffffffffff166109b1610a13565b73ffffffffffffffffffffffffffffffffffffffff1614610a07576040517f08c379a00000000000000000000000000000000000000000000000000000000081526004016109fe90611b67565b60405180910390fd5b610a1160006114fd565b565b6000600560009054906101000a900473ffffffffffffffffffffffffffffffffffffffff16905090565b60075481565b606060048054610a5290611e48565b80601f0160208091040260200160405190810160405280929190818152602001828054610a7e90611e48565b8015610acb5780601f10610aa057610100808354040283529160200191610acb565b820191906000526020600020905b815481529060010190602001808311610aae57829003601f168201915b5050505050905090565b600860009054906101000a900460ff1681565b60008060016000610af7610f49565b73ffffffffffffffffffffffffffffffffffffffff1673ffffffffffffffffffffffffffffffffffffffff16815260200190815260200160002060008573ffffffffffffffffffffffffffffffffffffffff1673ffffffffffffffffffffffffffffffffffffffff16815260200190815260200160002054905082811015610bb4576040517f08c379a0000000000000000000000000000000000000000000000000000000008152600401610bab90611be7565b60405180910390fd5b610bc8610bbf610f49565b85858403610f51565b600191505092915050565b6000808211610c17576040517f08c379a0000000000000000000000000000000000000000000000000000000008152600401610c0e90611b07565b60405180910390fd5b600860009054906101000a900460ff1615610c845760006064600284610c3d9190611d20565b610c479190611cef565b905060008184610c579190611d7a565b90508160076000828254610c6b9190611c99565b92505081905550610c7d33868361111c565b5050610c90565b610c8f33848461111c565b5b6001905092915050565b6000600160008473ffffffffffffffffffffffffffffffffffffffff1673ffffffffffffffffffffffffffffffffffffffff16815260200190815260200160002060008373ffffffffffffffffffffffffffffffffffffffff1673ffffffffffffffffffffffffffffffffffffffff16815260200190815260200160002054905092915050565b610d29610f49565b73ffffffffffffffffffffffffffffffffffffffff16610d47610a13565b73ffffffffffffffffffffffffffffffffffffffff1614610d9d576040517f08c379a0000000000000000000000000000000000000000000000000000000008152600401610d9490611b67565b60405180910390fd5b600073ffffffffffffffffffffffffffffffffffffffff168173ffffffffffffffffffffffffffffffffffffffff161415610e0d576040517f08c379a0000000000000000000000000000000000000000000000000000000008152600401610e0490611c27565b60405180910390fd5b80600660006101000a81548173ffffffffffffffffffffffffffffffffffffffff021916908373ffffffffffffffffffffffffffffffffffffffff16021790555050565b610e59610f49565b73ffffffffffffffffffffffffffffffffffffffff16610e77610a13565b73ffffffffffffffffffffffffffffffffffffffff1614610ecd576040517f08c379a0000000000000000000000000000000000000000000000000000000008152600401610ec490611b67565b60405180910390fd5b600073ffffffffffffffffffffffffffffffffffffffff168173ffffffffffffffffffffffffffffffffffffffff161415610f3d576040517f08c379a0000000000000000000000000000000000000000000000000000000008152600401610f3490611a87565b60405180910390fd5b610f46816114fd565b50565b600033905090565b600073ffffffffffffffffffffffffffffffffffffffff168373ffffffffffffffffffffffffffffffffffffffff161415610fc1576040517f08c379a0000000000000000000000000000000000000000000000000000000008152600401610fb890611ba7565b60405180910390fd5b600073ffffffffffffffffffffffffffffffffffffffff168273ffffffffffffffffffffffffffffffffffffffff161415611031576040517f08c379a000000000000000000000000000000000000000000000000000000000815260040161102890611aa7565b60405180910390fd5b80600160008573ffffffffffffffffffffffffffffffffffffffff1673ffffffffffffffffffffffffffffffffffffffff16815260200190815260200160002060008473ffffffffffffffffffffffffffffffffffffffff1673ffffffffffffffffffffffffffffffffffffffff168152602001908152602001600020819055508173ffffffffffffffffffffffffffffffffffffffff168373ffffffffffffffffffffffffffffffffffffffff167f8c5be1e5ebec7d5bd14f71427d1e84f3dd0314c0f7b2291e5b200ac8c7c3b9258360405161110f9190611c47565b60405180910390a3505050565b600073ffffffffffffffffffffffffffffffffffffffff168373ffffffffffffffffffffffffffffffffffffffff16141561118c576040517f08c379a000000000000000000000000000000000000000000000000000000000815260040161118390611b87565b60405180910390fd5b600073ffffffffffffffffffffffffffffffffffffffff168273ffffffffffffffffffffffffffffffffffffffff1614156111fc576040517f08c379a00000000000000000000000000000000000000000000000000000000081526004016111f390611a67565b60405180910390fd5b6112078383836115c3565b60008060008573ffffffffffffffffffffffffffffffffffffffff1673ffffffffffffffffffffffffffffffffffffffff1681526020019081526020016000205490508181101561128d576040517f08c379a000000000000000000000000000000000000000000000000000000000815260040161128490611ae7565b60405180910390fd5b8181036000808673ffffffffffffffffffffffffffffffffffffffff1673ffffffffffffffffffffffffffffffffffffffff16815260200190815260200160002081905550816000808573ffffffffffffffffffffffffffffffffffffffff1673ffffffffffffffffffffffffffffffffffffffff16815260200190815260200160002060008282546113209190611c99565b925050819055508273ffffffffffffffffffffffffffffffffffffffff168473ffffffffffffffffffffffffffffffffffffffff167fddf252ad1be2c89b69c2b068fc378daa952ba7f163c4a11628f55a4df523b3ef846040516113849190611c47565b60405180910390a36113978484846115c8565b50505050565b600073ffffffffffffffffffffffffffffffffffffffff168273ffffffffffffffffffffffffffffffffffffffff16141561140d576040517f08c379a000000000000000000000000000000000000000000000000000000000815260040161140490611c07565b60405180910390fd5b611419600083836115c3565b806002600082825461142b9190611c99565b92505081905550806000808473ffffffffffffffffffffffffffffffffffffffff1673ffffffffffffffffffffffffffffffffffffffff16815260200190815260200160002060008282546114809190611c99565b925050819055508173ffffffffffffffffffffffffffffffffffffffff16600073ffffffffffffffffffffffffffffffffffffffff167fddf252ad1be2c89b69c2b068fc378daa952ba7f163c4a11628f55a4df523b3ef836040516114e59190611c47565b60405180910390a36114f9600083836115c8565b5050565b6000600560009054906101000a900473ffffffffffffffffffffffffffffffffffffffff16905081600560006101000a81548173ffffffffffffffffffffffffffffffffffffffff021916908373ffffffffffffffffffffffffffffffffffffffff1602179055508173ffffffffffffffffffffffffffffffffffffffff168173ffffffffffffffffffffffffffffffffffffffff167f8be0079c531659141344cd1fd0a4f28419497f9722a3daafe3b4186f6b6457e060405160405180910390a35050565b505050565b505050565b6000813590506115dc816122af565b92915050565b6000813590506115f1816122c6565b92915050565b600081359050611606816122dd565b92915050565b60008135905061161b816122f4565b92915050565b60006020828403121561163357600080fd5b6000611641848285016115cd565b91505092915050565b60006020828403121561165c57600080fd5b600061166a848285016115e2565b91505092915050565b6000806040838503121561168657600080fd5b6000611694858286016115cd565b92505060206116a5858286016115cd565b9150509250929050565b6000806000606084860312156116c457600080fd5b60006116d2868287016115cd565b93505060206116e3868287016115cd565b92505060406116f48682870161160c565b9150509250925092565b6000806040838503121561171157600080fd5b600061171f858286016115cd565b92505060206117308582860161160c565b9150509250929050565b60006020828403121561174c57600080fd5b600061175a848285016115f7565b91505092915050565b61176c81611dc0565b82525050565b61177b81611dae565b82525050565b61178a81611dd2565b82525050565b600061179b82611c7d565b6117a58185611c88565b93506117b5818560208601611e15565b6117be81611f07565b840191505092915050565b60006117d6602383611c88565b91506117e182611f18565b604082019050919050565b60006117f9602683611c88565b915061180482611f67565b604082019050919050565b600061181c602283611c88565b915061182782611fb6565b604082019050919050565b600061183f602083611c88565b915061184a82612005565b602082019050919050565b6000611862602683611c88565b915061186d8261202e565b604082019050919050565b6000611885601d83611c88565b91506118908261207d565b602082019050919050565b60006118a8601a83611c88565b91506118b3826120a6565b602082019050919050565b60006118cb602883611c88565b91506118d6826120cf565b604082019050919050565b60006118ee602083611c88565b91506118f98261211e565b602082019050919050565b6000611911602583611c88565b915061191c82612147565b604082019050919050565b6000611934602483611c88565b915061193f82612196565b604082019050919050565b6000611957600f83611c88565b9150611962826121e5565b602082019050919050565b600061197a602583611c88565b91506119858261220e565b604082019050919050565b600061199d601f83611c88565b91506119a88261225d565b602082019050919050565b60006119c0601d83611c88565b91506119cb82612286565b602082019050919050565b6119df81611dfe565b82525050565b6119ee81611e08565b82525050565b6000602082019050611a096000830184611772565b92915050565b6000602082019050611a246000830184611763565b92915050565b6000602082019050611a3f6000830184611781565b92915050565b60006020820190508181036000830152611a5f8184611790565b905092915050565b60006020820190508181036000830152611a80816117c9565b9050919050565b60006020820190508181036000830152611aa0816117ec565b9050919050565b60006020820190508181036000830152611ac08161180f565b9050919050565b60006020820190508181036000830152611ae081611832565b9050919050565b60006020820190508181036000830152611b0081611855565b9050919050565b60006020820190508181036000830152611b2081611878565b9050919050565b60006020820190508181036000830152611b408161189b565b9050919050565b60006020820190508181036000830152611b60816118be565b9050919050565b60006020820190508181036000830152611b80816118e1565b9050919050565b60006020820190508181036000830152611ba081611904565b9050919050565b60006020820190508181036000830152611bc081611927565b9050919050565b60006020820190508181036000830152611be08161194a565b9050919050565b60006020820190508181036000830152611c008161196d565b9050919050565b60006020820190508181036000830152611c2081611990565b9050919050565b60006020820190508181036000830152611c40816119b3565b9050919050565b6000602082019050611c5c60008301846119d6565b92915050565b6000602082019050611c7760008301846119e5565b92915050565b600081519050919050565b600082825260208201905092915050565b6000611ca482611dfe565b9150611caf83611dfe565b9250827fffffffffffffffffffffffffffffffffffffffffffffffffffffffffffffffff03821115611ce457611ce3611e7a565b5b828201905092915050565b6000611cfa82611dfe565b9150611d0583611dfe565b925082611d1557611d14611ea9565b5b828204905092915050565b6000611d2b82611dfe565b9150611d3683611dfe565b9250817fffffffffffffffffffffffffffffffffffffffffffffffffffffffffffffffff0483118215151615611d6f57611d6e611e7a565b5b828202905092915050565b6000611d8582611dfe565b9150611d9083611dfe565b925082821015611da357611da2611e7a565b5b828203905092915050565b6000611db982611dde565b9050919050565b6000611dcb82611dde565b9050919050565b60008115159050919050565b600073ffffffffffffffffffffffffffffffffffffffff82169050919050565b6000819050919050565b600060ff82169050919050565b60005b83811015611e33578082015181840152602081019050611e18565b83811115611e42576000848401525b50505050565b60006002820490506001821680611e6057607f821691505b60208210811415611e7457611e73611ed8565b5b50919050565b7f4e487b7100000000000000000000000000000000000000000000000000000000600052601160045260246000fd5b7f4e487b7100000000000000000000000000000000000000000000000000000000600052601260045260246000fd5b7f4e487b7100000000000000000000000000000000000000000000000000000000600052602260045260246000fd5b6000601f19601f8301169050919050565b7f45524332303a207472616e7366657220746f20746865207a65726f206164647260008201527f6573730000000000000000000000000000000000000000000000000000000000602082015250565b7f4f776e61626c653a206e6577206f776e657220697320746865207a65726f206160008201527f6464726573730000000000000000000000000000000000000000000000000000602082015250565b7f45524332303a20617070726f766520746f20746865207a65726f20616464726560008201527f7373000000000000000000000000000000000000000000000000000000000000602082015250565b7f6d696e74696e6720776f756c642073757270617373206d617820737570706c79600082015250565b7f45524332303a207472616e7366657220616d6f756e742065786365656473206260008201527f616c616e63650000000000000000000000000000000000000000000000000000602082015250565b7f616d6f756e74206d7573742062652067726561746572207468616e2030000000600082015250565b7f6d73672e73656e646572206973206e6f74207472656173757279000000000000600082015250565b7f45524332303a207472616e7366657220616d6f756e742065786365656473206160008201527f6c6c6f77616e6365000000000000000000000000000000000000000000000000602082015250565b7f4f776e61626c653a2063616c6c6572206973206e6f7420746865206f776e6572600082015250565b7f45524332303a207472616e736665722066726f6d20746865207a65726f20616460008201527f6472657373000000000000000000000000000000000000000000000000000000602082015250565b7f45524332303a20617070726f76652066726f6d20746865207a65726f2061646460008201527f7265737300000000000000000000000000000000000000000000000000000000602082015250565b7f7472616e73666572206661696c65640000000000000000000000000000000000600082015250565b7f45524332303a2064656372656173656420616c6c6f77616e63652062656c6f7760008201527f207a65726f000000000000000000000000000000000000000000000000000000602082015250565b7f45524332303a206d696e7420746f20746865207a65726f206164647265737300600082015250565b7f74726561737572792063616e6e6f742062652061646472657373283029000000600082015250565b6122b881611dae565b81146122c357600080fd5b50565b6122cf81611dc0565b81146122da57600080fd5b50565b6122e681611dd2565b81146122f157600080fd5b50565b6122fd81611dfe565b811461230857600080fd5b5056fea26469706673582212209bd8049c24dbd0c1e8e4a541ff52b7d5db0a818cdf60d4944d12984a1b511d1364736f6c63430008040033",
  "linkReferences": {},
  "deployedLinkReferences": {}
}